{
  "contractName": "Attendance",
  "abi": [
    {
      "inputs": [],
      "stateMutability": "nonpayable",
      "type": "constructor"
    },
    {
      "anonymous": false,
      "inputs": [
        {
          "indexed": false,
          "internalType": "uint256",
          "name": "classId",
          "type": "uint256"
        },
        {
          "indexed": false,
          "internalType": "address",
          "name": "student",
          "type": "address"
        }
      ],
      "name": "attendanceMarked",
      "type": "event"
    },
    {
      "anonymous": false,
      "inputs": [
        {
          "indexed": false,
          "internalType": "uint256",
          "name": "classId",
          "type": "uint256"
        },
        {
          "indexed": false,
          "internalType": "uint256",
          "name": "classDate",
          "type": "uint256"
        },
        {
          "indexed": false,
          "internalType": "uint256",
          "name": "subjectId",
          "type": "uint256"
        }
      ],
      "name": "classCreated",
      "type": "event"
    },
    {
      "anonymous": false,
      "inputs": [
        {
          "indexed": false,
          "internalType": "address",
          "name": "student",
          "type": "address"
        },
        {
          "indexed": false,
          "internalType": "string",
          "name": "name",
          "type": "string"
        }
      ],
      "name": "studentAdded",
      "type": "event"
    },
    {
      "anonymous": false,
      "inputs": [
        {
          "indexed": false,
          "internalType": "uint256",
          "name": "subjectId",
          "type": "uint256"
        },
        {
          "indexed": false,
          "internalType": "address",
          "name": "student",
          "type": "address"
        }
      ],
      "name": "studentEnrolled",
      "type": "event"
    },
    {
      "anonymous": false,
      "inputs": [
        {
          "indexed": false,
          "internalType": "uint256",
          "name": "subjectId",
          "type": "uint256"
        },
        {
          "indexed": false,
          "internalType": "string",
          "name": "subjectName",
          "type": "string"
        }
      ],
      "name": "subjectCreated",
      "type": "event"
    },
    {
      "anonymous": false,
      "inputs": [
        {
          "indexed": false,
          "internalType": "address",
          "name": "teacher",
          "type": "address"
        },
        {
          "indexed": false,
          "internalType": "string",
          "name": "name",
          "type": "string"
        }
      ],
      "name": "teacherAdded",
      "type": "event"
    },
    {
      "anonymous": false,
      "inputs": [
        {
          "indexed": false,
          "internalType": "uint256",
          "name": "subjectId",
          "type": "uint256"
        },
        {
          "indexed": false,
          "internalType": "address",
          "name": "teacher",
          "type": "address"
        }
      ],
      "name": "teacherAssigned",
      "type": "event"
    },
    {
      "inputs": [],
      "name": "admin",
      "outputs": [
        {
          "internalType": "address",
          "name": "",
          "type": "address"
        }
      ],
      "stateMutability": "view",
      "type": "function",
      "constant": true
    },
    {
      "inputs": [],
      "name": "classCounter",
      "outputs": [
        {
          "internalType": "uint256",
          "name": "",
          "type": "uint256"
        }
      ],
      "stateMutability": "view",
      "type": "function",
      "constant": true
    },
    {
      "inputs": [
        {
          "internalType": "uint256",
          "name": "",
          "type": "uint256"
        }
      ],
      "name": "classDetails",
      "outputs": [
        {
          "components": [
            {
              "internalType": "uint256",
              "name": "subjectId",
              "type": "uint256"
            },
            {
              "internalType": "string",
              "name": "subjectName",
              "type": "string"
            },
            {
              "components": [
                {
                  "internalType": "uint256",
                  "name": "teacherId",
                  "type": "uint256"
                },
                {
                  "internalType": "string",
                  "name": "name",
                  "type": "string"
                }
              ],
              "internalType": "struct Attendance.Teacher[]",
              "name": "teachingTeachers",
              "type": "tuple[]"
            },
            {
              "components": [
                {
                  "internalType": "uint256",
                  "name": "studentId",
                  "type": "uint256"
                },
                {
                  "internalType": "string",
                  "name": "name",
                  "type": "string"
                }
              ],
              "internalType": "struct Attendance.Student[]",
              "name": "enrolledStudents",
              "type": "tuple[]"
            },
            {
              "internalType": "uint256[]",
              "name": "classIds",
              "type": "uint256[]"
            }
          ],
          "internalType": "struct Attendance.Subject",
          "name": "subject",
          "type": "tuple"
        },
        {
          "internalType": "uint256",
          "name": "classId",
          "type": "uint256"
        },
        {
          "internalType": "uint256",
          "name": "classDate",
          "type": "uint256"
        },
        {
          "internalType": "string",
          "name": "classPwd",
          "type": "string"
        }
      ],
      "stateMutability": "view",
      "type": "function",
      "constant": true
    },
    {
      "inputs": [
        {
          "internalType": "address",
          "name": "",
          "type": "address"
        }
      ],
      "name": "roles",
      "outputs": [
        {
          "internalType": "string",
          "name": "",
          "type": "string"
        }
      ],
      "stateMutability": "view",
      "type": "function",
      "constant": true
    },
    {
      "inputs": [],
      "name": "studentCounter",
      "outputs": [
        {
          "internalType": "uint256",
          "name": "",
          "type": "uint256"
        }
      ],
      "stateMutability": "view",
      "type": "function",
      "constant": true
    },
    {
      "inputs": [
        {
          "internalType": "address",
          "name": "",
          "type": "address"
        }
      ],
      "name": "studentDetails",
      "outputs": [
        {
          "internalType": "uint256",
          "name": "studentId",
          "type": "uint256"
        },
        {
          "internalType": "string",
          "name": "name",
          "type": "string"
        }
      ],
      "stateMutability": "view",
      "type": "function",
      "constant": true
    },
    {
      "inputs": [
        {
          "internalType": "uint256",
          "name": "",
          "type": "uint256"
        }
      ],
      "name": "students",
      "outputs": [
        {
          "internalType": "uint256",
          "name": "studentId",
          "type": "uint256"
        },
        {
          "internalType": "string",
          "name": "name",
          "type": "string"
        }
      ],
      "stateMutability": "view",
      "type": "function",
      "constant": true
    },
    {
      "inputs": [],
      "name": "subjectCounter",
      "outputs": [
        {
          "internalType": "uint256",
          "name": "",
          "type": "uint256"
        }
      ],
      "stateMutability": "view",
      "type": "function",
      "constant": true
    },
    {
      "inputs": [
        {
          "internalType": "uint256",
          "name": "",
          "type": "uint256"
        }
      ],
      "name": "subjectDetails",
      "outputs": [
        {
          "internalType": "uint256",
          "name": "subjectId",
          "type": "uint256"
        },
        {
          "internalType": "string",
          "name": "subjectName",
          "type": "string"
        }
      ],
      "stateMutability": "view",
      "type": "function",
      "constant": true
    },
    {
      "inputs": [],
      "name": "teacherCounter",
      "outputs": [
        {
          "internalType": "uint256",
          "name": "",
          "type": "uint256"
        }
      ],
      "stateMutability": "view",
      "type": "function",
      "constant": true
    },
    {
      "inputs": [
        {
          "internalType": "address",
          "name": "",
          "type": "address"
        }
      ],
      "name": "teacherDetails",
      "outputs": [
        {
          "internalType": "uint256",
          "name": "teacherId",
          "type": "uint256"
        },
        {
          "internalType": "string",
          "name": "name",
          "type": "string"
        }
      ],
      "stateMutability": "view",
      "type": "function",
      "constant": true
    },
    {
      "inputs": [
        {
          "internalType": "uint256",
          "name": "",
          "type": "uint256"
        }
      ],
      "name": "teachers",
      "outputs": [
        {
          "internalType": "uint256",
          "name": "teacherId",
          "type": "uint256"
        },
        {
          "internalType": "string",
          "name": "name",
          "type": "string"
        }
      ],
      "stateMutability": "view",
      "type": "function",
      "constant": true
    },
    {
      "inputs": [
        {
          "internalType": "address",
          "name": "user",
          "type": "address"
        }
      ],
      "name": "getRole",
      "outputs": [
        {
          "internalType": "string",
          "name": "",
          "type": "string"
        }
      ],
      "stateMutability": "view",
      "type": "function",
      "constant": true
    },
    {
      "inputs": [
        {
          "internalType": "address",
          "name": "_student",
          "type": "address"
        },
        {
          "internalType": "string",
          "name": "_name",
          "type": "string"
        }
      ],
      "name": "addStudent",
      "outputs": [],
      "stateMutability": "nonpayable",
      "type": "function"
    },
    {
      "inputs": [
        {
          "internalType": "address",
          "name": "_teacher",
          "type": "address"
        },
        {
          "internalType": "string",
          "name": "_name",
          "type": "string"
        }
      ],
      "name": "addTeacher",
      "outputs": [],
      "stateMutability": "nonpayable",
      "type": "function"
    },
    {
      "inputs": [
        {
          "internalType": "string",
          "name": "_subjectName",
          "type": "string"
        }
      ],
      "name": "createSubject",
      "outputs": [],
      "stateMutability": "nonpayable",
      "type": "function"
    },
    {
      "inputs": [
        {
          "internalType": "uint256",
          "name": "_classDate",
          "type": "uint256"
        },
        {
          "internalType": "uint256",
          "name": "_subjectId",
          "type": "uint256"
        }
      ],
      "name": "createClass",
      "outputs": [],
      "stateMutability": "nonpayable",
      "type": "function"
    },
    {
      "inputs": [
        {
          "internalType": "uint256",
          "name": "_subjectId",
          "type": "uint256"
        },
        {
          "internalType": "address",
          "name": "_student",
          "type": "address"
        }
      ],
      "name": "enrollStudent",
      "outputs": [],
      "stateMutability": "nonpayable",
      "type": "function"
    },
    {
      "inputs": [
        {
          "internalType": "uint256",
          "name": "_subjectId",
          "type": "uint256"
        },
        {
          "internalType": "address",
          "name": "_teacher",
          "type": "address"
        }
      ],
      "name": "assignTeacher",
      "outputs": [],
      "stateMutability": "nonpayable",
      "type": "function"
    },
    {
      "inputs": [
        {
          "internalType": "uint256",
          "name": "_classId",
          "type": "uint256"
        },
        {
          "internalType": "string",
          "name": "_pwd",
          "type": "string"
        }
      ],
      "name": "markAttendance",
      "outputs": [],
      "stateMutability": "nonpayable",
      "type": "function"
    },
    {
      "inputs": [
        {
          "internalType": "uint256",
          "name": "_classId",
          "type": "uint256"
        }
      ],
      "name": "checkAttendance",
      "outputs": [
        {
          "internalType": "bool",
          "name": "",
          "type": "bool"
        }
      ],
      "stateMutability": "view",
      "type": "function",
      "constant": true
    },
    {
      "inputs": [
        {
          "internalType": "uint256",
          "name": "_classId",
          "type": "uint256"
        },
        {
          "internalType": "address",
          "name": "_student",
          "type": "address"
        }
      ],
      "name": "checkAttendance",
      "outputs": [
        {
          "internalType": "bool",
          "name": "",
          "type": "bool"
        }
      ],
      "stateMutability": "view",
      "type": "function",
      "constant": true
    },
    {
      "inputs": [
        {
          "internalType": "uint256",
          "name": "_classId",
          "type": "uint256"
        }
      ],
      "name": "generateClassPwd",
      "outputs": [],
      "stateMutability": "nonpayable",
      "type": "function"
    },
    {
      "inputs": [],
      "name": "getRandomPassword",
      "outputs": [
        {
          "internalType": "string",
          "name": "",
          "type": "string"
        }
      ],
      "stateMutability": "view",
      "type": "function",
      "constant": true
    },
    {
      "inputs": [
        {
          "internalType": "uint256",
          "name": "_subjectId",
          "type": "uint256"
        }
      ],
      "name": "getEnrolledStudents",
      "outputs": [
        {
          "components": [
            {
              "internalType": "uint256",
              "name": "studentId",
              "type": "uint256"
            },
            {
              "internalType": "string",
              "name": "name",
              "type": "string"
            }
          ],
          "internalType": "struct Attendance.Student[]",
          "name": "",
          "type": "tuple[]"
        }
      ],
      "stateMutability": "view",
      "type": "function",
      "constant": true
    },
    {
      "inputs": [
        {
          "internalType": "address",
          "name": "_student",
          "type": "address"
        }
      ],
      "name": "removeStudent",
      "outputs": [],
      "stateMutability": "nonpayable",
      "type": "function"
    },
    {
      "inputs": [
        {
          "internalType": "address",
          "name": "_teacher",
          "type": "address"
        }
      ],
      "name": "removeTeacher",
      "outputs": [],
      "stateMutability": "nonpayable",
      "type": "function"
    },
    {
      "inputs": [
        {
          "internalType": "uint256",
          "name": "_subjectId",
          "type": "uint256"
        }
      ],
      "name": "removeSubject",
      "outputs": [],
      "stateMutability": "nonpayable",
      "type": "function"
    },
    {
      "inputs": [
        {
          "internalType": "uint256",
          "name": "_classId",
          "type": "uint256"
        }
      ],
      "name": "removeClass",
      "outputs": [],
      "stateMutability": "nonpayable",
      "type": "function"
    }
  ],
  "bytecode": "0x60806040523480156200001157600080fd5b50336000806101000a81548173ffffffffffffffffffffffffffffffffffffffff021916908373ffffffffffffffffffffffffffffffffffffffff1602179055506040518060400160405280600581526020017f61646d696e000000000000000000000000000000000000000000000000000000815250600b60003373ffffffffffffffffffffffffffffffffffffffff1673ffffffffffffffffffffffffffffffffffffffff1681526020019081526020016000209080519060200190620000dc929190620000e3565b50620001f8565b828054620000f19062000193565b90600052602060002090601f01602090048101928262000115576000855562000161565b82601f106200013057805160ff191683800117855562000161565b8280016001018555821562000161579182015b828111156200016057825182559160200191906001019062000143565b5b50905062000170919062000174565b5090565b5b808211156200018f57600081600090555060010162000175565b5090565b60006002820490506001821680620001ac57607f821691505b60208210811415620001c357620001c2620001c9565b5b50919050565b7f4e487b7100000000000000000000000000000000000000000000000000000000600052602260045260246000fd5b613e9580620002086000396000f3fe608060405234801561001057600080fd5b50600436106101cf5760003560e01c806372c30f4511610104578063ae504c5c116100a2578063d1939ccf11610071578063d1939ccf14610563578063e3596cac14610581578063f851a4401461059f578063fe24ec65146105bd576101cf565b8063ae504c5c146104b5578063aed7419b146104e6578063b6ba723014610517578063c91aacc414610533576101cf565b80638f5b9b2e116100de5780638f5b9b2e14610431578063993746421461044d578063a90795cf1461047d578063aba4234914610499576101cf565b806372c30f45146103dd57806378c4798c146103f957806380d0199914610415576101cf565b8063442767331161017157806350e0b94d1161014b57806350e0b94d1461036b57806352ff6846146103875780635e8b8091146103a35780637194c5b3146103bf576101cf565b806344276733146102ec57806344d370b81461031c578063465c0e531461034d576101cf565b80632b37f7e7116101ad5780632b37f7e71461023d57806334ac0b401461026d5780633954d58b1461029e5780633d2d8663146102bc576101cf565b806306ead22e146101d45780630ddb03bb146102055780632520f9a114610221575b600080fd5b6101ee60048036038101906101e99190612ef4565b6105f0565b6040516101fc929190613967565b60405180910390f35b61021f600480360381019061021a9190612f1d565b6106ac565b005b61023b60048036038101906102369190612eb3565b61085d565b005b61025760048036038101906102529190612ef4565b6109bb565b60405161026491906137d3565b60405180910390f35b61028760048036038101906102829190612ef4565b610a25565b604051610295929190613967565b60405180910390f35b6102a6610ae1565b6040516102b39190613923565b60405180910390f35b6102d660048036038101906102d19190612f1d565b610ae7565b6040516102e391906137d3565b60405180910390f35b61030660048036038101906103019190612e36565b610bd7565b60405161031391906137ee565b60405180910390f35b61033660048036038101906103319190612e36565b610ca8565b604051610344929190613967565b60405180910390f35b610355610d54565b60405161036291906137ee565b60405180910390f35b61038560048036038101906103809190612ef4565b610f25565b005b6103a1600480360381019061039c9190612e36565b610fe6565b005b6103bd60048036038101906103b89190612e5f565b61110d565b005b6103c7611356565b6040516103d49190613923565b60405180910390f35b6103f760048036038101906103f29190612ef4565b61135c565b005b610413600480360381019061040e9190612e36565b6114ae565b005b61042f600480360381019061042a9190612ef4565b6115d5565b005b61044b60048036038101906104469190612e5f565b611700565b005b61046760048036038101906104629190612e36565b611949565b60405161047491906137ee565b60405180910390f35b61049760048036038101906104929190612f59565b6119e9565b005b6104b360048036038101906104ae9190612f1d565b611d52565b005b6104cf60048036038101906104ca9190612ef4565b611f03565b6040516104dd929190613967565b60405180910390f35b61050060048036038101906104fb9190612e36565b611faf565b60405161050e929190613967565b60405180910390f35b610531600480360381019061052c9190612fad565b61205b565b005b61054d60048036038101906105489190612ef4565b612274565b60405161055a91906137b1565b60405180910390f35b61056b612519565b6040516105789190613923565b60405180910390f35b61058961251f565b6040516105969190613923565b60405180910390f35b6105a7612525565b6040516105b49190613766565b60405180910390f35b6105d760048036038101906105d29190612ef4565b612549565b6040516105e794939291906138d0565b60405180910390f35b6001818154811061060057600080fd5b906000526020600020906002020160009150905080600001549080600101805461062990613c31565b80601f016020809104026020016040519081016040528092919081815260200182805461065590613c31565b80156106a25780601f10610677576101008083540402835291602001916106a2565b820191906000526020600020905b81548152906001019060200180831161068557829003601f168201915b5050505050905082565b6040516020016106bb90613714565b60405160208183030381529060405280519060200120600b60003373ffffffffffffffffffffffffffffffffffffffff1673ffffffffffffffffffffffffffffffffffffffff16815260200190815260200160002060405160200161072091906136fd565b6040516020818303038152906040528051906020012014610776576040517f08c379a000000000000000000000000000000000000000000000000000000000815260040161076d90613890565b60405180910390fd5b60096000838152602001908152602001600020600201600860008373ffffffffffffffffffffffffffffffffffffffff1673ffffffffffffffffffffffffffffffffffffffff168152602001908152602001600020908060018154018082558091505060019003906000526020600020906002020160009091909190915060008201548160000155600182018160010190805461081290613c31565b61081d929190612a17565b5050507f8c067146ec725333e811330fd75fb90567f7eeca601628b5943875fc4a43723e828260405161085192919061393e565b60405180910390a15050565b60405160200161086c90613714565b60405160208183030381529060405280519060200120600b60003373ffffffffffffffffffffffffffffffffffffffff1673ffffffffffffffffffffffffffffffffffffffff1681526020019081526020016000206040516020016108d191906136fd565b6040516020818303038152906040528051906020012014610927576040517f08c379a000000000000000000000000000000000000000000000000000000000815260040161091e90613890565b60405180910390fd5b6004600081548092919061093a90613c63565b91905055506000600960006004548152602001908152602001600020905060045481600001819055508181600101908051906020019061097b929190612aa4565b507feeb360ad20d46a8343b758e287ec025d44c51139825f3af2950630c14599acbd600454836040516109af929190613967565b60405180910390a15050565b6000600a600083815260200190815260200160002060080160003373ffffffffffffffffffffffffffffffffffffffff1673ffffffffffffffffffffffffffffffffffffffff16815260200190815260200160002060009054906101000a900460ff169050919050565b60028181548110610a3557600080fd5b9060005260206000209060020201600091509050806000015490806001018054610a5e90613c31565b80601f0160208091040260200160405190810160405280929190818152602001828054610a8a90613c31565b8015610ad75780601f10610aac57610100808354040283529160200191610ad7565b820191906000526020600020905b815481529060010190602001808311610aba57829003601f168201915b5050505050905082565b60035481565b600080600860003373ffffffffffffffffffffffffffffffffffffffff1673ffffffffffffffffffffffffffffffffffffffff168152602001908152602001600020600001541415610b6e576040517f08c379a0000000000000000000000000000000000000000000000000000000008152600401610b6590613870565b60405180910390fd5b600a600084815260200190815260200160002060080160008373ffffffffffffffffffffffffffffffffffffffff1673ffffffffffffffffffffffffffffffffffffffff16815260200190815260200160002060009054906101000a900460ff16905092915050565b6060600b60008373ffffffffffffffffffffffffffffffffffffffff1673ffffffffffffffffffffffffffffffffffffffff1681526020019081526020016000208054610c2390613c31565b80601f0160208091040260200160405190810160405280929190818152602001828054610c4f90613c31565b8015610c9c5780601f10610c7157610100808354040283529160200191610c9c565b820191906000526020600020905b815481529060010190602001808311610c7f57829003601f168201915b50505050509050919050565b6008602052806000526040600020600091509050806000015490806001018054610cd190613c31565b80601f0160208091040260200160405190810160405280929190818152602001828054610cfd90613c31565b8015610d4a5780601f10610d1f57610100808354040283529160200191610d4a565b820191906000526020600020905b815481529060010190602001808311610d2d57829003601f168201915b5050505050905082565b60606000604051806080016040528060428152602001613e1e6042913990506000600f905060008167ffffffffffffffff811115610dbb577f4e487b7100000000000000000000000000000000000000000000000000000000600052604160045260246000fd5b6040519080825280601f01601f191660200182016040528015610ded5781602001600182028036833780820191505090505b509050600042600143610e009190613b69565b4033604051602001610e1493929190613729565b6040516020818303038152906040528051906020012060001c905060005b83811015610f1a576000855183610e499190613ce4565b9050858181518110610e84577f4e487b7100000000000000000000000000000000000000000000000000000000600052603260045260246000fd5b602001015160f81c60f81b848381518110610ec8577f4e487b7100000000000000000000000000000000000000000000000000000000600052603260045260246000fd5b60200101907effffffffffffffffffffffffffffffffffffffffffffffffffffffffffffff1916908160001a905350855183610f049190613b38565b9250508080610f1290613c63565b915050610e32565b508194505050505090565b6000600860003373ffffffffffffffffffffffffffffffffffffffff1673ffffffffffffffffffffffffffffffffffffffff168152602001908152602001600020600001541415610fab576040517f08c379a0000000000000000000000000000000000000000000000000000000008152600401610fa290613870565b60405180910390fd5b6000610fb5610d54565b905080600a60008481526020019081526020016000206007019080519060200190610fe1929190612aa4565b505050565b604051602001610ff590613714565b60405160208183030381529060405280519060200120600b60003373ffffffffffffffffffffffffffffffffffffffff1673ffffffffffffffffffffffffffffffffffffffff16815260200190815260200160002060405160200161105a91906136fd565b60405160208183030381529060405280519060200120146110b0576040517f08c379a00000000000000000000000000000000000000000000000000000000081526004016110a790613890565b60405180910390fd5b600860008273ffffffffffffffffffffffffffffffffffffffff1673ffffffffffffffffffffffffffffffffffffffff1681526020019081526020016000206000808201600090556001820160006111089190612b2a565b505050565b60405160200161111c90613714565b60405160208183030381529060405280519060200120600b60003373ffffffffffffffffffffffffffffffffffffffff1673ffffffffffffffffffffffffffffffffffffffff16815260200190815260200160002060405160200161118191906136fd565b60405160208183030381529060405280519060200120146111d7576040517f08c379a00000000000000000000000000000000000000000000000000000000081526004016111ce90613890565b60405180910390fd5b600560008154809291906111ea90613c63565b91905055506040518060400160405280600554815260200182815250600760008473ffffffffffffffffffffffffffffffffffffffff1673ffffffffffffffffffffffffffffffffffffffff16815260200190815260200160002060008201518160000155602082015181600101908051906020019061126b929190612aa4565b509050506001604051806040016040528060055481526020018381525090806001815401808255809150506001900390600052602060002090600202016000909190919091506000820151816000015560208201518160010190805190602001906112d7929190612aa4565b505050611319826040518060400160405280600781526020017f73747564656e74000000000000000000000000000000000000000000000000008152506128f5565b7f94a56de67dd66b06691e0bd81e5b57fbf02e3ce04576def9d15b6371a0109fd2828260405161134a929190613781565b60405180910390a15050565b60065481565b60405160200161136b90613714565b60405160208183030381529060405280519060200120600b60003373ffffffffffffffffffffffffffffffffffffffff1673ffffffffffffffffffffffffffffffffffffffff1681526020019081526020016000206040516020016113d091906136fd565b6040516020818303038152906040528051906020012014611426576040517f08c379a000000000000000000000000000000000000000000000000000000000815260040161141d90613890565b60405180910390fd5b600a600082815260200190815260200160002060008082016000808201600090556001820160006114579190612b2a565b6002820160006114679190612b6a565b6003820160006114779190612b8e565b6004820160006114879190612bb2565b5050600582016000905560068201600090556007820160006114a99190612b2a565b505050565b6040516020016114bd90613714565b60405160208183030381529060405280519060200120600b60003373ffffffffffffffffffffffffffffffffffffffff1673ffffffffffffffffffffffffffffffffffffffff16815260200190815260200160002060405160200161152291906136fd565b6040516020818303038152906040528051906020012014611578576040517f08c379a000000000000000000000000000000000000000000000000000000000815260040161156f90613890565b60405180910390fd5b600760008273ffffffffffffffffffffffffffffffffffffffff1673ffffffffffffffffffffffffffffffffffffffff1681526020019081526020016000206000808201600090556001820160006115d09190612b2a565b505050565b6040516020016115e490613714565b60405160208183030381529060405280519060200120600b60003373ffffffffffffffffffffffffffffffffffffffff1673ffffffffffffffffffffffffffffffffffffffff16815260200190815260200160002060405160200161164991906136fd565b604051602081830303815290604052805190602001201461169f576040517f08c379a000000000000000000000000000000000000000000000000000000000815260040161169690613890565b60405180910390fd5b600960008281526020019081526020016000206000808201600090556001820160006116cb9190612b2a565b6002820160006116db9190612b6a565b6003820160006116eb9190612b8e565b6004820160006116fb9190612bb2565b505050565b60405160200161170f90613714565b60405160208183030381529060405280519060200120600b60003373ffffffffffffffffffffffffffffffffffffffff1673ffffffffffffffffffffffffffffffffffffffff16815260200190815260200160002060405160200161177491906136fd565b60405160208183030381529060405280519060200120146117ca576040517f08c379a00000000000000000000000000000000000000000000000000000000081526004016117c190613890565b60405180910390fd5b600660008154809291906117dd90613c63565b91905055506040518060400160405280600654815260200182815250600860008473ffffffffffffffffffffffffffffffffffffffff1673ffffffffffffffffffffffffffffffffffffffff16815260200190815260200160002060008201518160000155602082015181600101908051906020019061185e929190612aa4565b509050506002604051806040016040528060065481526020018381525090806001815401808255809150506001900390600052602060002090600202016000909190919091506000820151816000015560208201518160010190805190602001906118ca929190612aa4565b50505061190c826040518060400160405280600781526020017f74656163686572000000000000000000000000000000000000000000000000008152506128f5565b7f6996ba1536de57e4c72a268600ac97e3feae59f326494fce7dc56c6c6de959e3828260405161193d929190613781565b60405180910390a15050565b600b602052806000526040600020600091509050805461196890613c31565b80601f016020809104026020016040519081016040528092919081815260200182805461199490613c31565b80156119e15780601f106119b6576101008083540402835291602001916119e1565b820191906000526020600020905b8154815290600101906020018083116119c457829003601f168201915b505050505081565b600a6000838152602001908152602001600020600501546000805b60096000600a600086815260200190815260200160002060000160000154815260200190815260200160002060030180549050811015611b1c57600760003373ffffffffffffffffffffffffffffffffffffffff1673ffffffffffffffffffffffffffffffffffffffff1681526020019081526020016000206000015460096000600a60008781526020019081526020016000206000016000015481526020019081526020016000206003018281548110611ae8577f4e487b7100000000000000000000000000000000000000000000000000000000600052603260045260246000fd5b9060005260206000209060020201600001541415611b095760019150611b1c565b8080611b1490613c63565b915050611a04565b5080611b5d576040517f08c379a0000000000000000000000000000000000000000000000000000000008152600401611b5490613810565b60405180910390fd5b60001515600a600086815260200190815260200160002060080160003373ffffffffffffffffffffffffffffffffffffffff1673ffffffffffffffffffffffffffffffffffffffff16815260200190815260200160002060009054906101000a900460ff16151514611c04576040517f08c379a0000000000000000000000000000000000000000000000000000000008152600401611bfb90613830565b60405180910390fd5b82604051602001611c1591906136e6565b60405160208183030381529060405280519060200120600a6000868152602001908152602001600020600701604051602001611c5191906136fd565b6040516020818303038152906040528051906020012014611ca7576040517f08c379a0000000000000000000000000000000000000000000000000000000008152600401611c9e90613850565b60405180910390fd5b6001600a600086815260200190815260200160002060080160003373ffffffffffffffffffffffffffffffffffffffff1673ffffffffffffffffffffffffffffffffffffffff16815260200190815260200160002060006101000a81548160ff0219169083151502179055507f1fc08eb0c2f0125b980d5b8b9c7d0c66f56fe49ed88c804b350f31b0130cda388433604051611d4492919061393e565b60405180910390a150505050565b604051602001611d6190613714565b60405160208183030381529060405280519060200120600b60003373ffffffffffffffffffffffffffffffffffffffff1673ffffffffffffffffffffffffffffffffffffffff168152602001908152602001600020604051602001611dc691906136fd565b6040516020818303038152906040528051906020012014611e1c576040517f08c379a0000000000000000000000000000000000000000000000000000000008152600401611e1390613890565b60405180910390fd5b60096000838152602001908152602001600020600301600760008373ffffffffffffffffffffffffffffffffffffffff1673ffffffffffffffffffffffffffffffffffffffff1681526020019081526020016000209080600181540180825580915050600190039060005260206000209060020201600090919091909150600082015481600001556001820181600101908054611eb890613c31565b611ec3929190612a17565b5050507f330f6a5433c3d731bf2a234085fc8f11bd40cdbdd41b574d8570189c6ea277cb8282604051611ef792919061393e565b60405180910390a15050565b6009602052806000526040600020600091509050806000015490806001018054611f2c90613c31565b80601f0160208091040260200160405190810160405280929190818152602001828054611f5890613c31565b8015611fa55780601f10611f7a57610100808354040283529160200191611fa5565b820191906000526020600020905b815481529060010190602001808311611f8857829003601f168201915b5050505050905082565b6007602052806000526040600020600091509050806000015490806001018054611fd890613c31565b80601f016020809104026020016040519081016040528092919081815260200182805461200490613c31565b80156120515780601f1061202657610100808354040283529160200191612051565b820191906000526020600020905b81548152906001019060200180831161203457829003601f168201915b5050505050905082565b60405160200161206a90613714565b60405160208183030381529060405280519060200120600b60003373ffffffffffffffffffffffffffffffffffffffff1673ffffffffffffffffffffffffffffffffffffffff1681526020019081526020016000206040516020016120cf91906136fd565b6040516020818303038152906040528051906020012014612125576040517f08c379a000000000000000000000000000000000000000000000000000000000815260040161211c90613890565b60405180910390fd5b6003600081548092919061213890613c63565b91905055506000600a600060035481526020019081526020016000209050600960008381526020019081526020016000208160000160008201548160000155600182018160010190805461218b90613c31565b612196929190612a17565b5060028201816002019080546121ad929190612bd3565b5060038201816003019080546121c4929190612c55565b5060048201816004019080546121db929190612cd7565b5090505060035481600501819055508281600601819055506009600083815260200190815260200160002060040160035490806001815401808255809150506001900390600052602060002001600090919091909150557f5a3a80d0fae53d263cc7f8adc9b489c04a64d1f61278a26b20f7b67ebca6aa27600354848460405161226793929190613997565b60405180910390a1505050565b60606000600860003373ffffffffffffffffffffffffffffffffffffffff1673ffffffffffffffffffffffffffffffffffffffff1681526020019081526020016000206000015414156122fc576040517f08c379a00000000000000000000000000000000000000000000000000000000081526004016122f390613870565b60405180910390fd5b60006009600084815260200190815260200160002090506000805b82600201805490508110156123d957600860003373ffffffffffffffffffffffffffffffffffffffff1673ffffffffffffffffffffffffffffffffffffffff168152602001908152602001600020600001548360020182815481106123a5577f4e487b7100000000000000000000000000000000000000000000000000000000600052603260045260246000fd5b90600052602060002090600202016000015414156123c657600191506123d9565b80806123d190613c63565b915050612317565b508061241a576040517f08c379a0000000000000000000000000000000000000000000000000000000008152600401612411906138b0565b60405180910390fd5b81600301805480602002602001604051908101604052809291908181526020016000905b8282101561250c57838290600052602060002090600202016040518060400160405290816000820154815260200160018201805461247b90613c31565b80601f01602080910402602001604051908101604052809291908181526020018280546124a790613c31565b80156124f45780601f106124c9576101008083540402835291602001916124f4565b820191906000526020600020905b8154815290600101906020018083116124d757829003601f168201915b5050505050815250508152602001906001019061243e565b5050505092505050919050565b60045481565b60055481565b60008054906101000a900473ffffffffffffffffffffffffffffffffffffffff1681565b600a602052806000526040600020600091509050806000016040518060a00160405290816000820154815260200160018201805461258690613c31565b80601f01602080910402602001604051908101604052809291908181526020018280546125b290613c31565b80156125ff5780601f106125d4576101008083540402835291602001916125ff565b820191906000526020600020905b8154815290600101906020018083116125e257829003601f168201915b5050505050815260200160028201805480602002602001604051908101604052809291908181526020016000905b828210156126fb57838290600052602060002090600202016040518060400160405290816000820154815260200160018201805461266a90613c31565b80601f016020809104026020016040519081016040528092919081815260200182805461269690613c31565b80156126e35780601f106126b8576101008083540402835291602001916126e3565b820191906000526020600020905b8154815290600101906020018083116126c657829003601f168201915b5050505050815250508152602001906001019061262d565b50505050815260200160038201805480602002602001604051908101604052809291908181526020016000905b828210156127f657838290600052602060002090600202016040518060400160405290816000820154815260200160018201805461276590613c31565b80601f016020809104026020016040519081016040528092919081815260200182805461279190613c31565b80156127de5780601f106127b3576101008083540402835291602001916127de565b820191906000526020600020905b8154815290600101906020018083116127c157829003601f168201915b50505050508152505081526020019060010190612728565b5050505081526020016004820180548060200260200160405190810160405280929190818152602001828054801561284d57602002820191906000526020600020905b815481526020019060010190808311612839575b5050505050815250509080600501549080600601549080600701805461287290613c31565b80601f016020809104026020016040519081016040528092919081815260200182805461289e90613c31565b80156128eb5780601f106128c0576101008083540402835291602001916128eb565b820191906000526020600020905b8154815290600101906020018083116128ce57829003601f168201915b5050505050905084565b60405160200161290490613714565b60405160208183030381529060405280519060200120600b60003373ffffffffffffffffffffffffffffffffffffffff1673ffffffffffffffffffffffffffffffffffffffff16815260200190815260200160002060405160200161296991906136fd565b60405160208183030381529060405280519060200120146129bf576040517f08c379a00000000000000000000000000000000000000000000000000000000081526004016129b690613890565b60405180910390fd5b80600b60008473ffffffffffffffffffffffffffffffffffffffff1673ffffffffffffffffffffffffffffffffffffffff1681526020019081526020016000209080519060200190612a12929190612aa4565b505050565b828054612a2390613c31565b90600052602060002090601f016020900481019282612a455760008555612a93565b82601f10612a565780548555612a93565b82800160010185558215612a9357600052602060002091601f016020900482015b82811115612a92578254825591600101919060010190612a77565b5b509050612aa09190612d29565b5090565b828054612ab090613c31565b90600052602060002090601f016020900481019282612ad25760008555612b19565b82601f10612aeb57805160ff1916838001178555612b19565b82800160010185558215612b19579182015b82811115612b18578251825591602001919060010190612afd565b5b509050612b269190612d29565b5090565b508054612b3690613c31565b6000825580601f10612b485750612b67565b601f016020900490600052602060002090810190612b669190612d29565b5b50565b5080546000825560020290600052602060002090810190612b8b9190612d46565b50565b5080546000825560020290600052602060002090810190612baf9190612d75565b50565b5080546000825590600052602060002090810190612bd09190612d29565b50565b828054828255906000526020600020906002028101928215612c445760005260206000209160020282015b82811115612c43578282600082015481600001556001820181600101908054612c2690613c31565b612c31929190612a17565b50505091600201919060020190612bfe565b5b509050612c519190612d46565b5090565b828054828255906000526020600020906002028101928215612cc65760005260206000209160020282015b82811115612cc5578282600082015481600001556001820181600101908054612ca890613c31565b612cb3929190612a17565b50505091600201919060020190612c80565b5b509050612cd39190612d75565b5090565b828054828255906000526020600020908101928215612d185760005260206000209182015b82811115612d17578254825591600101919060010190612cfc565b5b509050612d259190612d29565b5090565b5b80821115612d42576000816000905550600101612d2a565b5090565b5b80821115612d7157600080820160009055600182016000612d689190612b2a565b50600201612d47565b5090565b5b80821115612da057600080820160009055600182016000612d979190612b2a565b50600201612d76565b5090565b6000612db7612db2846139ff565b6139ce565b905082815260208101848484011115612dcf57600080fd5b612dda848285613bef565b509392505050565b600081359050612df181613def565b92915050565b600082601f830112612e0857600080fd5b8135612e18848260208601612da4565b91505092915050565b600081359050612e3081613e06565b92915050565b600060208284031215612e4857600080fd5b6000612e5684828501612de2565b91505092915050565b60008060408385031215612e7257600080fd5b6000612e8085828601612de2565b925050602083013567ffffffffffffffff811115612e9d57600080fd5b612ea985828601612df7565b9150509250929050565b600060208284031215612ec557600080fd5b600082013567ffffffffffffffff811115612edf57600080fd5b612eeb84828501612df7565b91505092915050565b600060208284031215612f0657600080fd5b6000612f1484828501612e21565b91505092915050565b60008060408385031215612f3057600080fd5b6000612f3e85828601612e21565b9250506020612f4f85828601612de2565b9150509250929050565b60008060408385031215612f6c57600080fd5b6000612f7a85828601612e21565b925050602083013567ffffffffffffffff811115612f9757600080fd5b612fa385828601612df7565b9150509250929050565b60008060408385031215612fc057600080fd5b6000612fce85828601612e21565b9250506020612fdf85828601612e21565b9150509250929050565b6000612ff583836135ac565b905092915050565b60006130098383613674565b905092915050565b600061301d83836136b1565b60208301905092915050565b61303281613b9d565b82525050565b61304961304482613b9d565b613cac565b82525050565b600061305a82613a74565b6130648185613ac7565b93508360208202850161307685613a2f565b8060005b858110156130b257848403895281516130938582612fe9565b945061309e83613aa0565b925060208a0199505060018101905061307a565b50829750879550505050505092915050565b60006130cf82613a74565b6130d98185613ad8565b9350836020820285016130eb85613a2f565b8060005b8581101561312757848403895281516131088582612fe9565b945061311383613aa0565b925060208a019950506001810190506130ef565b50829750879550505050505092915050565b600061314482613a7f565b61314e8185613ae9565b93508360208202850161316085613a3f565b8060005b8581101561319c578484038952815161317d8582612ffd565b945061318883613aad565b925060208a01995050600181019050613164565b50829750879550505050505092915050565b60006131b982613a8a565b6131c38185613afa565b93506131ce83613a4f565b8060005b838110156131ff5781516131e68882613011565b97506131f183613aba565b9250506001810190506131d2565b5085935050505092915050565b61321581613baf565b82525050565b61322c61322782613bbb565b613cbe565b82525050565b600061323d82613a95565b6132478185613b0b565b9350613257818560208601613bfe565b61326081613dd1565b840191505092915050565b600061327682613a95565b6132808185613b1c565b9350613290818560208601613bfe565b61329981613dd1565b840191505092915050565b60006132af82613a95565b6132b98185613b2d565b93506132c9818560208601613bfe565b80840191505092915050565b600081546132e281613c31565b6132ec8186613b2d565b9450600182166000811461330757600181146133185761334b565b60ff1983168652818601935061334b565b61332185613a5f565b60005b8381101561334357815481890152600182019150602081019050613324565b838801955050505b50505092915050565b6000613361602d83613b1c565b91507f4f6e6c7920656e726f6c6c65642073747564656e74732063616e2063616c6c2060008301527f746869732066756e6374696f6e000000000000000000000000000000000000006020830152604082019050919050565b60006133c7601983613b1c565b91507f417474656e64616e636520616c7265616479206d61726b6564000000000000006000830152602082019050919050565b6000613407601083613b1c565b91507f496e76616c69642070617373776f7264000000000000000000000000000000006000830152602082019050919050565b6000613447602483613b1c565b91507f4f6e6c792074656163686572732063616e2063616c6c20746869732066756e6360008301527f74696f6e000000000000000000000000000000000000000000000000000000006020830152604082019050919050565b60006134ad602183613b1c565b91507f4f6e6c792061646d696e2063616e2063616c6c20746869732066756e6374696f60008301527f6e000000000000000000000000000000000000000000000000000000000000006020830152604082019050919050565b6000613513600583613b2d565b91507f61646d696e0000000000000000000000000000000000000000000000000000006000830152600582019050919050565b6000613553602483613b1c565b91507f596f7520617265206e6f742061737369676e656420746f20746869732073756260008301527f6a656374000000000000000000000000000000000000000000000000000000006020830152604082019050919050565b60006040830160008301516135c460008601826136b1565b50602083015184820360208601526135dc8282613232565b9150508091505092915050565b600060a08301600083015161360160008601826136b1565b50602083015184820360208601526136198282613232565b915050604083015184820360408601526136338282613139565b9150506060830151848203606086015261364d828261304f565b9150506080830151848203608086015261366782826131ae565b9150508091505092915050565b600060408301600083015161368c60008601826136b1565b50602083015184820360208601526136a48282613232565b9150508091505092915050565b6136ba81613be5565b82525050565b6136c981613be5565b82525050565b6136e06136db82613be5565b613cda565b82525050565b60006136f282846132a4565b915081905092915050565b600061370982846132d5565b915081905092915050565b600061371f82613506565b9150819050919050565b600061373582866136cf565b602082019150613745828561321b565b6020820191506137558284613038565b601482019150819050949350505050565b600060208201905061377b6000830184613029565b92915050565b60006040820190506137966000830185613029565b81810360208301526137a8818461326b565b90509392505050565b600060208201905081810360008301526137cb81846130c4565b905092915050565b60006020820190506137e8600083018461320c565b92915050565b60006020820190508181036000830152613808818461326b565b905092915050565b6000602082019050818103600083015261382981613354565b9050919050565b60006020820190508181036000830152613849816133ba565b9050919050565b60006020820190508181036000830152613869816133fa565b9050919050565b600060208201905081810360008301526138898161343a565b9050919050565b600060208201905081810360008301526138a9816134a0565b9050919050565b600060208201905081810360008301526138c981613546565b9050919050565b600060808201905081810360008301526138ea81876135e9565b90506138f960208301866136c0565b61390660408301856136c0565b8181036060830152613918818461326b565b905095945050505050565b600060208201905061393860008301846136c0565b92915050565b600060408201905061395360008301856136c0565b6139606020830184613029565b9392505050565b600060408201905061397c60008301856136c0565b818103602083015261398e818461326b565b90509392505050565b60006060820190506139ac60008301866136c0565b6139b960208301856136c0565b6139c660408301846136c0565b949350505050565b6000604051905081810181811067ffffffffffffffff821117156139f5576139f4613da2565b5b8060405250919050565b600067ffffffffffffffff821115613a1a57613a19613da2565b5b601f19601f8301169050602081019050919050565b6000819050602082019050919050565b6000819050602082019050919050565b6000819050602082019050919050565b60008190508160005260206000209050919050565b600081519050919050565b600081519050919050565b600081519050919050565b600081519050919050565b6000602082019050919050565b6000602082019050919050565b6000602082019050919050565b600082825260208201905092915050565b600082825260208201905092915050565b600082825260208201905092915050565b600082825260208201905092915050565b600082825260208201905092915050565b600082825260208201905092915050565b600081905092915050565b6000613b4382613be5565b9150613b4e83613be5565b925082613b5e57613b5d613d44565b5b828204905092915050565b6000613b7482613be5565b9150613b7f83613be5565b925082821015613b9257613b91613d15565b5b828203905092915050565b6000613ba882613bc5565b9050919050565b60008115159050919050565b6000819050919050565b600073ffffffffffffffffffffffffffffffffffffffff82169050919050565b6000819050919050565b82818337600083830152505050565b60005b83811015613c1c578082015181840152602081019050613c01565b83811115613c2b576000848401525b50505050565b60006002820490506001821680613c4957607f821691505b60208210811415613c5d57613c5c613d73565b5b50919050565b6000613c6e82613be5565b91507fffffffffffffffffffffffffffffffffffffffffffffffffffffffffffffffff821415613ca157613ca0613d15565b5b600182019050919050565b6000613cb782613cc8565b9050919050565b6000819050919050565b6000613cd382613de2565b9050919050565b6000819050919050565b6000613cef82613be5565b9150613cfa83613be5565b925082613d0a57613d09613d44565b5b828206905092915050565b7f4e487b7100000000000000000000000000000000000000000000000000000000600052601160045260246000fd5b7f4e487b7100000000000000000000000000000000000000000000000000000000600052601260045260246000fd5b7f4e487b7100000000000000000000000000000000000000000000000000000000600052602260045260246000fd5b7f4e487b7100000000000000000000000000000000000000000000000000000000600052604160045260246000fd5b6000601f19601f8301169050919050565b60008160601b9050919050565b613df881613b9d565b8114613e0357600080fd5b50565b613e0f81613be5565b8114613e1a57600080fd5b5056fe6162636465666768696a6b6c6d6e6f707172737475767778797a4142434445464748494a4b4c4d4e4f505152535455565758595a30313233343536373839402f2123a2646970667358221220680cda0d61cca8d66213d6d731bc4ea8349ee57c4fc0ca36a4a06cdaf539557064736f6c63430008000033",
  "immutableReferences": {},
  "source": "//SPDX-License-Identifier: MIT\r\n\r\npragma solidity ^0.8.0;\r\n\r\ncontract Attendance {\r\n\r\n    address public admin;\r\n    Student[] public students;\r\n    Teacher[] public teachers;\r\n    uint256 public classCounter;\r\n    uint256 public subjectCounter;\r\n    uint256 public studentCounter;\r\n    uint256 public teacherCounter;\r\n\r\n    struct Student {\r\n        uint256 studentId;\r\n        string name;\r\n    }\r\n\r\n    struct Teacher {\r\n        uint256 teacherId;\r\n        string name;\r\n    }\r\n\r\n    struct Subject {\r\n        uint256 subjectId;\r\n        string subjectName;\r\n        Teacher[] teachingTeachers;\r\n        Student[] enrolledStudents;\r\n        uint256[] classIds;\r\n    }\r\n\r\n    struct Class {\r\n        Subject subject;\r\n        uint256 classId;\r\n        uint256 classDate;\r\n        string classPwd;\r\n        mapping(address => bool) attendance;\r\n    }\r\n\r\n    event studentAdded(address student, string name);\r\n    event teacherAdded(address teacher, string name);\r\n    event subjectCreated(uint256 subjectId, string subjectName);\r\n    event classCreated(uint256 classId, uint256 classDate, uint256 subjectId);\r\n    event studentEnrolled(uint256 subjectId, address student);\r\n    event teacherAssigned(uint256 subjectId, address teacher);\r\n    event attendanceMarked(uint256 classId, address student);\r\n\r\n\r\n    mapping(address => Student) public studentDetails;\r\n    mapping(address => Teacher) public teacherDetails;\r\n    mapping(uint256 => Subject) public subjectDetails;\r\n    mapping(uint256 => Class) public classDetails;\r\n\r\n    mapping(address => string) public roles;\r\n\r\n    constructor() {\r\n        admin = msg.sender;\r\n        roles[msg.sender] = \"admin\"; // Contract deployer is the admin\r\n    }\r\n\r\n    modifier onlyAdmin() {\r\n        require(keccak256(abi.encodePacked(roles[msg.sender])) == keccak256(abi.encodePacked(\"admin\")), \"Only admin can call this function\");\r\n        _;\r\n    }\r\n\r\n    modifier onlyTeacher() {\r\n        require(teacherDetails[msg.sender].teacherId != 0, \"Only teachers can call this function\");\r\n        _;\r\n    }\r\n\r\n    modifier onlyStudent() {\r\n        require(studentDetails[msg.sender].studentId != 0, \"Only students can call this function\");\r\n        _;\r\n    }\r\n\r\n    modifier onlyEnrolledStudent(uint256 classId) {\r\n        bool isEnrolled = false;\r\n        for (uint256 i = 0; i < subjectDetails[classDetails[classId].subject.subjectId].enrolledStudents.length; i++) {\r\n            if (subjectDetails[classDetails[classId].subject.subjectId].enrolledStudents[i].studentId == studentDetails[msg.sender].studentId) {\r\n                isEnrolled = true;\r\n                break;\r\n            }\r\n        }\r\n        require(isEnrolled, \"Only enrolled students can call this function\");\r\n        _;\r\n    }\r\n\r\n    function assignRole(address user, string memory role) internal onlyAdmin {\r\n        roles[user] = role;\r\n    }\r\n\r\n    function getRole(address user) public view returns (string memory) {\r\n        return roles[user];\r\n    }\r\n\r\n    function addStudent(address _student, string memory _name) public onlyAdmin {\r\n        studentCounter++;\r\n        studentDetails[_student] = Student(studentCounter, _name);\r\n        students.push(Student(studentCounter, _name));\r\n        assignRole(_student, \"student\");\r\n\r\n        emit studentAdded(_student, _name);\r\n    }   \r\n\r\n    function addTeacher(address _teacher, string memory _name) public onlyAdmin {\r\n        teacherCounter++;\r\n        teacherDetails[_teacher] = Teacher(teacherCounter,_name);\r\n        teachers.push(Teacher(teacherCounter, _name));\r\n        assignRole(_teacher, \"teacher\");\r\n\r\n        emit teacherAdded(_teacher, _name);\r\n    }\r\n\r\n    function createSubject(string memory _subjectName) public onlyAdmin {\r\n        subjectCounter++;\r\n        Subject storage newSubject = subjectDetails[subjectCounter];\r\n        newSubject.subjectId=subjectCounter;\r\n        newSubject.subjectName = _subjectName;\r\n\r\n        emit subjectCreated(subjectCounter, _subjectName);\r\n    }\r\n\r\n    function createClass(uint256 _classDate, uint256 _subjectId) public onlyAdmin {\r\n        classCounter++;\r\n        \r\n        Class storage newClass = classDetails[classCounter];\r\n        newClass.subject = subjectDetails[_subjectId];\r\n        newClass.classId = classCounter;\r\n        newClass.classDate = _classDate;\r\n        subjectDetails[_subjectId].classIds.push(classCounter);\r\n\r\n        emit classCreated(classCounter, _classDate, _subjectId);\r\n    }\r\n\r\n    function enrollStudent(uint256 _subjectId, address _student) public onlyAdmin {\r\n        subjectDetails[_subjectId].enrolledStudents.push(studentDetails[_student]);\r\n\r\n        emit studentEnrolled(_subjectId, _student);\r\n    }\r\n\r\n    function assignTeacher(uint256 _subjectId, address _teacher) public onlyAdmin {\r\n        subjectDetails[_subjectId].teachingTeachers.push(teacherDetails[_teacher]);\r\n\r\n        emit teacherAssigned(_subjectId, _teacher);\r\n    }\r\n\r\n    function markAttendance(uint256 _classId, string memory _pwd) public onlyEnrolledStudent(classDetails[_classId].classId) {\r\n        require(classDetails[_classId].attendance[msg.sender] == false, \"Attendance already marked\");\r\n        require(keccak256(abi.encodePacked(classDetails[_classId].classPwd)) == keccak256(abi.encodePacked(_pwd)), \"Invalid password\");\r\n        classDetails[_classId].attendance[msg.sender] = true;\r\n\r\n        emit attendanceMarked(_classId, msg.sender);\r\n    }\r\n\r\n    function checkAttendance(uint256 _classId) public view returns (bool) {\r\n        return classDetails[_classId].attendance[msg.sender];\r\n    }\r\n\r\n    function checkAttendance(uint256 _classId, address _student) public view onlyTeacher returns (bool) {\r\n        return classDetails[_classId].attendance[_student];\r\n    }\r\n\r\n    function generateClassPwd(uint256 _classId) public onlyTeacher {\r\n        string memory classPwd = getRandomPassword();\r\n        classDetails[_classId].classPwd = classPwd;\r\n    }\r\n\r\n    function getRandomPassword() public view returns (string memory) {\r\n        bytes memory characters = \"abcdefghijklmnopqrstuvwxyzABCDEFGHIJKLMNOPQRSTUVWXYZ0123456789@/!#\";\r\n        uint256 length = 15;\r\n        bytes memory password = new bytes(length);\r\n        uint256 seed = uint256(keccak256(abi.encodePacked(block.timestamp, blockhash(block.number - 1), msg.sender)));\r\n\r\n        for (uint256 i = 0; i < length; i++) {\r\n            uint256 randomIndex = seed % characters.length;\r\n            password[i] = characters[randomIndex];\r\n            seed = seed / characters.length;\r\n        }\r\n        return string(password);\r\n    }\r\n\r\n    function getEnrolledStudents(uint256 _subjectId) public view onlyTeacher returns (Student[] memory) {\r\n        Subject storage subject = subjectDetails[_subjectId];\r\n\r\n        // Check if the teacher is assigned to the subject\r\n        bool isAssigned = false;\r\n        for (uint256 i = 0; i < subject.teachingTeachers.length; i++) {\r\n            if (subject.teachingTeachers[i].teacherId == teacherDetails[msg.sender].teacherId) {\r\n                isAssigned = true;\r\n                break;\r\n            }\r\n        }\r\n\r\n        require(isAssigned, \"You are not assigned to this subject\");\r\n\r\n        return subject.enrolledStudents;\r\n    }\r\n\r\n    function removeStudent(address _student) public onlyAdmin {\r\n        delete studentDetails[_student];\r\n    }\r\n\r\n    function removeTeacher(address _teacher) public onlyAdmin {\r\n        delete teacherDetails[_teacher];\r\n    }\r\n\r\n    function removeSubject(uint256 _subjectId) public onlyAdmin {\r\n        delete subjectDetails[_subjectId];\r\n    }\r\n\r\n    function removeClass(uint256 _classId) public onlyAdmin {\r\n        delete classDetails[_classId];\r\n    }\r\n}",
  "sourcePath": "C:\\Users\\User\\Desktop\\dev\\Blockchain\\contracts\\Attendance.sol",
  "compiler": {
    "name": "solc",
    "version": "0.8.0+commit.c7dfd78e.Emscripten.clang"
  },
  "schemaVersion": "3.4.16",
  "updatedAt": "2025-01-19T16:12:54.413Z",
  "networkType": "ethereum",
  "devdoc": {
    "kind": "dev",
    "methods": {},
    "version": 1
  },
  "userdoc": {
    "kind": "user",
    "methods": {},
    "version": 1
  }
}