{
  "contractName": "Attendance",
  "abi": [
    {
      "inputs": [],
      "stateMutability": "nonpayable",
      "type": "constructor"
    },
    {
      "anonymous": false,
      "inputs": [
        {
          "indexed": false,
          "internalType": "uint256",
          "name": "classId",
          "type": "uint256"
        },
        {
          "indexed": false,
          "internalType": "address",
          "name": "student",
          "type": "address"
        }
      ],
      "name": "attendanceMarked",
      "type": "event"
    },
    {
      "anonymous": false,
      "inputs": [
        {
          "indexed": false,
          "internalType": "uint256",
          "name": "classId",
          "type": "uint256"
        },
        {
          "indexed": false,
          "internalType": "uint256",
          "name": "classDate",
          "type": "uint256"
        },
        {
          "indexed": false,
          "internalType": "uint256",
          "name": "subjectId",
          "type": "uint256"
        }
      ],
      "name": "classCreated",
      "type": "event"
    },
    {
      "anonymous": false,
      "inputs": [
        {
          "indexed": false,
          "internalType": "address",
          "name": "student",
          "type": "address"
        },
        {
          "indexed": false,
          "internalType": "string",
          "name": "name",
          "type": "string"
        }
      ],
      "name": "studentAdded",
      "type": "event"
    },
    {
      "anonymous": false,
      "inputs": [
        {
          "indexed": false,
          "internalType": "uint256",
          "name": "subjectId",
          "type": "uint256"
        },
        {
          "indexed": false,
          "internalType": "address",
          "name": "student",
          "type": "address"
        }
      ],
      "name": "studentEnrolled",
      "type": "event"
    },
    {
      "anonymous": false,
      "inputs": [
        {
          "indexed": false,
          "internalType": "uint256",
          "name": "subjectId",
          "type": "uint256"
        },
        {
          "indexed": false,
          "internalType": "string",
          "name": "subjectName",
          "type": "string"
        }
      ],
      "name": "subjectCreated",
      "type": "event"
    },
    {
      "anonymous": false,
      "inputs": [
        {
          "indexed": false,
          "internalType": "address",
          "name": "teacher",
          "type": "address"
        },
        {
          "indexed": false,
          "internalType": "string",
          "name": "name",
          "type": "string"
        }
      ],
      "name": "teacherAdded",
      "type": "event"
    },
    {
      "anonymous": false,
      "inputs": [
        {
          "indexed": false,
          "internalType": "uint256",
          "name": "subjectId",
          "type": "uint256"
        },
        {
          "indexed": false,
          "internalType": "address",
          "name": "teacher",
          "type": "address"
        }
      ],
      "name": "teacherAssigned",
      "type": "event"
    },
    {
      "inputs": [],
      "name": "admin",
      "outputs": [
        {
          "internalType": "address",
          "name": "",
          "type": "address"
        }
      ],
      "stateMutability": "view",
      "type": "function",
      "constant": true
    },
    {
      "inputs": [],
      "name": "classCounter",
      "outputs": [
        {
          "internalType": "uint256",
          "name": "",
          "type": "uint256"
        }
      ],
      "stateMutability": "view",
      "type": "function",
      "constant": true
    },
    {
      "inputs": [
        {
          "internalType": "uint256",
          "name": "",
          "type": "uint256"
        }
      ],
      "name": "classDetails",
      "outputs": [
        {
          "components": [
            {
              "internalType": "uint256",
              "name": "subjectId",
              "type": "uint256"
            },
            {
              "internalType": "string",
              "name": "subjectName",
              "type": "string"
            },
            {
              "components": [
                {
                  "internalType": "uint256",
                  "name": "teacherId",
                  "type": "uint256"
                },
                {
                  "internalType": "string",
                  "name": "name",
                  "type": "string"
                }
              ],
              "internalType": "struct Attendance.Teacher[]",
              "name": "teachingTeachers",
              "type": "tuple[]"
            },
            {
              "components": [
                {
                  "internalType": "uint256",
                  "name": "studentId",
                  "type": "uint256"
                },
                {
                  "internalType": "string",
                  "name": "name",
                  "type": "string"
                }
              ],
              "internalType": "struct Attendance.Student[]",
              "name": "enrolledStudents",
              "type": "tuple[]"
            },
            {
              "internalType": "uint256[]",
              "name": "classIds",
              "type": "uint256[]"
            }
          ],
          "internalType": "struct Attendance.Subject",
          "name": "subject",
          "type": "tuple"
        },
        {
          "internalType": "uint256",
          "name": "classId",
          "type": "uint256"
        },
        {
          "internalType": "uint256",
          "name": "classDate",
          "type": "uint256"
        },
        {
          "internalType": "uint256",
          "name": "classPwd",
          "type": "uint256"
        }
      ],
      "stateMutability": "view",
      "type": "function",
      "constant": true
    },
    {
      "inputs": [
        {
          "internalType": "address",
          "name": "",
          "type": "address"
        }
      ],
      "name": "roles",
      "outputs": [
        {
          "internalType": "string",
          "name": "",
          "type": "string"
        }
      ],
      "stateMutability": "view",
      "type": "function",
      "constant": true
    },
    {
      "inputs": [],
      "name": "studentCounter",
      "outputs": [
        {
          "internalType": "uint256",
          "name": "",
          "type": "uint256"
        }
      ],
      "stateMutability": "view",
      "type": "function",
      "constant": true
    },
    {
      "inputs": [
        {
          "internalType": "address",
          "name": "",
          "type": "address"
        }
      ],
      "name": "studentDetails",
      "outputs": [
        {
          "internalType": "uint256",
          "name": "studentId",
          "type": "uint256"
        },
        {
          "internalType": "string",
          "name": "name",
          "type": "string"
        }
      ],
      "stateMutability": "view",
      "type": "function",
      "constant": true
    },
    {
      "inputs": [
        {
          "internalType": "uint256",
          "name": "",
          "type": "uint256"
        }
      ],
      "name": "students",
      "outputs": [
        {
          "internalType": "uint256",
          "name": "studentId",
          "type": "uint256"
        },
        {
          "internalType": "string",
          "name": "name",
          "type": "string"
        }
      ],
      "stateMutability": "view",
      "type": "function",
      "constant": true
    },
    {
      "inputs": [],
      "name": "subjectCounter",
      "outputs": [
        {
          "internalType": "uint256",
          "name": "",
          "type": "uint256"
        }
      ],
      "stateMutability": "view",
      "type": "function",
      "constant": true
    },
    {
      "inputs": [
        {
          "internalType": "uint256",
          "name": "",
          "type": "uint256"
        }
      ],
      "name": "subjectDetails",
      "outputs": [
        {
          "internalType": "uint256",
          "name": "subjectId",
          "type": "uint256"
        },
        {
          "internalType": "string",
          "name": "subjectName",
          "type": "string"
        }
      ],
      "stateMutability": "view",
      "type": "function",
      "constant": true
    },
    {
      "inputs": [],
      "name": "teacherCounter",
      "outputs": [
        {
          "internalType": "uint256",
          "name": "",
          "type": "uint256"
        }
      ],
      "stateMutability": "view",
      "type": "function",
      "constant": true
    },
    {
      "inputs": [
        {
          "internalType": "address",
          "name": "",
          "type": "address"
        }
      ],
      "name": "teacherDetails",
      "outputs": [
        {
          "internalType": "uint256",
          "name": "teacherId",
          "type": "uint256"
        },
        {
          "internalType": "string",
          "name": "name",
          "type": "string"
        }
      ],
      "stateMutability": "view",
      "type": "function",
      "constant": true
    },
    {
      "inputs": [
        {
          "internalType": "uint256",
          "name": "",
          "type": "uint256"
        }
      ],
      "name": "teachers",
      "outputs": [
        {
          "internalType": "uint256",
          "name": "teacherId",
          "type": "uint256"
        },
        {
          "internalType": "string",
          "name": "name",
          "type": "string"
        }
      ],
      "stateMutability": "view",
      "type": "function",
      "constant": true
    },
    {
      "inputs": [
        {
          "internalType": "address",
          "name": "user",
          "type": "address"
        },
        {
          "internalType": "string",
          "name": "role",
          "type": "string"
        }
      ],
      "name": "assignRole",
      "outputs": [],
      "stateMutability": "nonpayable",
      "type": "function"
    },
    {
      "inputs": [
        {
          "internalType": "address",
          "name": "user",
          "type": "address"
        }
      ],
      "name": "getRole",
      "outputs": [
        {
          "internalType": "string",
          "name": "",
          "type": "string"
        }
      ],
      "stateMutability": "view",
      "type": "function",
      "constant": true
    },
    {
      "inputs": [
        {
          "internalType": "address",
          "name": "_student",
          "type": "address"
        },
        {
          "internalType": "string",
          "name": "_name",
          "type": "string"
        }
      ],
      "name": "addStudent",
      "outputs": [],
      "stateMutability": "nonpayable",
      "type": "function"
    },
    {
      "inputs": [
        {
          "internalType": "address",
          "name": "_teacher",
          "type": "address"
        },
        {
          "internalType": "string",
          "name": "_name",
          "type": "string"
        }
      ],
      "name": "addTeacher",
      "outputs": [],
      "stateMutability": "nonpayable",
      "type": "function"
    },
    {
      "inputs": [
        {
          "internalType": "string",
          "name": "_subjectName",
          "type": "string"
        }
      ],
      "name": "createSubject",
      "outputs": [],
      "stateMutability": "nonpayable",
      "type": "function"
    },
    {
      "inputs": [
        {
          "internalType": "uint256",
          "name": "_classDate",
          "type": "uint256"
        },
        {
          "internalType": "uint256",
          "name": "_subjectId",
          "type": "uint256"
        }
      ],
      "name": "createClass",
      "outputs": [],
      "stateMutability": "nonpayable",
      "type": "function"
    },
    {
      "inputs": [
        {
          "internalType": "uint256",
          "name": "_subjectId",
          "type": "uint256"
        },
        {
          "internalType": "address",
          "name": "_student",
          "type": "address"
        }
      ],
      "name": "enrollStudent",
      "outputs": [],
      "stateMutability": "nonpayable",
      "type": "function"
    },
    {
      "inputs": [
        {
          "internalType": "uint256",
          "name": "_subjectId",
          "type": "uint256"
        },
        {
          "internalType": "address",
          "name": "_teacher",
          "type": "address"
        }
      ],
      "name": "assignTeacher",
      "outputs": [],
      "stateMutability": "nonpayable",
      "type": "function"
    },
    {
      "inputs": [
        {
          "internalType": "uint256",
          "name": "_classId",
          "type": "uint256"
        },
        {
          "internalType": "uint256",
          "name": "_pwd",
          "type": "uint256"
        }
      ],
      "name": "markAttendance",
      "outputs": [],
      "stateMutability": "nonpayable",
      "type": "function"
    },
    {
      "inputs": [
        {
          "internalType": "uint256",
          "name": "_classId",
          "type": "uint256"
        }
      ],
      "name": "checkAttendance",
      "outputs": [
        {
          "internalType": "bool",
          "name": "",
          "type": "bool"
        }
      ],
      "stateMutability": "view",
      "type": "function",
      "constant": true
    },
    {
      "inputs": [
        {
          "internalType": "uint256",
          "name": "_classId",
          "type": "uint256"
        },
        {
          "internalType": "address",
          "name": "_student",
          "type": "address"
        }
      ],
      "name": "checkAttendance",
      "outputs": [
        {
          "internalType": "bool",
          "name": "",
          "type": "bool"
        }
      ],
      "stateMutability": "view",
      "type": "function",
      "constant": true
    },
    {
      "inputs": [
        {
          "internalType": "address",
          "name": "_student",
          "type": "address"
        }
      ],
      "name": "removeStudent",
      "outputs": [],
      "stateMutability": "nonpayable",
      "type": "function"
    },
    {
      "inputs": [
        {
          "internalType": "address",
          "name": "_teacher",
          "type": "address"
        }
      ],
      "name": "removeTeacher",
      "outputs": [],
      "stateMutability": "nonpayable",
      "type": "function"
    },
    {
      "inputs": [
        {
          "internalType": "uint256",
          "name": "_subjectId",
          "type": "uint256"
        }
      ],
      "name": "removeSubject",
      "outputs": [],
      "stateMutability": "nonpayable",
      "type": "function"
    },
    {
      "inputs": [
        {
          "internalType": "uint256",
          "name": "_classId",
          "type": "uint256"
        }
      ],
      "name": "removeClass",
      "outputs": [],
      "stateMutability": "nonpayable",
      "type": "function"
    }
  ],
  "bytecode": "0x60806040523480156200001157600080fd5b50336000806101000a81548173ffffffffffffffffffffffffffffffffffffffff021916908373ffffffffffffffffffffffffffffffffffffffff1602179055506040518060400160405280600581526020017f61646d696e000000000000000000000000000000000000000000000000000000815250600b60003373ffffffffffffffffffffffffffffffffffffffff1673ffffffffffffffffffffffffffffffffffffffff1681526020019081526020016000209080519060200190620000dc929190620000e3565b50620001f8565b828054620000f19062000193565b90600052602060002090601f01602090048101928262000115576000855562000161565b82601f106200013057805160ff191683800117855562000161565b8280016001018555821562000161579182015b828111156200016057825182559160200191906001019062000143565b5b50905062000170919062000174565b5090565b5b808211156200018f57600081600090555060010162000175565b5090565b60006002820490506001821680620001ac57607f821691505b60208210811415620001c357620001c2620001c9565b5b50919050565b7f4e487b7100000000000000000000000000000000000000000000000000000000600052602260045260246000fd5b6133e880620002086000396000f3fe608060405234801561001057600080fd5b50600436106101a95760003560e01c806378c4798c116100f9578063aed7419b11610097578063d1939ccf11610071578063d1939ccf146104ef578063e3596cac1461050d578063f851a4401461052b578063fe24ec6514610549576101a9565b8063aed7419b14610486578063b6ba7230146104b7578063b7dfcbee146104d3576101a9565b806399374642116100d357806399374642146103ed578063aba423491461041d578063ac80b4d214610439578063ae504c5c14610455576101a9565b806378c4798c1461039957806380d01999146103b55780638f5b9b2e146103d1576101a9565b80633d2d86631161016657806352ff68461161014057806352ff6846146103275780635e8b8091146103435780637194c5b31461035f57806372c30f451461037d576101a9565b80633d2d86631461029657806344276733146102c657806344d370b8146102f6576101a9565b806306ead22e146101ae5780630ddb03bb146101df5780632520f9a1146101fb5780632b37f7e71461021757806334ac0b40146102475780633954d58b14610278575b600080fd5b6101c860048036038101906101c391906127f0565b61057c565b6040516101d6929190613021565b60405180910390f35b6101f960048036038101906101f49190612819565b610638565b005b610215600480360381019061021091906127af565b6107e9565b005b610231600480360381019061022c91906127f0565b610947565b60405161023e9190612eb4565b60405180910390f35b610261600480360381019061025c91906127f0565b6109b1565b60405161026f929190613021565b60405180910390f35b610280610a6d565b60405161028d9190612fdd565b60405180910390f35b6102b060048036038101906102ab9190612819565b610a73565b6040516102bd9190612eb4565b60405180910390f35b6102e060048036038101906102db9190612732565b610b63565b6040516102ed9190612ecf565b60405180910390f35b610310600480360381019061030b9190612732565b610c34565b60405161031e929190613021565b60405180910390f35b610341600480360381019061033c9190612732565b610ce0565b005b61035d6004803603810190610358919061275b565b610e07565b005b610367611011565b6040516103749190612fdd565b60405180910390f35b610397600480360381019061039291906127f0565b611017565b005b6103b360048036038101906103ae9190612732565b611161565b005b6103cf60048036038101906103ca91906127f0565b611288565b005b6103eb60048036038101906103e6919061275b565b6113b3565b005b61040760048036038101906104029190612732565b6115bd565b6040516104149190612ecf565b60405180910390f35b61043760048036038101906104329190612819565b61165d565b005b610453600480360381019061044e9190612855565b61180e565b005b61046f600480360381019061046a91906127f0565b611b2c565b60405161047d929190613021565b60405180910390f35b6104a0600480360381019061049b9190612732565b611bd8565b6040516104ae929190613021565b60405180910390f35b6104d160048036038101906104cc9190612855565b611c84565b005b6104ed60048036038101906104e8919061275b565b611e9d565b005b6104f7611fbf565b6040516105049190612fdd565b60405180910390f35b610515611fc5565b6040516105229190612fdd565b60405180910390f35b610533611fcb565b6040516105409190612e69565b60405180910390f35b610563600480360381019061055e91906127f0565b611fef565b6040516105739493929190612f91565b60405180910390f35b6001818154811061058c57600080fd5b90600052602060002090600202016000915090508060000154908060010180546105b59061326b565b80601f01602080910402602001604051908101604052809291908181526020018280546105e19061326b565b801561062e5780601f106106035761010080835404028352916020019161062e565b820191906000526020600020905b81548152906001019060200180831161061157829003601f168201915b5050505050905082565b60405160200161064790612e54565b60405160208183030381529060405280519060200120600b60003373ffffffffffffffffffffffffffffffffffffffff1673ffffffffffffffffffffffffffffffffffffffff1681526020019081526020016000206040516020016106ac9190612e3d565b6040516020818303038152906040528051906020012014610702576040517f08c379a00000000000000000000000000000000000000000000000000000000081526004016106f990612f71565b60405180910390fd5b60096000838152602001908152602001600020600201600860008373ffffffffffffffffffffffffffffffffffffffff1673ffffffffffffffffffffffffffffffffffffffff168152602001908152602001600020908060018154018082558091505060019003906000526020600020906002020160009091909190915060008201548160000155600182018160010190805461079e9061326b565b6107a9929190612313565b5050507f8c067146ec725333e811330fd75fb90567f7eeca601628b5943875fc4a43723e82826040516107dd929190612ff8565b60405180910390a15050565b6040516020016107f890612e54565b60405160208183030381529060405280519060200120600b60003373ffffffffffffffffffffffffffffffffffffffff1673ffffffffffffffffffffffffffffffffffffffff16815260200190815260200160002060405160200161085d9190612e3d565b60405160208183030381529060405280519060200120146108b3576040517f08c379a00000000000000000000000000000000000000000000000000000000081526004016108aa90612f71565b60405180910390fd5b600460008154809291906108c69061329d565b9190505550600060096000600454815260200190815260200160002090506004548160000181905550818160010190805190602001906109079291906123a0565b507feeb360ad20d46a8343b758e287ec025d44c51139825f3af2950630c14599acbd6004548360405161093b929190613021565b60405180910390a15050565b6000600a600083815260200190815260200160002060080160003373ffffffffffffffffffffffffffffffffffffffff1673ffffffffffffffffffffffffffffffffffffffff16815260200190815260200160002060009054906101000a900460ff169050919050565b600281815481106109c157600080fd5b90600052602060002090600202016000915090508060000154908060010180546109ea9061326b565b80601f0160208091040260200160405190810160405280929190818152602001828054610a169061326b565b8015610a635780601f10610a3857610100808354040283529160200191610a63565b820191906000526020600020905b815481529060010190602001808311610a4657829003601f168201915b5050505050905082565b60035481565b600080600860003373ffffffffffffffffffffffffffffffffffffffff1673ffffffffffffffffffffffffffffffffffffffff168152602001908152602001600020600001541415610afa576040517f08c379a0000000000000000000000000000000000000000000000000000000008152600401610af190612f51565b60405180910390fd5b600a600084815260200190815260200160002060080160008373ffffffffffffffffffffffffffffffffffffffff1673ffffffffffffffffffffffffffffffffffffffff16815260200190815260200160002060009054906101000a900460ff16905092915050565b6060600b60008373ffffffffffffffffffffffffffffffffffffffff1673ffffffffffffffffffffffffffffffffffffffff1681526020019081526020016000208054610baf9061326b565b80601f0160208091040260200160405190810160405280929190818152602001828054610bdb9061326b565b8015610c285780601f10610bfd57610100808354040283529160200191610c28565b820191906000526020600020905b815481529060010190602001808311610c0b57829003601f168201915b50505050509050919050565b6008602052806000526040600020600091509050806000015490806001018054610c5d9061326b565b80601f0160208091040260200160405190810160405280929190818152602001828054610c899061326b565b8015610cd65780601f10610cab57610100808354040283529160200191610cd6565b820191906000526020600020905b815481529060010190602001808311610cb957829003601f168201915b5050505050905082565b604051602001610cef90612e54565b60405160208183030381529060405280519060200120600b60003373ffffffffffffffffffffffffffffffffffffffff1673ffffffffffffffffffffffffffffffffffffffff168152602001908152602001600020604051602001610d549190612e3d565b6040516020818303038152906040528051906020012014610daa576040517f08c379a0000000000000000000000000000000000000000000000000000000008152600401610da190612f71565b60405180910390fd5b600860008273ffffffffffffffffffffffffffffffffffffffff1673ffffffffffffffffffffffffffffffffffffffff168152602001908152602001600020600080820160009055600182016000610e029190612426565b505050565b604051602001610e1690612e54565b60405160208183030381529060405280519060200120600b60003373ffffffffffffffffffffffffffffffffffffffff1673ffffffffffffffffffffffffffffffffffffffff168152602001908152602001600020604051602001610e7b9190612e3d565b6040516020818303038152906040528051906020012014610ed1576040517f08c379a0000000000000000000000000000000000000000000000000000000008152600401610ec890612f71565b60405180910390fd5b60056000815480929190610ee49061329d565b91905055506040518060400160405280600554815260200182815250600760008473ffffffffffffffffffffffffffffffffffffffff1673ffffffffffffffffffffffffffffffffffffffff168152602001908152602001600020600082015181600001556020820151816001019080519060200190610f659291906123a0565b50905050600160405180604001604052806005548152602001838152509080600181540180825580915050600190039060005260206000209060020201600090919091909150600082015181600001556020820151816001019080519060200190610fd19291906123a0565b5050507f94a56de67dd66b06691e0bd81e5b57fbf02e3ce04576def9d15b6371a0109fd28282604051611005929190612e84565b60405180910390a15050565b60065481565b60405160200161102690612e54565b60405160208183030381529060405280519060200120600b60003373ffffffffffffffffffffffffffffffffffffffff1673ffffffffffffffffffffffffffffffffffffffff16815260200190815260200160002060405160200161108b9190612e3d565b60405160208183030381529060405280519060200120146110e1576040517f08c379a00000000000000000000000000000000000000000000000000000000081526004016110d890612f71565b60405180910390fd5b600a600082815260200190815260200160002060008082016000808201600090556001820160006111129190612426565b6002820160006111229190612466565b600382016000611132919061248a565b60048201600061114291906124ae565b5050600582016000905560068201600090556007820160009055505050565b60405160200161117090612e54565b60405160208183030381529060405280519060200120600b60003373ffffffffffffffffffffffffffffffffffffffff1673ffffffffffffffffffffffffffffffffffffffff1681526020019081526020016000206040516020016111d59190612e3d565b604051602081830303815290604052805190602001201461122b576040517f08c379a000000000000000000000000000000000000000000000000000000000815260040161122290612f71565b60405180910390fd5b600760008273ffffffffffffffffffffffffffffffffffffffff1673ffffffffffffffffffffffffffffffffffffffff1681526020019081526020016000206000808201600090556001820160006112839190612426565b505050565b60405160200161129790612e54565b60405160208183030381529060405280519060200120600b60003373ffffffffffffffffffffffffffffffffffffffff1673ffffffffffffffffffffffffffffffffffffffff1681526020019081526020016000206040516020016112fc9190612e3d565b6040516020818303038152906040528051906020012014611352576040517f08c379a000000000000000000000000000000000000000000000000000000000815260040161134990612f71565b60405180910390fd5b6009600082815260200190815260200160002060008082016000905560018201600061137e9190612426565b60028201600061138e9190612466565b60038201600061139e919061248a565b6004820160006113ae91906124ae565b505050565b6040516020016113c290612e54565b60405160208183030381529060405280519060200120600b60003373ffffffffffffffffffffffffffffffffffffffff1673ffffffffffffffffffffffffffffffffffffffff1681526020019081526020016000206040516020016114279190612e3d565b604051602081830303815290604052805190602001201461147d576040517f08c379a000000000000000000000000000000000000000000000000000000000815260040161147490612f71565b60405180910390fd5b600660008154809291906114909061329d565b91905055506040518060400160405280600654815260200182815250600860008473ffffffffffffffffffffffffffffffffffffffff1673ffffffffffffffffffffffffffffffffffffffff1681526020019081526020016000206000820151816000015560208201518160010190805190602001906115119291906123a0565b5090505060026040518060400160405280600654815260200183815250908060018154018082558091505060019003906000526020600020906002020160009091909190915060008201518160000155602082015181600101908051906020019061157d9291906123a0565b5050507f6996ba1536de57e4c72a268600ac97e3feae59f326494fce7dc56c6c6de959e382826040516115b1929190612e84565b60405180910390a15050565b600b60205280600052604060002060009150905080546115dc9061326b565b80601f01602080910402602001604051908101604052809291908181526020018280546116089061326b565b80156116555780601f1061162a57610100808354040283529160200191611655565b820191906000526020600020905b81548152906001019060200180831161163857829003601f168201915b505050505081565b60405160200161166c90612e54565b60405160208183030381529060405280519060200120600b60003373ffffffffffffffffffffffffffffffffffffffff1673ffffffffffffffffffffffffffffffffffffffff1681526020019081526020016000206040516020016116d19190612e3d565b6040516020818303038152906040528051906020012014611727576040517f08c379a000000000000000000000000000000000000000000000000000000000815260040161171e90612f71565b60405180910390fd5b60096000838152602001908152602001600020600301600760008373ffffffffffffffffffffffffffffffffffffffff1673ffffffffffffffffffffffffffffffffffffffff16815260200190815260200160002090806001815401808255809150506001900390600052602060002090600202016000909190919091506000820154816000015560018201816001019080546117c39061326b565b6117ce929190612313565b5050507f330f6a5433c3d731bf2a234085fc8f11bd40cdbdd41b574d8570189c6ea277cb8282604051611802929190612ff8565b60405180910390a15050565b600a6000838152602001908152602001600020600501546000805b60096000600a60008681526020019081526020016000206000016000015481526020019081526020016000206003018054905081101561194157600760003373ffffffffffffffffffffffffffffffffffffffff1673ffffffffffffffffffffffffffffffffffffffff1681526020019081526020016000206000015460096000600a6000878152602001908152602001600020600001600001548152602001908152602001600020600301828154811061190d577f4e487b7100000000000000000000000000000000000000000000000000000000600052603260045260246000fd5b906000526020600020906002020160000154141561192e5760019150611941565b80806119399061329d565b915050611829565b5080611982576040517f08c379a000000000000000000000000000000000000000000000000000000000815260040161197990612ef1565b60405180910390fd5b60001515600a600086815260200190815260200160002060080160003373ffffffffffffffffffffffffffffffffffffffff1673ffffffffffffffffffffffffffffffffffffffff16815260200190815260200160002060009054906101000a900460ff16151514611a29576040517f08c379a0000000000000000000000000000000000000000000000000000000008152600401611a2090612f11565b60405180910390fd5b82600a60008681526020019081526020016000206007015414611a81576040517f08c379a0000000000000000000000000000000000000000000000000000000008152600401611a7890612f31565b60405180910390fd5b6001600a600086815260200190815260200160002060080160003373ffffffffffffffffffffffffffffffffffffffff1673ffffffffffffffffffffffffffffffffffffffff16815260200190815260200160002060006101000a81548160ff0219169083151502179055507f1fc08eb0c2f0125b980d5b8b9c7d0c66f56fe49ed88c804b350f31b0130cda388433604051611b1e929190612ff8565b60405180910390a150505050565b6009602052806000526040600020600091509050806000015490806001018054611b559061326b565b80601f0160208091040260200160405190810160405280929190818152602001828054611b819061326b565b8015611bce5780601f10611ba357610100808354040283529160200191611bce565b820191906000526020600020905b815481529060010190602001808311611bb157829003601f168201915b5050505050905082565b6007602052806000526040600020600091509050806000015490806001018054611c019061326b565b80601f0160208091040260200160405190810160405280929190818152602001828054611c2d9061326b565b8015611c7a5780601f10611c4f57610100808354040283529160200191611c7a565b820191906000526020600020905b815481529060010190602001808311611c5d57829003601f168201915b5050505050905082565b604051602001611c9390612e54565b60405160208183030381529060405280519060200120600b60003373ffffffffffffffffffffffffffffffffffffffff1673ffffffffffffffffffffffffffffffffffffffff168152602001908152602001600020604051602001611cf89190612e3d565b6040516020818303038152906040528051906020012014611d4e576040517f08c379a0000000000000000000000000000000000000000000000000000000008152600401611d4590612f71565b60405180910390fd5b60036000815480929190611d619061329d565b91905055506000600a6000600354815260200190815260200160002090506009600083815260200190815260200160002081600001600082015481600001556001820181600101908054611db49061326b565b611dbf929190612313565b506002820181600201908054611dd69291906124cf565b506003820181600301908054611ded929190612551565b506004820181600401908054611e049291906125d3565b5090505060035481600501819055508281600601819055506009600083815260200190815260200160002060040160035490806001815401808255809150506001900390600052602060002001600090919091909150557f5a3a80d0fae53d263cc7f8adc9b489c04a64d1f61278a26b20f7b67ebca6aa276003548484604051611e9093929190613051565b60405180910390a1505050565b604051602001611eac90612e54565b60405160208183030381529060405280519060200120600b60003373ffffffffffffffffffffffffffffffffffffffff1673ffffffffffffffffffffffffffffffffffffffff168152602001908152602001600020604051602001611f119190612e3d565b6040516020818303038152906040528051906020012014611f67576040517f08c379a0000000000000000000000000000000000000000000000000000000008152600401611f5e90612f71565b60405180910390fd5b80600b60008473ffffffffffffffffffffffffffffffffffffffff1673ffffffffffffffffffffffffffffffffffffffff1681526020019081526020016000209080519060200190611fba9291906123a0565b505050565b60045481565b60055481565b60008054906101000a900473ffffffffffffffffffffffffffffffffffffffff1681565b600a602052806000526040600020600091509050806000016040518060a00160405290816000820154815260200160018201805461202c9061326b565b80601f01602080910402602001604051908101604052809291908181526020018280546120589061326b565b80156120a55780601f1061207a576101008083540402835291602001916120a5565b820191906000526020600020905b81548152906001019060200180831161208857829003601f168201915b5050505050815260200160028201805480602002602001604051908101604052809291908181526020016000905b828210156121a15783829060005260206000209060020201604051806040016040529081600082015481526020016001820180546121109061326b565b80601f016020809104026020016040519081016040528092919081815260200182805461213c9061326b565b80156121895780601f1061215e57610100808354040283529160200191612189565b820191906000526020600020905b81548152906001019060200180831161216c57829003601f168201915b505050505081525050815260200190600101906120d3565b50505050815260200160038201805480602002602001604051908101604052809291908181526020016000905b8282101561229c57838290600052602060002090600202016040518060400160405290816000820154815260200160018201805461220b9061326b565b80601f01602080910402602001604051908101604052809291908181526020018280546122379061326b565b80156122845780601f1061225957610100808354040283529160200191612284565b820191906000526020600020905b81548152906001019060200180831161226757829003601f168201915b505050505081525050815260200190600101906121ce565b505050508152602001600482018054806020026020016040519081016040528092919081815260200182805480156122f357602002820191906000526020600020905b8154815260200190600101908083116122df575b505050505081525050908060050154908060060154908060070154905084565b82805461231f9061326b565b90600052602060002090601f016020900481019282612341576000855561238f565b82601f10612352578054855561238f565b8280016001018555821561238f57600052602060002091601f016020900482015b8281111561238e578254825591600101919060010190612373565b5b50905061239c9190612625565b5090565b8280546123ac9061326b565b90600052602060002090601f0160209004810192826123ce5760008555612415565b82601f106123e757805160ff1916838001178555612415565b82800160010185558215612415579182015b828111156124145782518255916020019190600101906123f9565b5b5090506124229190612625565b5090565b5080546124329061326b565b6000825580601f106124445750612463565b601f0160209004906000526020600020908101906124629190612625565b5b50565b50805460008255600202906000526020600020908101906124879190612642565b50565b50805460008255600202906000526020600020908101906124ab9190612671565b50565b50805460008255906000526020600020908101906124cc9190612625565b50565b8280548282559060005260206000209060020281019282156125405760005260206000209160020282015b8281111561253f5782826000820154816000015560018201816001019080546125229061326b565b61252d929190612313565b505050916002019190600201906124fa565b5b50905061254d9190612642565b5090565b8280548282559060005260206000209060020281019282156125c25760005260206000209160020282015b828111156125c15782826000820154816000015560018201816001019080546125a49061326b565b6125af929190612313565b5050509160020191906002019061257c565b5b5090506125cf9190612671565b5090565b8280548282559060005260206000209081019282156126145760005260206000209182015b828111156126135782548255916001019190600101906125f8565b5b5090506126219190612625565b5090565b5b8082111561263e576000816000905550600101612626565b5090565b5b8082111561266d576000808201600090556001820160006126649190612426565b50600201612643565b5090565b5b8082111561269c576000808201600090556001820160006126939190612426565b50600201612672565b5090565b60006126b36126ae846130b9565b613088565b9050828152602081018484840111156126cb57600080fd5b6126d6848285613229565b509392505050565b6000813590506126ed81613384565b92915050565b600082601f83011261270457600080fd5b81356127148482602086016126a0565b91505092915050565b60008135905061272c8161339b565b92915050565b60006020828403121561274457600080fd5b6000612752848285016126de565b91505092915050565b6000806040838503121561276e57600080fd5b600061277c858286016126de565b925050602083013567ffffffffffffffff81111561279957600080fd5b6127a5858286016126f3565b9150509250929050565b6000602082840312156127c157600080fd5b600082013567ffffffffffffffff8111156127db57600080fd5b6127e7848285016126f3565b91505092915050565b60006020828403121561280257600080fd5b60006128108482850161271d565b91505092915050565b6000806040838503121561282c57600080fd5b600061283a8582860161271d565b925050602061284b858286016126de565b9150509250929050565b6000806040838503121561286857600080fd5b60006128768582860161271d565b92505060206128878582860161271d565b9150509250929050565b600061289d8383612d1a565b905092915050565b60006128b18383612de2565b905092915050565b60006128c58383612e1f565b60208301905092915050565b6128da816131e1565b82525050565b60006128eb8261312e565b6128f58185613181565b935083602082028501612907856130e9565b8060005b8581101561294357848403895281516129248582612891565b945061292f8361315a565b925060208a0199505060018101905061290b565b50829750879550505050505092915050565b600061296082613139565b61296a8185613192565b93508360208202850161297c856130f9565b8060005b858110156129b8578484038952815161299985826128a5565b94506129a483613167565b925060208a01995050600181019050612980565b50829750879550505050505092915050565b60006129d582613144565b6129df81856131a3565b93506129ea83613109565b8060005b83811015612a1b578151612a0288826128b9565b9750612a0d83613174565b9250506001810190506129ee565b5085935050505092915050565b612a31816131f3565b82525050565b6000612a428261314f565b612a4c81856131b4565b9350612a5c818560208601613238565b612a6581613373565b840191505092915050565b6000612a7b8261314f565b612a8581856131c5565b9350612a95818560208601613238565b612a9e81613373565b840191505092915050565b60008154612ab68161326b565b612ac081866131d6565b94506001821660008114612adb5760018114612aec57612b1f565b60ff19831686528186019350612b1f565b612af585613119565b60005b83811015612b1757815481890152600182019150602081019050612af8565b838801955050505b50505092915050565b6000612b35602d836131c5565b91507f4f6e6c7920656e726f6c6c65642073747564656e74732063616e2063616c6c2060008301527f746869732066756e6374696f6e000000000000000000000000000000000000006020830152604082019050919050565b6000612b9b6019836131c5565b91507f417474656e64616e636520616c7265616479206d61726b6564000000000000006000830152602082019050919050565b6000612bdb6010836131c5565b91507f496e76616c69642070617373776f7264000000000000000000000000000000006000830152602082019050919050565b6000612c1b6024836131c5565b91507f4f6e6c792074656163686572732063616e2063616c6c20746869732066756e6360008301527f74696f6e000000000000000000000000000000000000000000000000000000006020830152604082019050919050565b6000612c816021836131c5565b91507f4f6e6c792061646d696e2063616e2063616c6c20746869732066756e6374696f60008301527f6e000000000000000000000000000000000000000000000000000000000000006020830152604082019050919050565b6000612ce76005836131d6565b91507f61646d696e0000000000000000000000000000000000000000000000000000006000830152600582019050919050565b6000604083016000830151612d326000860182612e1f565b5060208301518482036020860152612d4a8282612a37565b9150508091505092915050565b600060a083016000830151612d6f6000860182612e1f565b5060208301518482036020860152612d878282612a37565b91505060408301518482036040860152612da18282612955565b91505060608301518482036060860152612dbb82826128e0565b91505060808301518482036080860152612dd582826129ca565b9150508091505092915050565b6000604083016000830151612dfa6000860182612e1f565b5060208301518482036020860152612e128282612a37565b9150508091505092915050565b612e288161321f565b82525050565b612e378161321f565b82525050565b6000612e498284612aa9565b915081905092915050565b6000612e5f82612cda565b9150819050919050565b6000602082019050612e7e60008301846128d1565b92915050565b6000604082019050612e9960008301856128d1565b8181036020830152612eab8184612a70565b90509392505050565b6000602082019050612ec96000830184612a28565b92915050565b60006020820190508181036000830152612ee98184612a70565b905092915050565b60006020820190508181036000830152612f0a81612b28565b9050919050565b60006020820190508181036000830152612f2a81612b8e565b9050919050565b60006020820190508181036000830152612f4a81612bce565b9050919050565b60006020820190508181036000830152612f6a81612c0e565b9050919050565b60006020820190508181036000830152612f8a81612c74565b9050919050565b60006080820190508181036000830152612fab8187612d57565b9050612fba6020830186612e2e565b612fc76040830185612e2e565b612fd46060830184612e2e565b95945050505050565b6000602082019050612ff26000830184612e2e565b92915050565b600060408201905061300d6000830185612e2e565b61301a60208301846128d1565b9392505050565b60006040820190506130366000830185612e2e565b81810360208301526130488184612a70565b90509392505050565b60006060820190506130666000830186612e2e565b6130736020830185612e2e565b6130806040830184612e2e565b949350505050565b6000604051905081810181811067ffffffffffffffff821117156130af576130ae613344565b5b8060405250919050565b600067ffffffffffffffff8211156130d4576130d3613344565b5b601f19601f8301169050602081019050919050565b6000819050602082019050919050565b6000819050602082019050919050565b6000819050602082019050919050565b60008190508160005260206000209050919050565b600081519050919050565b600081519050919050565b600081519050919050565b600081519050919050565b6000602082019050919050565b6000602082019050919050565b6000602082019050919050565b600082825260208201905092915050565b600082825260208201905092915050565b600082825260208201905092915050565b600082825260208201905092915050565b600082825260208201905092915050565b600081905092915050565b60006131ec826131ff565b9050919050565b60008115159050919050565b600073ffffffffffffffffffffffffffffffffffffffff82169050919050565b6000819050919050565b82818337600083830152505050565b60005b8381101561325657808201518184015260208101905061323b565b83811115613265576000848401525b50505050565b6000600282049050600182168061328357607f821691505b6020821081141561329757613296613315565b5b50919050565b60006132a88261321f565b91507fffffffffffffffffffffffffffffffffffffffffffffffffffffffffffffffff8214156132db576132da6132e6565b5b600182019050919050565b7f4e487b7100000000000000000000000000000000000000000000000000000000600052601160045260246000fd5b7f4e487b7100000000000000000000000000000000000000000000000000000000600052602260045260246000fd5b7f4e487b7100000000000000000000000000000000000000000000000000000000600052604160045260246000fd5b6000601f19601f8301169050919050565b61338d816131e1565b811461339857600080fd5b50565b6133a48161321f565b81146133af57600080fd5b5056fea26469706673582212208768d9b3085083bc2db2cecd07688ab263b0f3fba540f719d7501b96e7c5802964736f6c63430008000033",
  "immutableReferences": {},
  "source": "//SPDX-License-Identifier: MIT\r\n\r\npragma solidity ^0.8.0;\r\n\r\ncontract Attendance {\r\n\r\n    address public admin;\r\n    Student[] public students;\r\n    Teacher[] public teachers;\r\n    uint256 public classCounter;\r\n    uint256 public subjectCounter;\r\n    uint256 public studentCounter;\r\n    uint256 public teacherCounter;\r\n\r\n    struct Student {\r\n        uint256 studentId;\r\n        string name;\r\n    }\r\n\r\n    struct Teacher {\r\n        uint256 teacherId;\r\n        string name;\r\n    }\r\n\r\n    struct Subject {\r\n        uint256 subjectId;\r\n        string subjectName;\r\n        Teacher[] teachingTeachers;\r\n        Student[] enrolledStudents;\r\n        uint256[] classIds;\r\n    }\r\n\r\n    struct Class {\r\n        Subject subject;\r\n        uint256 classId;\r\n        uint256 classDate;\r\n        uint256 classPwd;\r\n        mapping(address => bool) attendance;\r\n    }\r\n\r\n    event studentAdded(address student, string name);\r\n    event teacherAdded(address teacher, string name);\r\n    event subjectCreated(uint256 subjectId, string subjectName);\r\n    event classCreated(uint256 classId, uint256 classDate, uint256 subjectId);\r\n    event studentEnrolled(uint256 subjectId, address student);\r\n    event teacherAssigned(uint256 subjectId, address teacher);\r\n    event attendanceMarked(uint256 classId, address student);\r\n\r\n\r\n    mapping(address => Student) public studentDetails;\r\n    mapping(address => Teacher) public teacherDetails;\r\n    mapping(uint256 => Subject) public subjectDetails;\r\n    mapping(uint256 => Class) public classDetails;\r\n\r\n    mapping(address => string) public roles;\r\n\r\n    constructor() {\r\n        admin = msg.sender;\r\n        roles[msg.sender] = \"admin\"; // Contract deployer is the admin\r\n    }\r\n\r\n    modifier onlyAdmin() {\r\n        require(keccak256(abi.encodePacked(roles[msg.sender])) == keccak256(abi.encodePacked(\"admin\")), \"Only admin can call this function\");\r\n        _;\r\n    }\r\n\r\n    modifier onlyTeacher() {\r\n        require(teacherDetails[msg.sender].teacherId != 0, \"Only teachers can call this function\");\r\n        _;\r\n    }\r\n\r\n    modifier onlyStudent() {\r\n        require(studentDetails[msg.sender].studentId != 0, \"Only students can call this function\");\r\n        _;\r\n    }\r\n\r\n    modifier onlyEnrolledStudent(uint256 classId) {\r\n        bool isEnrolled = false;\r\n        for (uint256 i = 0; i < subjectDetails[classDetails[classId].subject.subjectId].enrolledStudents.length; i++) {\r\n            if (subjectDetails[classDetails[classId].subject.subjectId].enrolledStudents[i].studentId == studentDetails[msg.sender].studentId) {\r\n                isEnrolled = true;\r\n                break;\r\n            }\r\n        }\r\n        require(isEnrolled, \"Only enrolled students can call this function\");\r\n        _;\r\n    }\r\n\r\n    function assignRole(address user, string memory role) public onlyAdmin {\r\n        roles[user] = role;\r\n    }\r\n\r\n    function getRole(address user) public view returns (string memory) {\r\n        return roles[user];\r\n    }\r\n\r\n    function addStudent(address _student, string memory _name) public onlyAdmin {\r\n        studentCounter++;\r\n        studentDetails[_student] = Student(studentCounter, _name);\r\n        students.push(Student(studentCounter, _name));\r\n\r\n        emit studentAdded(_student, _name);\r\n    }   \r\n\r\n    function addTeacher(address _teacher, string memory _name) public onlyAdmin {\r\n        teacherCounter++;\r\n        teacherDetails[_teacher] = Teacher(teacherCounter,_name);\r\n        teachers.push(Teacher(teacherCounter, _name));\r\n\r\n        emit teacherAdded(_teacher, _name);\r\n    }\r\n\r\n    function createSubject(string memory _subjectName) public onlyAdmin {\r\n        subjectCounter++;\r\n        Subject storage newSubject = subjectDetails[subjectCounter];\r\n        newSubject.subjectId=subjectCounter;\r\n        newSubject.subjectName = _subjectName;\r\n\r\n        emit subjectCreated(subjectCounter, _subjectName);\r\n    }\r\n\r\n    function createClass(uint256 _classDate, uint256 _subjectId) public onlyAdmin {\r\n        classCounter++;\r\n        \r\n        Class storage newClass = classDetails[classCounter];\r\n        newClass.subject = subjectDetails[_subjectId];\r\n        newClass.classId = classCounter;\r\n        newClass.classDate = _classDate;\r\n        subjectDetails[_subjectId].classIds.push(classCounter);\r\n\r\n        emit classCreated(classCounter, _classDate, _subjectId);\r\n    }\r\n\r\n    function enrollStudent(uint256 _subjectId, address _student) public onlyAdmin {\r\n        subjectDetails[_subjectId].enrolledStudents.push(studentDetails[_student]);\r\n\r\n        emit studentEnrolled(_subjectId, _student);\r\n    }\r\n\r\n    function assignTeacher(uint256 _subjectId, address _teacher) public onlyAdmin {\r\n        subjectDetails[_subjectId].teachingTeachers.push(teacherDetails[_teacher]);\r\n\r\n        emit teacherAssigned(_subjectId, _teacher);\r\n    }\r\n\r\n    function markAttendance(uint256 _classId, uint256 _pwd) public onlyEnrolledStudent(classDetails[_classId].classId) {\r\n        require(classDetails[_classId].attendance[msg.sender] == false, \"Attendance already marked\");\r\n        require(classDetails[_classId].classPwd == _pwd, \"Invalid password\");\r\n        classDetails[_classId].attendance[msg.sender] = true;\r\n\r\n        emit attendanceMarked(_classId, msg.sender);\r\n    }\r\n\r\n    function checkAttendance(uint256 _classId) public view returns (bool) {\r\n        return classDetails[_classId].attendance[msg.sender];\r\n    }\r\n\r\n    function checkAttendance(uint256 _classId, address _student) public view onlyTeacher returns (bool) {\r\n        return classDetails[_classId].attendance[_student];\r\n    }\r\n\r\n    // function generateClassPwd(uint256 _classId, uint256 _seed) public onlyTeacher {\r\n    //     classDetails[_classId].classPwd = getRandomNumber(_seed);\r\n    // }\r\n\r\n    // function getRandomNumber(uint256 seed) public view returns (uint256) {\r\n    //     return uint256(keccak256(abi.encodePacked(block.timestamp, block.prevrandao, msg.sender, seed)));\r\n    // }\r\n\r\n    function removeStudent(address _student) public onlyAdmin {\r\n        delete studentDetails[_student];\r\n    }\r\n\r\n    function removeTeacher(address _teacher) public onlyAdmin {\r\n        delete teacherDetails[_teacher];\r\n    }\r\n\r\n    function removeSubject(uint256 _subjectId) public onlyAdmin {\r\n        delete subjectDetails[_subjectId];\r\n    }\r\n\r\n    function removeClass(uint256 _classId) public onlyAdmin {\r\n        delete classDetails[_classId];\r\n    }\r\n\r\n}",
  "sourcePath": "C:\\Users\\User\\Desktop\\dev\\Blockchain\\contracts\\Attendance.sol",
  "compiler": {
    "name": "solc",
    "version": "0.8.0+commit.c7dfd78e.Emscripten.clang"
  },
  "schemaVersion": "3.4.16",
  "updatedAt": "2025-01-18T08:50:19.559Z",
  "networkType": "ethereum",
  "devdoc": {
    "kind": "dev",
    "methods": {},
    "version": 1
  },
  "userdoc": {
    "kind": "user",
    "methods": {},
    "version": 1
  }
}