{
  "contractName": "Attendance",
  "abi": [
    {
      "inputs": [],
      "stateMutability": "nonpayable",
      "type": "constructor"
    },
    {
      "inputs": [],
      "name": "admin",
      "outputs": [
        {
          "internalType": "address",
          "name": "",
          "type": "address"
        }
      ],
      "stateMutability": "view",
      "type": "function",
      "constant": true
    },
    {
      "inputs": [],
      "name": "classCounter",
      "outputs": [
        {
          "internalType": "uint256",
          "name": "",
          "type": "uint256"
        }
      ],
      "stateMutability": "view",
      "type": "function",
      "constant": true
    },
    {
      "inputs": [
        {
          "internalType": "uint256",
          "name": "",
          "type": "uint256"
        }
      ],
      "name": "classDetails",
      "outputs": [
        {
          "components": [
            {
              "internalType": "uint256",
              "name": "subjectId",
              "type": "uint256"
            },
            {
              "internalType": "string",
              "name": "subjectName",
              "type": "string"
            },
            {
              "components": [
                {
                  "internalType": "uint256",
                  "name": "teacherId",
                  "type": "uint256"
                },
                {
                  "internalType": "string",
                  "name": "name",
                  "type": "string"
                }
              ],
              "internalType": "struct Attendance.Teacher[]",
              "name": "teachingTeachers",
              "type": "tuple[]"
            },
            {
              "components": [
                {
                  "internalType": "uint256",
                  "name": "studentId",
                  "type": "uint256"
                },
                {
                  "internalType": "string",
                  "name": "name",
                  "type": "string"
                }
              ],
              "internalType": "struct Attendance.Student[]",
              "name": "enrolledStudents",
              "type": "tuple[]"
            },
            {
              "internalType": "uint256[]",
              "name": "classIds",
              "type": "uint256[]"
            }
          ],
          "internalType": "struct Attendance.Subject",
          "name": "subject",
          "type": "tuple"
        },
        {
          "internalType": "uint256",
          "name": "classId",
          "type": "uint256"
        },
        {
          "internalType": "uint256",
          "name": "classDate",
          "type": "uint256"
        }
      ],
      "stateMutability": "view",
      "type": "function",
      "constant": true
    },
    {
      "inputs": [
        {
          "internalType": "address",
          "name": "",
          "type": "address"
        }
      ],
      "name": "roles",
      "outputs": [
        {
          "internalType": "string",
          "name": "",
          "type": "string"
        }
      ],
      "stateMutability": "view",
      "type": "function",
      "constant": true
    },
    {
      "inputs": [],
      "name": "studentCounter",
      "outputs": [
        {
          "internalType": "uint256",
          "name": "",
          "type": "uint256"
        }
      ],
      "stateMutability": "view",
      "type": "function",
      "constant": true
    },
    {
      "inputs": [
        {
          "internalType": "address",
          "name": "",
          "type": "address"
        }
      ],
      "name": "studentDetails",
      "outputs": [
        {
          "internalType": "uint256",
          "name": "studentId",
          "type": "uint256"
        },
        {
          "internalType": "string",
          "name": "name",
          "type": "string"
        }
      ],
      "stateMutability": "view",
      "type": "function",
      "constant": true
    },
    {
      "inputs": [
        {
          "internalType": "uint256",
          "name": "",
          "type": "uint256"
        }
      ],
      "name": "students",
      "outputs": [
        {
          "internalType": "uint256",
          "name": "studentId",
          "type": "uint256"
        },
        {
          "internalType": "string",
          "name": "name",
          "type": "string"
        }
      ],
      "stateMutability": "view",
      "type": "function",
      "constant": true
    },
    {
      "inputs": [],
      "name": "subjectCounter",
      "outputs": [
        {
          "internalType": "uint256",
          "name": "",
          "type": "uint256"
        }
      ],
      "stateMutability": "view",
      "type": "function",
      "constant": true
    },
    {
      "inputs": [
        {
          "internalType": "uint256",
          "name": "",
          "type": "uint256"
        }
      ],
      "name": "subjectDetails",
      "outputs": [
        {
          "internalType": "uint256",
          "name": "subjectId",
          "type": "uint256"
        },
        {
          "internalType": "string",
          "name": "subjectName",
          "type": "string"
        }
      ],
      "stateMutability": "view",
      "type": "function",
      "constant": true
    },
    {
      "inputs": [],
      "name": "teacherCounter",
      "outputs": [
        {
          "internalType": "uint256",
          "name": "",
          "type": "uint256"
        }
      ],
      "stateMutability": "view",
      "type": "function",
      "constant": true
    },
    {
      "inputs": [
        {
          "internalType": "address",
          "name": "",
          "type": "address"
        }
      ],
      "name": "teacherDetails",
      "outputs": [
        {
          "internalType": "uint256",
          "name": "teacherId",
          "type": "uint256"
        },
        {
          "internalType": "string",
          "name": "name",
          "type": "string"
        }
      ],
      "stateMutability": "view",
      "type": "function",
      "constant": true
    },
    {
      "inputs": [
        {
          "internalType": "uint256",
          "name": "",
          "type": "uint256"
        }
      ],
      "name": "teachers",
      "outputs": [
        {
          "internalType": "uint256",
          "name": "teacherId",
          "type": "uint256"
        },
        {
          "internalType": "string",
          "name": "name",
          "type": "string"
        }
      ],
      "stateMutability": "view",
      "type": "function",
      "constant": true
    },
    {
      "inputs": [
        {
          "internalType": "address",
          "name": "user",
          "type": "address"
        },
        {
          "internalType": "string",
          "name": "role",
          "type": "string"
        }
      ],
      "name": "assignRole",
      "outputs": [],
      "stateMutability": "nonpayable",
      "type": "function"
    },
    {
      "inputs": [
        {
          "internalType": "address",
          "name": "user",
          "type": "address"
        }
      ],
      "name": "getRole",
      "outputs": [
        {
          "internalType": "string",
          "name": "",
          "type": "string"
        }
      ],
      "stateMutability": "view",
      "type": "function",
      "constant": true
    },
    {
      "inputs": [
        {
          "internalType": "address",
          "name": "_student",
          "type": "address"
        },
        {
          "internalType": "string",
          "name": "_name",
          "type": "string"
        }
      ],
      "name": "addStudent",
      "outputs": [],
      "stateMutability": "nonpayable",
      "type": "function"
    },
    {
      "inputs": [
        {
          "internalType": "address",
          "name": "_teacher",
          "type": "address"
        },
        {
          "internalType": "string",
          "name": "_name",
          "type": "string"
        }
      ],
      "name": "addTeacher",
      "outputs": [],
      "stateMutability": "nonpayable",
      "type": "function"
    },
    {
      "inputs": [
        {
          "internalType": "string",
          "name": "_subjectName",
          "type": "string"
        }
      ],
      "name": "createSubject",
      "outputs": [],
      "stateMutability": "nonpayable",
      "type": "function"
    },
    {
      "inputs": [
        {
          "internalType": "uint256",
          "name": "_classDate",
          "type": "uint256"
        },
        {
          "internalType": "uint256",
          "name": "_subjectId",
          "type": "uint256"
        }
      ],
      "name": "createClass",
      "outputs": [],
      "stateMutability": "nonpayable",
      "type": "function"
    },
    {
      "inputs": [
        {
          "internalType": "uint256",
          "name": "_subjectId",
          "type": "uint256"
        },
        {
          "internalType": "address",
          "name": "_student",
          "type": "address"
        }
      ],
      "name": "enrollStudent",
      "outputs": [],
      "stateMutability": "nonpayable",
      "type": "function"
    },
    {
      "inputs": [
        {
          "internalType": "uint256",
          "name": "_subjectId",
          "type": "uint256"
        },
        {
          "internalType": "address",
          "name": "_teacher",
          "type": "address"
        }
      ],
      "name": "assignTeacher",
      "outputs": [],
      "stateMutability": "nonpayable",
      "type": "function"
    },
    {
      "inputs": [
        {
          "internalType": "uint256",
          "name": "_classId",
          "type": "uint256"
        }
      ],
      "name": "markAttendance",
      "outputs": [],
      "stateMutability": "nonpayable",
      "type": "function"
    },
    {
      "inputs": [
        {
          "internalType": "uint256",
          "name": "_classId",
          "type": "uint256"
        }
      ],
      "name": "checkAttendance",
      "outputs": [
        {
          "internalType": "bool",
          "name": "",
          "type": "bool"
        }
      ],
      "stateMutability": "view",
      "type": "function",
      "constant": true
    },
    {
      "inputs": [
        {
          "internalType": "uint256",
          "name": "_classId",
          "type": "uint256"
        },
        {
          "internalType": "address",
          "name": "_student",
          "type": "address"
        }
      ],
      "name": "checkAttendance",
      "outputs": [
        {
          "internalType": "bool",
          "name": "",
          "type": "bool"
        }
      ],
      "stateMutability": "view",
      "type": "function",
      "constant": true
    }
  ],
  "bytecode": "0x60806040523480156200001157600080fd5b50336000806101000a81548173ffffffffffffffffffffffffffffffffffffffff021916908373ffffffffffffffffffffffffffffffffffffffff1602179055506040518060400160405280600581526020017f61646d696e000000000000000000000000000000000000000000000000000000815250600b60003373ffffffffffffffffffffffffffffffffffffffff1673ffffffffffffffffffffffffffffffffffffffff1681526020019081526020016000209080519060200190620000dc929190620000e3565b50620001f8565b828054620000f19062000193565b90600052602060002090601f01602090048101928262000115576000855562000161565b82601f106200013057805160ff191683800117855562000161565b8280016001018555821562000161579182015b828111156200016057825182559160200191906001019062000143565b5b50905062000170919062000174565b5090565b5b808211156200018f57600081600090555060010162000175565b5090565b60006002820490506001821680620001ac57607f821691505b60208210811415620001c357620001c2620001c9565b5b50919050565b7f4e487b7100000000000000000000000000000000000000000000000000000000600052602260045260246000fd5b6129f680620002086000396000f3fe608060405234801561001057600080fd5b506004361061014d5760003560e01c80638f5b9b2e116100c3578063b6ba72301161007c578063b6ba7230146103eb578063b7dfcbee14610407578063d1939ccf14610423578063e3596cac14610441578063f851a4401461045f578063fe24ec651461047d5761014d565b80638f5b9b2e146103055780639937464214610321578063aba4234914610351578063ade4f8a21461036d578063ae504c5c14610389578063aed7419b146103ba5761014d565b80633954d58b116101155780633954d58b1461021c5780633d2d86631461023a578063442767331461026a57806344d370b81461029a5780635e8b8091146102cb5780637194c5b3146102e75761014d565b806306ead22e146101525780630ddb03bb146101835780632520f9a11461019f5780632b37f7e7146101bb57806334ac0b40146101eb575b600080fd5b61016c60048036038101906101679190611f5c565b6104af565b60405161017a929190612666565b60405180910390f35b61019d60048036038101906101989190611f85565b61056b565b005b6101b960048036038101906101b49190611f1b565b6106e3565b005b6101d560048036038101906101d09190611f5c565b610806565b6040516101e29190612570565b60405180910390f35b61020560048036038101906102009190611f5c565b610870565b604051610213929190612666565b60405180910390f35b61022461092c565b604051610231919061264b565b60405180910390f35b610254600480360381019061024f9190611f85565b610932565b6040516102619190612570565b60405180910390f35b610284600480360381019061027f9190611e9e565b610a22565b604051610291919061258b565b60405180910390f35b6102b460048036038101906102af9190611e9e565b610af3565b6040516102c2929190612666565b60405180910390f35b6102e560048036038101906102e09190611ec7565b610b9f565b005b6102ef610d70565b6040516102fc919061264b565b60405180910390f35b61031f600480360381019061031a9190611ec7565b610d76565b005b61033b60048036038101906103369190611e9e565b610f47565b604051610348919061258b565b60405180910390f35b61036b60048036038101906103669190611f85565b610fe7565b005b61038760048036038101906103829190611f5c565b61115f565b005b6103a3600480360381019061039e9190611f5c565b611344565b6040516103b1929190612666565b60405180910390f35b6103d460048036038101906103cf9190611e9e565b6113f0565b6040516103e2929190612666565b60405180910390f35b61040560048036038101906104009190611fc1565b61149c565b005b610421600480360381019061041c9190611ec7565b611678565b005b61042b61179a565b604051610438919061264b565b60405180910390f35b6104496117a0565b604051610456919061264b565b60405180910390f35b6104676117a6565b6040516104749190612555565b60405180910390f35b61049760048036038101906104929190611f5c565b6117ca565b6040516104a69392919061260d565b60405180910390f35b600181815481106104bf57600080fd5b90600052602060002090600202016000915090508060000154908060010180546104e890612879565b80601f016020809104026020016040519081016040528092919081815260200182805461051490612879565b80156105615780601f1061053657610100808354040283529160200191610561565b820191906000526020600020905b81548152906001019060200180831161054457829003601f168201915b5050505050905082565b60405160200161057a90612540565b60405160208183030381529060405280519060200120600b60003373ffffffffffffffffffffffffffffffffffffffff1673ffffffffffffffffffffffffffffffffffffffff1681526020019081526020016000206040516020016105df9190612529565b6040516020818303038152906040528051906020012014610635576040517f08c379a000000000000000000000000000000000000000000000000000000000815260040161062c906125ed565b60405180910390fd5b60096000838152602001908152602001600020600201600860008373ffffffffffffffffffffffffffffffffffffffff1673ffffffffffffffffffffffffffffffffffffffff16815260200190815260200160002090806001815401808255809150506001900390600052602060002090600202016000909190919091506000820154816000015560018201816001019080546106d190612879565b6106dc929190611ae8565b5050505050565b6040516020016106f290612540565b60405160208183030381529060405280519060200120600b60003373ffffffffffffffffffffffffffffffffffffffff1673ffffffffffffffffffffffffffffffffffffffff1681526020019081526020016000206040516020016107579190612529565b60405160208183030381529060405280519060200120146107ad576040517f08c379a00000000000000000000000000000000000000000000000000000000081526004016107a4906125ed565b60405180910390fd5b600460008154809291906107c0906128ab565b919050555060006009600060045481526020019081526020016000209050600454816000018190555081816001019080519060200190610801929190611b75565b505050565b6000600a600083815260200190815260200160002060070160003373ffffffffffffffffffffffffffffffffffffffff1673ffffffffffffffffffffffffffffffffffffffff16815260200190815260200160002060009054906101000a900460ff169050919050565b6002818154811061088057600080fd5b90600052602060002090600202016000915090508060000154908060010180546108a990612879565b80601f01602080910402602001604051908101604052809291908181526020018280546108d590612879565b80156109225780601f106108f757610100808354040283529160200191610922565b820191906000526020600020905b81548152906001019060200180831161090557829003601f168201915b5050505050905082565b60035481565b600080600860003373ffffffffffffffffffffffffffffffffffffffff1673ffffffffffffffffffffffffffffffffffffffff1681526020019081526020016000206000015414156109b9576040517f08c379a00000000000000000000000000000000000000000000000000000000081526004016109b0906125cd565b60405180910390fd5b600a600084815260200190815260200160002060070160008373ffffffffffffffffffffffffffffffffffffffff1673ffffffffffffffffffffffffffffffffffffffff16815260200190815260200160002060009054906101000a900460ff16905092915050565b6060600b60008373ffffffffffffffffffffffffffffffffffffffff1673ffffffffffffffffffffffffffffffffffffffff1681526020019081526020016000208054610a6e90612879565b80601f0160208091040260200160405190810160405280929190818152602001828054610a9a90612879565b8015610ae75780601f10610abc57610100808354040283529160200191610ae7565b820191906000526020600020905b815481529060010190602001808311610aca57829003601f168201915b50505050509050919050565b6008602052806000526040600020600091509050806000015490806001018054610b1c90612879565b80601f0160208091040260200160405190810160405280929190818152602001828054610b4890612879565b8015610b955780601f10610b6a57610100808354040283529160200191610b95565b820191906000526020600020905b815481529060010190602001808311610b7857829003601f168201915b5050505050905082565b604051602001610bae90612540565b60405160208183030381529060405280519060200120600b60003373ffffffffffffffffffffffffffffffffffffffff1673ffffffffffffffffffffffffffffffffffffffff168152602001908152602001600020604051602001610c139190612529565b6040516020818303038152906040528051906020012014610c69576040517f08c379a0000000000000000000000000000000000000000000000000000000008152600401610c60906125ed565b60405180910390fd5b60056000815480929190610c7c906128ab565b91905055506040518060400160405280600554815260200182815250600760008473ffffffffffffffffffffffffffffffffffffffff1673ffffffffffffffffffffffffffffffffffffffff168152602001908152602001600020600082015181600001556020820151816001019080519060200190610cfd929190611b75565b50905050600160405180604001604052806005548152602001838152509080600181540180825580915050600190039060005260206000209060020201600090919091909150600082015181600001556020820151816001019080519060200190610d69929190611b75565b5050505050565b60065481565b604051602001610d8590612540565b60405160208183030381529060405280519060200120600b60003373ffffffffffffffffffffffffffffffffffffffff1673ffffffffffffffffffffffffffffffffffffffff168152602001908152602001600020604051602001610dea9190612529565b6040516020818303038152906040528051906020012014610e40576040517f08c379a0000000000000000000000000000000000000000000000000000000008152600401610e37906125ed565b60405180910390fd5b60066000815480929190610e53906128ab565b91905055506040518060400160405280600654815260200182815250600860008473ffffffffffffffffffffffffffffffffffffffff1673ffffffffffffffffffffffffffffffffffffffff168152602001908152602001600020600082015181600001556020820151816001019080519060200190610ed4929190611b75565b50905050600260405180604001604052806006548152602001838152509080600181540180825580915050600190039060005260206000209060020201600090919091909150600082015181600001556020820151816001019080519060200190610f40929190611b75565b5050505050565b600b6020528060005260406000206000915090508054610f6690612879565b80601f0160208091040260200160405190810160405280929190818152602001828054610f9290612879565b8015610fdf5780601f10610fb457610100808354040283529160200191610fdf565b820191906000526020600020905b815481529060010190602001808311610fc257829003601f168201915b505050505081565b604051602001610ff690612540565b60405160208183030381529060405280519060200120600b60003373ffffffffffffffffffffffffffffffffffffffff1673ffffffffffffffffffffffffffffffffffffffff16815260200190815260200160002060405160200161105b9190612529565b60405160208183030381529060405280519060200120146110b1576040517f08c379a00000000000000000000000000000000000000000000000000000000081526004016110a8906125ed565b60405180910390fd5b60096000838152602001908152602001600020600301600760008373ffffffffffffffffffffffffffffffffffffffff1673ffffffffffffffffffffffffffffffffffffffff168152602001908152602001600020908060018154018082558091505060019003906000526020600020906002020160009091909190915060008201548160000155600182018160010190805461114d90612879565b611158929190611ae8565b5050505050565b600a6000828152602001908152602001600020600501546000805b60096000600a60008681526020019081526020016000206000016000015481526020019081526020016000206003018054905081101561129257600760003373ffffffffffffffffffffffffffffffffffffffff1673ffffffffffffffffffffffffffffffffffffffff1681526020019081526020016000206000015460096000600a6000878152602001908152602001600020600001600001548152602001908152602001600020600301828154811061125e577f4e487b7100000000000000000000000000000000000000000000000000000000600052603260045260246000fd5b906000526020600020906002020160000154141561127f5760019150611292565b808061128a906128ab565b91505061117a565b50806112d3576040517f08c379a00000000000000000000000000000000000000000000000000000000081526004016112ca906125ad565b60405180910390fd5b6001600a600085815260200190815260200160002060070160003373ffffffffffffffffffffffffffffffffffffffff1673ffffffffffffffffffffffffffffffffffffffff16815260200190815260200160002060006101000a81548160ff021916908315150217905550505050565b600960205280600052604060002060009150905080600001549080600101805461136d90612879565b80601f016020809104026020016040519081016040528092919081815260200182805461139990612879565b80156113e65780601f106113bb576101008083540402835291602001916113e6565b820191906000526020600020905b8154815290600101906020018083116113c957829003601f168201915b5050505050905082565b600760205280600052604060002060009150905080600001549080600101805461141990612879565b80601f016020809104026020016040519081016040528092919081815260200182805461144590612879565b80156114925780601f1061146757610100808354040283529160200191611492565b820191906000526020600020905b81548152906001019060200180831161147557829003601f168201915b5050505050905082565b6040516020016114ab90612540565b60405160208183030381529060405280519060200120600b60003373ffffffffffffffffffffffffffffffffffffffff1673ffffffffffffffffffffffffffffffffffffffff1681526020019081526020016000206040516020016115109190612529565b6040516020818303038152906040528051906020012014611566576040517f08c379a000000000000000000000000000000000000000000000000000000000815260040161155d906125ed565b60405180910390fd5b60036000815480929190611579906128ab565b91905055506000600a60006003548152602001908152602001600020905060096000838152602001908152602001600020816000016000820154816000015560018201816001019080546115cc90612879565b6115d7929190611ae8565b5060028201816002019080546115ee929190611bfb565b506003820181600301908054611605929190611c7d565b50600482018160040190805461161c929190611cff565b509050506003548160050181905550828160060181905550600960008381526020019081526020016000206004016003549080600181540180825580915050600190039060005260206000200160009091909190915055505050565b60405160200161168790612540565b60405160208183030381529060405280519060200120600b60003373ffffffffffffffffffffffffffffffffffffffff1673ffffffffffffffffffffffffffffffffffffffff1681526020019081526020016000206040516020016116ec9190612529565b6040516020818303038152906040528051906020012014611742576040517f08c379a0000000000000000000000000000000000000000000000000000000008152600401611739906125ed565b60405180910390fd5b80600b60008473ffffffffffffffffffffffffffffffffffffffff1673ffffffffffffffffffffffffffffffffffffffff1681526020019081526020016000209080519060200190611795929190611b75565b505050565b60045481565b60055481565b60008054906101000a900473ffffffffffffffffffffffffffffffffffffffff1681565b600a602052806000526040600020600091509050806000016040518060a00160405290816000820154815260200160018201805461180790612879565b80601f016020809104026020016040519081016040528092919081815260200182805461183390612879565b80156118805780601f1061185557610100808354040283529160200191611880565b820191906000526020600020905b81548152906001019060200180831161186357829003601f168201915b5050505050815260200160028201805480602002602001604051908101604052809291908181526020016000905b8282101561197c5783829060005260206000209060020201604051806040016040529081600082015481526020016001820180546118eb90612879565b80601f016020809104026020016040519081016040528092919081815260200182805461191790612879565b80156119645780601f1061193957610100808354040283529160200191611964565b820191906000526020600020905b81548152906001019060200180831161194757829003601f168201915b505050505081525050815260200190600101906118ae565b50505050815260200160038201805480602002602001604051908101604052809291908181526020016000905b82821015611a775783829060005260206000209060020201604051806040016040529081600082015481526020016001820180546119e690612879565b80601f0160208091040260200160405190810160405280929190818152602001828054611a1290612879565b8015611a5f5780601f10611a3457610100808354040283529160200191611a5f565b820191906000526020600020905b815481529060010190602001808311611a4257829003601f168201915b505050505081525050815260200190600101906119a9565b50505050815260200160048201805480602002602001604051908101604052809291908181526020018280548015611ace57602002820191906000526020600020905b815481526020019060010190808311611aba575b505050505081525050908060050154908060060154905083565b828054611af490612879565b90600052602060002090601f016020900481019282611b165760008555611b64565b82601f10611b275780548555611b64565b82800160010185558215611b6457600052602060002091601f016020900482015b82811115611b63578254825591600101919060010190611b48565b5b509050611b719190611d51565b5090565b828054611b8190612879565b90600052602060002090601f016020900481019282611ba35760008555611bea565b82601f10611bbc57805160ff1916838001178555611bea565b82800160010185558215611bea579182015b82811115611be9578251825591602001919060010190611bce565b5b509050611bf79190611d51565b5090565b828054828255906000526020600020906002028101928215611c6c5760005260206000209160020282015b82811115611c6b578282600082015481600001556001820181600101908054611c4e90612879565b611c59929190611ae8565b50505091600201919060020190611c26565b5b509050611c799190611d6e565b5090565b828054828255906000526020600020906002028101928215611cee5760005260206000209160020282015b82811115611ced578282600082015481600001556001820181600101908054611cd090612879565b611cdb929190611ae8565b50505091600201919060020190611ca8565b5b509050611cfb9190611d9d565b5090565b828054828255906000526020600020908101928215611d405760005260206000209182015b82811115611d3f578254825591600101919060010190611d24565b5b509050611d4d9190611d51565b5090565b5b80821115611d6a576000816000905550600101611d52565b5090565b5b80821115611d9957600080820160009055600182016000611d909190611dcc565b50600201611d6f565b5090565b5b80821115611dc857600080820160009055600182016000611dbf9190611dcc565b50600201611d9e565b5090565b508054611dd890612879565b6000825580601f10611dea5750611e09565b601f016020900490600052602060002090810190611e089190611d51565b5b50565b6000611e1f611e1a846126c7565b612696565b905082815260208101848484011115611e3757600080fd5b611e42848285612837565b509392505050565b600081359050611e5981612992565b92915050565b600082601f830112611e7057600080fd5b8135611e80848260208601611e0c565b91505092915050565b600081359050611e98816129a9565b92915050565b600060208284031215611eb057600080fd5b6000611ebe84828501611e4a565b91505092915050565b60008060408385031215611eda57600080fd5b6000611ee885828601611e4a565b925050602083013567ffffffffffffffff811115611f0557600080fd5b611f1185828601611e5f565b9150509250929050565b600060208284031215611f2d57600080fd5b600082013567ffffffffffffffff811115611f4757600080fd5b611f5384828501611e5f565b91505092915050565b600060208284031215611f6e57600080fd5b6000611f7c84828501611e89565b91505092915050565b60008060408385031215611f9857600080fd5b6000611fa685828601611e89565b9250506020611fb785828601611e4a565b9150509250929050565b60008060408385031215611fd457600080fd5b6000611fe285828601611e89565b9250506020611ff385828601611e89565b9150509250929050565b60006120098383612406565b905092915050565b600061201d83836124ce565b905092915050565b6000612031838361250b565b60208301905092915050565b612046816127ef565b82525050565b60006120578261273c565b612061818561278f565b935083602082028501612073856126f7565b8060005b858110156120af57848403895281516120908582611ffd565b945061209b83612768565b925060208a01995050600181019050612077565b50829750879550505050505092915050565b60006120cc82612747565b6120d681856127a0565b9350836020820285016120e885612707565b8060005b8581101561212457848403895281516121058582612011565b945061211083612775565b925060208a019950506001810190506120ec565b50829750879550505050505092915050565b600061214182612752565b61214b81856127b1565b935061215683612717565b8060005b8381101561218757815161216e8882612025565b975061217983612782565b92505060018101905061215a565b5085935050505092915050565b61219d81612801565b82525050565b60006121ae8261275d565b6121b881856127c2565b93506121c8818560208601612846565b6121d181612981565b840191505092915050565b60006121e78261275d565b6121f181856127d3565b9350612201818560208601612846565b61220a81612981565b840191505092915050565b6000815461222281612879565b61222c81866127e4565b9450600182166000811461224757600181146122585761228b565b60ff1983168652818601935061228b565b61226185612727565b60005b8381101561228357815481890152600182019150602081019050612264565b838801955050505b50505092915050565b60006122a1602d836127d3565b91507f4f6e6c7920656e726f6c6c65642073747564656e74732063616e2063616c6c2060008301527f746869732066756e6374696f6e000000000000000000000000000000000000006020830152604082019050919050565b60006123076024836127d3565b91507f4f6e6c792074656163686572732063616e2063616c6c20746869732066756e6360008301527f74696f6e000000000000000000000000000000000000000000000000000000006020830152604082019050919050565b600061236d6021836127d3565b91507f4f6e6c792061646d696e2063616e2063616c6c20746869732066756e6374696f60008301527f6e000000000000000000000000000000000000000000000000000000000000006020830152604082019050919050565b60006123d36005836127e4565b91507f61646d696e0000000000000000000000000000000000000000000000000000006000830152600582019050919050565b600060408301600083015161241e600086018261250b565b506020830151848203602086015261243682826121a3565b9150508091505092915050565b600060a08301600083015161245b600086018261250b565b506020830151848203602086015261247382826121a3565b9150506040830151848203604086015261248d82826120c1565b915050606083015184820360608601526124a7828261204c565b915050608083015184820360808601526124c18282612136565b9150508091505092915050565b60006040830160008301516124e6600086018261250b565b50602083015184820360208601526124fe82826121a3565b9150508091505092915050565b6125148161282d565b82525050565b6125238161282d565b82525050565b60006125358284612215565b915081905092915050565b600061254b826123c6565b9150819050919050565b600060208201905061256a600083018461203d565b92915050565b60006020820190506125856000830184612194565b92915050565b600060208201905081810360008301526125a581846121dc565b905092915050565b600060208201905081810360008301526125c681612294565b9050919050565b600060208201905081810360008301526125e6816122fa565b9050919050565b6000602082019050818103600083015261260681612360565b9050919050565b600060608201905081810360008301526126278186612443565b9050612636602083018561251a565b612643604083018461251a565b949350505050565b6000602082019050612660600083018461251a565b92915050565b600060408201905061267b600083018561251a565b818103602083015261268d81846121dc565b90509392505050565b6000604051905081810181811067ffffffffffffffff821117156126bd576126bc612952565b5b8060405250919050565b600067ffffffffffffffff8211156126e2576126e1612952565b5b601f19601f8301169050602081019050919050565b6000819050602082019050919050565b6000819050602082019050919050565b6000819050602082019050919050565b60008190508160005260206000209050919050565b600081519050919050565b600081519050919050565b600081519050919050565b600081519050919050565b6000602082019050919050565b6000602082019050919050565b6000602082019050919050565b600082825260208201905092915050565b600082825260208201905092915050565b600082825260208201905092915050565b600082825260208201905092915050565b600082825260208201905092915050565b600081905092915050565b60006127fa8261280d565b9050919050565b60008115159050919050565b600073ffffffffffffffffffffffffffffffffffffffff82169050919050565b6000819050919050565b82818337600083830152505050565b60005b83811015612864578082015181840152602081019050612849565b83811115612873576000848401525b50505050565b6000600282049050600182168061289157607f821691505b602082108114156128a5576128a4612923565b5b50919050565b60006128b68261282d565b91507fffffffffffffffffffffffffffffffffffffffffffffffffffffffffffffffff8214156128e9576128e86128f4565b5b600182019050919050565b7f4e487b7100000000000000000000000000000000000000000000000000000000600052601160045260246000fd5b7f4e487b7100000000000000000000000000000000000000000000000000000000600052602260045260246000fd5b7f4e487b7100000000000000000000000000000000000000000000000000000000600052604160045260246000fd5b6000601f19601f8301169050919050565b61299b816127ef565b81146129a657600080fd5b50565b6129b28161282d565b81146129bd57600080fd5b5056fea2646970667358221220977d5660fc0a7caf2008cbc7ffb7501ce22d98ca1d1974b63acf994939fb030264736f6c63430008000033",
  "immutableReferences": {},
  "source": "//SPDX-License-Identifier: MIT\r\n\r\npragma solidity ^0.8.0;\r\n\r\ncontract Attendance {\r\n\r\n    address public admin;\r\n    Student[] public students;\r\n    Teacher[] public teachers;\r\n    uint256 public classCounter;\r\n    uint256 public subjectCounter;\r\n    uint256 public studentCounter;\r\n    uint256 public teacherCounter;\r\n\r\n    struct Student {\r\n        uint256 studentId;\r\n        string name;\r\n    }\r\n\r\n    struct Teacher {\r\n        uint256 teacherId;\r\n        string name;\r\n    }\r\n\r\n    struct Subject {\r\n        uint256 subjectId;\r\n        string subjectName;\r\n        Teacher[] teachingTeachers;\r\n        Student[] enrolledStudents;\r\n        uint256[] classIds;\r\n    }\r\n\r\n    struct Class {\r\n        Subject subject;\r\n        uint256 classId;\r\n        uint256 classDate;\r\n        mapping(address => bool) attendance;\r\n    }\r\n\r\n    mapping(address => Student) public studentDetails;\r\n    mapping(address => Teacher) public teacherDetails;\r\n    mapping(uint256 => Subject) public subjectDetails;\r\n    mapping(uint256 => Class) public classDetails;\r\n\r\n    mapping(address => string) public roles; // Stores roles for addresses\r\n\r\n    constructor() {\r\n        admin = msg.sender;\r\n        roles[msg.sender] = \"admin\"; // Contract deployer is the admin\r\n    }\r\n\r\n    modifier onlyAdmin() {\r\n        require(keccak256(abi.encodePacked(roles[msg.sender])) == keccak256(abi.encodePacked(\"admin\")), \"Only admin can call this function\");\r\n        _;\r\n    }\r\n\r\n    modifier onlyTeacher() {\r\n        require(teacherDetails[msg.sender].teacherId != 0, \"Only teachers can call this function\");\r\n        _;\r\n    }\r\n\r\n    modifier onlyStudent() {\r\n        require(studentDetails[msg.sender].studentId != 0, \"Only students can call this function\");\r\n        _;\r\n    }\r\n\r\n    modifier onlyEnrolledStudent(uint256 classId) {\r\n        bool isEnrolled = false;\r\n        for (uint256 i = 0; i < subjectDetails[classDetails[classId].subject.subjectId].enrolledStudents.length; i++) {\r\n            if (subjectDetails[classDetails[classId].subject.subjectId].enrolledStudents[i].studentId == studentDetails[msg.sender].studentId) {\r\n                isEnrolled = true;\r\n                break;\r\n            }\r\n        }\r\n        require(isEnrolled, \"Only enrolled students can call this function\");\r\n        _;\r\n    }\r\n\r\n    function assignRole(address user, string memory role) public onlyAdmin {\r\n        roles[user] = role;\r\n    }\r\n\r\n    function getRole(address user) public view returns (string memory) {\r\n        return roles[user];\r\n    }\r\n\r\n    function addStudent(address _student, string memory _name) public onlyAdmin {\r\n        studentCounter++;\r\n        studentDetails[_student] = Student(studentCounter, _name);\r\n        students.push(Student(studentCounter, _name));\r\n    }   \r\n\r\n    function addTeacher(address _teacher, string memory _name) public onlyAdmin {\r\n        teacherCounter++;\r\n        teacherDetails[_teacher] = Teacher(teacherCounter,_name);\r\n        teachers.push(Teacher(teacherCounter, _name));\r\n    }\r\n\r\n    function createSubject(string memory _subjectName) public onlyAdmin {\r\n        subjectCounter++;\r\n        Subject storage newSubject = subjectDetails[subjectCounter];\r\n        newSubject.subjectId=subjectCounter;\r\n        newSubject.subjectName = _subjectName;\r\n    }\r\n\r\n    function createClass(uint256 _classDate, uint256 _subjectId) public onlyAdmin {\r\n        classCounter++;\r\n        \r\n        Class storage newClass = classDetails[classCounter];\r\n        newClass.subject = subjectDetails[_subjectId];\r\n        newClass.classId = classCounter;\r\n        newClass.classDate = _classDate;\r\n        subjectDetails[_subjectId].classIds.push(classCounter);\r\n    }\r\n\r\n    function enrollStudent(uint256 _subjectId, address _student) public onlyAdmin {\r\n        subjectDetails[_subjectId].enrolledStudents.push(studentDetails[_student]);\r\n    }\r\n\r\n    function assignTeacher(uint256 _subjectId, address _teacher) public onlyAdmin {\r\n        subjectDetails[_subjectId].teachingTeachers.push(teacherDetails[_teacher]);\r\n    }\r\n\r\n    function markAttendance(uint256 _classId) public onlyEnrolledStudent(classDetails[_classId].classId) {\r\n        classDetails[_classId].attendance[msg.sender] = true;\r\n    }\r\n\r\n    function checkAttendance(uint256 _classId) public view returns (bool) {\r\n        return classDetails[_classId].attendance[msg.sender];\r\n    }\r\n\r\n    function checkAttendance(uint256 _classId, address _student) public view onlyTeacher returns (bool) {\r\n        return classDetails[_classId].attendance[_student];\r\n    }\r\n\r\n}",
  "sourcePath": "C:\\Users\\dania\\Documents\\GitHub\\Blockchain-Assignment\\contracts\\Attendance.sol",
  "compiler": {
    "name": "solc",
    "version": "0.8.0+commit.c7dfd78e.Emscripten.clang"
  },
  "schemaVersion": "3.4.16",
  "updatedAt": "2025-01-18T04:50:35.483Z",
  "networkType": "ethereum",
  "devdoc": {
    "kind": "dev",
    "methods": {},
    "version": 1
  },
  "userdoc": {
    "kind": "user",
    "methods": {},
    "version": 1
  }
}