{
  "contractName": "Attendance",
  "abi": [
    {
      "inputs": [],
      "stateMutability": "nonpayable",
      "type": "constructor"
    },
    {
      "anonymous": false,
      "inputs": [
        {
          "indexed": false,
          "internalType": "uint256",
          "name": "classId",
          "type": "uint256"
        },
        {
          "indexed": false,
          "internalType": "address",
          "name": "student",
          "type": "address"
        }
      ],
      "name": "attendanceMarked",
      "type": "event"
    },
    {
      "anonymous": false,
      "inputs": [
        {
          "indexed": false,
          "internalType": "uint256",
          "name": "classId",
          "type": "uint256"
        },
        {
          "indexed": false,
          "internalType": "uint256",
          "name": "classDate",
          "type": "uint256"
        },
        {
          "indexed": false,
          "internalType": "uint256",
          "name": "subjectId",
          "type": "uint256"
        }
      ],
      "name": "classCreated",
      "type": "event"
    },
    {
      "anonymous": false,
      "inputs": [
        {
          "indexed": false,
          "internalType": "address",
          "name": "student",
          "type": "address"
        },
        {
          "indexed": false,
          "internalType": "string",
          "name": "name",
          "type": "string"
        }
      ],
      "name": "studentAdded",
      "type": "event"
    },
    {
      "anonymous": false,
      "inputs": [
        {
          "indexed": false,
          "internalType": "uint256",
          "name": "subjectId",
          "type": "uint256"
        },
        {
          "indexed": false,
          "internalType": "address",
          "name": "student",
          "type": "address"
        }
      ],
      "name": "studentEnrolled",
      "type": "event"
    },
    {
      "anonymous": false,
      "inputs": [
        {
          "indexed": false,
          "internalType": "uint256",
          "name": "subjectId",
          "type": "uint256"
        },
        {
          "indexed": false,
          "internalType": "string",
          "name": "subjectName",
          "type": "string"
        }
      ],
      "name": "subjectCreated",
      "type": "event"
    },
    {
      "anonymous": false,
      "inputs": [
        {
          "indexed": false,
          "internalType": "address",
          "name": "teacher",
          "type": "address"
        },
        {
          "indexed": false,
          "internalType": "string",
          "name": "name",
          "type": "string"
        }
      ],
      "name": "teacherAdded",
      "type": "event"
    },
    {
      "anonymous": false,
      "inputs": [
        {
          "indexed": false,
          "internalType": "uint256",
          "name": "subjectId",
          "type": "uint256"
        },
        {
          "indexed": false,
          "internalType": "address",
          "name": "teacher",
          "type": "address"
        }
      ],
      "name": "teacherAssigned",
      "type": "event"
    },
    {
      "inputs": [],
      "name": "admin",
      "outputs": [
        {
          "internalType": "address",
          "name": "",
          "type": "address"
        }
      ],
      "stateMutability": "view",
      "type": "function",
      "constant": true
    },
    {
      "inputs": [],
      "name": "classCounter",
      "outputs": [
        {
          "internalType": "uint256",
          "name": "",
          "type": "uint256"
        }
      ],
      "stateMutability": "view",
      "type": "function",
      "constant": true
    },
    {
      "inputs": [
        {
          "internalType": "uint256",
          "name": "",
          "type": "uint256"
        }
      ],
      "name": "classDetails",
      "outputs": [
        {
          "components": [
            {
              "internalType": "uint256",
              "name": "subjectId",
              "type": "uint256"
            },
            {
              "internalType": "string",
              "name": "subjectName",
              "type": "string"
            },
            {
              "components": [
                {
                  "internalType": "uint256",
                  "name": "teacherId",
                  "type": "uint256"
                },
                {
                  "internalType": "string",
                  "name": "name",
                  "type": "string"
                }
              ],
              "internalType": "struct Attendance.Teacher[]",
              "name": "teachingTeachers",
              "type": "tuple[]"
            },
            {
              "components": [
                {
                  "internalType": "uint256",
                  "name": "studentId",
                  "type": "uint256"
                },
                {
                  "internalType": "string",
                  "name": "name",
                  "type": "string"
                }
              ],
              "internalType": "struct Attendance.Student[]",
              "name": "enrolledStudents",
              "type": "tuple[]"
            },
            {
              "internalType": "uint256[]",
              "name": "classIds",
              "type": "uint256[]"
            }
          ],
          "internalType": "struct Attendance.Subject",
          "name": "subject",
          "type": "tuple"
        },
        {
          "internalType": "uint256",
          "name": "classId",
          "type": "uint256"
        },
        {
          "internalType": "uint256",
          "name": "classDate",
          "type": "uint256"
        },
        {
          "internalType": "uint256",
          "name": "classPwd",
          "type": "uint256"
        }
      ],
      "stateMutability": "view",
      "type": "function",
      "constant": true
    },
    {
      "inputs": [
        {
          "internalType": "address",
          "name": "",
          "type": "address"
        }
      ],
      "name": "roles",
      "outputs": [
        {
          "internalType": "string",
          "name": "",
          "type": "string"
        }
      ],
      "stateMutability": "view",
      "type": "function",
      "constant": true
    },
    {
      "inputs": [],
      "name": "studentCounter",
      "outputs": [
        {
          "internalType": "uint256",
          "name": "",
          "type": "uint256"
        }
      ],
      "stateMutability": "view",
      "type": "function",
      "constant": true
    },
    {
      "inputs": [
        {
          "internalType": "address",
          "name": "",
          "type": "address"
        }
      ],
      "name": "studentDetails",
      "outputs": [
        {
          "internalType": "uint256",
          "name": "studentId",
          "type": "uint256"
        },
        {
          "internalType": "string",
          "name": "name",
          "type": "string"
        }
      ],
      "stateMutability": "view",
      "type": "function",
      "constant": true
    },
    {
      "inputs": [
        {
          "internalType": "uint256",
          "name": "",
          "type": "uint256"
        }
      ],
      "name": "students",
      "outputs": [
        {
          "internalType": "uint256",
          "name": "studentId",
          "type": "uint256"
        },
        {
          "internalType": "string",
          "name": "name",
          "type": "string"
        }
      ],
      "stateMutability": "view",
      "type": "function",
      "constant": true
    },
    {
      "inputs": [],
      "name": "subjectCounter",
      "outputs": [
        {
          "internalType": "uint256",
          "name": "",
          "type": "uint256"
        }
      ],
      "stateMutability": "view",
      "type": "function",
      "constant": true
    },
    {
      "inputs": [
        {
          "internalType": "uint256",
          "name": "",
          "type": "uint256"
        }
      ],
      "name": "subjectDetails",
      "outputs": [
        {
          "internalType": "uint256",
          "name": "subjectId",
          "type": "uint256"
        },
        {
          "internalType": "string",
          "name": "subjectName",
          "type": "string"
        }
      ],
      "stateMutability": "view",
      "type": "function",
      "constant": true
    },
    {
      "inputs": [],
      "name": "teacherCounter",
      "outputs": [
        {
          "internalType": "uint256",
          "name": "",
          "type": "uint256"
        }
      ],
      "stateMutability": "view",
      "type": "function",
      "constant": true
    },
    {
      "inputs": [
        {
          "internalType": "address",
          "name": "",
          "type": "address"
        }
      ],
      "name": "teacherDetails",
      "outputs": [
        {
          "internalType": "uint256",
          "name": "teacherId",
          "type": "uint256"
        },
        {
          "internalType": "string",
          "name": "name",
          "type": "string"
        }
      ],
      "stateMutability": "view",
      "type": "function",
      "constant": true
    },
    {
      "inputs": [
        {
          "internalType": "uint256",
          "name": "",
          "type": "uint256"
        }
      ],
      "name": "teachers",
      "outputs": [
        {
          "internalType": "uint256",
          "name": "teacherId",
          "type": "uint256"
        },
        {
          "internalType": "string",
          "name": "name",
          "type": "string"
        }
      ],
      "stateMutability": "view",
      "type": "function",
      "constant": true
    },
    {
      "inputs": [
        {
          "internalType": "address",
          "name": "user",
          "type": "address"
        }
      ],
      "name": "getRole",
      "outputs": [
        {
          "internalType": "string",
          "name": "",
          "type": "string"
        }
      ],
      "stateMutability": "view",
      "type": "function",
      "constant": true
    },
    {
      "inputs": [
        {
          "internalType": "address",
          "name": "_student",
          "type": "address"
        },
        {
          "internalType": "string",
          "name": "_name",
          "type": "string"
        }
      ],
      "name": "addStudent",
      "outputs": [],
      "stateMutability": "nonpayable",
      "type": "function"
    },
    {
      "inputs": [
        {
          "internalType": "address",
          "name": "_teacher",
          "type": "address"
        },
        {
          "internalType": "string",
          "name": "_name",
          "type": "string"
        }
      ],
      "name": "addTeacher",
      "outputs": [],
      "stateMutability": "nonpayable",
      "type": "function"
    },
    {
      "inputs": [
        {
          "internalType": "string",
          "name": "_subjectName",
          "type": "string"
        }
      ],
      "name": "createSubject",
      "outputs": [],
      "stateMutability": "nonpayable",
      "type": "function"
    },
    {
      "inputs": [
        {
          "internalType": "uint256",
          "name": "_classDate",
          "type": "uint256"
        },
        {
          "internalType": "uint256",
          "name": "_subjectId",
          "type": "uint256"
        }
      ],
      "name": "createClass",
      "outputs": [],
      "stateMutability": "nonpayable",
      "type": "function"
    },
    {
      "inputs": [
        {
          "internalType": "uint256",
          "name": "_subjectId",
          "type": "uint256"
        },
        {
          "internalType": "address",
          "name": "_student",
          "type": "address"
        }
      ],
      "name": "enrollStudent",
      "outputs": [],
      "stateMutability": "nonpayable",
      "type": "function"
    },
    {
      "inputs": [
        {
          "internalType": "uint256",
          "name": "_subjectId",
          "type": "uint256"
        },
        {
          "internalType": "address",
          "name": "_teacher",
          "type": "address"
        }
      ],
      "name": "assignTeacher",
      "outputs": [],
      "stateMutability": "nonpayable",
      "type": "function"
    },
    {
      "inputs": [
        {
          "internalType": "uint256",
          "name": "_classId",
          "type": "uint256"
        },
        {
          "internalType": "uint256",
          "name": "_pwd",
          "type": "uint256"
        }
      ],
      "name": "markAttendance",
      "outputs": [],
      "stateMutability": "nonpayable",
      "type": "function"
    },
    {
      "inputs": [
        {
          "internalType": "uint256",
          "name": "_classId",
          "type": "uint256"
        }
      ],
      "name": "checkAttendance",
      "outputs": [
        {
          "internalType": "bool",
          "name": "",
          "type": "bool"
        }
      ],
      "stateMutability": "view",
      "type": "function",
      "constant": true
    },
    {
      "inputs": [
        {
          "internalType": "uint256",
          "name": "_classId",
          "type": "uint256"
        },
        {
          "internalType": "address",
          "name": "_student",
          "type": "address"
        }
      ],
      "name": "checkAttendance",
      "outputs": [
        {
          "internalType": "bool",
          "name": "",
          "type": "bool"
        }
      ],
      "stateMutability": "view",
      "type": "function",
      "constant": true
    },
    {
      "inputs": [
        {
          "internalType": "uint256",
          "name": "_classId",
          "type": "uint256"
        },
        {
          "internalType": "uint256",
          "name": "_seed",
          "type": "uint256"
        }
      ],
      "name": "generateClassPwd",
      "outputs": [],
      "stateMutability": "nonpayable",
      "type": "function"
    },
    {
      "inputs": [
        {
          "internalType": "uint256",
          "name": "seed",
          "type": "uint256"
        }
      ],
      "name": "getRandomNumber",
      "outputs": [
        {
          "internalType": "uint256",
          "name": "",
          "type": "uint256"
        }
      ],
      "stateMutability": "view",
      "type": "function",
      "constant": true
    },
    {
      "inputs": [
        {
          "internalType": "address",
          "name": "_student",
          "type": "address"
        }
      ],
      "name": "removeStudent",
      "outputs": [],
      "stateMutability": "nonpayable",
      "type": "function"
    },
    {
      "inputs": [
        {
          "internalType": "address",
          "name": "_teacher",
          "type": "address"
        }
      ],
      "name": "removeTeacher",
      "outputs": [],
      "stateMutability": "nonpayable",
      "type": "function"
    },
    {
      "inputs": [
        {
          "internalType": "uint256",
          "name": "_subjectId",
          "type": "uint256"
        }
      ],
      "name": "removeSubject",
      "outputs": [],
      "stateMutability": "nonpayable",
      "type": "function"
    },
    {
      "inputs": [
        {
          "internalType": "uint256",
          "name": "_classId",
          "type": "uint256"
        }
      ],
      "name": "removeClass",
      "outputs": [],
      "stateMutability": "nonpayable",
      "type": "function"
    }
  ],
  "bytecode": "0x60806040523480156200001157600080fd5b50336000806101000a81548173ffffffffffffffffffffffffffffffffffffffff021916908373ffffffffffffffffffffffffffffffffffffffff1602179055506040518060400160405280600581526020017f61646d696e000000000000000000000000000000000000000000000000000000815250600b60003373ffffffffffffffffffffffffffffffffffffffff1673ffffffffffffffffffffffffffffffffffffffff1681526020019081526020016000209080519060200190620000dc929190620000e3565b50620001f8565b828054620000f19062000193565b90600052602060002090601f01602090048101928262000115576000855562000161565b82601f106200013057805160ff191683800117855562000161565b8280016001018555821562000161579182015b828111156200016057825182559160200191906001019062000143565b5b50905062000170919062000174565b5090565b5b808211156200018f57600081600090555060010162000175565b5090565b60006002820490506001821680620001ac57607f821691505b60208210811415620001c357620001c2620001c9565b5b50919050565b7f4e487b7100000000000000000000000000000000000000000000000000000000600052602260045260246000fd5b61364e80620002086000396000f3fe608060405234801561001057600080fd5b50600436106101c45760003560e01c806380d01999116100f9578063b0d2429d11610097578063d1939ccf11610071578063d1939ccf1461053a578063e3596cac14610558578063f851a44014610576578063fe24ec6514610594576101c4565b8063b0d2429d146104d2578063b37217a4146104ee578063b6ba72301461051e576101c4565b8063aba42349116100d3578063aba4234914610438578063ac80b4d214610454578063ae504c5c14610470578063aed7419b146104a1576101c4565b806380d01999146103d05780638f5b9b2e146103ec5780639937464214610408576101c4565b806344276733116101665780635e8b8091116101405780635e8b80911461035e5780637194c5b31461037a57806372c30f451461039857806378c4798c146103b4576101c4565b806344276733146102e157806344d370b81461031157806352ff684614610342576101c4565b80632b37f7e7116101a25780632b37f7e71461023257806334ac0b40146102625780633954d58b146102935780633d2d8663146102b1576101c4565b806306ead22e146101c95780630ddb03bb146101fa5780632520f9a114610216575b600080fd5b6101e360048036038101906101de919061299f565b6105c7565b6040516101f192919061324c565b60405180910390f35b610214600480360381019061020f91906129c8565b610683565b005b610230600480360381019061022b919061295e565b610834565b005b61024c6004803603810190610247919061299f565b610992565b60405161025991906130df565b60405180910390f35b61027c6004803603810190610277919061299f565b6109fc565b60405161028a92919061324c565b60405180910390f35b61029b610ab8565b6040516102a89190613208565b60405180910390f35b6102cb60048036038101906102c691906129c8565b610abe565b6040516102d891906130df565b60405180910390f35b6102fb60048036038101906102f691906128e1565b610bae565b60405161030891906130fa565b60405180910390f35b61032b600480360381019061032691906128e1565b610c7f565b60405161033992919061324c565b60405180910390f35b61035c600480360381019061035791906128e1565b610d2b565b005b6103786004803603810190610373919061290a565b610e52565b005b61038261109b565b60405161038f9190613208565b60405180910390f35b6103b260048036038101906103ad919061299f565b6110a1565b005b6103ce60048036038101906103c991906128e1565b6111eb565b005b6103ea60048036038101906103e5919061299f565b611312565b005b6104066004803603810190610401919061290a565b61143d565b005b610422600480360381019061041d91906128e1565b611686565b60405161042f91906130fa565b60405180910390f35b610452600480360381019061044d91906129c8565b611726565b005b61046e60048036038101906104699190612a04565b6118d7565b005b61048a6004803603810190610485919061299f565b611bf5565b60405161049892919061324c565b60405180910390f35b6104bb60048036038101906104b691906128e1565b611ca1565b6040516104c992919061324c565b60405180910390f35b6104ec60048036038101906104e79190612a04565b611d4d565b005b6105086004803603810190610503919061299f565b611dfa565b6040516105159190613208565b60405180910390f35b61053860048036038101906105339190612a04565b611e33565b005b61054261204c565b60405161054f9190613208565b60405180910390f35b610560612052565b60405161056d9190613208565b60405180910390f35b61057e612058565b60405161058b9190613094565b60405180910390f35b6105ae60048036038101906105a9919061299f565b61207c565b6040516105be94939291906131bc565b60405180910390f35b600181815481106105d757600080fd5b906000526020600020906002020160009150905080600001549080600101805461060090613496565b80601f016020809104026020016040519081016040528092919081815260200182805461062c90613496565b80156106795780601f1061064e57610100808354040283529160200191610679565b820191906000526020600020905b81548152906001019060200180831161065c57829003601f168201915b5050505050905082565b60405160200161069290613031565b60405160208183030381529060405280519060200120600b60003373ffffffffffffffffffffffffffffffffffffffff1673ffffffffffffffffffffffffffffffffffffffff1681526020019081526020016000206040516020016106f7919061301a565b604051602081830303815290604052805190602001201461074d576040517f08c379a00000000000000000000000000000000000000000000000000000000081526004016107449061319c565b60405180910390fd5b60096000838152602001908152602001600020600201600860008373ffffffffffffffffffffffffffffffffffffffff1673ffffffffffffffffffffffffffffffffffffffff16815260200190815260200160002090806001815401808255809150506001900390600052602060002090600202016000909190919091506000820154816000015560018201816001019080546107e990613496565b6107f49291906124c2565b5050507f8c067146ec725333e811330fd75fb90567f7eeca601628b5943875fc4a43723e8282604051610828929190613223565b60405180910390a15050565b60405160200161084390613031565b60405160208183030381529060405280519060200120600b60003373ffffffffffffffffffffffffffffffffffffffff1673ffffffffffffffffffffffffffffffffffffffff1681526020019081526020016000206040516020016108a8919061301a565b60405160208183030381529060405280519060200120146108fe576040517f08c379a00000000000000000000000000000000000000000000000000000000081526004016108f59061319c565b60405180910390fd5b60046000815480929190610911906134c8565b91905055506000600960006004548152602001908152602001600020905060045481600001819055508181600101908051906020019061095292919061254f565b507feeb360ad20d46a8343b758e287ec025d44c51139825f3af2950630c14599acbd6004548360405161098692919061324c565b60405180910390a15050565b6000600a600083815260200190815260200160002060080160003373ffffffffffffffffffffffffffffffffffffffff1673ffffffffffffffffffffffffffffffffffffffff16815260200190815260200160002060009054906101000a900460ff169050919050565b60028181548110610a0c57600080fd5b9060005260206000209060020201600091509050806000015490806001018054610a3590613496565b80601f0160208091040260200160405190810160405280929190818152602001828054610a6190613496565b8015610aae5780601f10610a8357610100808354040283529160200191610aae565b820191906000526020600020905b815481529060010190602001808311610a9157829003601f168201915b5050505050905082565b60035481565b600080600860003373ffffffffffffffffffffffffffffffffffffffff1673ffffffffffffffffffffffffffffffffffffffff168152602001908152602001600020600001541415610b45576040517f08c379a0000000000000000000000000000000000000000000000000000000008152600401610b3c9061317c565b60405180910390fd5b600a600084815260200190815260200160002060080160008373ffffffffffffffffffffffffffffffffffffffff1673ffffffffffffffffffffffffffffffffffffffff16815260200190815260200160002060009054906101000a900460ff16905092915050565b6060600b60008373ffffffffffffffffffffffffffffffffffffffff1673ffffffffffffffffffffffffffffffffffffffff1681526020019081526020016000208054610bfa90613496565b80601f0160208091040260200160405190810160405280929190818152602001828054610c2690613496565b8015610c735780601f10610c4857610100808354040283529160200191610c73565b820191906000526020600020905b815481529060010190602001808311610c5657829003601f168201915b50505050509050919050565b6008602052806000526040600020600091509050806000015490806001018054610ca890613496565b80601f0160208091040260200160405190810160405280929190818152602001828054610cd490613496565b8015610d215780601f10610cf657610100808354040283529160200191610d21565b820191906000526020600020905b815481529060010190602001808311610d0457829003601f168201915b5050505050905082565b604051602001610d3a90613031565b60405160208183030381529060405280519060200120600b60003373ffffffffffffffffffffffffffffffffffffffff1673ffffffffffffffffffffffffffffffffffffffff168152602001908152602001600020604051602001610d9f919061301a565b6040516020818303038152906040528051906020012014610df5576040517f08c379a0000000000000000000000000000000000000000000000000000000008152600401610dec9061319c565b60405180910390fd5b600860008273ffffffffffffffffffffffffffffffffffffffff1673ffffffffffffffffffffffffffffffffffffffff168152602001908152602001600020600080820160009055600182016000610e4d91906125d5565b505050565b604051602001610e6190613031565b60405160208183030381529060405280519060200120600b60003373ffffffffffffffffffffffffffffffffffffffff1673ffffffffffffffffffffffffffffffffffffffff168152602001908152602001600020604051602001610ec6919061301a565b6040516020818303038152906040528051906020012014610f1c576040517f08c379a0000000000000000000000000000000000000000000000000000000008152600401610f139061319c565b60405180910390fd5b60056000815480929190610f2f906134c8565b91905055506040518060400160405280600554815260200182815250600760008473ffffffffffffffffffffffffffffffffffffffff1673ffffffffffffffffffffffffffffffffffffffff168152602001908152602001600020600082015181600001556020820151816001019080519060200190610fb092919061254f565b5090505060016040518060400160405280600554815260200183815250908060018154018082558091505060019003906000526020600020906002020160009091909190915060008201518160000155602082015181600101908051906020019061101c92919061254f565b50505061105e826040518060400160405280600781526020017f73747564656e74000000000000000000000000000000000000000000000000008152506123a0565b7f94a56de67dd66b06691e0bd81e5b57fbf02e3ce04576def9d15b6371a0109fd2828260405161108f9291906130af565b60405180910390a15050565b60065481565b6040516020016110b090613031565b60405160208183030381529060405280519060200120600b60003373ffffffffffffffffffffffffffffffffffffffff1673ffffffffffffffffffffffffffffffffffffffff168152602001908152602001600020604051602001611115919061301a565b604051602081830303815290604052805190602001201461116b576040517f08c379a00000000000000000000000000000000000000000000000000000000081526004016111629061319c565b60405180910390fd5b600a6000828152602001908152602001600020600080820160008082016000905560018201600061119c91906125d5565b6002820160006111ac9190612615565b6003820160006111bc9190612639565b6004820160006111cc919061265d565b5050600582016000905560068201600090556007820160009055505050565b6040516020016111fa90613031565b60405160208183030381529060405280519060200120600b60003373ffffffffffffffffffffffffffffffffffffffff1673ffffffffffffffffffffffffffffffffffffffff16815260200190815260200160002060405160200161125f919061301a565b60405160208183030381529060405280519060200120146112b5576040517f08c379a00000000000000000000000000000000000000000000000000000000081526004016112ac9061319c565b60405180910390fd5b600760008273ffffffffffffffffffffffffffffffffffffffff1673ffffffffffffffffffffffffffffffffffffffff16815260200190815260200160002060008082016000905560018201600061130d91906125d5565b505050565b60405160200161132190613031565b60405160208183030381529060405280519060200120600b60003373ffffffffffffffffffffffffffffffffffffffff1673ffffffffffffffffffffffffffffffffffffffff168152602001908152602001600020604051602001611386919061301a565b60405160208183030381529060405280519060200120146113dc576040517f08c379a00000000000000000000000000000000000000000000000000000000081526004016113d39061319c565b60405180910390fd5b6009600082815260200190815260200160002060008082016000905560018201600061140891906125d5565b6002820160006114189190612615565b6003820160006114289190612639565b600482016000611438919061265d565b505050565b60405160200161144c90613031565b60405160208183030381529060405280519060200120600b60003373ffffffffffffffffffffffffffffffffffffffff1673ffffffffffffffffffffffffffffffffffffffff1681526020019081526020016000206040516020016114b1919061301a565b6040516020818303038152906040528051906020012014611507576040517f08c379a00000000000000000000000000000000000000000000000000000000081526004016114fe9061319c565b60405180910390fd5b6006600081548092919061151a906134c8565b91905055506040518060400160405280600654815260200182815250600860008473ffffffffffffffffffffffffffffffffffffffff1673ffffffffffffffffffffffffffffffffffffffff16815260200190815260200160002060008201518160000155602082015181600101908051906020019061159b92919061254f565b5090505060026040518060400160405280600654815260200183815250908060018154018082558091505060019003906000526020600020906002020160009091909190915060008201518160000155602082015181600101908051906020019061160792919061254f565b505050611649826040518060400160405280600781526020017f74656163686572000000000000000000000000000000000000000000000000008152506123a0565b7f6996ba1536de57e4c72a268600ac97e3feae59f326494fce7dc56c6c6de959e3828260405161167a9291906130af565b60405180910390a15050565b600b60205280600052604060002060009150905080546116a590613496565b80601f01602080910402602001604051908101604052809291908181526020018280546116d190613496565b801561171e5780601f106116f35761010080835404028352916020019161171e565b820191906000526020600020905b81548152906001019060200180831161170157829003601f168201915b505050505081565b60405160200161173590613031565b60405160208183030381529060405280519060200120600b60003373ffffffffffffffffffffffffffffffffffffffff1673ffffffffffffffffffffffffffffffffffffffff16815260200190815260200160002060405160200161179a919061301a565b60405160208183030381529060405280519060200120146117f0576040517f08c379a00000000000000000000000000000000000000000000000000000000081526004016117e79061319c565b60405180910390fd5b60096000838152602001908152602001600020600301600760008373ffffffffffffffffffffffffffffffffffffffff1673ffffffffffffffffffffffffffffffffffffffff168152602001908152602001600020908060018154018082558091505060019003906000526020600020906002020160009091909190915060008201548160000155600182018160010190805461188c90613496565b6118979291906124c2565b5050507f330f6a5433c3d731bf2a234085fc8f11bd40cdbdd41b574d8570189c6ea277cb82826040516118cb929190613223565b60405180910390a15050565b600a6000838152602001908152602001600020600501546000805b60096000600a600086815260200190815260200160002060000160000154815260200190815260200160002060030180549050811015611a0a57600760003373ffffffffffffffffffffffffffffffffffffffff1673ffffffffffffffffffffffffffffffffffffffff1681526020019081526020016000206000015460096000600a600087815260200190815260200160002060000160000154815260200190815260200160002060030182815481106119d6577f4e487b7100000000000000000000000000000000000000000000000000000000600052603260045260246000fd5b90600052602060002090600202016000015414156119f75760019150611a0a565b8080611a02906134c8565b9150506118f2565b5080611a4b576040517f08c379a0000000000000000000000000000000000000000000000000000000008152600401611a429061311c565b60405180910390fd5b60001515600a600086815260200190815260200160002060080160003373ffffffffffffffffffffffffffffffffffffffff1673ffffffffffffffffffffffffffffffffffffffff16815260200190815260200160002060009054906101000a900460ff16151514611af2576040517f08c379a0000000000000000000000000000000000000000000000000000000008152600401611ae99061313c565b60405180910390fd5b82600a60008681526020019081526020016000206007015414611b4a576040517f08c379a0000000000000000000000000000000000000000000000000000000008152600401611b419061315c565b60405180910390fd5b6001600a600086815260200190815260200160002060080160003373ffffffffffffffffffffffffffffffffffffffff1673ffffffffffffffffffffffffffffffffffffffff16815260200190815260200160002060006101000a81548160ff0219169083151502179055507f1fc08eb0c2f0125b980d5b8b9c7d0c66f56fe49ed88c804b350f31b0130cda388433604051611be7929190613223565b60405180910390a150505050565b6009602052806000526040600020600091509050806000015490806001018054611c1e90613496565b80601f0160208091040260200160405190810160405280929190818152602001828054611c4a90613496565b8015611c975780601f10611c6c57610100808354040283529160200191611c97565b820191906000526020600020905b815481529060010190602001808311611c7a57829003601f168201915b5050505050905082565b6007602052806000526040600020600091509050806000015490806001018054611cca90613496565b80601f0160208091040260200160405190810160405280929190818152602001828054611cf690613496565b8015611d435780601f10611d1857610100808354040283529160200191611d43565b820191906000526020600020905b815481529060010190602001808311611d2657829003601f168201915b5050505050905082565b6000600860003373ffffffffffffffffffffffffffffffffffffffff1673ffffffffffffffffffffffffffffffffffffffff168152602001908152602001600020600001541415611dd3576040517f08c379a0000000000000000000000000000000000000000000000000000000008152600401611dca9061317c565b60405180910390fd5b611ddc81611dfa565b600a6000848152602001908152602001600020600701819055505050565b600042423384604051602001611e139493929190613046565b6040516020818303038152906040528051906020012060001c9050919050565b604051602001611e4290613031565b60405160208183030381529060405280519060200120600b60003373ffffffffffffffffffffffffffffffffffffffff1673ffffffffffffffffffffffffffffffffffffffff168152602001908152602001600020604051602001611ea7919061301a565b6040516020818303038152906040528051906020012014611efd576040517f08c379a0000000000000000000000000000000000000000000000000000000008152600401611ef49061319c565b60405180910390fd5b60036000815480929190611f10906134c8565b91905055506000600a6000600354815260200190815260200160002090506009600083815260200190815260200160002081600001600082015481600001556001820181600101908054611f6390613496565b611f6e9291906124c2565b506002820181600201908054611f8592919061267e565b506003820181600301908054611f9c929190612700565b506004820181600401908054611fb3929190612782565b5090505060035481600501819055508281600601819055506009600083815260200190815260200160002060040160035490806001815401808255809150506001900390600052602060002001600090919091909150557f5a3a80d0fae53d263cc7f8adc9b489c04a64d1f61278a26b20f7b67ebca6aa27600354848460405161203f9392919061327c565b60405180910390a1505050565b60045481565b60055481565b60008054906101000a900473ffffffffffffffffffffffffffffffffffffffff1681565b600a602052806000526040600020600091509050806000016040518060a0016040529081600082015481526020016001820180546120b990613496565b80601f01602080910402602001604051908101604052809291908181526020018280546120e590613496565b80156121325780601f1061210757610100808354040283529160200191612132565b820191906000526020600020905b81548152906001019060200180831161211557829003601f168201915b5050505050815260200160028201805480602002602001604051908101604052809291908181526020016000905b8282101561222e57838290600052602060002090600202016040518060400160405290816000820154815260200160018201805461219d90613496565b80601f01602080910402602001604051908101604052809291908181526020018280546121c990613496565b80156122165780601f106121eb57610100808354040283529160200191612216565b820191906000526020600020905b8154815290600101906020018083116121f957829003601f168201915b50505050508152505081526020019060010190612160565b50505050815260200160038201805480602002602001604051908101604052809291908181526020016000905b8282101561232957838290600052602060002090600202016040518060400160405290816000820154815260200160018201805461229890613496565b80601f01602080910402602001604051908101604052809291908181526020018280546122c490613496565b80156123115780601f106122e657610100808354040283529160200191612311565b820191906000526020600020905b8154815290600101906020018083116122f457829003601f168201915b5050505050815250508152602001906001019061225b565b5050505081526020016004820180548060200260200160405190810160405280929190818152602001828054801561238057602002820191906000526020600020905b81548152602001906001019080831161236c575b505050505081525050908060050154908060060154908060070154905084565b6040516020016123af90613031565b60405160208183030381529060405280519060200120600b60003373ffffffffffffffffffffffffffffffffffffffff1673ffffffffffffffffffffffffffffffffffffffff168152602001908152602001600020604051602001612414919061301a565b604051602081830303815290604052805190602001201461246a576040517f08c379a00000000000000000000000000000000000000000000000000000000081526004016124619061319c565b60405180910390fd5b80600b60008473ffffffffffffffffffffffffffffffffffffffff1673ffffffffffffffffffffffffffffffffffffffff16815260200190815260200160002090805190602001906124bd92919061254f565b505050565b8280546124ce90613496565b90600052602060002090601f0160209004810192826124f0576000855561253e565b82601f10612501578054855561253e565b8280016001018555821561253e57600052602060002091601f016020900482015b8281111561253d578254825591600101919060010190612522565b5b50905061254b91906127d4565b5090565b82805461255b90613496565b90600052602060002090601f01602090048101928261257d57600085556125c4565b82601f1061259657805160ff19168380011785556125c4565b828001600101855582156125c4579182015b828111156125c35782518255916020019190600101906125a8565b5b5090506125d191906127d4565b5090565b5080546125e190613496565b6000825580601f106125f35750612612565b601f01602090049060005260206000209081019061261191906127d4565b5b50565b508054600082556002029060005260206000209081019061263691906127f1565b50565b508054600082556002029060005260206000209081019061265a9190612820565b50565b508054600082559060005260206000209081019061267b91906127d4565b50565b8280548282559060005260206000209060020281019282156126ef5760005260206000209160020282015b828111156126ee5782826000820154816000015560018201816001019080546126d190613496565b6126dc9291906124c2565b505050916002019190600201906126a9565b5b5090506126fc91906127f1565b5090565b8280548282559060005260206000209060020281019282156127715760005260206000209160020282015b8281111561277057828260008201548160000155600182018160010190805461275390613496565b61275e9291906124c2565b5050509160020191906002019061272b565b5b50905061277e9190612820565b5090565b8280548282559060005260206000209081019282156127c35760005260206000209182015b828111156127c25782548255916001019190600101906127a7565b5b5090506127d091906127d4565b5090565b5b808211156127ed5760008160009055506001016127d5565b5090565b5b8082111561281c5760008082016000905560018201600061281391906125d5565b506002016127f2565b5090565b5b8082111561284b5760008082016000905560018201600061284291906125d5565b50600201612821565b5090565b600061286261285d846132e4565b6132b3565b90508281526020810184848401111561287a57600080fd5b612885848285613454565b509392505050565b60008135905061289c816135ea565b92915050565b600082601f8301126128b357600080fd5b81356128c384826020860161284f565b91505092915050565b6000813590506128db81613601565b92915050565b6000602082840312156128f357600080fd5b60006129018482850161288d565b91505092915050565b6000806040838503121561291d57600080fd5b600061292b8582860161288d565b925050602083013567ffffffffffffffff81111561294857600080fd5b612954858286016128a2565b9150509250929050565b60006020828403121561297057600080fd5b600082013567ffffffffffffffff81111561298a57600080fd5b612996848285016128a2565b91505092915050565b6000602082840312156129b157600080fd5b60006129bf848285016128cc565b91505092915050565b600080604083850312156129db57600080fd5b60006129e9858286016128cc565b92505060206129fa8582860161288d565b9150509250929050565b60008060408385031215612a1757600080fd5b6000612a25858286016128cc565b9250506020612a36858286016128cc565b9150509250929050565b6000612a4c8383612ee0565b905092915050565b6000612a608383612fa8565b905092915050565b6000612a748383612fe5565b60208301905092915050565b612a898161340c565b82525050565b612aa0612a9b8261340c565b613511565b82525050565b6000612ab182613359565b612abb81856133ac565b935083602082028501612acd85613314565b8060005b85811015612b095784840389528151612aea8582612a40565b9450612af583613385565b925060208a01995050600181019050612ad1565b50829750879550505050505092915050565b6000612b2682613364565b612b3081856133bd565b935083602082028501612b4285613324565b8060005b85811015612b7e5784840389528151612b5f8582612a54565b9450612b6a83613392565b925060208a01995050600181019050612b46565b50829750879550505050505092915050565b6000612b9b8261336f565b612ba581856133ce565b9350612bb083613334565b8060005b83811015612be1578151612bc88882612a68565b9750612bd38361339f565b925050600181019050612bb4565b5085935050505092915050565b612bf78161341e565b82525050565b6000612c088261337a565b612c1281856133df565b9350612c22818560208601613463565b612c2b816135cc565b840191505092915050565b6000612c418261337a565b612c4b81856133f0565b9350612c5b818560208601613463565b612c64816135cc565b840191505092915050565b60008154612c7c81613496565b612c868186613401565b94506001821660008114612ca15760018114612cb257612ce5565b60ff19831686528186019350612ce5565b612cbb85613344565b60005b83811015612cdd57815481890152600182019150602081019050612cbe565b838801955050505b50505092915050565b6000612cfb602d836133f0565b91507f4f6e6c7920656e726f6c6c65642073747564656e74732063616e2063616c6c2060008301527f746869732066756e6374696f6e000000000000000000000000000000000000006020830152604082019050919050565b6000612d616019836133f0565b91507f417474656e64616e636520616c7265616479206d61726b6564000000000000006000830152602082019050919050565b6000612da16010836133f0565b91507f496e76616c69642070617373776f7264000000000000000000000000000000006000830152602082019050919050565b6000612de16024836133f0565b91507f4f6e6c792074656163686572732063616e2063616c6c20746869732066756e6360008301527f74696f6e000000000000000000000000000000000000000000000000000000006020830152604082019050919050565b6000612e476021836133f0565b91507f4f6e6c792061646d696e2063616e2063616c6c20746869732066756e6374696f60008301527f6e000000000000000000000000000000000000000000000000000000000000006020830152604082019050919050565b6000612ead600583613401565b91507f61646d696e0000000000000000000000000000000000000000000000000000006000830152600582019050919050565b6000604083016000830151612ef86000860182612fe5565b5060208301518482036020860152612f108282612bfd565b9150508091505092915050565b600060a083016000830151612f356000860182612fe5565b5060208301518482036020860152612f4d8282612bfd565b91505060408301518482036040860152612f678282612b1b565b91505060608301518482036060860152612f818282612aa6565b91505060808301518482036080860152612f9b8282612b90565b9150508091505092915050565b6000604083016000830151612fc06000860182612fe5565b5060208301518482036020860152612fd88282612bfd565b9150508091505092915050565b612fee8161344a565b82525050565b612ffd8161344a565b82525050565b61301461300f8261344a565b613535565b82525050565b60006130268284612c6f565b915081905092915050565b600061303c82612ea0565b9150819050919050565b60006130528287613003565b6020820191506130628286613003565b6020820191506130728285612a8f565b6014820191506130828284613003565b60208201915081905095945050505050565b60006020820190506130a96000830184612a80565b92915050565b60006040820190506130c46000830185612a80565b81810360208301526130d68184612c36565b90509392505050565b60006020820190506130f46000830184612bee565b92915050565b600060208201905081810360008301526131148184612c36565b905092915050565b6000602082019050818103600083015261313581612cee565b9050919050565b6000602082019050818103600083015261315581612d54565b9050919050565b6000602082019050818103600083015261317581612d94565b9050919050565b6000602082019050818103600083015261319581612dd4565b9050919050565b600060208201905081810360008301526131b581612e3a565b9050919050565b600060808201905081810360008301526131d68187612f1d565b90506131e56020830186612ff4565b6131f26040830185612ff4565b6131ff6060830184612ff4565b95945050505050565b600060208201905061321d6000830184612ff4565b92915050565b60006040820190506132386000830185612ff4565b6132456020830184612a80565b9392505050565b60006040820190506132616000830185612ff4565b81810360208301526132738184612c36565b90509392505050565b60006060820190506132916000830186612ff4565b61329e6020830185612ff4565b6132ab6040830184612ff4565b949350505050565b6000604051905081810181811067ffffffffffffffff821117156132da576132d961359d565b5b8060405250919050565b600067ffffffffffffffff8211156132ff576132fe61359d565b5b601f19601f8301169050602081019050919050565b6000819050602082019050919050565b6000819050602082019050919050565b6000819050602082019050919050565b60008190508160005260206000209050919050565b600081519050919050565b600081519050919050565b600081519050919050565b600081519050919050565b6000602082019050919050565b6000602082019050919050565b6000602082019050919050565b600082825260208201905092915050565b600082825260208201905092915050565b600082825260208201905092915050565b600082825260208201905092915050565b600082825260208201905092915050565b600081905092915050565b60006134178261342a565b9050919050565b60008115159050919050565b600073ffffffffffffffffffffffffffffffffffffffff82169050919050565b6000819050919050565b82818337600083830152505050565b60005b83811015613481578082015181840152602081019050613466565b83811115613490576000848401525b50505050565b600060028204905060018216806134ae57607f821691505b602082108114156134c2576134c161356e565b5b50919050565b60006134d38261344a565b91507fffffffffffffffffffffffffffffffffffffffffffffffffffffffffffffffff8214156135065761350561353f565b5b600182019050919050565b600061351c82613523565b9050919050565b600061352e826135dd565b9050919050565b6000819050919050565b7f4e487b7100000000000000000000000000000000000000000000000000000000600052601160045260246000fd5b7f4e487b7100000000000000000000000000000000000000000000000000000000600052602260045260246000fd5b7f4e487b7100000000000000000000000000000000000000000000000000000000600052604160045260246000fd5b6000601f19601f8301169050919050565b60008160601b9050919050565b6135f38161340c565b81146135fe57600080fd5b50565b61360a8161344a565b811461361557600080fd5b5056fea26469706673582212209235b7e19b4a92eafd5a01c9308927dd9f4d9b1ad281969672216e841fb88b3264736f6c63430008000033",
  "immutableReferences": {},
  "source": "//SPDX-License-Identifier: MIT\r\n\r\npragma solidity ^0.8.0;\r\n\r\ncontract Attendance {\r\n\r\n    address public admin;\r\n    Student[] public students;\r\n    Teacher[] public teachers;\r\n    uint256 public classCounter;\r\n    uint256 public subjectCounter;\r\n    uint256 public studentCounter;\r\n    uint256 public teacherCounter;\r\n\r\n    struct Student {\r\n        uint256 studentId;\r\n        string name;\r\n    }\r\n\r\n    struct Teacher {\r\n        uint256 teacherId;\r\n        string name;\r\n    }\r\n\r\n    struct Subject {\r\n        uint256 subjectId;\r\n        string subjectName;\r\n        Teacher[] teachingTeachers;\r\n        Student[] enrolledStudents;\r\n        uint256[] classIds;\r\n    }\r\n\r\n    struct Class {\r\n        Subject subject;\r\n        uint256 classId;\r\n        uint256 classDate;\r\n        uint256 classPwd;\r\n        mapping(address => bool) attendance;\r\n    }\r\n\r\n    event studentAdded(address student, string name);\r\n    event teacherAdded(address teacher, string name);\r\n    event subjectCreated(uint256 subjectId, string subjectName);\r\n    event classCreated(uint256 classId, uint256 classDate, uint256 subjectId);\r\n    event studentEnrolled(uint256 subjectId, address student);\r\n    event teacherAssigned(uint256 subjectId, address teacher);\r\n    event attendanceMarked(uint256 classId, address student);\r\n\r\n\r\n    mapping(address => Student) public studentDetails;\r\n    mapping(address => Teacher) public teacherDetails;\r\n    mapping(uint256 => Subject) public subjectDetails;\r\n    mapping(uint256 => Class) public classDetails;\r\n\r\n    mapping(address => string) public roles;\r\n\r\n    constructor() {\r\n        admin = msg.sender;\r\n        roles[msg.sender] = \"admin\"; // Contract deployer is the admin\r\n    }\r\n\r\n    modifier onlyAdmin() {\r\n        require(keccak256(abi.encodePacked(roles[msg.sender])) == keccak256(abi.encodePacked(\"admin\")), \"Only admin can call this function\");\r\n        _;\r\n    }\r\n\r\n    modifier onlyTeacher() {\r\n        require(teacherDetails[msg.sender].teacherId != 0, \"Only teachers can call this function\");\r\n        _;\r\n    }\r\n\r\n    modifier onlyStudent() {\r\n        require(studentDetails[msg.sender].studentId != 0, \"Only students can call this function\");\r\n        _;\r\n    }\r\n\r\n    modifier onlyEnrolledStudent(uint256 classId) {\r\n        bool isEnrolled = false;\r\n        for (uint256 i = 0; i < subjectDetails[classDetails[classId].subject.subjectId].enrolledStudents.length; i++) {\r\n            if (subjectDetails[classDetails[classId].subject.subjectId].enrolledStudents[i].studentId == studentDetails[msg.sender].studentId) {\r\n                isEnrolled = true;\r\n                break;\r\n            }\r\n        }\r\n        require(isEnrolled, \"Only enrolled students can call this function\");\r\n        _;\r\n    }\r\n\r\n    function assignRole(address user, string memory role) internal onlyAdmin {\r\n        roles[user] = role;\r\n    }\r\n\r\n    function getRole(address user) public view returns (string memory) {\r\n        return roles[user];\r\n    }\r\n\r\n    function addStudent(address _student, string memory _name) public onlyAdmin {\r\n        studentCounter++;\r\n        studentDetails[_student] = Student(studentCounter, _name);\r\n        students.push(Student(studentCounter, _name));\r\n        assignRole(_student, \"student\");\r\n\r\n        emit studentAdded(_student, _name);\r\n    }   \r\n\r\n    function addTeacher(address _teacher, string memory _name) public onlyAdmin {\r\n        teacherCounter++;\r\n        teacherDetails[_teacher] = Teacher(teacherCounter,_name);\r\n        teachers.push(Teacher(teacherCounter, _name));\r\n        assignRole(_teacher, \"teacher\");\r\n\r\n        emit teacherAdded(_teacher, _name);\r\n    }\r\n\r\n    function createSubject(string memory _subjectName) public onlyAdmin {\r\n        subjectCounter++;\r\n        Subject storage newSubject = subjectDetails[subjectCounter];\r\n        newSubject.subjectId=subjectCounter;\r\n        newSubject.subjectName = _subjectName;\r\n\r\n        emit subjectCreated(subjectCounter, _subjectName);\r\n    }\r\n\r\n    function createClass(uint256 _classDate, uint256 _subjectId) public onlyAdmin {\r\n        classCounter++;\r\n        \r\n        Class storage newClass = classDetails[classCounter];\r\n        newClass.subject = subjectDetails[_subjectId];\r\n        newClass.classId = classCounter;\r\n        newClass.classDate = _classDate;\r\n        subjectDetails[_subjectId].classIds.push(classCounter);\r\n\r\n        emit classCreated(classCounter, _classDate, _subjectId);\r\n    }\r\n\r\n    function enrollStudent(uint256 _subjectId, address _student) public onlyAdmin {\r\n        subjectDetails[_subjectId].enrolledStudents.push(studentDetails[_student]);\r\n\r\n        emit studentEnrolled(_subjectId, _student);\r\n    }\r\n\r\n    function assignTeacher(uint256 _subjectId, address _teacher) public onlyAdmin {\r\n        subjectDetails[_subjectId].teachingTeachers.push(teacherDetails[_teacher]);\r\n\r\n        emit teacherAssigned(_subjectId, _teacher);\r\n    }\r\n\r\n    function markAttendance(uint256 _classId, uint256 _pwd) public onlyEnrolledStudent(classDetails[_classId].classId) {\r\n        require(classDetails[_classId].attendance[msg.sender] == false, \"Attendance already marked\");\r\n        require(classDetails[_classId].classPwd == _pwd, \"Invalid password\");\r\n        classDetails[_classId].attendance[msg.sender] = true;\r\n\r\n        emit attendanceMarked(_classId, msg.sender);\r\n    }\r\n\r\n    function checkAttendance(uint256 _classId) public view returns (bool) {\r\n        return classDetails[_classId].attendance[msg.sender];\r\n    }\r\n\r\n    function checkAttendance(uint256 _classId, address _student) public view onlyTeacher returns (bool) {\r\n        return classDetails[_classId].attendance[_student];\r\n    }\r\n\r\n    function generateClassPwd(uint256 _classId, uint256 _seed) public onlyTeacher {\r\n        classDetails[_classId].classPwd = getRandomNumber(_seed);\r\n    }\r\n\r\n    function getRandomNumber(uint256 seed) public view returns (uint256) {\r\n        return uint256(keccak256(abi.encodePacked(block.timestamp, block.timestamp, msg.sender, seed)));\r\n    }\r\n\r\n    function removeStudent(address _student) public onlyAdmin {\r\n        delete studentDetails[_student];\r\n    }\r\n\r\n    function removeTeacher(address _teacher) public onlyAdmin {\r\n        delete teacherDetails[_teacher];\r\n    }\r\n\r\n    function removeSubject(uint256 _subjectId) public onlyAdmin {\r\n        delete subjectDetails[_subjectId];\r\n    }\r\n\r\n    function removeClass(uint256 _classId) public onlyAdmin {\r\n        delete classDetails[_classId];\r\n    }\r\n\r\n}",
  "sourcePath": "C:\\Users\\User\\Desktop\\dev\\Blockchain\\contracts\\Attendance.sol",
  "compiler": {
    "name": "solc",
    "version": "0.8.0+commit.c7dfd78e.Emscripten.clang"
  },
  "schemaVersion": "3.4.16",
  "updatedAt": "2025-01-18T10:41:02.750Z",
  "networkType": "ethereum",
  "devdoc": {
    "kind": "dev",
    "methods": {},
    "version": 1
  },
  "userdoc": {
    "kind": "user",
    "methods": {},
    "version": 1
  }
}