{
  "contractName": "Attendance",
  "abi": [
    {
      "inputs": [],
      "stateMutability": "nonpayable",
      "type": "constructor"
    },
    {
      "anonymous": false,
      "inputs": [
        {
          "indexed": false,
          "internalType": "uint256",
          "name": "classId",
          "type": "uint256"
        },
        {
          "indexed": false,
          "internalType": "address",
          "name": "student",
          "type": "address"
        }
      ],
      "name": "attendanceMarked",
      "type": "event"
    },
    {
      "anonymous": false,
      "inputs": [
        {
          "indexed": false,
          "internalType": "uint256",
          "name": "classId",
          "type": "uint256"
        },
        {
          "indexed": false,
          "internalType": "uint256",
          "name": "classDate",
          "type": "uint256"
        },
        {
          "indexed": false,
          "internalType": "uint256",
          "name": "subjectId",
          "type": "uint256"
        }
      ],
      "name": "classCreated",
      "type": "event"
    },
    {
      "anonymous": false,
      "inputs": [
        {
          "indexed": false,
          "internalType": "address",
          "name": "student",
          "type": "address"
        },
        {
          "indexed": false,
          "internalType": "string",
          "name": "name",
          "type": "string"
        }
      ],
      "name": "studentAdded",
      "type": "event"
    },
    {
      "anonymous": false,
      "inputs": [
        {
          "indexed": false,
          "internalType": "uint256",
          "name": "subjectId",
          "type": "uint256"
        },
        {
          "indexed": false,
          "internalType": "address",
          "name": "student",
          "type": "address"
        }
      ],
      "name": "studentEnrolled",
      "type": "event"
    },
    {
      "anonymous": false,
      "inputs": [
        {
          "indexed": false,
          "internalType": "uint256",
          "name": "subjectId",
          "type": "uint256"
        },
        {
          "indexed": false,
          "internalType": "string",
          "name": "subjectName",
          "type": "string"
        }
      ],
      "name": "subjectCreated",
      "type": "event"
    },
    {
      "anonymous": false,
      "inputs": [
        {
          "indexed": false,
          "internalType": "address",
          "name": "teacher",
          "type": "address"
        },
        {
          "indexed": false,
          "internalType": "string",
          "name": "name",
          "type": "string"
        }
      ],
      "name": "teacherAdded",
      "type": "event"
    },
    {
      "anonymous": false,
      "inputs": [
        {
          "indexed": false,
          "internalType": "uint256",
          "name": "subjectId",
          "type": "uint256"
        },
        {
          "indexed": false,
          "internalType": "address",
          "name": "teacher",
          "type": "address"
        }
      ],
      "name": "teacherAssigned",
      "type": "event"
    },
    {
      "inputs": [],
      "name": "admin",
      "outputs": [
        {
          "internalType": "address",
          "name": "",
          "type": "address"
        }
      ],
      "stateMutability": "view",
      "type": "function",
      "constant": true
    },
    {
      "inputs": [],
      "name": "classCounter",
      "outputs": [
        {
          "internalType": "uint256",
          "name": "",
          "type": "uint256"
        }
      ],
      "stateMutability": "view",
      "type": "function",
      "constant": true
    },
    {
      "inputs": [
        {
          "internalType": "uint256",
          "name": "",
          "type": "uint256"
        }
      ],
      "name": "classDetails",
      "outputs": [
        {
          "components": [
            {
              "internalType": "uint256",
              "name": "subjectId",
              "type": "uint256"
            },
            {
              "internalType": "string",
              "name": "subjectName",
              "type": "string"
            },
            {
              "components": [
                {
                  "internalType": "uint256",
                  "name": "teacherId",
                  "type": "uint256"
                },
                {
                  "internalType": "string",
                  "name": "name",
                  "type": "string"
                }
              ],
              "internalType": "struct Attendance.Teacher[]",
              "name": "teachingTeachers",
              "type": "tuple[]"
            },
            {
              "components": [
                {
                  "internalType": "uint256",
                  "name": "studentId",
                  "type": "uint256"
                },
                {
                  "internalType": "string",
                  "name": "name",
                  "type": "string"
                }
              ],
              "internalType": "struct Attendance.Student[]",
              "name": "enrolledStudents",
              "type": "tuple[]"
            },
            {
              "internalType": "uint256[]",
              "name": "classIds",
              "type": "uint256[]"
            }
          ],
          "internalType": "struct Attendance.Subject",
          "name": "subject",
          "type": "tuple"
        },
        {
          "internalType": "uint256",
          "name": "classId",
          "type": "uint256"
        },
        {
          "internalType": "uint256",
          "name": "classDate",
          "type": "uint256"
        },
        {
          "internalType": "uint256",
          "name": "classPwd",
          "type": "uint256"
        }
      ],
      "stateMutability": "view",
      "type": "function",
      "constant": true
    },
    {
      "inputs": [
        {
          "internalType": "address",
          "name": "",
          "type": "address"
        }
      ],
      "name": "roles",
      "outputs": [
        {
          "internalType": "string",
          "name": "",
          "type": "string"
        }
      ],
      "stateMutability": "view",
      "type": "function",
      "constant": true
    },
    {
      "inputs": [],
      "name": "studentCounter",
      "outputs": [
        {
          "internalType": "uint256",
          "name": "",
          "type": "uint256"
        }
      ],
      "stateMutability": "view",
      "type": "function",
      "constant": true
    },
    {
      "inputs": [
        {
          "internalType": "address",
          "name": "",
          "type": "address"
        }
      ],
      "name": "studentDetails",
      "outputs": [
        {
          "internalType": "uint256",
          "name": "studentId",
          "type": "uint256"
        },
        {
          "internalType": "string",
          "name": "name",
          "type": "string"
        }
      ],
      "stateMutability": "view",
      "type": "function",
      "constant": true
    },
    {
      "inputs": [
        {
          "internalType": "uint256",
          "name": "",
          "type": "uint256"
        }
      ],
      "name": "students",
      "outputs": [
        {
          "internalType": "uint256",
          "name": "studentId",
          "type": "uint256"
        },
        {
          "internalType": "string",
          "name": "name",
          "type": "string"
        }
      ],
      "stateMutability": "view",
      "type": "function",
      "constant": true
    },
    {
      "inputs": [],
      "name": "subjectCounter",
      "outputs": [
        {
          "internalType": "uint256",
          "name": "",
          "type": "uint256"
        }
      ],
      "stateMutability": "view",
      "type": "function",
      "constant": true
    },
    {
      "inputs": [
        {
          "internalType": "uint256",
          "name": "",
          "type": "uint256"
        }
      ],
      "name": "subjectDetails",
      "outputs": [
        {
          "internalType": "uint256",
          "name": "subjectId",
          "type": "uint256"
        },
        {
          "internalType": "string",
          "name": "subjectName",
          "type": "string"
        }
      ],
      "stateMutability": "view",
      "type": "function",
      "constant": true
    },
    {
      "inputs": [],
      "name": "teacherCounter",
      "outputs": [
        {
          "internalType": "uint256",
          "name": "",
          "type": "uint256"
        }
      ],
      "stateMutability": "view",
      "type": "function",
      "constant": true
    },
    {
      "inputs": [
        {
          "internalType": "address",
          "name": "",
          "type": "address"
        }
      ],
      "name": "teacherDetails",
      "outputs": [
        {
          "internalType": "uint256",
          "name": "teacherId",
          "type": "uint256"
        },
        {
          "internalType": "string",
          "name": "name",
          "type": "string"
        }
      ],
      "stateMutability": "view",
      "type": "function",
      "constant": true
    },
    {
      "inputs": [
        {
          "internalType": "uint256",
          "name": "",
          "type": "uint256"
        }
      ],
      "name": "teachers",
      "outputs": [
        {
          "internalType": "uint256",
          "name": "teacherId",
          "type": "uint256"
        },
        {
          "internalType": "string",
          "name": "name",
          "type": "string"
        }
      ],
      "stateMutability": "view",
      "type": "function",
      "constant": true
    },
    {
      "inputs": [
        {
          "internalType": "address",
          "name": "user",
          "type": "address"
        }
      ],
      "name": "getRole",
      "outputs": [
        {
          "internalType": "string",
          "name": "",
          "type": "string"
        }
      ],
      "stateMutability": "view",
      "type": "function",
      "constant": true
    },
    {
      "inputs": [
        {
          "internalType": "address",
          "name": "_student",
          "type": "address"
        },
        {
          "internalType": "string",
          "name": "_name",
          "type": "string"
        }
      ],
      "name": "addStudent",
      "outputs": [],
      "stateMutability": "nonpayable",
      "type": "function"
    },
    {
      "inputs": [
        {
          "internalType": "address",
          "name": "_teacher",
          "type": "address"
        },
        {
          "internalType": "string",
          "name": "_name",
          "type": "string"
        }
      ],
      "name": "addTeacher",
      "outputs": [],
      "stateMutability": "nonpayable",
      "type": "function"
    },
    {
      "inputs": [
        {
          "internalType": "string",
          "name": "_subjectName",
          "type": "string"
        }
      ],
      "name": "createSubject",
      "outputs": [],
      "stateMutability": "nonpayable",
      "type": "function"
    },
    {
      "inputs": [
        {
          "internalType": "uint256",
          "name": "_classDate",
          "type": "uint256"
        },
        {
          "internalType": "uint256",
          "name": "_subjectId",
          "type": "uint256"
        }
      ],
      "name": "createClass",
      "outputs": [],
      "stateMutability": "nonpayable",
      "type": "function"
    },
    {
      "inputs": [
        {
          "internalType": "uint256",
          "name": "_subjectId",
          "type": "uint256"
        },
        {
          "internalType": "address",
          "name": "_student",
          "type": "address"
        }
      ],
      "name": "enrollStudent",
      "outputs": [],
      "stateMutability": "nonpayable",
      "type": "function"
    },
    {
      "inputs": [
        {
          "internalType": "uint256",
          "name": "_subjectId",
          "type": "uint256"
        },
        {
          "internalType": "address",
          "name": "_teacher",
          "type": "address"
        }
      ],
      "name": "assignTeacher",
      "outputs": [],
      "stateMutability": "nonpayable",
      "type": "function"
    },
    {
      "inputs": [
        {
          "internalType": "uint256",
          "name": "_classId",
          "type": "uint256"
        },
        {
          "internalType": "uint256",
          "name": "_pwd",
          "type": "uint256"
        }
      ],
      "name": "markAttendance",
      "outputs": [],
      "stateMutability": "nonpayable",
      "type": "function"
    },
    {
      "inputs": [
        {
          "internalType": "uint256",
          "name": "_classId",
          "type": "uint256"
        }
      ],
      "name": "checkAttendance",
      "outputs": [
        {
          "internalType": "bool",
          "name": "",
          "type": "bool"
        }
      ],
      "stateMutability": "view",
      "type": "function",
      "constant": true
    },
    {
      "inputs": [
        {
          "internalType": "uint256",
          "name": "_classId",
          "type": "uint256"
        },
        {
          "internalType": "address",
          "name": "_student",
          "type": "address"
        }
      ],
      "name": "checkAttendance",
      "outputs": [
        {
          "internalType": "bool",
          "name": "",
          "type": "bool"
        }
      ],
      "stateMutability": "view",
      "type": "function",
      "constant": true
    },
    {
      "inputs": [
        {
          "internalType": "uint256",
          "name": "_classId",
          "type": "uint256"
        }
      ],
      "name": "generateClassPwd",
      "outputs": [],
      "stateMutability": "nonpayable",
      "type": "function"
    },
    {
      "inputs": [],
      "name": "getRandomPassword",
      "outputs": [
        {
          "internalType": "string",
          "name": "",
          "type": "string"
        }
      ],
      "stateMutability": "view",
      "type": "function",
      "constant": true
    },
    {
      "inputs": [
        {
          "internalType": "address",
          "name": "_student",
          "type": "address"
        }
      ],
      "name": "removeStudent",
      "outputs": [],
      "stateMutability": "nonpayable",
      "type": "function"
    },
    {
      "inputs": [
        {
          "internalType": "address",
          "name": "_teacher",
          "type": "address"
        }
      ],
      "name": "removeTeacher",
      "outputs": [],
      "stateMutability": "nonpayable",
      "type": "function"
    },
    {
      "inputs": [
        {
          "internalType": "uint256",
          "name": "_subjectId",
          "type": "uint256"
        }
      ],
      "name": "removeSubject",
      "outputs": [],
      "stateMutability": "nonpayable",
      "type": "function"
    },
    {
      "inputs": [
        {
          "internalType": "uint256",
          "name": "_classId",
          "type": "uint256"
        }
      ],
      "name": "removeClass",
      "outputs": [],
      "stateMutability": "nonpayable",
      "type": "function"
    }
  ],
  "bytecode": "0x60806040523480156200001157600080fd5b50336000806101000a81548173ffffffffffffffffffffffffffffffffffffffff021916908373ffffffffffffffffffffffffffffffffffffffff1602179055506040518060400160405280600581526020017f61646d696e000000000000000000000000000000000000000000000000000000815250600b60003373ffffffffffffffffffffffffffffffffffffffff1673ffffffffffffffffffffffffffffffffffffffff1681526020019081526020016000209080519060200190620000dc929190620000e3565b50620001f8565b828054620000f19062000193565b90600052602060002090601f01602090048101928262000115576000855562000161565b82601f106200013057805160ff191683800117855562000161565b8280016001018555821562000161579182015b828111156200016057825182559160200191906001019062000143565b5b50905062000170919062000174565b5090565b5b808211156200018f57600081600090555060010162000175565b5090565b60006002820490506001821680620001ac57607f821691505b60208210811415620001c357620001c2620001c9565b5b50919050565b7f4e487b7100000000000000000000000000000000000000000000000000000000600052602260045260246000fd5b61396a80620002086000396000f3fe608060405234801561001057600080fd5b50600436106101c45760003560e01c806372c30f45116100f9578063ae504c5c11610097578063d1939ccf11610071578063d1939ccf14610528578063e3596cac14610546578063f851a44014610564578063fe24ec6514610582576101c4565b8063ae504c5c146104aa578063aed7419b146104db578063b6ba72301461050c576101c4565b80638f5b9b2e116100d35780638f5b9b2e146104265780639937464214610442578063aba4234914610472578063ac80b4d21461048e576101c4565b806372c30f45146103d257806378c4798c146103ee57806380d019991461040a576101c4565b8063442767331161016657806350e0b94d1161014057806350e0b94d1461036057806352ff68461461037c5780635e8b8091146103985780637194c5b3146103b4576101c4565b806344276733146102e157806344d370b814610311578063465c0e5314610342576101c4565b80632b37f7e7116101a25780632b37f7e71461023257806334ac0b40146102625780633954d58b146102935780633d2d8663146102b1576101c4565b806306ead22e146101c95780630ddb03bb146101fa5780632520f9a114610216575b600080fd5b6101e360048036038101906101de9190612b52565b6105b5565b6040516101f192919061344d565b60405180910390f35b610214600480360381019061020f9190612b7b565b610671565b005b610230600480360381019061022b9190612b11565b610822565b005b61024c60048036038101906102479190612b52565b610980565b60405161025991906132e0565b60405180910390f35b61027c60048036038101906102779190612b52565b6109ea565b60405161028a92919061344d565b60405180910390f35b61029b610aa6565b6040516102a89190613409565b60405180910390f35b6102cb60048036038101906102c69190612b7b565b610aac565b6040516102d891906132e0565b60405180910390f35b6102fb60048036038101906102f69190612a94565b610b9c565b60405161030891906132fb565b60405180910390f35b61032b60048036038101906103269190612a94565b610c6d565b60405161033992919061344d565b60405180910390f35b61034a610d19565b60405161035791906132fb565b60405180910390f35b61037a60048036038101906103759190612b52565b610eea565b005b61039660048036038101906103919190612a94565b610fc4565b005b6103b260048036038101906103ad9190612abd565b6110eb565b005b6103bc611334565b6040516103c99190613409565b60405180910390f35b6103ec60048036038101906103e79190612b52565b61133a565b005b61040860048036038101906104039190612a94565b611484565b005b610424600480360381019061041f9190612b52565b6115ab565b005b610440600480360381019061043b9190612abd565b6116d6565b005b61045c60048036038101906104579190612a94565b61191f565b60405161046991906132fb565b60405180910390f35b61048c60048036038101906104879190612b7b565b6119bf565b005b6104a860048036038101906104a39190612bb7565b611b70565b005b6104c460048036038101906104bf9190612b52565b611e8e565b6040516104d292919061344d565b60405180910390f35b6104f560048036038101906104f09190612a94565b611f3a565b60405161050392919061344d565b60405180910390f35b61052660048036038101906105219190612bb7565b611fe6565b005b6105306121ff565b60405161053d9190613409565b60405180910390f35b61054e612205565b60405161055b9190613409565b60405180910390f35b61056c61220b565b6040516105799190613295565b60405180910390f35b61059c60048036038101906105979190612b52565b61222f565b6040516105ac94939291906133bd565b60405180910390f35b600181815481106105c557600080fd5b90600052602060002090600202016000915090508060000154908060010180546105ee90613706565b80601f016020809104026020016040519081016040528092919081815260200182805461061a90613706565b80156106675780601f1061063c57610100808354040283529160200191610667565b820191906000526020600020905b81548152906001019060200180831161064a57829003601f168201915b5050505050905082565b60405160200161068090613243565b60405160208183030381529060405280519060200120600b60003373ffffffffffffffffffffffffffffffffffffffff1673ffffffffffffffffffffffffffffffffffffffff1681526020019081526020016000206040516020016106e5919061322c565b604051602081830303815290604052805190602001201461073b576040517f08c379a00000000000000000000000000000000000000000000000000000000081526004016107329061339d565b60405180910390fd5b60096000838152602001908152602001600020600201600860008373ffffffffffffffffffffffffffffffffffffffff1673ffffffffffffffffffffffffffffffffffffffff16815260200190815260200160002090806001815401808255809150506001900390600052602060002090600202016000909190919091506000820154816000015560018201816001019080546107d790613706565b6107e2929190612675565b5050507f8c067146ec725333e811330fd75fb90567f7eeca601628b5943875fc4a43723e8282604051610816929190613424565b60405180910390a15050565b60405160200161083190613243565b60405160208183030381529060405280519060200120600b60003373ffffffffffffffffffffffffffffffffffffffff1673ffffffffffffffffffffffffffffffffffffffff168152602001908152602001600020604051602001610896919061322c565b60405160208183030381529060405280519060200120146108ec576040517f08c379a00000000000000000000000000000000000000000000000000000000081526004016108e39061339d565b60405180910390fd5b600460008154809291906108ff90613738565b919050555060006009600060045481526020019081526020016000209050600454816000018190555081816001019080519060200190610940929190612702565b507feeb360ad20d46a8343b758e287ec025d44c51139825f3af2950630c14599acbd6004548360405161097492919061344d565b60405180910390a15050565b6000600a600083815260200190815260200160002060080160003373ffffffffffffffffffffffffffffffffffffffff1673ffffffffffffffffffffffffffffffffffffffff16815260200190815260200160002060009054906101000a900460ff169050919050565b600281815481106109fa57600080fd5b9060005260206000209060020201600091509050806000015490806001018054610a2390613706565b80601f0160208091040260200160405190810160405280929190818152602001828054610a4f90613706565b8015610a9c5780601f10610a7157610100808354040283529160200191610a9c565b820191906000526020600020905b815481529060010190602001808311610a7f57829003601f168201915b5050505050905082565b60035481565b600080600860003373ffffffffffffffffffffffffffffffffffffffff1673ffffffffffffffffffffffffffffffffffffffff168152602001908152602001600020600001541415610b33576040517f08c379a0000000000000000000000000000000000000000000000000000000008152600401610b2a9061337d565b60405180910390fd5b600a600084815260200190815260200160002060080160008373ffffffffffffffffffffffffffffffffffffffff1673ffffffffffffffffffffffffffffffffffffffff16815260200190815260200160002060009054906101000a900460ff16905092915050565b6060600b60008373ffffffffffffffffffffffffffffffffffffffff1673ffffffffffffffffffffffffffffffffffffffff1681526020019081526020016000208054610be890613706565b80601f0160208091040260200160405190810160405280929190818152602001828054610c1490613706565b8015610c615780601f10610c3657610100808354040283529160200191610c61565b820191906000526020600020905b815481529060010190602001808311610c4457829003601f168201915b50505050509050919050565b6008602052806000526040600020600091509050806000015490806001018054610c9690613706565b80601f0160208091040260200160405190810160405280929190818152602001828054610cc290613706565b8015610d0f5780601f10610ce457610100808354040283529160200191610d0f565b820191906000526020600020905b815481529060010190602001808311610cf257829003601f168201915b5050505050905082565b606060006040518060800160405280604281526020016138f36042913990506000600f905060008167ffffffffffffffff811115610d80577f4e487b7100000000000000000000000000000000000000000000000000000000600052604160045260246000fd5b6040519080825280601f01601f191660200182016040528015610db25781602001600182028036833780820191505090505b509050600042600143610dc5919061363e565b4033604051602001610dd993929190613258565b6040516020818303038152906040528051906020012060001c905060005b83811015610edf576000855183610e0e91906137b9565b9050858181518110610e49577f4e487b7100000000000000000000000000000000000000000000000000000000600052603260045260246000fd5b602001015160f81c60f81b848381518110610e8d577f4e487b7100000000000000000000000000000000000000000000000000000000600052603260045260246000fd5b60200101907effffffffffffffffffffffffffffffffffffffffffffffffffffffffffffff1916908160001a905350855183610ec9919061360d565b9250508080610ed790613738565b915050610df7565b508194505050505090565b6000600860003373ffffffffffffffffffffffffffffffffffffffff1673ffffffffffffffffffffffffffffffffffffffff168152602001908152602001600020600001541415610f70576040517f08c379a0000000000000000000000000000000000000000000000000000000008152600401610f679061337d565b60405180910390fd5b6000610f7a610d19565b905080604051602001610f8d9190613215565b6040516020818303038152906040528051906020012060001c600a6000848152602001908152602001600020600701819055505050565b604051602001610fd390613243565b60405160208183030381529060405280519060200120600b60003373ffffffffffffffffffffffffffffffffffffffff1673ffffffffffffffffffffffffffffffffffffffff168152602001908152602001600020604051602001611038919061322c565b604051602081830303815290604052805190602001201461108e576040517f08c379a00000000000000000000000000000000000000000000000000000000081526004016110859061339d565b60405180910390fd5b600860008273ffffffffffffffffffffffffffffffffffffffff1673ffffffffffffffffffffffffffffffffffffffff1681526020019081526020016000206000808201600090556001820160006110e69190612788565b505050565b6040516020016110fa90613243565b60405160208183030381529060405280519060200120600b60003373ffffffffffffffffffffffffffffffffffffffff1673ffffffffffffffffffffffffffffffffffffffff16815260200190815260200160002060405160200161115f919061322c565b60405160208183030381529060405280519060200120146111b5576040517f08c379a00000000000000000000000000000000000000000000000000000000081526004016111ac9061339d565b60405180910390fd5b600560008154809291906111c890613738565b91905055506040518060400160405280600554815260200182815250600760008473ffffffffffffffffffffffffffffffffffffffff1673ffffffffffffffffffffffffffffffffffffffff168152602001908152602001600020600082015181600001556020820151816001019080519060200190611249929190612702565b509050506001604051806040016040528060055481526020018381525090806001815401808255809150506001900390600052602060002090600202016000909190919091506000820151816000015560208201518160010190805190602001906112b5929190612702565b5050506112f7826040518060400160405280600781526020017f73747564656e7400000000000000000000000000000000000000000000000000815250612553565b7f94a56de67dd66b06691e0bd81e5b57fbf02e3ce04576def9d15b6371a0109fd282826040516113289291906132b0565b60405180910390a15050565b60065481565b60405160200161134990613243565b60405160208183030381529060405280519060200120600b60003373ffffffffffffffffffffffffffffffffffffffff1673ffffffffffffffffffffffffffffffffffffffff1681526020019081526020016000206040516020016113ae919061322c565b6040516020818303038152906040528051906020012014611404576040517f08c379a00000000000000000000000000000000000000000000000000000000081526004016113fb9061339d565b60405180910390fd5b600a600082815260200190815260200160002060008082016000808201600090556001820160006114359190612788565b60028201600061144591906127c8565b60038201600061145591906127ec565b6004820160006114659190612810565b5050600582016000905560068201600090556007820160009055505050565b60405160200161149390613243565b60405160208183030381529060405280519060200120600b60003373ffffffffffffffffffffffffffffffffffffffff1673ffffffffffffffffffffffffffffffffffffffff1681526020019081526020016000206040516020016114f8919061322c565b604051602081830303815290604052805190602001201461154e576040517f08c379a00000000000000000000000000000000000000000000000000000000081526004016115459061339d565b60405180910390fd5b600760008273ffffffffffffffffffffffffffffffffffffffff1673ffffffffffffffffffffffffffffffffffffffff1681526020019081526020016000206000808201600090556001820160006115a69190612788565b505050565b6040516020016115ba90613243565b60405160208183030381529060405280519060200120600b60003373ffffffffffffffffffffffffffffffffffffffff1673ffffffffffffffffffffffffffffffffffffffff16815260200190815260200160002060405160200161161f919061322c565b6040516020818303038152906040528051906020012014611675576040517f08c379a000000000000000000000000000000000000000000000000000000000815260040161166c9061339d565b60405180910390fd5b600960008281526020019081526020016000206000808201600090556001820160006116a19190612788565b6002820160006116b191906127c8565b6003820160006116c191906127ec565b6004820160006116d19190612810565b505050565b6040516020016116e590613243565b60405160208183030381529060405280519060200120600b60003373ffffffffffffffffffffffffffffffffffffffff1673ffffffffffffffffffffffffffffffffffffffff16815260200190815260200160002060405160200161174a919061322c565b60405160208183030381529060405280519060200120146117a0576040517f08c379a00000000000000000000000000000000000000000000000000000000081526004016117979061339d565b60405180910390fd5b600660008154809291906117b390613738565b91905055506040518060400160405280600654815260200182815250600860008473ffffffffffffffffffffffffffffffffffffffff1673ffffffffffffffffffffffffffffffffffffffff168152602001908152602001600020600082015181600001556020820151816001019080519060200190611834929190612702565b509050506002604051806040016040528060065481526020018381525090806001815401808255809150506001900390600052602060002090600202016000909190919091506000820151816000015560208201518160010190805190602001906118a0929190612702565b5050506118e2826040518060400160405280600781526020017f7465616368657200000000000000000000000000000000000000000000000000815250612553565b7f6996ba1536de57e4c72a268600ac97e3feae59f326494fce7dc56c6c6de959e382826040516119139291906132b0565b60405180910390a15050565b600b602052806000526040600020600091509050805461193e90613706565b80601f016020809104026020016040519081016040528092919081815260200182805461196a90613706565b80156119b75780601f1061198c576101008083540402835291602001916119b7565b820191906000526020600020905b81548152906001019060200180831161199a57829003601f168201915b505050505081565b6040516020016119ce90613243565b60405160208183030381529060405280519060200120600b60003373ffffffffffffffffffffffffffffffffffffffff1673ffffffffffffffffffffffffffffffffffffffff168152602001908152602001600020604051602001611a33919061322c565b6040516020818303038152906040528051906020012014611a89576040517f08c379a0000000000000000000000000000000000000000000000000000000008152600401611a809061339d565b60405180910390fd5b60096000838152602001908152602001600020600301600760008373ffffffffffffffffffffffffffffffffffffffff1673ffffffffffffffffffffffffffffffffffffffff1681526020019081526020016000209080600181540180825580915050600190039060005260206000209060020201600090919091909150600082015481600001556001820181600101908054611b2590613706565b611b30929190612675565b5050507f330f6a5433c3d731bf2a234085fc8f11bd40cdbdd41b574d8570189c6ea277cb8282604051611b64929190613424565b60405180910390a15050565b600a6000838152602001908152602001600020600501546000805b60096000600a600086815260200190815260200160002060000160000154815260200190815260200160002060030180549050811015611ca357600760003373ffffffffffffffffffffffffffffffffffffffff1673ffffffffffffffffffffffffffffffffffffffff1681526020019081526020016000206000015460096000600a60008781526020019081526020016000206000016000015481526020019081526020016000206003018281548110611c6f577f4e487b7100000000000000000000000000000000000000000000000000000000600052603260045260246000fd5b9060005260206000209060020201600001541415611c905760019150611ca3565b8080611c9b90613738565b915050611b8b565b5080611ce4576040517f08c379a0000000000000000000000000000000000000000000000000000000008152600401611cdb9061331d565b60405180910390fd5b60001515600a600086815260200190815260200160002060080160003373ffffffffffffffffffffffffffffffffffffffff1673ffffffffffffffffffffffffffffffffffffffff16815260200190815260200160002060009054906101000a900460ff16151514611d8b576040517f08c379a0000000000000000000000000000000000000000000000000000000008152600401611d829061333d565b60405180910390fd5b82600a60008681526020019081526020016000206007015414611de3576040517f08c379a0000000000000000000000000000000000000000000000000000000008152600401611dda9061335d565b60405180910390fd5b6001600a600086815260200190815260200160002060080160003373ffffffffffffffffffffffffffffffffffffffff1673ffffffffffffffffffffffffffffffffffffffff16815260200190815260200160002060006101000a81548160ff0219169083151502179055507f1fc08eb0c2f0125b980d5b8b9c7d0c66f56fe49ed88c804b350f31b0130cda388433604051611e80929190613424565b60405180910390a150505050565b6009602052806000526040600020600091509050806000015490806001018054611eb790613706565b80601f0160208091040260200160405190810160405280929190818152602001828054611ee390613706565b8015611f305780601f10611f0557610100808354040283529160200191611f30565b820191906000526020600020905b815481529060010190602001808311611f1357829003601f168201915b5050505050905082565b6007602052806000526040600020600091509050806000015490806001018054611f6390613706565b80601f0160208091040260200160405190810160405280929190818152602001828054611f8f90613706565b8015611fdc5780601f10611fb157610100808354040283529160200191611fdc565b820191906000526020600020905b815481529060010190602001808311611fbf57829003601f168201915b5050505050905082565b604051602001611ff590613243565b60405160208183030381529060405280519060200120600b60003373ffffffffffffffffffffffffffffffffffffffff1673ffffffffffffffffffffffffffffffffffffffff16815260200190815260200160002060405160200161205a919061322c565b60405160208183030381529060405280519060200120146120b0576040517f08c379a00000000000000000000000000000000000000000000000000000000081526004016120a79061339d565b60405180910390fd5b600360008154809291906120c390613738565b91905055506000600a600060035481526020019081526020016000209050600960008381526020019081526020016000208160000160008201548160000155600182018160010190805461211690613706565b612121929190612675565b506002820181600201908054612138929190612831565b50600382018160030190805461214f9291906128b3565b506004820181600401908054612166929190612935565b5090505060035481600501819055508281600601819055506009600083815260200190815260200160002060040160035490806001815401808255809150506001900390600052602060002001600090919091909150557f5a3a80d0fae53d263cc7f8adc9b489c04a64d1f61278a26b20f7b67ebca6aa2760035484846040516121f29392919061347d565b60405180910390a1505050565b60045481565b60055481565b60008054906101000a900473ffffffffffffffffffffffffffffffffffffffff1681565b600a602052806000526040600020600091509050806000016040518060a00160405290816000820154815260200160018201805461226c90613706565b80601f016020809104026020016040519081016040528092919081815260200182805461229890613706565b80156122e55780601f106122ba576101008083540402835291602001916122e5565b820191906000526020600020905b8154815290600101906020018083116122c857829003601f168201915b5050505050815260200160028201805480602002602001604051908101604052809291908181526020016000905b828210156123e157838290600052602060002090600202016040518060400160405290816000820154815260200160018201805461235090613706565b80601f016020809104026020016040519081016040528092919081815260200182805461237c90613706565b80156123c95780601f1061239e576101008083540402835291602001916123c9565b820191906000526020600020905b8154815290600101906020018083116123ac57829003601f168201915b50505050508152505081526020019060010190612313565b50505050815260200160038201805480602002602001604051908101604052809291908181526020016000905b828210156124dc57838290600052602060002090600202016040518060400160405290816000820154815260200160018201805461244b90613706565b80601f016020809104026020016040519081016040528092919081815260200182805461247790613706565b80156124c45780601f10612499576101008083540402835291602001916124c4565b820191906000526020600020905b8154815290600101906020018083116124a757829003601f168201915b5050505050815250508152602001906001019061240e565b5050505081526020016004820180548060200260200160405190810160405280929190818152602001828054801561253357602002820191906000526020600020905b81548152602001906001019080831161251f575b505050505081525050908060050154908060060154908060070154905084565b60405160200161256290613243565b60405160208183030381529060405280519060200120600b60003373ffffffffffffffffffffffffffffffffffffffff1673ffffffffffffffffffffffffffffffffffffffff1681526020019081526020016000206040516020016125c7919061322c565b604051602081830303815290604052805190602001201461261d576040517f08c379a00000000000000000000000000000000000000000000000000000000081526004016126149061339d565b60405180910390fd5b80600b60008473ffffffffffffffffffffffffffffffffffffffff1673ffffffffffffffffffffffffffffffffffffffff1681526020019081526020016000209080519060200190612670929190612702565b505050565b82805461268190613706565b90600052602060002090601f0160209004810192826126a357600085556126f1565b82601f106126b457805485556126f1565b828001600101855582156126f157600052602060002091601f016020900482015b828111156126f05782548255916001019190600101906126d5565b5b5090506126fe9190612987565b5090565b82805461270e90613706565b90600052602060002090601f0160209004810192826127305760008555612777565b82601f1061274957805160ff1916838001178555612777565b82800160010185558215612777579182015b8281111561277657825182559160200191906001019061275b565b5b5090506127849190612987565b5090565b50805461279490613706565b6000825580601f106127a657506127c5565b601f0160209004906000526020600020908101906127c49190612987565b5b50565b50805460008255600202906000526020600020908101906127e991906129a4565b50565b508054600082556002029060005260206000209081019061280d91906129d3565b50565b508054600082559060005260206000209081019061282e9190612987565b50565b8280548282559060005260206000209060020281019282156128a25760005260206000209160020282015b828111156128a157828260008201548160000155600182018160010190805461288490613706565b61288f929190612675565b5050509160020191906002019061285c565b5b5090506128af91906129a4565b5090565b8280548282559060005260206000209060020281019282156129245760005260206000209160020282015b8281111561292357828260008201548160000155600182018160010190805461290690613706565b612911929190612675565b505050916002019190600201906128de565b5b50905061293191906129d3565b5090565b8280548282559060005260206000209081019282156129765760005260206000209182015b8281111561297557825482559160010191906001019061295a565b5b5090506129839190612987565b5090565b5b808211156129a0576000816000905550600101612988565b5090565b5b808211156129cf576000808201600090556001820160006129c69190612788565b506002016129a5565b5090565b5b808211156129fe576000808201600090556001820160006129f59190612788565b506002016129d4565b5090565b6000612a15612a10846134e5565b6134b4565b905082815260208101848484011115612a2d57600080fd5b612a388482856136c4565b509392505050565b600081359050612a4f816138c4565b92915050565b600082601f830112612a6657600080fd5b8135612a76848260208601612a02565b91505092915050565b600081359050612a8e816138db565b92915050565b600060208284031215612aa657600080fd5b6000612ab484828501612a40565b91505092915050565b60008060408385031215612ad057600080fd5b6000612ade85828601612a40565b925050602083013567ffffffffffffffff811115612afb57600080fd5b612b0785828601612a55565b9150509250929050565b600060208284031215612b2357600080fd5b600082013567ffffffffffffffff811115612b3d57600080fd5b612b4984828501612a55565b91505092915050565b600060208284031215612b6457600080fd5b6000612b7284828501612a7f565b91505092915050565b60008060408385031215612b8e57600080fd5b6000612b9c85828601612a7f565b9250506020612bad85828601612a40565b9150509250929050565b60008060408385031215612bca57600080fd5b6000612bd885828601612a7f565b9250506020612be985828601612a7f565b9150509250929050565b6000612bff83836130db565b905092915050565b6000612c1383836131a3565b905092915050565b6000612c2783836131e0565b60208301905092915050565b612c3c81613672565b82525050565b612c53612c4e82613672565b613781565b82525050565b6000612c648261355a565b612c6e81856135ad565b935083602082028501612c8085613515565b8060005b85811015612cbc5784840389528151612c9d8582612bf3565b9450612ca883613586565b925060208a01995050600181019050612c84565b50829750879550505050505092915050565b6000612cd982613565565b612ce381856135be565b935083602082028501612cf585613525565b8060005b85811015612d315784840389528151612d128582612c07565b9450612d1d83613593565b925060208a01995050600181019050612cf9565b50829750879550505050505092915050565b6000612d4e82613570565b612d5881856135cf565b9350612d6383613535565b8060005b83811015612d94578151612d7b8882612c1b565b9750612d86836135a0565b925050600181019050612d67565b5085935050505092915050565b612daa81613684565b82525050565b612dc1612dbc82613690565b613793565b82525050565b6000612dd28261357b565b612ddc81856135e0565b9350612dec8185602086016136d3565b612df5816138a6565b840191505092915050565b6000612e0b8261357b565b612e1581856135f1565b9350612e258185602086016136d3565b612e2e816138a6565b840191505092915050565b6000612e448261357b565b612e4e8185613602565b9350612e5e8185602086016136d3565b80840191505092915050565b60008154612e7781613706565b612e818186613602565b94506001821660008114612e9c5760018114612ead57612ee0565b60ff19831686528186019350612ee0565b612eb685613545565b60005b83811015612ed857815481890152600182019150602081019050612eb9565b838801955050505b50505092915050565b6000612ef6602d836135f1565b91507f4f6e6c7920656e726f6c6c65642073747564656e74732063616e2063616c6c2060008301527f746869732066756e6374696f6e000000000000000000000000000000000000006020830152604082019050919050565b6000612f5c6019836135f1565b91507f417474656e64616e636520616c7265616479206d61726b6564000000000000006000830152602082019050919050565b6000612f9c6010836135f1565b91507f496e76616c69642070617373776f7264000000000000000000000000000000006000830152602082019050919050565b6000612fdc6024836135f1565b91507f4f6e6c792074656163686572732063616e2063616c6c20746869732066756e6360008301527f74696f6e000000000000000000000000000000000000000000000000000000006020830152604082019050919050565b60006130426021836135f1565b91507f4f6e6c792061646d696e2063616e2063616c6c20746869732066756e6374696f60008301527f6e000000000000000000000000000000000000000000000000000000000000006020830152604082019050919050565b60006130a8600583613602565b91507f61646d696e0000000000000000000000000000000000000000000000000000006000830152600582019050919050565b60006040830160008301516130f360008601826131e0565b506020830151848203602086015261310b8282612dc7565b9150508091505092915050565b600060a08301600083015161313060008601826131e0565b50602083015184820360208601526131488282612dc7565b915050604083015184820360408601526131628282612cce565b9150506060830151848203606086015261317c8282612c59565b915050608083015184820360808601526131968282612d43565b9150508091505092915050565b60006040830160008301516131bb60008601826131e0565b50602083015184820360208601526131d38282612dc7565b9150508091505092915050565b6131e9816136ba565b82525050565b6131f8816136ba565b82525050565b61320f61320a826136ba565b6137af565b82525050565b60006132218284612e39565b915081905092915050565b60006132388284612e6a565b915081905092915050565b600061324e8261309b565b9150819050919050565b600061326482866131fe565b6020820191506132748285612db0565b6020820191506132848284612c42565b601482019150819050949350505050565b60006020820190506132aa6000830184612c33565b92915050565b60006040820190506132c56000830185612c33565b81810360208301526132d78184612e00565b90509392505050565b60006020820190506132f56000830184612da1565b92915050565b600060208201905081810360008301526133158184612e00565b905092915050565b6000602082019050818103600083015261333681612ee9565b9050919050565b6000602082019050818103600083015261335681612f4f565b9050919050565b6000602082019050818103600083015261337681612f8f565b9050919050565b6000602082019050818103600083015261339681612fcf565b9050919050565b600060208201905081810360008301526133b681613035565b9050919050565b600060808201905081810360008301526133d78187613118565b90506133e660208301866131ef565b6133f360408301856131ef565b61340060608301846131ef565b95945050505050565b600060208201905061341e60008301846131ef565b92915050565b600060408201905061343960008301856131ef565b6134466020830184612c33565b9392505050565b600060408201905061346260008301856131ef565b81810360208301526134748184612e00565b90509392505050565b600060608201905061349260008301866131ef565b61349f60208301856131ef565b6134ac60408301846131ef565b949350505050565b6000604051905081810181811067ffffffffffffffff821117156134db576134da613877565b5b8060405250919050565b600067ffffffffffffffff821115613500576134ff613877565b5b601f19601f8301169050602081019050919050565b6000819050602082019050919050565b6000819050602082019050919050565b6000819050602082019050919050565b60008190508160005260206000209050919050565b600081519050919050565b600081519050919050565b600081519050919050565b600081519050919050565b6000602082019050919050565b6000602082019050919050565b6000602082019050919050565b600082825260208201905092915050565b600082825260208201905092915050565b600082825260208201905092915050565b600082825260208201905092915050565b600082825260208201905092915050565b600081905092915050565b6000613618826136ba565b9150613623836136ba565b92508261363357613632613819565b5b828204905092915050565b6000613649826136ba565b9150613654836136ba565b925082821015613667576136666137ea565b5b828203905092915050565b600061367d8261369a565b9050919050565b60008115159050919050565b6000819050919050565b600073ffffffffffffffffffffffffffffffffffffffff82169050919050565b6000819050919050565b82818337600083830152505050565b60005b838110156136f15780820151818401526020810190506136d6565b83811115613700576000848401525b50505050565b6000600282049050600182168061371e57607f821691505b6020821081141561373257613731613848565b5b50919050565b6000613743826136ba565b91507fffffffffffffffffffffffffffffffffffffffffffffffffffffffffffffffff821415613776576137756137ea565b5b600182019050919050565b600061378c8261379d565b9050919050565b6000819050919050565b60006137a8826138b7565b9050919050565b6000819050919050565b60006137c4826136ba565b91506137cf836136ba565b9250826137df576137de613819565b5b828206905092915050565b7f4e487b7100000000000000000000000000000000000000000000000000000000600052601160045260246000fd5b7f4e487b7100000000000000000000000000000000000000000000000000000000600052601260045260246000fd5b7f4e487b7100000000000000000000000000000000000000000000000000000000600052602260045260246000fd5b7f4e487b7100000000000000000000000000000000000000000000000000000000600052604160045260246000fd5b6000601f19601f8301169050919050565b60008160601b9050919050565b6138cd81613672565b81146138d857600080fd5b50565b6138e4816136ba565b81146138ef57600080fd5b5056fe6162636465666768696a6b6c6d6e6f707172737475767778797a4142434445464748494a4b4c4d4e4f505152535455565758595a30313233343536373839402f2123a26469706673582212209d05fe629831f19b4bc2f54fd0e4befc9862868220b866150000c8a32c26100664736f6c63430008000033",
  "immutableReferences": {},
  "source": "//SPDX-License-Identifier: MIT\r\n\r\npragma solidity ^0.8.0;\r\n\r\ncontract Attendance {\r\n\r\n    address public admin;\r\n    Student[] public students;\r\n    Teacher[] public teachers;\r\n    uint256 public classCounter;\r\n    uint256 public subjectCounter;\r\n    uint256 public studentCounter;\r\n    uint256 public teacherCounter;\r\n\r\n    struct Student {\r\n        uint256 studentId;\r\n        string name;\r\n    }\r\n\r\n    struct Teacher {\r\n        uint256 teacherId;\r\n        string name;\r\n    }\r\n\r\n    struct Subject {\r\n        uint256 subjectId;\r\n        string subjectName;\r\n        Teacher[] teachingTeachers;\r\n        Student[] enrolledStudents;\r\n        uint256[] classIds;\r\n    }\r\n\r\n    struct Class {\r\n        Subject subject;\r\n        uint256 classId;\r\n        uint256 classDate;\r\n        uint256 classPwd;\r\n        mapping(address => bool) attendance;\r\n    }\r\n\r\n    event studentAdded(address student, string name);\r\n    event teacherAdded(address teacher, string name);\r\n    event subjectCreated(uint256 subjectId, string subjectName);\r\n    event classCreated(uint256 classId, uint256 classDate, uint256 subjectId);\r\n    event studentEnrolled(uint256 subjectId, address student);\r\n    event teacherAssigned(uint256 subjectId, address teacher);\r\n    event attendanceMarked(uint256 classId, address student);\r\n\r\n\r\n    mapping(address => Student) public studentDetails;\r\n    mapping(address => Teacher) public teacherDetails;\r\n    mapping(uint256 => Subject) public subjectDetails;\r\n    mapping(uint256 => Class) public classDetails;\r\n\r\n    mapping(address => string) public roles;\r\n\r\n    constructor() {\r\n        admin = msg.sender;\r\n        roles[msg.sender] = \"admin\"; // Contract deployer is the admin\r\n    }\r\n\r\n    modifier onlyAdmin() {\r\n        require(keccak256(abi.encodePacked(roles[msg.sender])) == keccak256(abi.encodePacked(\"admin\")), \"Only admin can call this function\");\r\n        _;\r\n    }\r\n\r\n    modifier onlyTeacher() {\r\n        require(teacherDetails[msg.sender].teacherId != 0, \"Only teachers can call this function\");\r\n        _;\r\n    }\r\n\r\n    modifier onlyStudent() {\r\n        require(studentDetails[msg.sender].studentId != 0, \"Only students can call this function\");\r\n        _;\r\n    }\r\n\r\n    modifier onlyEnrolledStudent(uint256 classId) {\r\n        bool isEnrolled = false;\r\n        for (uint256 i = 0; i < subjectDetails[classDetails[classId].subject.subjectId].enrolledStudents.length; i++) {\r\n            if (subjectDetails[classDetails[classId].subject.subjectId].enrolledStudents[i].studentId == studentDetails[msg.sender].studentId) {\r\n                isEnrolled = true;\r\n                break;\r\n            }\r\n        }\r\n        require(isEnrolled, \"Only enrolled students can call this function\");\r\n        _;\r\n    }\r\n\r\n    function assignRole(address user, string memory role) internal onlyAdmin {\r\n        roles[user] = role;\r\n    }\r\n\r\n    function getRole(address user) public view returns (string memory) {\r\n        return roles[user];\r\n    }\r\n\r\n    function addStudent(address _student, string memory _name) public onlyAdmin {\r\n        studentCounter++;\r\n        studentDetails[_student] = Student(studentCounter, _name);\r\n        students.push(Student(studentCounter, _name));\r\n        assignRole(_student, \"student\");\r\n\r\n        emit studentAdded(_student, _name);\r\n    }   \r\n\r\n    function addTeacher(address _teacher, string memory _name) public onlyAdmin {\r\n        teacherCounter++;\r\n        teacherDetails[_teacher] = Teacher(teacherCounter,_name);\r\n        teachers.push(Teacher(teacherCounter, _name));\r\n        assignRole(_teacher, \"teacher\");\r\n\r\n        emit teacherAdded(_teacher, _name);\r\n    }\r\n\r\n    function createSubject(string memory _subjectName) public onlyAdmin {\r\n        subjectCounter++;\r\n        Subject storage newSubject = subjectDetails[subjectCounter];\r\n        newSubject.subjectId=subjectCounter;\r\n        newSubject.subjectName = _subjectName;\r\n\r\n        emit subjectCreated(subjectCounter, _subjectName);\r\n    }\r\n\r\n    function createClass(uint256 _classDate, uint256 _subjectId) public onlyAdmin {\r\n        classCounter++;\r\n        \r\n        Class storage newClass = classDetails[classCounter];\r\n        newClass.subject = subjectDetails[_subjectId];\r\n        newClass.classId = classCounter;\r\n        newClass.classDate = _classDate;\r\n        subjectDetails[_subjectId].classIds.push(classCounter);\r\n\r\n        emit classCreated(classCounter, _classDate, _subjectId);\r\n    }\r\n\r\n    function enrollStudent(uint256 _subjectId, address _student) public onlyAdmin {\r\n        subjectDetails[_subjectId].enrolledStudents.push(studentDetails[_student]);\r\n\r\n        emit studentEnrolled(_subjectId, _student);\r\n    }\r\n\r\n    function assignTeacher(uint256 _subjectId, address _teacher) public onlyAdmin {\r\n        subjectDetails[_subjectId].teachingTeachers.push(teacherDetails[_teacher]);\r\n\r\n        emit teacherAssigned(_subjectId, _teacher);\r\n    }\r\n\r\n    function markAttendance(uint256 _classId, uint256 _pwd) public onlyEnrolledStudent(classDetails[_classId].classId) {\r\n        require(classDetails[_classId].attendance[msg.sender] == false, \"Attendance already marked\");\r\n        require(classDetails[_classId].classPwd == _pwd, \"Invalid password\");\r\n        classDetails[_classId].attendance[msg.sender] = true;\r\n\r\n        emit attendanceMarked(_classId, msg.sender);\r\n    }\r\n\r\n    function checkAttendance(uint256 _classId) public view returns (bool) {\r\n        return classDetails[_classId].attendance[msg.sender];\r\n    }\r\n\r\n    function checkAttendance(uint256 _classId, address _student) public view onlyTeacher returns (bool) {\r\n        return classDetails[_classId].attendance[_student];\r\n    }\r\n\r\n    function generateClassPwd(uint256 _classId) public onlyTeacher {\r\n        string memory randomPwd = getRandomPassword();\r\n        classDetails[_classId].classPwd = uint256(keccak256(abi.encodePacked(randomPwd)));\r\n    }\r\n\r\n    function getRandomPassword() public view returns (string memory) {\r\n        bytes memory characters = \"abcdefghijklmnopqrstuvwxyzABCDEFGHIJKLMNOPQRSTUVWXYZ0123456789@/!#\";\r\n        uint256 length = 15;\r\n        bytes memory password = new bytes(length);\r\n        uint256 seed = uint256(keccak256(abi.encodePacked(block.timestamp, blockhash(block.number - 1), msg.sender)));\r\n\r\n        for (uint256 i = 0; i < length; i++) {\r\n            uint256 randomIndex = seed % characters.length;\r\n            password[i] = characters[randomIndex];\r\n            seed = seed / characters.length;\r\n        }\r\n        return string(password);\r\n    }\r\n\r\n    function removeStudent(address _student) public onlyAdmin {\r\n        delete studentDetails[_student];\r\n    }\r\n\r\n    function removeTeacher(address _teacher) public onlyAdmin {\r\n        delete teacherDetails[_teacher];\r\n    }\r\n\r\n    function removeSubject(uint256 _subjectId) public onlyAdmin {\r\n        delete subjectDetails[_subjectId];\r\n    }\r\n\r\n    function removeClass(uint256 _classId) public onlyAdmin {\r\n        delete classDetails[_classId];\r\n    }\r\n}",
  "sourcePath": "C:\\Users\\User\\Desktop\\dev\\Blockchain\\contracts\\Attendance.sol",
  "compiler": {
    "name": "solc",
    "version": "0.8.0+commit.c7dfd78e.Emscripten.clang"
  },
  "schemaVersion": "3.4.16",
  "updatedAt": "2025-01-19T07:02:30.627Z",
  "networkType": "ethereum",
  "devdoc": {
    "kind": "dev",
    "methods": {},
    "version": 1
  },
  "userdoc": {
    "kind": "user",
    "methods": {},
    "version": 1
  }
}