{
  "contractName": "Attendance",
  "abi": [
    {
      "inputs": [],
      "stateMutability": "nonpayable",
      "type": "constructor"
    },
    {
      "anonymous": false,
      "inputs": [
        {
          "indexed": false,
          "internalType": "uint256",
          "name": "classId",
          "type": "uint256"
        },
        {
          "indexed": false,
          "internalType": "address",
          "name": "student",
          "type": "address"
        }
      ],
      "name": "attendanceMarked",
      "type": "event"
    },
    {
      "anonymous": false,
      "inputs": [
        {
          "indexed": false,
          "internalType": "uint256",
          "name": "classId",
          "type": "uint256"
        },
        {
          "indexed": false,
          "internalType": "uint256",
          "name": "classDate",
          "type": "uint256"
        },
        {
          "indexed": false,
          "internalType": "uint256",
          "name": "subjectId",
          "type": "uint256"
        }
      ],
      "name": "classCreated",
      "type": "event"
    },
    {
      "anonymous": false,
      "inputs": [
        {
          "indexed": false,
          "internalType": "address",
          "name": "student",
          "type": "address"
        },
        {
          "indexed": false,
          "internalType": "string",
          "name": "name",
          "type": "string"
        }
      ],
      "name": "studentAdded",
      "type": "event"
    },
    {
      "anonymous": false,
      "inputs": [
        {
          "indexed": false,
          "internalType": "uint256",
          "name": "subjectId",
          "type": "uint256"
        },
        {
          "indexed": false,
          "internalType": "address",
          "name": "student",
          "type": "address"
        }
      ],
      "name": "studentEnrolled",
      "type": "event"
    },
    {
      "anonymous": false,
      "inputs": [
        {
          "indexed": false,
          "internalType": "uint256",
          "name": "subjectId",
          "type": "uint256"
        },
        {
          "indexed": false,
          "internalType": "string",
          "name": "subjectName",
          "type": "string"
        }
      ],
      "name": "subjectCreated",
      "type": "event"
    },
    {
      "anonymous": false,
      "inputs": [
        {
          "indexed": false,
          "internalType": "address",
          "name": "teacher",
          "type": "address"
        },
        {
          "indexed": false,
          "internalType": "string",
          "name": "name",
          "type": "string"
        }
      ],
      "name": "teacherAdded",
      "type": "event"
    },
    {
      "anonymous": false,
      "inputs": [
        {
          "indexed": false,
          "internalType": "uint256",
          "name": "subjectId",
          "type": "uint256"
        },
        {
          "indexed": false,
          "internalType": "address",
          "name": "teacher",
          "type": "address"
        }
      ],
      "name": "teacherAssigned",
      "type": "event"
    },
    {
      "inputs": [],
      "name": "admin",
      "outputs": [
        {
          "internalType": "address",
          "name": "",
          "type": "address"
        }
      ],
      "stateMutability": "view",
      "type": "function",
      "constant": true
    },
    {
      "inputs": [],
      "name": "classCounter",
      "outputs": [
        {
          "internalType": "uint256",
          "name": "",
          "type": "uint256"
        }
      ],
      "stateMutability": "view",
      "type": "function",
      "constant": true
    },
    {
      "inputs": [
        {
          "internalType": "uint256",
          "name": "",
          "type": "uint256"
        }
      ],
      "name": "classDetails",
      "outputs": [
        {
          "components": [
            {
              "internalType": "uint256",
              "name": "subjectId",
              "type": "uint256"
            },
            {
              "internalType": "string",
              "name": "subjectName",
              "type": "string"
            },
            {
              "components": [
                {
                  "internalType": "uint256",
                  "name": "teacherId",
                  "type": "uint256"
                },
                {
                  "internalType": "string",
                  "name": "name",
                  "type": "string"
                }
              ],
              "internalType": "struct Attendance.Teacher[]",
              "name": "teachingTeachers",
              "type": "tuple[]"
            },
            {
              "components": [
                {
                  "internalType": "uint256",
                  "name": "studentId",
                  "type": "uint256"
                },
                {
                  "internalType": "string",
                  "name": "name",
                  "type": "string"
                }
              ],
              "internalType": "struct Attendance.Student[]",
              "name": "enrolledStudents",
              "type": "tuple[]"
            },
            {
              "internalType": "uint256[]",
              "name": "classIds",
              "type": "uint256[]"
            }
          ],
          "internalType": "struct Attendance.Subject",
          "name": "subject",
          "type": "tuple"
        },
        {
          "internalType": "uint256",
          "name": "classId",
          "type": "uint256"
        },
        {
          "internalType": "uint256",
          "name": "classDate",
          "type": "uint256"
        },
        {
          "internalType": "string",
          "name": "classPwd",
          "type": "string"
        }
      ],
      "stateMutability": "view",
      "type": "function",
      "constant": true
    },
    {
      "inputs": [
        {
          "internalType": "address",
          "name": "",
          "type": "address"
        }
      ],
      "name": "roles",
      "outputs": [
        {
          "internalType": "string",
          "name": "",
          "type": "string"
        }
      ],
      "stateMutability": "view",
      "type": "function",
      "constant": true
    },
    {
      "inputs": [],
      "name": "studentCounter",
      "outputs": [
        {
          "internalType": "uint256",
          "name": "",
          "type": "uint256"
        }
      ],
      "stateMutability": "view",
      "type": "function",
      "constant": true
    },
    {
      "inputs": [
        {
          "internalType": "address",
          "name": "",
          "type": "address"
        }
      ],
      "name": "studentDetails",
      "outputs": [
        {
          "internalType": "uint256",
          "name": "studentId",
          "type": "uint256"
        },
        {
          "internalType": "string",
          "name": "name",
          "type": "string"
        }
      ],
      "stateMutability": "view",
      "type": "function",
      "constant": true
    },
    {
      "inputs": [
        {
          "internalType": "uint256",
          "name": "",
          "type": "uint256"
        }
      ],
      "name": "students",
      "outputs": [
        {
          "internalType": "uint256",
          "name": "studentId",
          "type": "uint256"
        },
        {
          "internalType": "string",
          "name": "name",
          "type": "string"
        }
      ],
      "stateMutability": "view",
      "type": "function",
      "constant": true
    },
    {
      "inputs": [],
      "name": "subjectCounter",
      "outputs": [
        {
          "internalType": "uint256",
          "name": "",
          "type": "uint256"
        }
      ],
      "stateMutability": "view",
      "type": "function",
      "constant": true
    },
    {
      "inputs": [
        {
          "internalType": "uint256",
          "name": "",
          "type": "uint256"
        }
      ],
      "name": "subjectDetails",
      "outputs": [
        {
          "internalType": "uint256",
          "name": "subjectId",
          "type": "uint256"
        },
        {
          "internalType": "string",
          "name": "subjectName",
          "type": "string"
        }
      ],
      "stateMutability": "view",
      "type": "function",
      "constant": true
    },
    {
      "inputs": [],
      "name": "teacherCounter",
      "outputs": [
        {
          "internalType": "uint256",
          "name": "",
          "type": "uint256"
        }
      ],
      "stateMutability": "view",
      "type": "function",
      "constant": true
    },
    {
      "inputs": [
        {
          "internalType": "address",
          "name": "",
          "type": "address"
        }
      ],
      "name": "teacherDetails",
      "outputs": [
        {
          "internalType": "uint256",
          "name": "teacherId",
          "type": "uint256"
        },
        {
          "internalType": "string",
          "name": "name",
          "type": "string"
        }
      ],
      "stateMutability": "view",
      "type": "function",
      "constant": true
    },
    {
      "inputs": [
        {
          "internalType": "uint256",
          "name": "",
          "type": "uint256"
        }
      ],
      "name": "teachers",
      "outputs": [
        {
          "internalType": "uint256",
          "name": "teacherId",
          "type": "uint256"
        },
        {
          "internalType": "string",
          "name": "name",
          "type": "string"
        }
      ],
      "stateMutability": "view",
      "type": "function",
      "constant": true
    },
    {
      "inputs": [
        {
          "internalType": "address",
          "name": "user",
          "type": "address"
        }
      ],
      "name": "getRole",
      "outputs": [
        {
          "internalType": "string",
          "name": "",
          "type": "string"
        }
      ],
      "stateMutability": "view",
      "type": "function",
      "constant": true
    },
    {
      "inputs": [
        {
          "internalType": "address",
          "name": "_student",
          "type": "address"
        },
        {
          "internalType": "string",
          "name": "_name",
          "type": "string"
        }
      ],
      "name": "addStudent",
      "outputs": [],
      "stateMutability": "nonpayable",
      "type": "function"
    },
    {
      "inputs": [
        {
          "internalType": "address",
          "name": "_teacher",
          "type": "address"
        },
        {
          "internalType": "string",
          "name": "_name",
          "type": "string"
        }
      ],
      "name": "addTeacher",
      "outputs": [],
      "stateMutability": "nonpayable",
      "type": "function"
    },
    {
      "inputs": [
        {
          "internalType": "string",
          "name": "_subjectName",
          "type": "string"
        }
      ],
      "name": "createSubject",
      "outputs": [],
      "stateMutability": "nonpayable",
      "type": "function"
    },
    {
      "inputs": [
        {
          "internalType": "uint256",
          "name": "_classDate",
          "type": "uint256"
        },
        {
          "internalType": "uint256",
          "name": "_subjectId",
          "type": "uint256"
        }
      ],
      "name": "createClass",
      "outputs": [],
      "stateMutability": "nonpayable",
      "type": "function"
    },
    {
      "inputs": [
        {
          "internalType": "uint256",
          "name": "_subjectId",
          "type": "uint256"
        },
        {
          "internalType": "address",
          "name": "_student",
          "type": "address"
        }
      ],
      "name": "enrollStudent",
      "outputs": [],
      "stateMutability": "nonpayable",
      "type": "function"
    },
    {
      "inputs": [
        {
          "internalType": "uint256",
          "name": "_subjectId",
          "type": "uint256"
        },
        {
          "internalType": "address",
          "name": "_teacher",
          "type": "address"
        }
      ],
      "name": "assignTeacher",
      "outputs": [],
      "stateMutability": "nonpayable",
      "type": "function"
    },
    {
      "inputs": [
        {
          "internalType": "uint256",
          "name": "_classId",
          "type": "uint256"
        },
        {
          "internalType": "string",
          "name": "_pwd",
          "type": "string"
        }
      ],
      "name": "markAttendance",
      "outputs": [],
      "stateMutability": "nonpayable",
      "type": "function"
    },
    {
      "inputs": [
        {
          "internalType": "uint256",
          "name": "_classId",
          "type": "uint256"
        }
      ],
      "name": "checkAttendance",
      "outputs": [
        {
          "internalType": "bool",
          "name": "",
          "type": "bool"
        }
      ],
      "stateMutability": "view",
      "type": "function",
      "constant": true
    },
    {
      "inputs": [
        {
          "internalType": "uint256",
          "name": "_classId",
          "type": "uint256"
        },
        {
          "internalType": "address",
          "name": "_student",
          "type": "address"
        }
      ],
      "name": "checkAttendance",
      "outputs": [
        {
          "internalType": "bool",
          "name": "",
          "type": "bool"
        }
      ],
      "stateMutability": "view",
      "type": "function",
      "constant": true
    },
    {
      "inputs": [
        {
          "internalType": "uint256",
          "name": "_classId",
          "type": "uint256"
        }
      ],
      "name": "generateClassPwd",
      "outputs": [],
      "stateMutability": "nonpayable",
      "type": "function"
    },
    {
      "inputs": [],
      "name": "getRandomPassword",
      "outputs": [
        {
          "internalType": "string",
          "name": "",
          "type": "string"
        }
      ],
      "stateMutability": "view",
      "type": "function",
      "constant": true
    },
    {
      "inputs": [
        {
          "internalType": "uint256",
          "name": "_subjectId",
          "type": "uint256"
        }
      ],
      "name": "getEnrolledStudents",
      "outputs": [
        {
          "components": [
            {
              "internalType": "uint256",
              "name": "studentId",
              "type": "uint256"
            },
            {
              "internalType": "string",
              "name": "name",
              "type": "string"
            }
          ],
          "internalType": "struct Attendance.Student[]",
          "name": "",
          "type": "tuple[]"
        }
      ],
      "stateMutability": "view",
      "type": "function",
      "constant": true
    },
    {
      "inputs": [
        {
          "internalType": "uint256",
          "name": "_subjectId",
          "type": "uint256"
        }
      ],
      "name": "getClassesForTeacher",
      "outputs": [
        {
          "internalType": "uint256[]",
          "name": "",
          "type": "uint256[]"
        }
      ],
      "stateMutability": "view",
      "type": "function",
      "constant": true
    },
    {
      "inputs": [
        {
          "internalType": "uint256",
          "name": "_subjectId",
          "type": "uint256"
        }
      ],
      "name": "getClassesForStudent",
      "outputs": [
        {
          "internalType": "uint256[]",
          "name": "",
          "type": "uint256[]"
        }
      ],
      "stateMutability": "view",
      "type": "function",
      "constant": true
    },
    {
      "inputs": [],
      "name": "getSubjectsForStudent",
      "outputs": [
        {
          "internalType": "uint256[]",
          "name": "",
          "type": "uint256[]"
        }
      ],
      "stateMutability": "view",
      "type": "function",
      "constant": true
    },
    {
      "inputs": [
        {
          "internalType": "address",
          "name": "_student",
          "type": "address"
        }
      ],
      "name": "removeStudent",
      "outputs": [],
      "stateMutability": "nonpayable",
      "type": "function"
    },
    {
      "inputs": [
        {
          "internalType": "address",
          "name": "_teacher",
          "type": "address"
        }
      ],
      "name": "removeTeacher",
      "outputs": [],
      "stateMutability": "nonpayable",
      "type": "function"
    },
    {
      "inputs": [
        {
          "internalType": "uint256",
          "name": "_subjectId",
          "type": "uint256"
        }
      ],
      "name": "removeSubject",
      "outputs": [],
      "stateMutability": "nonpayable",
      "type": "function"
    },
    {
      "inputs": [
        {
          "internalType": "uint256",
          "name": "_classId",
          "type": "uint256"
        }
      ],
      "name": "removeClass",
      "outputs": [],
      "stateMutability": "nonpayable",
      "type": "function"
    }
  ],
  "bytecode": "0x60806040523480156200001157600080fd5b50336000806101000a81548173ffffffffffffffffffffffffffffffffffffffff021916908373ffffffffffffffffffffffffffffffffffffffff1602179055506040518060400160405280600581526020017f61646d696e000000000000000000000000000000000000000000000000000000815250600b60003373ffffffffffffffffffffffffffffffffffffffff1673ffffffffffffffffffffffffffffffffffffffff1681526020019081526020016000209080519060200190620000dc929190620000e3565b50620001f8565b828054620000f19062000193565b90600052602060002090601f01602090048101928262000115576000855562000161565b82601f106200013057805160ff191683800117855562000161565b8280016001018555821562000161579182015b828111156200016057825182559160200191906001019062000143565b5b50905062000170919062000174565b5090565b5b808211156200018f57600081600090555060010162000175565b5090565b60006002820490506001821680620001ac57607f821691505b60208210811415620001c357620001c2620001c9565b5b50919050565b7f4e487b7100000000000000000000000000000000000000000000000000000000600052602260045260246000fd5b61451780620002086000396000f3fe608060405234801561001057600080fd5b50600436106101f05760003560e01c806372c30f451161010f578063aed7419b116100a2578063d1939ccf11610071578063d1939ccf14610602578063e3596cac14610620578063f851a4401461063e578063fe24ec651461065c576101f0565b8063aed7419b14610555578063b6ba723014610586578063c91aacc4146105a2578063cf19cacd146105d2576101f0565b806399374642116100de57806399374642146104bc578063a90795cf146104ec578063aba4234914610508578063ae504c5c14610524576101f0565b806372c30f451461044c57806378c4798c1461046857806380d01999146104845780638f5b9b2e146104a0576101f0565b80633d2d86631161018757806350e0b94d1161015657806350e0b94d146103da57806352ff6846146103f65780635e8b8091146104125780637194c5b31461042e576101f0565b80633d2d86631461032b578063442767331461035b57806344d370b81461038b578063465c0e53146103bc576101f0565b80632b37f7e7116101c35780632b37f7e71461027c5780632cefe588146102ac57806334ac0b40146102dc5780633954d58b1461030d576101f0565b806306ead22e146101f55780630ddb03bb146102265780632520f9a114610242578063294d8a391461025e575b600080fd5b61020f600480360381019061020a91906134e5565b61068f565b60405161021d929190613fd8565b60405180910390f35b610240600480360381019061023b919061350e565b61074b565b005b61025c600480360381019061025791906134a4565b6108fc565b005b610266610a5a565b6040516102739190613e22565b60405180910390f35b610296600480360381019061029191906134e5565b610d3c565b6040516102a39190613e44565b60405180910390f35b6102c660048036038101906102c191906134e5565b610da6565b6040516102d39190613e22565b60405180910390f35b6102f660048036038101906102f191906134e5565b610fa8565b604051610304929190613fd8565b60405180910390f35b610315611064565b6040516103229190613f94565b60405180910390f35b6103456004803603810190610340919061350e565b61106a565b6040516103529190613e44565b60405180910390f35b61037560048036038101906103709190613427565b61115a565b6040516103829190613e5f565b60405180910390f35b6103a560048036038101906103a09190613427565b61122b565b6040516103b3929190613fd8565b60405180910390f35b6103c46112d7565b6040516103d19190613e5f565b60405180910390f35b6103f460048036038101906103ef91906134e5565b6114a8565b005b610410600480360381019061040b9190613427565b611569565b005b61042c60048036038101906104279190613450565b611690565b005b6104366118d9565b6040516104439190613f94565b60405180910390f35b610466600480360381019061046191906134e5565b6118df565b005b610482600480360381019061047d9190613427565b611a31565b005b61049e600480360381019061049991906134e5565b611b58565b005b6104ba60048036038101906104b59190613450565b611c83565b005b6104d660048036038101906104d19190613427565b611ecc565b6040516104e39190613e5f565b60405180910390f35b6105066004803603810190610501919061354a565b611f6c565b005b610522600480360381019061051d919061350e565b6122d5565b005b61053e600480360381019061053991906134e5565b612486565b60405161054c929190613fd8565b60405180910390f35b61056f600480360381019061056a9190613427565b612532565b60405161057d929190613fd8565b60405180910390f35b6105a0600480360381019061059b919061359e565b6125de565b005b6105bc60048036038101906105b791906134e5565b6127f7565b6040516105c99190613e00565b60405180910390f35b6105ec60048036038101906105e791906134e5565b612a9c565b6040516105f99190613e22565b60405180910390f35b61060a612b0a565b6040516106179190613f94565b60405180910390f35b610628612b10565b6040516106359190613f94565b60405180910390f35b610646612b16565b6040516106539190613db5565b60405180910390f35b610676600480360381019061067191906134e5565b612b3a565b6040516106869493929190613f41565b60405180910390f35b6001818154811061069f57600080fd5b90600052602060002090600202016000915090508060000154908060010180546106c8906142b3565b80601f01602080910402602001604051908101604052809291908181526020018280546106f4906142b3565b80156107415780601f1061071657610100808354040283529160200191610741565b820191906000526020600020905b81548152906001019060200180831161072457829003601f168201915b5050505050905082565b60405160200161075a90613d63565b60405160208183030381529060405280519060200120600b60003373ffffffffffffffffffffffffffffffffffffffff1673ffffffffffffffffffffffffffffffffffffffff1681526020019081526020016000206040516020016107bf9190613d4c565b6040516020818303038152906040528051906020012014610815576040517f08c379a000000000000000000000000000000000000000000000000000000000815260040161080c90613f01565b60405180910390fd5b60096000838152602001908152602001600020600201600860008373ffffffffffffffffffffffffffffffffffffffff1673ffffffffffffffffffffffffffffffffffffffff16815260200190815260200160002090806001815401808255809150506001900390600052602060002090600202016000909190919091506000820154816000015560018201816001019080546108b1906142b3565b6108bc929190613008565b5050507f8c067146ec725333e811330fd75fb90567f7eeca601628b5943875fc4a43723e82826040516108f0929190613faf565b60405180910390a15050565b60405160200161090b90613d63565b60405160208183030381529060405280519060200120600b60003373ffffffffffffffffffffffffffffffffffffffff1673ffffffffffffffffffffffffffffffffffffffff1681526020019081526020016000206040516020016109709190613d4c565b60405160208183030381529060405280519060200120146109c6576040517f08c379a00000000000000000000000000000000000000000000000000000000081526004016109bd90613f01565b60405180910390fd5b600460008154809291906109d9906142e5565b919050555060006009600060045481526020019081526020016000209050600454816000018190555081816001019080519060200190610a1a929190613095565b507feeb360ad20d46a8343b758e287ec025d44c51139825f3af2950630c14599acbd60045483604051610a4e929190613fd8565b60405180910390a15050565b606060006004549050600080600190505b828111610b6d57600060096000838152602001908152602001600020905060005b8160030180549050811015610b5857600760003373ffffffffffffffffffffffffffffffffffffffff1673ffffffffffffffffffffffffffffffffffffffff16815260200190815260200160002060000154826003018281548110610b1a577f4e487b7100000000000000000000000000000000000000000000000000000000600052603260045260246000fd5b9060005260206000209060020201600001541415610b45578380610b3d906142e5565b945050610b58565b8080610b50906142e5565b915050610a8c565b50508080610b65906142e5565b915050610a6b565b5060008167ffffffffffffffff811115610bb0577f4e487b7100000000000000000000000000000000000000000000000000000000600052604160045260246000fd5b604051908082528060200260200182016040528015610bde5781602001602082028036833780820191505090505b509050600080600190505b848111610d3157600060096000838152602001908152602001600020905060005b8160030180549050811015610d1c57600760003373ffffffffffffffffffffffffffffffffffffffff1673ffffffffffffffffffffffffffffffffffffffff16815260200190815260200160002060000154826003018281548110610c98577f4e487b7100000000000000000000000000000000000000000000000000000000600052603260045260246000fd5b9060005260206000209060020201600001541415610d095782858581518110610cea577f4e487b7100000000000000000000000000000000000000000000000000000000600052603260045260246000fd5b6020026020010181815250508380610d01906142e5565b945050610d1c565b8080610d14906142e5565b915050610c0a565b50508080610d29906142e5565b915050610be9565b508194505050505090565b6000600a600083815260200190815260200160002060080160003373ffffffffffffffffffffffffffffffffffffffff1673ffffffffffffffffffffffffffffffffffffffff16815260200190815260200160002060009054906101000a900460ff169050919050565b60606000600860003373ffffffffffffffffffffffffffffffffffffffff1673ffffffffffffffffffffffffffffffffffffffff168152602001908152602001600020600001541415610e2e576040517f08c379a0000000000000000000000000000000000000000000000000000000008152600401610e2590613ee1565b60405180910390fd5b60006009600084815260200190815260200160002090506000805b8260020180549050811015610f0b57600860003373ffffffffffffffffffffffffffffffffffffffff1673ffffffffffffffffffffffffffffffffffffffff16815260200190815260200160002060000154836002018281548110610ed7577f4e487b7100000000000000000000000000000000000000000000000000000000600052603260045260246000fd5b9060005260206000209060020201600001541415610ef85760019150610f0b565b8080610f03906142e5565b915050610e49565b5080610f4c576040517f08c379a0000000000000000000000000000000000000000000000000000000008152600401610f4390613f21565b60405180910390fd5b81600401805480602002602001604051908101604052809291908181526020018280548015610f9a57602002820191906000526020600020905b815481526020019060010190808311610f86575b505050505092505050919050565b60028181548110610fb857600080fd5b9060005260206000209060020201600091509050806000015490806001018054610fe1906142b3565b80601f016020809104026020016040519081016040528092919081815260200182805461100d906142b3565b801561105a5780601f1061102f5761010080835404028352916020019161105a565b820191906000526020600020905b81548152906001019060200180831161103d57829003601f168201915b5050505050905082565b60035481565b600080600860003373ffffffffffffffffffffffffffffffffffffffff1673ffffffffffffffffffffffffffffffffffffffff1681526020019081526020016000206000015414156110f1576040517f08c379a00000000000000000000000000000000000000000000000000000000081526004016110e890613ee1565b60405180910390fd5b600a600084815260200190815260200160002060080160008373ffffffffffffffffffffffffffffffffffffffff1673ffffffffffffffffffffffffffffffffffffffff16815260200190815260200160002060009054906101000a900460ff16905092915050565b6060600b60008373ffffffffffffffffffffffffffffffffffffffff1673ffffffffffffffffffffffffffffffffffffffff16815260200190815260200160002080546111a6906142b3565b80601f01602080910402602001604051908101604052809291908181526020018280546111d2906142b3565b801561121f5780601f106111f45761010080835404028352916020019161121f565b820191906000526020600020905b81548152906001019060200180831161120257829003601f168201915b50505050509050919050565b6008602052806000526040600020600091509050806000015490806001018054611254906142b3565b80601f0160208091040260200160405190810160405280929190818152602001828054611280906142b3565b80156112cd5780601f106112a2576101008083540402835291602001916112cd565b820191906000526020600020905b8154815290600101906020018083116112b057829003601f168201915b5050505050905082565b606060006040518060800160405280604281526020016144a06042913990506000600f905060008167ffffffffffffffff81111561133e577f4e487b7100000000000000000000000000000000000000000000000000000000600052604160045260246000fd5b6040519080825280601f01601f1916602001820160405280156113705781602001600182028036833780820191505090505b50905060004260014361138391906141eb565b403360405160200161139793929190613d78565b6040516020818303038152906040528051906020012060001c905060005b8381101561149d5760008551836113cc9190614366565b9050858181518110611407577f4e487b7100000000000000000000000000000000000000000000000000000000600052603260045260246000fd5b602001015160f81c60f81b84838151811061144b577f4e487b7100000000000000000000000000000000000000000000000000000000600052603260045260246000fd5b60200101907effffffffffffffffffffffffffffffffffffffffffffffffffffffffffffff1916908160001a90535085518361148791906141ba565b9250508080611495906142e5565b9150506113b5565b508194505050505090565b6000600860003373ffffffffffffffffffffffffffffffffffffffff1673ffffffffffffffffffffffffffffffffffffffff16815260200190815260200160002060000154141561152e576040517f08c379a000000000000000000000000000000000000000000000000000000000815260040161152590613ee1565b60405180910390fd5b60006115386112d7565b905080600a60008481526020019081526020016000206007019080519060200190611564929190613095565b505050565b60405160200161157890613d63565b60405160208183030381529060405280519060200120600b60003373ffffffffffffffffffffffffffffffffffffffff1673ffffffffffffffffffffffffffffffffffffffff1681526020019081526020016000206040516020016115dd9190613d4c565b6040516020818303038152906040528051906020012014611633576040517f08c379a000000000000000000000000000000000000000000000000000000000815260040161162a90613f01565b60405180910390fd5b600860008273ffffffffffffffffffffffffffffffffffffffff1673ffffffffffffffffffffffffffffffffffffffff16815260200190815260200160002060008082016000905560018201600061168b919061311b565b505050565b60405160200161169f90613d63565b60405160208183030381529060405280519060200120600b60003373ffffffffffffffffffffffffffffffffffffffff1673ffffffffffffffffffffffffffffffffffffffff1681526020019081526020016000206040516020016117049190613d4c565b604051602081830303815290604052805190602001201461175a576040517f08c379a000000000000000000000000000000000000000000000000000000000815260040161175190613f01565b60405180910390fd5b6005600081548092919061176d906142e5565b91905055506040518060400160405280600554815260200182815250600760008473ffffffffffffffffffffffffffffffffffffffff1673ffffffffffffffffffffffffffffffffffffffff1681526020019081526020016000206000820151816000015560208201518160010190805190602001906117ee929190613095565b5090505060016040518060400160405280600554815260200183815250908060018154018082558091505060019003906000526020600020906002020160009091909190915060008201518160000155602082015181600101908051906020019061185a929190613095565b50505061189c826040518060400160405280600781526020017f73747564656e7400000000000000000000000000000000000000000000000000815250612ee6565b7f94a56de67dd66b06691e0bd81e5b57fbf02e3ce04576def9d15b6371a0109fd282826040516118cd929190613dd0565b60405180910390a15050565b60065481565b6040516020016118ee90613d63565b60405160208183030381529060405280519060200120600b60003373ffffffffffffffffffffffffffffffffffffffff1673ffffffffffffffffffffffffffffffffffffffff1681526020019081526020016000206040516020016119539190613d4c565b60405160208183030381529060405280519060200120146119a9576040517f08c379a00000000000000000000000000000000000000000000000000000000081526004016119a090613f01565b60405180910390fd5b600a600082815260200190815260200160002060008082016000808201600090556001820160006119da919061311b565b6002820160006119ea919061315b565b6003820160006119fa919061317f565b600482016000611a0a91906131a3565b505060058201600090556006820160009055600782016000611a2c919061311b565b505050565b604051602001611a4090613d63565b60405160208183030381529060405280519060200120600b60003373ffffffffffffffffffffffffffffffffffffffff1673ffffffffffffffffffffffffffffffffffffffff168152602001908152602001600020604051602001611aa59190613d4c565b6040516020818303038152906040528051906020012014611afb576040517f08c379a0000000000000000000000000000000000000000000000000000000008152600401611af290613f01565b60405180910390fd5b600760008273ffffffffffffffffffffffffffffffffffffffff1673ffffffffffffffffffffffffffffffffffffffff168152602001908152602001600020600080820160009055600182016000611b53919061311b565b505050565b604051602001611b6790613d63565b60405160208183030381529060405280519060200120600b60003373ffffffffffffffffffffffffffffffffffffffff1673ffffffffffffffffffffffffffffffffffffffff168152602001908152602001600020604051602001611bcc9190613d4c565b6040516020818303038152906040528051906020012014611c22576040517f08c379a0000000000000000000000000000000000000000000000000000000008152600401611c1990613f01565b60405180910390fd5b60096000828152602001908152602001600020600080820160009055600182016000611c4e919061311b565b600282016000611c5e919061315b565b600382016000611c6e919061317f565b600482016000611c7e91906131a3565b505050565b604051602001611c9290613d63565b60405160208183030381529060405280519060200120600b60003373ffffffffffffffffffffffffffffffffffffffff1673ffffffffffffffffffffffffffffffffffffffff168152602001908152602001600020604051602001611cf79190613d4c565b6040516020818303038152906040528051906020012014611d4d576040517f08c379a0000000000000000000000000000000000000000000000000000000008152600401611d4490613f01565b60405180910390fd5b60066000815480929190611d60906142e5565b91905055506040518060400160405280600654815260200182815250600860008473ffffffffffffffffffffffffffffffffffffffff1673ffffffffffffffffffffffffffffffffffffffff168152602001908152602001600020600082015181600001556020820151816001019080519060200190611de1929190613095565b50905050600260405180604001604052806006548152602001838152509080600181540180825580915050600190039060005260206000209060020201600090919091909150600082015181600001556020820151816001019080519060200190611e4d929190613095565b505050611e8f826040518060400160405280600781526020017f7465616368657200000000000000000000000000000000000000000000000000815250612ee6565b7f6996ba1536de57e4c72a268600ac97e3feae59f326494fce7dc56c6c6de959e38282604051611ec0929190613dd0565b60405180910390a15050565b600b6020528060005260406000206000915090508054611eeb906142b3565b80601f0160208091040260200160405190810160405280929190818152602001828054611f17906142b3565b8015611f645780601f10611f3957610100808354040283529160200191611f64565b820191906000526020600020905b815481529060010190602001808311611f4757829003601f168201915b505050505081565b600a6000838152602001908152602001600020600501546000805b60096000600a60008681526020019081526020016000206000016000015481526020019081526020016000206003018054905081101561209f57600760003373ffffffffffffffffffffffffffffffffffffffff1673ffffffffffffffffffffffffffffffffffffffff1681526020019081526020016000206000015460096000600a6000878152602001908152602001600020600001600001548152602001908152602001600020600301828154811061206b577f4e487b7100000000000000000000000000000000000000000000000000000000600052603260045260246000fd5b906000526020600020906002020160000154141561208c576001915061209f565b8080612097906142e5565b915050611f87565b50806120e0576040517f08c379a00000000000000000000000000000000000000000000000000000000081526004016120d790613e81565b60405180910390fd5b60001515600a600086815260200190815260200160002060080160003373ffffffffffffffffffffffffffffffffffffffff1673ffffffffffffffffffffffffffffffffffffffff16815260200190815260200160002060009054906101000a900460ff16151514612187576040517f08c379a000000000000000000000000000000000000000000000000000000000815260040161217e90613ea1565b60405180910390fd5b826040516020016121989190613d35565b60405160208183030381529060405280519060200120600a60008681526020019081526020016000206007016040516020016121d49190613d4c565b604051602081830303815290604052805190602001201461222a576040517f08c379a000000000000000000000000000000000000000000000000000000000815260040161222190613ec1565b60405180910390fd5b6001600a600086815260200190815260200160002060080160003373ffffffffffffffffffffffffffffffffffffffff1673ffffffffffffffffffffffffffffffffffffffff16815260200190815260200160002060006101000a81548160ff0219169083151502179055507f1fc08eb0c2f0125b980d5b8b9c7d0c66f56fe49ed88c804b350f31b0130cda3884336040516122c7929190613faf565b60405180910390a150505050565b6040516020016122e490613d63565b60405160208183030381529060405280519060200120600b60003373ffffffffffffffffffffffffffffffffffffffff1673ffffffffffffffffffffffffffffffffffffffff1681526020019081526020016000206040516020016123499190613d4c565b604051602081830303815290604052805190602001201461239f576040517f08c379a000000000000000000000000000000000000000000000000000000000815260040161239690613f01565b60405180910390fd5b60096000838152602001908152602001600020600301600760008373ffffffffffffffffffffffffffffffffffffffff1673ffffffffffffffffffffffffffffffffffffffff168152602001908152602001600020908060018154018082558091505060019003906000526020600020906002020160009091909190915060008201548160000155600182018160010190805461243b906142b3565b612446929190613008565b5050507f330f6a5433c3d731bf2a234085fc8f11bd40cdbdd41b574d8570189c6ea277cb828260405161247a929190613faf565b60405180910390a15050565b60096020528060005260406000206000915090508060000154908060010180546124af906142b3565b80601f01602080910402602001604051908101604052809291908181526020018280546124db906142b3565b80156125285780601f106124fd57610100808354040283529160200191612528565b820191906000526020600020905b81548152906001019060200180831161250b57829003601f168201915b5050505050905082565b600760205280600052604060002060009150905080600001549080600101805461255b906142b3565b80601f0160208091040260200160405190810160405280929190818152602001828054612587906142b3565b80156125d45780601f106125a9576101008083540402835291602001916125d4565b820191906000526020600020905b8154815290600101906020018083116125b757829003601f168201915b5050505050905082565b6040516020016125ed90613d63565b60405160208183030381529060405280519060200120600b60003373ffffffffffffffffffffffffffffffffffffffff1673ffffffffffffffffffffffffffffffffffffffff1681526020019081526020016000206040516020016126529190613d4c565b60405160208183030381529060405280519060200120146126a8576040517f08c379a000000000000000000000000000000000000000000000000000000000815260040161269f90613f01565b60405180910390fd5b600360008154809291906126bb906142e5565b91905055506000600a600060035481526020019081526020016000209050600960008381526020019081526020016000208160000160008201548160000155600182018160010190805461270e906142b3565b612719929190613008565b5060028201816002019080546127309291906131c4565b506003820181600301908054612747929190613246565b50600482018160040190805461275e9291906132c8565b5090505060035481600501819055508281600601819055506009600083815260200190815260200160002060040160035490806001815401808255809150506001900390600052602060002001600090919091909150557f5a3a80d0fae53d263cc7f8adc9b489c04a64d1f61278a26b20f7b67ebca6aa2760035484846040516127ea93929190614008565b60405180910390a1505050565b60606000600860003373ffffffffffffffffffffffffffffffffffffffff1673ffffffffffffffffffffffffffffffffffffffff16815260200190815260200160002060000154141561287f576040517f08c379a000000000000000000000000000000000000000000000000000000000815260040161287690613ee1565b60405180910390fd5b60006009600084815260200190815260200160002090506000805b826002018054905081101561295c57600860003373ffffffffffffffffffffffffffffffffffffffff1673ffffffffffffffffffffffffffffffffffffffff16815260200190815260200160002060000154836002018281548110612928577f4e487b7100000000000000000000000000000000000000000000000000000000600052603260045260246000fd5b9060005260206000209060020201600001541415612949576001915061295c565b8080612954906142e5565b91505061289a565b508061299d576040517f08c379a000000000000000000000000000000000000000000000000000000000815260040161299490613f21565b60405180910390fd5b81600301805480602002602001604051908101604052809291908181526020016000905b82821015612a8f5783829060005260206000209060020201604051806040016040529081600082015481526020016001820180546129fe906142b3565b80601f0160208091040260200160405190810160405280929190818152602001828054612a2a906142b3565b8015612a775780601f10612a4c57610100808354040283529160200191612a77565b820191906000526020600020905b815481529060010190602001808311612a5a57829003601f168201915b505050505081525050815260200190600101906129c1565b5050505092505050919050565b606060096000838152602001908152602001600020600401805480602002602001604051908101604052809291908181526020018280548015612afe57602002820191906000526020600020905b815481526020019060010190808311612aea575b50505050509050919050565b60045481565b60055481565b60008054906101000a900473ffffffffffffffffffffffffffffffffffffffff1681565b600a602052806000526040600020600091509050806000016040518060a001604052908160008201548152602001600182018054612b77906142b3565b80601f0160208091040260200160405190810160405280929190818152602001828054612ba3906142b3565b8015612bf05780601f10612bc557610100808354040283529160200191612bf0565b820191906000526020600020905b815481529060010190602001808311612bd357829003601f168201915b5050505050815260200160028201805480602002602001604051908101604052809291908181526020016000905b82821015612cec578382906000526020600020906002020160405180604001604052908160008201548152602001600182018054612c5b906142b3565b80601f0160208091040260200160405190810160405280929190818152602001828054612c87906142b3565b8015612cd45780601f10612ca957610100808354040283529160200191612cd4565b820191906000526020600020905b815481529060010190602001808311612cb757829003601f168201915b50505050508152505081526020019060010190612c1e565b50505050815260200160038201805480602002602001604051908101604052809291908181526020016000905b82821015612de7578382906000526020600020906002020160405180604001604052908160008201548152602001600182018054612d56906142b3565b80601f0160208091040260200160405190810160405280929190818152602001828054612d82906142b3565b8015612dcf5780601f10612da457610100808354040283529160200191612dcf565b820191906000526020600020905b815481529060010190602001808311612db257829003601f168201915b50505050508152505081526020019060010190612d19565b50505050815260200160048201805480602002602001604051908101604052809291908181526020018280548015612e3e57602002820191906000526020600020905b815481526020019060010190808311612e2a575b50505050508152505090806005015490806006015490806007018054612e63906142b3565b80601f0160208091040260200160405190810160405280929190818152602001828054612e8f906142b3565b8015612edc5780601f10612eb157610100808354040283529160200191612edc565b820191906000526020600020905b815481529060010190602001808311612ebf57829003601f168201915b5050505050905084565b604051602001612ef590613d63565b60405160208183030381529060405280519060200120600b60003373ffffffffffffffffffffffffffffffffffffffff1673ffffffffffffffffffffffffffffffffffffffff168152602001908152602001600020604051602001612f5a9190613d4c565b6040516020818303038152906040528051906020012014612fb0576040517f08c379a0000000000000000000000000000000000000000000000000000000008152600401612fa790613f01565b60405180910390fd5b80600b60008473ffffffffffffffffffffffffffffffffffffffff1673ffffffffffffffffffffffffffffffffffffffff1681526020019081526020016000209080519060200190613003929190613095565b505050565b828054613014906142b3565b90600052602060002090601f0160209004810192826130365760008555613084565b82601f106130475780548555613084565b8280016001018555821561308457600052602060002091601f016020900482015b82811115613083578254825591600101919060010190613068565b5b509050613091919061331a565b5090565b8280546130a1906142b3565b90600052602060002090601f0160209004810192826130c3576000855561310a565b82601f106130dc57805160ff191683800117855561310a565b8280016001018555821561310a579182015b828111156131095782518255916020019190600101906130ee565b5b509050613117919061331a565b5090565b508054613127906142b3565b6000825580601f106131395750613158565b601f016020900490600052602060002090810190613157919061331a565b5b50565b508054600082556002029060005260206000209081019061317c9190613337565b50565b50805460008255600202906000526020600020908101906131a09190613366565b50565b50805460008255906000526020600020908101906131c1919061331a565b50565b8280548282559060005260206000209060020281019282156132355760005260206000209160020282015b82811115613234578282600082015481600001556001820181600101908054613217906142b3565b613222929190613008565b505050916002019190600201906131ef565b5b5090506132429190613337565b5090565b8280548282559060005260206000209060020281019282156132b75760005260206000209160020282015b828111156132b6578282600082015481600001556001820181600101908054613299906142b3565b6132a4929190613008565b50505091600201919060020190613271565b5b5090506132c49190613366565b5090565b8280548282559060005260206000209081019282156133095760005260206000209182015b828111156133085782548255916001019190600101906132ed565b5b509050613316919061331a565b5090565b5b8082111561333357600081600090555060010161331b565b5090565b5b8082111561336257600080820160009055600182016000613359919061311b565b50600201613338565b5090565b5b8082111561339157600080820160009055600182016000613388919061311b565b50600201613367565b5090565b60006133a86133a384614070565b61403f565b9050828152602081018484840111156133c057600080fd5b6133cb848285614271565b509392505050565b6000813590506133e281614471565b92915050565b600082601f8301126133f957600080fd5b8135613409848260208601613395565b91505092915050565b60008135905061342181614488565b92915050565b60006020828403121561343957600080fd5b6000613447848285016133d3565b91505092915050565b6000806040838503121561346357600080fd5b6000613471858286016133d3565b925050602083013567ffffffffffffffff81111561348e57600080fd5b61349a858286016133e8565b9150509250929050565b6000602082840312156134b657600080fd5b600082013567ffffffffffffffff8111156134d057600080fd5b6134dc848285016133e8565b91505092915050565b6000602082840312156134f757600080fd5b600061350584828501613412565b91505092915050565b6000806040838503121561352157600080fd5b600061352f85828601613412565b9250506020613540858286016133d3565b9150509250929050565b6000806040838503121561355d57600080fd5b600061356b85828601613412565b925050602083013567ffffffffffffffff81111561358857600080fd5b613594858286016133e8565b9150509250929050565b600080604083850312156135b157600080fd5b60006135bf85828601613412565b92505060206135d085828601613412565b9150509250929050565b60006135e68383613bfb565b905092915050565b60006135fa8383613cc3565b905092915050565b600061360e8383613d00565b60208301905092915050565b6136238161421f565b82525050565b61363a6136358261421f565b61432e565b82525050565b600061364b826140e5565b6136558185614138565b935083602082028501613667856140a0565b8060005b858110156136a3578484038952815161368485826135da565b945061368f83614111565b925060208a0199505060018101905061366b565b50829750879550505050505092915050565b60006136c0826140e5565b6136ca8185614149565b9350836020820285016136dc856140a0565b8060005b8581101561371857848403895281516136f985826135da565b945061370483614111565b925060208a019950506001810190506136e0565b50829750879550505050505092915050565b6000613735826140f0565b61373f818561415a565b935083602082028501613751856140b0565b8060005b8581101561378d578484038952815161376e85826135ee565b94506137798361411e565b925060208a01995050600181019050613755565b50829750879550505050505092915050565b60006137aa826140fb565b6137b4818561416b565b93506137bf836140c0565b8060005b838110156137f05781516137d78882613602565b97506137e28361412b565b9250506001810190506137c3565b5085935050505092915050565b6000613808826140fb565b613812818561417c565b935061381d836140c0565b8060005b8381101561384e5781516138358882613602565b97506138408361412b565b925050600181019050613821565b5085935050505092915050565b61386481614231565b82525050565b61387b6138768261423d565b614340565b82525050565b600061388c82614106565b613896818561418d565b93506138a6818560208601614280565b6138af81614453565b840191505092915050565b60006138c582614106565b6138cf818561419e565b93506138df818560208601614280565b6138e881614453565b840191505092915050565b60006138fe82614106565b61390881856141af565b9350613918818560208601614280565b80840191505092915050565b60008154613931816142b3565b61393b81866141af565b9450600182166000811461395657600181146139675761399a565b60ff1983168652818601935061399a565b613970856140d0565b60005b8381101561399257815481890152600182019150602081019050613973565b838801955050505b50505092915050565b60006139b0602d8361419e565b91507f4f6e6c7920656e726f6c6c65642073747564656e74732063616e2063616c6c2060008301527f746869732066756e6374696f6e000000000000000000000000000000000000006020830152604082019050919050565b6000613a1660198361419e565b91507f417474656e64616e636520616c7265616479206d61726b6564000000000000006000830152602082019050919050565b6000613a5660108361419e565b91507f496e76616c69642070617373776f7264000000000000000000000000000000006000830152602082019050919050565b6000613a9660248361419e565b91507f4f6e6c792074656163686572732063616e2063616c6c20746869732066756e6360008301527f74696f6e000000000000000000000000000000000000000000000000000000006020830152604082019050919050565b6000613afc60218361419e565b91507f4f6e6c792061646d696e2063616e2063616c6c20746869732066756e6374696f60008301527f6e000000000000000000000000000000000000000000000000000000000000006020830152604082019050919050565b6000613b626005836141af565b91507f61646d696e0000000000000000000000000000000000000000000000000000006000830152600582019050919050565b6000613ba260248361419e565b91507f596f7520617265206e6f742061737369676e656420746f20746869732073756260008301527f6a656374000000000000000000000000000000000000000000000000000000006020830152604082019050919050565b6000604083016000830151613c136000860182613d00565b5060208301518482036020860152613c2b8282613881565b9150508091505092915050565b600060a083016000830151613c506000860182613d00565b5060208301518482036020860152613c688282613881565b91505060408301518482036040860152613c82828261372a565b91505060608301518482036060860152613c9c8282613640565b91505060808301518482036080860152613cb6828261379f565b9150508091505092915050565b6000604083016000830151613cdb6000860182613d00565b5060208301518482036020860152613cf38282613881565b9150508091505092915050565b613d0981614267565b82525050565b613d1881614267565b82525050565b613d2f613d2a82614267565b61435c565b82525050565b6000613d4182846138f3565b915081905092915050565b6000613d588284613924565b915081905092915050565b6000613d6e82613b55565b9150819050919050565b6000613d848286613d1e565b602082019150613d94828561386a565b602082019150613da48284613629565b601482019150819050949350505050565b6000602082019050613dca600083018461361a565b92915050565b6000604082019050613de5600083018561361a565b8181036020830152613df781846138ba565b90509392505050565b60006020820190508181036000830152613e1a81846136b5565b905092915050565b60006020820190508181036000830152613e3c81846137fd565b905092915050565b6000602082019050613e59600083018461385b565b92915050565b60006020820190508181036000830152613e7981846138ba565b905092915050565b60006020820190508181036000830152613e9a816139a3565b9050919050565b60006020820190508181036000830152613eba81613a09565b9050919050565b60006020820190508181036000830152613eda81613a49565b9050919050565b60006020820190508181036000830152613efa81613a89565b9050919050565b60006020820190508181036000830152613f1a81613aef565b9050919050565b60006020820190508181036000830152613f3a81613b95565b9050919050565b60006080820190508181036000830152613f5b8187613c38565b9050613f6a6020830186613d0f565b613f776040830185613d0f565b8181036060830152613f8981846138ba565b905095945050505050565b6000602082019050613fa96000830184613d0f565b92915050565b6000604082019050613fc46000830185613d0f565b613fd1602083018461361a565b9392505050565b6000604082019050613fed6000830185613d0f565b8181036020830152613fff81846138ba565b90509392505050565b600060608201905061401d6000830186613d0f565b61402a6020830185613d0f565b6140376040830184613d0f565b949350505050565b6000604051905081810181811067ffffffffffffffff8211171561406657614065614424565b5b8060405250919050565b600067ffffffffffffffff82111561408b5761408a614424565b5b601f19601f8301169050602081019050919050565b6000819050602082019050919050565b6000819050602082019050919050565b6000819050602082019050919050565b60008190508160005260206000209050919050565b600081519050919050565b600081519050919050565b600081519050919050565b600081519050919050565b6000602082019050919050565b6000602082019050919050565b6000602082019050919050565b600082825260208201905092915050565b600082825260208201905092915050565b600082825260208201905092915050565b600082825260208201905092915050565b600082825260208201905092915050565b600082825260208201905092915050565b600082825260208201905092915050565b600081905092915050565b60006141c582614267565b91506141d083614267565b9250826141e0576141df6143c6565b5b828204905092915050565b60006141f682614267565b915061420183614267565b92508282101561421457614213614397565b5b828203905092915050565b600061422a82614247565b9050919050565b60008115159050919050565b6000819050919050565b600073ffffffffffffffffffffffffffffffffffffffff82169050919050565b6000819050919050565b82818337600083830152505050565b60005b8381101561429e578082015181840152602081019050614283565b838111156142ad576000848401525b50505050565b600060028204905060018216806142cb57607f821691505b602082108114156142df576142de6143f5565b5b50919050565b60006142f082614267565b91507fffffffffffffffffffffffffffffffffffffffffffffffffffffffffffffffff82141561432357614322614397565b5b600182019050919050565b60006143398261434a565b9050919050565b6000819050919050565b600061435582614464565b9050919050565b6000819050919050565b600061437182614267565b915061437c83614267565b92508261438c5761438b6143c6565b5b828206905092915050565b7f4e487b7100000000000000000000000000000000000000000000000000000000600052601160045260246000fd5b7f4e487b7100000000000000000000000000000000000000000000000000000000600052601260045260246000fd5b7f4e487b7100000000000000000000000000000000000000000000000000000000600052602260045260246000fd5b7f4e487b7100000000000000000000000000000000000000000000000000000000600052604160045260246000fd5b6000601f19601f8301169050919050565b60008160601b9050919050565b61447a8161421f565b811461448557600080fd5b50565b61449181614267565b811461449c57600080fd5b5056fe6162636465666768696a6b6c6d6e6f707172737475767778797a4142434445464748494a4b4c4d4e4f505152535455565758595a30313233343536373839402f2123a2646970667358221220432a498fc0802ef92fef9b4f332fdafcd1a9cc490d5c3e9930514ee4a9bc9b2f64736f6c63430008000033",
  "immutableReferences": {},
  "source": "//SPDX-License-Identifier: MIT\r\n\r\npragma solidity ^0.8.0;\r\n\r\ncontract Attendance {\r\n\r\n    address public admin;\r\n    Student[] public students;\r\n    Teacher[] public teachers;\r\n    uint256 public classCounter;\r\n    uint256 public subjectCounter;\r\n    uint256 public studentCounter;\r\n    uint256 public teacherCounter;\r\n\r\n    struct Student {\r\n        uint256 studentId;\r\n        string name;\r\n    }\r\n\r\n    struct Teacher {\r\n        uint256 teacherId;\r\n        string name;\r\n    }\r\n\r\n    struct Subject {\r\n        uint256 subjectId;\r\n        string subjectName;\r\n        Teacher[] teachingTeachers;\r\n        Student[] enrolledStudents;\r\n        uint256[] classIds;\r\n    }\r\n\r\n    struct Class {\r\n        Subject subject;\r\n        uint256 classId;\r\n        uint256 classDate;\r\n        string classPwd;\r\n        mapping(address => bool) attendance;\r\n    }\r\n\r\n    event studentAdded(address student, string name);\r\n    event teacherAdded(address teacher, string name);\r\n    event subjectCreated(uint256 subjectId, string subjectName);\r\n    event classCreated(uint256 classId, uint256 classDate, uint256 subjectId);\r\n    event studentEnrolled(uint256 subjectId, address student);\r\n    event teacherAssigned(uint256 subjectId, address teacher);\r\n    event attendanceMarked(uint256 classId, address student);\r\n\r\n\r\n    mapping(address => Student) public studentDetails;\r\n    mapping(address => Teacher) public teacherDetails;\r\n    mapping(uint256 => Subject) public subjectDetails;\r\n    mapping(uint256 => Class) public classDetails;\r\n\r\n    mapping(address => string) public roles;\r\n\r\n    constructor() {\r\n        admin = msg.sender;\r\n        roles[msg.sender] = \"admin\"; // Contract deployer is the admin\r\n    }\r\n\r\n    modifier onlyAdmin() {\r\n        require(keccak256(abi.encodePacked(roles[msg.sender])) == keccak256(abi.encodePacked(\"admin\")), \"Only admin can call this function\");\r\n        _;\r\n    }\r\n\r\n    modifier onlyTeacher() {\r\n        require(teacherDetails[msg.sender].teacherId != 0, \"Only teachers can call this function\");\r\n        _;\r\n    }\r\n\r\n    modifier onlyStudent() {\r\n        require(studentDetails[msg.sender].studentId != 0, \"Only students can call this function\");\r\n        _;\r\n    }\r\n\r\n    modifier onlyEnrolledStudent(uint256 classId) {\r\n        bool isEnrolled = false;\r\n        for (uint256 i = 0; i < subjectDetails[classDetails[classId].subject.subjectId].enrolledStudents.length; i++) {\r\n            if (subjectDetails[classDetails[classId].subject.subjectId].enrolledStudents[i].studentId == studentDetails[msg.sender].studentId) {\r\n                isEnrolled = true;\r\n                break;\r\n            }\r\n        }\r\n        require(isEnrolled, \"Only enrolled students can call this function\");\r\n        _;\r\n    }\r\n\r\n    function assignRole(address user, string memory role) internal onlyAdmin {\r\n        roles[user] = role;\r\n    }\r\n\r\n    function getRole(address user) public view returns (string memory) {\r\n        return roles[user];\r\n    }\r\n\r\n    function addStudent(address _student, string memory _name) public onlyAdmin {\r\n        studentCounter++;\r\n        studentDetails[_student] = Student(studentCounter, _name);\r\n        students.push(Student(studentCounter, _name));\r\n        assignRole(_student, \"student\");\r\n\r\n        emit studentAdded(_student, _name);\r\n    }   \r\n\r\n    function addTeacher(address _teacher, string memory _name) public onlyAdmin {\r\n        teacherCounter++;\r\n        teacherDetails[_teacher] = Teacher(teacherCounter,_name);\r\n        teachers.push(Teacher(teacherCounter, _name));\r\n        assignRole(_teacher, \"teacher\");\r\n\r\n        emit teacherAdded(_teacher, _name);\r\n    }\r\n\r\n    function createSubject(string memory _subjectName) public onlyAdmin {\r\n        subjectCounter++;\r\n        Subject storage newSubject = subjectDetails[subjectCounter];\r\n        newSubject.subjectId=subjectCounter;\r\n        newSubject.subjectName = _subjectName;\r\n\r\n        emit subjectCreated(subjectCounter, _subjectName);\r\n    }\r\n\r\n    function createClass(uint256 _classDate, uint256 _subjectId) public onlyAdmin {\r\n        classCounter++;\r\n        \r\n        Class storage newClass = classDetails[classCounter];\r\n        newClass.subject = subjectDetails[_subjectId];\r\n        newClass.classId = classCounter;\r\n        newClass.classDate = _classDate;\r\n        subjectDetails[_subjectId].classIds.push(classCounter);\r\n\r\n        emit classCreated(classCounter, _classDate, _subjectId);\r\n    }\r\n\r\n    function enrollStudent(uint256 _subjectId, address _student) public onlyAdmin {\r\n        subjectDetails[_subjectId].enrolledStudents.push(studentDetails[_student]);\r\n\r\n        emit studentEnrolled(_subjectId, _student);\r\n    }\r\n\r\n    function assignTeacher(uint256 _subjectId, address _teacher) public onlyAdmin {\r\n        subjectDetails[_subjectId].teachingTeachers.push(teacherDetails[_teacher]);\r\n\r\n        emit teacherAssigned(_subjectId, _teacher);\r\n    }\r\n\r\n    function markAttendance(uint256 _classId, string memory _pwd) public onlyEnrolledStudent(classDetails[_classId].classId) {\r\n        require(classDetails[_classId].attendance[msg.sender] == false, \"Attendance already marked\");\r\n        require(keccak256(abi.encodePacked(classDetails[_classId].classPwd)) == keccak256(abi.encodePacked(_pwd)), \"Invalid password\");\r\n        classDetails[_classId].attendance[msg.sender] = true;\r\n\r\n        emit attendanceMarked(_classId, msg.sender);\r\n    }\r\n\r\n    function checkAttendance(uint256 _classId) public view returns (bool) {\r\n        return classDetails[_classId].attendance[msg.sender];\r\n    }\r\n\r\n    function checkAttendance(uint256 _classId, address _student) public view onlyTeacher returns (bool) {\r\n        return classDetails[_classId].attendance[_student];\r\n    }\r\n\r\n    function generateClassPwd(uint256 _classId) public onlyTeacher {\r\n        string memory classPwd = getRandomPassword();\r\n        classDetails[_classId].classPwd = classPwd;\r\n    }\r\n\r\n    function getRandomPassword() public view returns (string memory) {\r\n        bytes memory characters = \"abcdefghijklmnopqrstuvwxyzABCDEFGHIJKLMNOPQRSTUVWXYZ0123456789@/!#\";\r\n        uint256 length = 15;\r\n        bytes memory password = new bytes(length);\r\n        uint256 seed = uint256(keccak256(abi.encodePacked(block.timestamp, blockhash(block.number - 1), msg.sender)));\r\n\r\n        for (uint256 i = 0; i < length; i++) {\r\n            uint256 randomIndex = seed % characters.length;\r\n            password[i] = characters[randomIndex];\r\n            seed = seed / characters.length;\r\n        }\r\n        return string(password);\r\n    }\r\n\r\n    function getEnrolledStudents(uint256 _subjectId) public view onlyTeacher returns (Student[] memory) {\r\n        Subject storage subject = subjectDetails[_subjectId];\r\n\r\n        bool isAssigned = false;\r\n        for (uint256 i = 0; i < subject.teachingTeachers.length; i++) {\r\n            if (subject.teachingTeachers[i].teacherId == teacherDetails[msg.sender].teacherId) {\r\n                isAssigned = true;\r\n                break;\r\n            }\r\n        }\r\n        require(isAssigned, \"You are not assigned to this subject\");\r\n\r\n        return subject.enrolledStudents;\r\n    }\r\n\r\n    function getClassesForTeacher(uint256 _subjectId) public view onlyTeacher returns (uint256[] memory) {\r\n        Subject storage subject = subjectDetails[_subjectId];\r\n\r\n        bool isAssigned = false;\r\n        for (uint256 i = 0; i < subject.teachingTeachers.length; i++) {\r\n            if (subject.teachingTeachers[i].teacherId == teacherDetails[msg.sender].teacherId) {\r\n                isAssigned = true;\r\n                break;\r\n            }\r\n        }\r\n        require(isAssigned, \"You are not assigned to this subject\");\r\n\r\n        return subject.classIds;\r\n    }\r\n\r\n    function getClassesForStudent(uint256 _subjectId) public view returns (uint256[] memory) {\r\n        return subjectDetails[_subjectId].classIds;\r\n    }\r\n    \r\n    function getSubjectsForStudent() public view returns (uint256[] memory) {\r\n        uint256 totalSubjects = subjectCounter;\r\n        uint256 count = 0;\r\n\r\n        for (uint256 i = 1; i <= totalSubjects; i++) {\r\n            Subject storage subject = subjectDetails[i];\r\n            for (uint256 j = 0; j < subject.enrolledStudents.length; j++) {\r\n                if (subject.enrolledStudents[j].studentId == studentDetails[msg.sender].studentId) {\r\n                    count++;\r\n                    break;\r\n                }\r\n            }\r\n        }\r\n\r\n        uint256[] memory enrolledSubjectIds = new uint256[](count);\r\n        uint256 index = 0;\r\n\r\n        for (uint256 i = 1; i <= totalSubjects; i++) {\r\n            Subject storage subject = subjectDetails[i];\r\n            for (uint256 j = 0; j < subject.enrolledStudents.length; j++) {\r\n                if (subject.enrolledStudents[j].studentId == studentDetails[msg.sender].studentId) {\r\n                    enrolledSubjectIds[index] = i;\r\n                    index++;\r\n                    break;\r\n                }\r\n            }\r\n        }\r\n        return enrolledSubjectIds;\r\n    }\r\n\r\n    function removeStudent(address _student) public onlyAdmin {\r\n        delete studentDetails[_student];\r\n    }\r\n\r\n    function removeTeacher(address _teacher) public onlyAdmin {\r\n        delete teacherDetails[_teacher];\r\n    }\r\n\r\n    function removeSubject(uint256 _subjectId) public onlyAdmin {\r\n        delete subjectDetails[_subjectId];\r\n    }\r\n\r\n    function removeClass(uint256 _classId) public onlyAdmin {\r\n        delete classDetails[_classId];\r\n    }\r\n}",
  "sourcePath": "C:\\Users\\User\\Desktop\\dev\\Blockchain\\contracts\\Attendance.sol",
  "compiler": {
    "name": "solc",
    "version": "0.8.0+commit.c7dfd78e.Emscripten.clang"
  },
  "schemaVersion": "3.4.16",
  "updatedAt": "2025-01-20T02:21:37.295Z",
  "networkType": "ethereum",
  "devdoc": {
    "kind": "dev",
    "methods": {},
    "version": 1
  },
  "userdoc": {
    "kind": "user",
    "methods": {},
    "version": 1
  }
}