{
  "contractName": "Attendance",
  "abi": [
    {
      "inputs": [],
      "stateMutability": "nonpayable",
      "type": "constructor"
    },
    {
      "anonymous": false,
      "inputs": [
        {
          "indexed": false,
          "internalType": "uint256",
          "name": "classId",
          "type": "uint256"
        },
        {
          "indexed": false,
          "internalType": "address",
          "name": "student",
          "type": "address"
        }
      ],
      "name": "attendanceMarked",
      "type": "event"
    },
    {
      "anonymous": false,
      "inputs": [
        {
          "indexed": false,
          "internalType": "uint256",
          "name": "classId",
          "type": "uint256"
        },
        {
          "indexed": false,
          "internalType": "uint256",
          "name": "classDate",
          "type": "uint256"
        },
        {
          "indexed": false,
          "internalType": "uint256",
          "name": "subjectId",
          "type": "uint256"
        }
      ],
      "name": "classCreated",
      "type": "event"
    },
    {
      "anonymous": false,
      "inputs": [
        {
          "indexed": false,
          "internalType": "address",
          "name": "student",
          "type": "address"
        },
        {
          "indexed": false,
          "internalType": "string",
          "name": "name",
          "type": "string"
        }
      ],
      "name": "studentAdded",
      "type": "event"
    },
    {
      "anonymous": false,
      "inputs": [
        {
          "indexed": false,
          "internalType": "uint256",
          "name": "subjectId",
          "type": "uint256"
        },
        {
          "indexed": false,
          "internalType": "address",
          "name": "student",
          "type": "address"
        }
      ],
      "name": "studentEnrolled",
      "type": "event"
    },
    {
      "anonymous": false,
      "inputs": [
        {
          "indexed": false,
          "internalType": "uint256",
          "name": "subjectId",
          "type": "uint256"
        },
        {
          "indexed": false,
          "internalType": "string",
          "name": "subjectName",
          "type": "string"
        }
      ],
      "name": "subjectCreated",
      "type": "event"
    },
    {
      "anonymous": false,
      "inputs": [
        {
          "indexed": false,
          "internalType": "address",
          "name": "teacher",
          "type": "address"
        },
        {
          "indexed": false,
          "internalType": "string",
          "name": "name",
          "type": "string"
        }
      ],
      "name": "teacherAdded",
      "type": "event"
    },
    {
      "anonymous": false,
      "inputs": [
        {
          "indexed": false,
          "internalType": "uint256",
          "name": "subjectId",
          "type": "uint256"
        },
        {
          "indexed": false,
          "internalType": "address",
          "name": "teacher",
          "type": "address"
        }
      ],
      "name": "teacherAssigned",
      "type": "event"
    },
    {
      "inputs": [],
      "name": "admin",
      "outputs": [
        {
          "internalType": "address",
          "name": "",
          "type": "address"
        }
      ],
      "stateMutability": "view",
      "type": "function",
      "constant": true
    },
    {
      "inputs": [],
      "name": "classCounter",
      "outputs": [
        {
          "internalType": "uint256",
          "name": "",
          "type": "uint256"
        }
      ],
      "stateMutability": "view",
      "type": "function",
      "constant": true
    },
    {
      "inputs": [
        {
          "internalType": "uint256",
          "name": "",
          "type": "uint256"
        }
      ],
      "name": "classDetails",
      "outputs": [
        {
          "components": [
            {
              "internalType": "uint256",
              "name": "subjectId",
              "type": "uint256"
            },
            {
              "internalType": "string",
              "name": "subjectName",
              "type": "string"
            },
            {
              "components": [
                {
                  "internalType": "uint256",
                  "name": "teacherId",
                  "type": "uint256"
                },
                {
                  "internalType": "string",
                  "name": "name",
                  "type": "string"
                },
                {
                  "internalType": "address",
                  "name": "teacherAddress",
                  "type": "address"
                }
              ],
              "internalType": "struct Attendance.Teacher[]",
              "name": "teachingTeachers",
              "type": "tuple[]"
            },
            {
              "components": [
                {
                  "internalType": "uint256",
                  "name": "studentId",
                  "type": "uint256"
                },
                {
                  "internalType": "string",
                  "name": "name",
                  "type": "string"
                },
                {
                  "internalType": "address",
                  "name": "studentAddress",
                  "type": "address"
                }
              ],
              "internalType": "struct Attendance.Student[]",
              "name": "enrolledStudents",
              "type": "tuple[]"
            },
            {
              "internalType": "uint256[]",
              "name": "classIds",
              "type": "uint256[]"
            }
          ],
          "internalType": "struct Attendance.Subject",
          "name": "subject",
          "type": "tuple"
        },
        {
          "internalType": "uint256",
          "name": "classId",
          "type": "uint256"
        },
        {
          "internalType": "uint256",
          "name": "classDate",
          "type": "uint256"
        },
        {
          "internalType": "string",
          "name": "classPwd",
          "type": "string"
        },
        {
          "internalType": "uint256",
          "name": "passwordExpiry",
          "type": "uint256"
        }
      ],
      "stateMutability": "view",
      "type": "function",
      "constant": true
    },
    {
      "inputs": [
        {
          "internalType": "address",
          "name": "",
          "type": "address"
        }
      ],
      "name": "roles",
      "outputs": [
        {
          "internalType": "string",
          "name": "",
          "type": "string"
        }
      ],
      "stateMutability": "view",
      "type": "function",
      "constant": true
    },
    {
      "inputs": [],
      "name": "studentCounter",
      "outputs": [
        {
          "internalType": "uint256",
          "name": "",
          "type": "uint256"
        }
      ],
      "stateMutability": "view",
      "type": "function",
      "constant": true
    },
    {
      "inputs": [
        {
          "internalType": "address",
          "name": "",
          "type": "address"
        }
      ],
      "name": "studentDetails",
      "outputs": [
        {
          "internalType": "uint256",
          "name": "studentId",
          "type": "uint256"
        },
        {
          "internalType": "string",
          "name": "name",
          "type": "string"
        },
        {
          "internalType": "address",
          "name": "studentAddress",
          "type": "address"
        }
      ],
      "stateMutability": "view",
      "type": "function",
      "constant": true
    },
    {
      "inputs": [
        {
          "internalType": "uint256",
          "name": "",
          "type": "uint256"
        }
      ],
      "name": "students",
      "outputs": [
        {
          "internalType": "uint256",
          "name": "studentId",
          "type": "uint256"
        },
        {
          "internalType": "string",
          "name": "name",
          "type": "string"
        },
        {
          "internalType": "address",
          "name": "studentAddress",
          "type": "address"
        }
      ],
      "stateMutability": "view",
      "type": "function",
      "constant": true
    },
    {
      "inputs": [],
      "name": "subjectCounter",
      "outputs": [
        {
          "internalType": "uint256",
          "name": "",
          "type": "uint256"
        }
      ],
      "stateMutability": "view",
      "type": "function",
      "constant": true
    },
    {
      "inputs": [
        {
          "internalType": "uint256",
          "name": "",
          "type": "uint256"
        }
      ],
      "name": "subjectDetails",
      "outputs": [
        {
          "internalType": "uint256",
          "name": "subjectId",
          "type": "uint256"
        },
        {
          "internalType": "string",
          "name": "subjectName",
          "type": "string"
        }
      ],
      "stateMutability": "view",
      "type": "function",
      "constant": true
    },
    {
      "inputs": [],
      "name": "teacherCounter",
      "outputs": [
        {
          "internalType": "uint256",
          "name": "",
          "type": "uint256"
        }
      ],
      "stateMutability": "view",
      "type": "function",
      "constant": true
    },
    {
      "inputs": [
        {
          "internalType": "address",
          "name": "",
          "type": "address"
        }
      ],
      "name": "teacherDetails",
      "outputs": [
        {
          "internalType": "uint256",
          "name": "teacherId",
          "type": "uint256"
        },
        {
          "internalType": "string",
          "name": "name",
          "type": "string"
        },
        {
          "internalType": "address",
          "name": "teacherAddress",
          "type": "address"
        }
      ],
      "stateMutability": "view",
      "type": "function",
      "constant": true
    },
    {
      "inputs": [
        {
          "internalType": "uint256",
          "name": "",
          "type": "uint256"
        }
      ],
      "name": "teachers",
      "outputs": [
        {
          "internalType": "uint256",
          "name": "teacherId",
          "type": "uint256"
        },
        {
          "internalType": "string",
          "name": "name",
          "type": "string"
        },
        {
          "internalType": "address",
          "name": "teacherAddress",
          "type": "address"
        }
      ],
      "stateMutability": "view",
      "type": "function",
      "constant": true
    },
    {
      "inputs": [
        {
          "internalType": "address",
          "name": "user",
          "type": "address"
        }
      ],
      "name": "getRole",
      "outputs": [
        {
          "internalType": "string",
          "name": "",
          "type": "string"
        }
      ],
      "stateMutability": "view",
      "type": "function",
      "constant": true
    },
    {
      "inputs": [
        {
          "internalType": "address",
          "name": "_student",
          "type": "address"
        },
        {
          "internalType": "string",
          "name": "_name",
          "type": "string"
        }
      ],
      "name": "addStudent",
      "outputs": [],
      "stateMutability": "nonpayable",
      "type": "function"
    },
    {
      "inputs": [
        {
          "internalType": "address",
          "name": "_teacher",
          "type": "address"
        },
        {
          "internalType": "string",
          "name": "_name",
          "type": "string"
        }
      ],
      "name": "addTeacher",
      "outputs": [],
      "stateMutability": "nonpayable",
      "type": "function"
    },
    {
      "inputs": [
        {
          "internalType": "string",
          "name": "_subjectName",
          "type": "string"
        }
      ],
      "name": "createSubject",
      "outputs": [],
      "stateMutability": "nonpayable",
      "type": "function"
    },
    {
      "inputs": [
        {
          "internalType": "uint256",
          "name": "_classDate",
          "type": "uint256"
        },
        {
          "internalType": "uint256",
          "name": "_subjectId",
          "type": "uint256"
        }
      ],
      "name": "createClass",
      "outputs": [],
      "stateMutability": "nonpayable",
      "type": "function"
    },
    {
      "inputs": [
        {
          "internalType": "uint256",
          "name": "_subjectId",
          "type": "uint256"
        }
      ],
      "name": "getClassIds",
      "outputs": [
        {
          "internalType": "uint256[]",
          "name": "",
          "type": "uint256[]"
        }
      ],
      "stateMutability": "view",
      "type": "function",
      "constant": true
    },
    {
      "inputs": [
        {
          "internalType": "uint256",
          "name": "_subjectId",
          "type": "uint256"
        },
        {
          "internalType": "address",
          "name": "_student",
          "type": "address"
        }
      ],
      "name": "enrollStudent",
      "outputs": [],
      "stateMutability": "nonpayable",
      "type": "function"
    },
    {
      "inputs": [
        {
          "internalType": "uint256",
          "name": "_subjectId",
          "type": "uint256"
        },
        {
          "internalType": "address",
          "name": "_teacher",
          "type": "address"
        }
      ],
      "name": "assignTeacher",
      "outputs": [],
      "stateMutability": "nonpayable",
      "type": "function"
    },
    {
      "inputs": [
        {
          "internalType": "uint256",
          "name": "_classId",
          "type": "uint256"
        },
        {
          "internalType": "string",
          "name": "_pwd",
          "type": "string"
        }
      ],
      "name": "markAttendance",
      "outputs": [],
      "stateMutability": "nonpayable",
      "type": "function"
    },
    {
      "inputs": [
        {
          "internalType": "uint256",
          "name": "_classId",
          "type": "uint256"
        }
      ],
      "name": "checkAttendance",
      "outputs": [
        {
          "internalType": "bool",
          "name": "",
          "type": "bool"
        }
      ],
      "stateMutability": "view",
      "type": "function",
      "constant": true
    },
    {
      "inputs": [
        {
          "internalType": "uint256",
          "name": "_classId",
          "type": "uint256"
        },
        {
          "internalType": "address",
          "name": "_student",
          "type": "address"
        }
      ],
      "name": "checkAttendance",
      "outputs": [
        {
          "internalType": "bool",
          "name": "",
          "type": "bool"
        }
      ],
      "stateMutability": "view",
      "type": "function",
      "constant": true
    },
    {
      "inputs": [
        {
          "internalType": "uint256",
          "name": "_classId",
          "type": "uint256"
        }
      ],
      "name": "generateClassPwd",
      "outputs": [],
      "stateMutability": "nonpayable",
      "type": "function"
    },
    {
      "inputs": [],
      "name": "getRandomPassword",
      "outputs": [
        {
          "internalType": "string",
          "name": "",
          "type": "string"
        }
      ],
      "stateMutability": "view",
      "type": "function",
      "constant": true
    },
    {
      "inputs": [
        {
          "internalType": "uint256",
          "name": "_subjectId",
          "type": "uint256"
        }
      ],
      "name": "getEnrolledStudents",
      "outputs": [
        {
          "components": [
            {
              "internalType": "uint256",
              "name": "studentId",
              "type": "uint256"
            },
            {
              "internalType": "string",
              "name": "name",
              "type": "string"
            },
            {
              "internalType": "address",
              "name": "studentAddress",
              "type": "address"
            }
          ],
          "internalType": "struct Attendance.Student[]",
          "name": "",
          "type": "tuple[]"
        }
      ],
      "stateMutability": "view",
      "type": "function",
      "constant": true
    },
    {
      "inputs": [
        {
          "internalType": "uint256",
          "name": "_subjectId",
          "type": "uint256"
        }
      ],
      "name": "getClassesForTeacher",
      "outputs": [
        {
          "internalType": "uint256[]",
          "name": "",
          "type": "uint256[]"
        }
      ],
      "stateMutability": "view",
      "type": "function",
      "constant": true
    },
    {
      "inputs": [
        {
          "internalType": "uint256",
          "name": "_subjectId",
          "type": "uint256"
        }
      ],
      "name": "getClassesForStudent",
      "outputs": [
        {
          "internalType": "uint256[]",
          "name": "",
          "type": "uint256[]"
        }
      ],
      "stateMutability": "view",
      "type": "function",
      "constant": true
    },
    {
      "inputs": [],
      "name": "getSubjectsForStudent",
      "outputs": [
        {
          "internalType": "uint256[]",
          "name": "",
          "type": "uint256[]"
        }
      ],
      "stateMutability": "view",
      "type": "function",
      "constant": true
    },
    {
      "inputs": [
        {
          "internalType": "address",
          "name": "_student",
          "type": "address"
        }
      ],
      "name": "removeStudent",
      "outputs": [],
      "stateMutability": "nonpayable",
      "type": "function"
    },
    {
      "inputs": [
        {
          "internalType": "address",
          "name": "_teacher",
          "type": "address"
        }
      ],
      "name": "removeTeacher",
      "outputs": [],
      "stateMutability": "nonpayable",
      "type": "function"
    },
    {
      "inputs": [
        {
          "internalType": "uint256",
          "name": "_subjectId",
          "type": "uint256"
        }
      ],
      "name": "removeSubject",
      "outputs": [],
      "stateMutability": "nonpayable",
      "type": "function"
    },
    {
      "inputs": [
        {
          "internalType": "uint256",
          "name": "_classId",
          "type": "uint256"
        }
      ],
      "name": "removeClass",
      "outputs": [],
      "stateMutability": "nonpayable",
      "type": "function"
    }
  ],
  "bytecode": "0x60806040523480156200001157600080fd5b50336000806101000a81548173ffffffffffffffffffffffffffffffffffffffff021916908373ffffffffffffffffffffffffffffffffffffffff1602179055506040518060400160405280600581526020017f61646d696e000000000000000000000000000000000000000000000000000000815250600b60003373ffffffffffffffffffffffffffffffffffffffff1673ffffffffffffffffffffffffffffffffffffffff1681526020019081526020016000209080519060200190620000dc929190620000e3565b50620001f8565b828054620000f19062000193565b90600052602060002090601f01602090048101928262000115576000855562000161565b82601f106200013057805160ff191683800117855562000161565b8280016001018555821562000161579182015b828111156200016057825182559160200191906001019062000143565b5b50905062000170919062000174565b5090565b5b808211156200018f57600081600090555060010162000175565b5090565b60006002820490506001821680620001ac57607f821691505b60208210811415620001c357620001c2620001c9565b5b50919050565b7f4e487b7100000000000000000000000000000000000000000000000000000000600052602260045260246000fd5b614ce880620002086000396000f3fe608060405234801561001057600080fd5b50600436106101fb5760003560e01c80637194c5b31161011a578063ae504c5c116100ad578063cf19cacd1161007c578063cf19cacd14610611578063d1939ccf14610641578063e3596cac1461065f578063f851a4401461067d578063fe24ec651461069b576101fb565b8063ae504c5c14610562578063aed7419b14610593578063b6ba7230146105c5578063c91aacc4146105e1576101fb565b80638f5b9b2e116100e95780638f5b9b2e146104de57806399374642146104fa578063a90795cf1461052a578063aba4234914610546576101fb565b80637194c5b31461046c57806372c30f451461048a57806378c4798c146104a657806380d01999146104c2576101fb565b80633954d58b11610192578063465c0e5311610161578063465c0e53146103fa57806350e0b94d1461041857806352ff6846146104345780635e8b809114610450576101fb565b80633954d58b1461034a5780633d2d866314610368578063442767331461039857806344d370b8146103c8576101fb565b80632aca07c1116101ce5780632aca07c1146102885780632b37f7e7146102b85780632cefe588146102e857806334ac0b4014610318576101fb565b806306ead22e146102005780630ddb03bb146102325780632520f9a11461024e578063294d8a391461026a575b600080fd5b61021a60048036038101906102159190613b7f565b6106cf565b60405161022993929190614745565b60405180910390f35b61024c60048036038101906102479190613ba8565b6107b1565b005b61026860048036038101906102639190613b3e565b6109c9565b005b610272610b27565b60405161027f9190614531565b60405180910390f35b6102a2600480360381019061029d9190613b7f565b610e09565b6040516102af9190614531565b60405180910390f35b6102d260048036038101906102cd9190613b7f565b610e77565b6040516102df9190614553565b60405180910390f35b61030260048036038101906102fd9190613b7f565b610ee1565b60405161030f9190614531565b60405180910390f35b610332600480360381019061032d9190613b7f565b6110e3565b60405161034193929190614745565b60405180910390f35b6103526111c5565b60405161035f91906146d1565b60405180910390f35b610382600480360381019061037d9190613ba8565b6111cb565b60405161038f9190614553565b60405180910390f35b6103b260048036038101906103ad9190613ac1565b6112bb565b6040516103bf919061456e565b60405180910390f35b6103e260048036038101906103dd9190613ac1565b61138c565b6040516103f193929190614745565b60405180910390f35b61040261145e565b60405161040f919061456e565b60405180910390f35b610432600480360381019061042d9190613b7f565b61162f565b005b61044e60048036038101906104499190613ac1565b611717565b005b61046a60048036038101906104659190613aea565b611865565b005b610474611b74565b60405161048191906146d1565b60405180910390f35b6104a4600480360381019061049f9190613b7f565b611b7a565b005b6104c060048036038101906104bb9190613ac1565b611cd4565b005b6104dc60048036038101906104d79190613b7f565b611e22565b005b6104f860048036038101906104f39190613aea565b611f4d565b005b610514600480360381019061050f9190613ac1565b61225c565b604051610521919061456e565b60405180910390f35b610544600480360381019061053f9190613be4565b6122fc565b005b610560600480360381019061055b9190613ba8565b6126be565b005b61057c60048036038101906105779190613b7f565b6128d6565b60405161058a929190614715565b60405180910390f35b6105ad60048036038101906105a89190613ac1565b612982565b6040516105bc93929190614745565b60405180910390f35b6105df60048036038101906105da9190613c38565b612a54565b005b6105fb60048036038101906105f69190613b7f565b612c6d565b604051610608919061450f565b60405180910390f35b61062b60048036038101906106269190613b7f565b612f68565b6040516106389190614531565b60405180910390f35b610649612fd6565b60405161065691906146d1565b60405180910390f35b610667612fdc565b60405161067491906146d1565b60405180910390f35b610685612fe2565b60405161069291906144c4565b60405180910390f35b6106b560048036038101906106b09190613b7f565b613006565b6040516106c6959493929190614670565b60405180910390f35b600181815481106106df57600080fd5b906000526020600020906003020160009150905080600001549080600101805461070890614a84565b80601f016020809104026020016040519081016040528092919081815260200182805461073490614a84565b80156107815780601f1061075657610100808354040283529160200191610781565b820191906000526020600020905b81548152906001019060200180831161076457829003601f168201915b5050505050908060020160009054906101000a900473ffffffffffffffffffffffffffffffffffffffff16905083565b6040516020016107c090614472565b60405160208183030381529060405280519060200120600b60003373ffffffffffffffffffffffffffffffffffffffff1673ffffffffffffffffffffffffffffffffffffffff168152602001908152602001600020604051602001610825919061445b565b604051602081830303815290604052805190602001201461087b576040517f08c379a000000000000000000000000000000000000000000000000000000000815260040161087290614630565b60405180910390fd5b60096000838152602001908152602001600020600201600860008373ffffffffffffffffffffffffffffffffffffffff1673ffffffffffffffffffffffffffffffffffffffff168152602001908152602001600020908060018154018082558091505060019003906000526020600020906003020160009091909190915060008201548160000155600182018160010190805461091790614a84565b610922929190613586565b506002820160009054906101000a900473ffffffffffffffffffffffffffffffffffffffff168160020160006101000a81548173ffffffffffffffffffffffffffffffffffffffff021916908373ffffffffffffffffffffffffffffffffffffffff16021790555050507f8c067146ec725333e811330fd75fb90567f7eeca601628b5943875fc4a43723e82826040516109bd9291906146ec565b60405180910390a15050565b6040516020016109d890614472565b60405160208183030381529060405280519060200120600b60003373ffffffffffffffffffffffffffffffffffffffff1673ffffffffffffffffffffffffffffffffffffffff168152602001908152602001600020604051602001610a3d919061445b565b6040516020818303038152906040528051906020012014610a93576040517f08c379a0000000000000000000000000000000000000000000000000000000008152600401610a8a90614630565b60405180910390fd5b60046000815480929190610aa690614ab6565b919050555060006009600060045481526020019081526020016000209050600454816000018190555081816001019080519060200190610ae7929190613613565b507feeb360ad20d46a8343b758e287ec025d44c51139825f3af2950630c14599acbd60045483604051610b1b929190614715565b60405180910390a15050565b606060006004549050600080600190505b828111610c3a57600060096000838152602001908152602001600020905060005b8160030180549050811015610c2557600760003373ffffffffffffffffffffffffffffffffffffffff1673ffffffffffffffffffffffffffffffffffffffff16815260200190815260200160002060000154826003018281548110610be7577f4e487b7100000000000000000000000000000000000000000000000000000000600052603260045260246000fd5b9060005260206000209060030201600001541415610c12578380610c0a90614ab6565b945050610c25565b8080610c1d90614ab6565b915050610b59565b50508080610c3290614ab6565b915050610b38565b5060008167ffffffffffffffff811115610c7d577f4e487b7100000000000000000000000000000000000000000000000000000000600052604160045260246000fd5b604051908082528060200260200182016040528015610cab5781602001602082028036833780820191505090505b509050600080600190505b848111610dfe57600060096000838152602001908152602001600020905060005b8160030180549050811015610de957600760003373ffffffffffffffffffffffffffffffffffffffff1673ffffffffffffffffffffffffffffffffffffffff16815260200190815260200160002060000154826003018281548110610d65577f4e487b7100000000000000000000000000000000000000000000000000000000600052603260045260246000fd5b9060005260206000209060030201600001541415610dd65782858581518110610db7577f4e487b7100000000000000000000000000000000000000000000000000000000600052603260045260246000fd5b6020026020010181815250508380610dce90614ab6565b945050610de9565b8080610de190614ab6565b915050610cd7565b50508080610df690614ab6565b915050610cb6565b508194505050505090565b606060096000838152602001908152602001600020600401805480602002602001604051908101604052809291908181526020018280548015610e6b57602002820191906000526020600020905b815481526020019060010190808311610e57575b50505050509050919050565b6000600a600083815260200190815260200160002060090160003373ffffffffffffffffffffffffffffffffffffffff1673ffffffffffffffffffffffffffffffffffffffff16815260200190815260200160002060009054906101000a900460ff169050919050565b60606000600860003373ffffffffffffffffffffffffffffffffffffffff1673ffffffffffffffffffffffffffffffffffffffff168152602001908152602001600020600001541415610f69576040517f08c379a0000000000000000000000000000000000000000000000000000000008152600401610f6090614610565b60405180910390fd5b60006009600084815260200190815260200160002090506000805b826002018054905081101561104657600860003373ffffffffffffffffffffffffffffffffffffffff1673ffffffffffffffffffffffffffffffffffffffff16815260200190815260200160002060000154836002018281548110611012577f4e487b7100000000000000000000000000000000000000000000000000000000600052603260045260246000fd5b90600052602060002090600302016000015414156110335760019150611046565b808061103e90614ab6565b915050610f84565b5080611087576040517f08c379a000000000000000000000000000000000000000000000000000000000815260040161107e90614650565b60405180910390fd5b816004018054806020026020016040519081016040528092919081815260200182805480156110d557602002820191906000526020600020905b8154815260200190600101908083116110c1575b505050505092505050919050565b600281815481106110f357600080fd5b906000526020600020906003020160009150905080600001549080600101805461111c90614a84565b80601f016020809104026020016040519081016040528092919081815260200182805461114890614a84565b80156111955780601f1061116a57610100808354040283529160200191611195565b820191906000526020600020905b81548152906001019060200180831161117857829003601f168201915b5050505050908060020160009054906101000a900473ffffffffffffffffffffffffffffffffffffffff16905083565b60035481565b600080600860003373ffffffffffffffffffffffffffffffffffffffff1673ffffffffffffffffffffffffffffffffffffffff168152602001908152602001600020600001541415611252576040517f08c379a000000000000000000000000000000000000000000000000000000000815260040161124990614610565b60405180910390fd5b600a600084815260200190815260200160002060090160008373ffffffffffffffffffffffffffffffffffffffff1673ffffffffffffffffffffffffffffffffffffffff16815260200190815260200160002060009054906101000a900460ff16905092915050565b6060600b60008373ffffffffffffffffffffffffffffffffffffffff1673ffffffffffffffffffffffffffffffffffffffff168152602001908152602001600020805461130790614a84565b80601f016020809104026020016040519081016040528092919081815260200182805461133390614a84565b80156113805780601f1061135557610100808354040283529160200191611380565b820191906000526020600020905b81548152906001019060200180831161136357829003601f168201915b50505050509050919050565b60086020528060005260406000206000915090508060000154908060010180546113b590614a84565b80601f01602080910402602001604051908101604052809291908181526020018280546113e190614a84565b801561142e5780601f106114035761010080835404028352916020019161142e565b820191906000526020600020905b81548152906001019060200180831161141157829003601f168201915b5050505050908060020160009054906101000a900473ffffffffffffffffffffffffffffffffffffffff16905083565b60606000604051806080016040528060428152602001614c716042913990506000600f905060008167ffffffffffffffff8111156114c5577f4e487b7100000000000000000000000000000000000000000000000000000000600052604160045260246000fd5b6040519080825280601f01601f1916602001820160405280156114f75781602001600182028036833780820191505090505b50905060004260014361150a91906149bc565b403360405160200161151e93929190614487565b6040516020818303038152906040528051906020012060001c905060005b838110156116245760008551836115539190614b37565b905085818151811061158e577f4e487b7100000000000000000000000000000000000000000000000000000000600052603260045260246000fd5b602001015160f81c60f81b8483815181106115d2577f4e487b7100000000000000000000000000000000000000000000000000000000600052603260045260246000fd5b60200101907effffffffffffffffffffffffffffffffffffffffffffffffffffffffffffff1916908160001a90535085518361160e919061498b565b925050808061161c90614ab6565b91505061153c565b508194505050505090565b6000600860003373ffffffffffffffffffffffffffffffffffffffff1673ffffffffffffffffffffffffffffffffffffffff1681526020019081526020016000206000015414156116b5576040517f08c379a00000000000000000000000000000000000000000000000000000000081526004016116ac90614610565b60405180910390fd5b60006116bf61145e565b905080600a600084815260200190815260200160002060070190805190602001906116eb929190613613565b50601e426116f99190614935565b600a6000848152602001908152602001600020600801819055505050565b60405160200161172690614472565b60405160208183030381529060405280519060200120600b60003373ffffffffffffffffffffffffffffffffffffffff1673ffffffffffffffffffffffffffffffffffffffff16815260200190815260200160002060405160200161178b919061445b565b60405160208183030381529060405280519060200120146117e1576040517f08c379a00000000000000000000000000000000000000000000000000000000081526004016117d890614630565b60405180910390fd5b600860008273ffffffffffffffffffffffffffffffffffffffff1673ffffffffffffffffffffffffffffffffffffffff1681526020019081526020016000206000808201600090556001820160006118399190613699565b6002820160006101000a81549073ffffffffffffffffffffffffffffffffffffffff0219169055505050565b60405160200161187490614472565b60405160208183030381529060405280519060200120600b60003373ffffffffffffffffffffffffffffffffffffffff1673ffffffffffffffffffffffffffffffffffffffff1681526020019081526020016000206040516020016118d9919061445b565b604051602081830303815290604052805190602001201461192f576040517f08c379a000000000000000000000000000000000000000000000000000000000815260040161192690614630565b60405180910390fd5b6005600081548092919061194290614ab6565b9190505550604051806060016040528060055481526020018281526020018373ffffffffffffffffffffffffffffffffffffffff16815250600760008473ffffffffffffffffffffffffffffffffffffffff1673ffffffffffffffffffffffffffffffffffffffff1681526020019081526020016000206000820151816000015560208201518160010190805190602001906119df929190613613565b5060408201518160020160006101000a81548173ffffffffffffffffffffffffffffffffffffffff021916908373ffffffffffffffffffffffffffffffffffffffff1602179055509050506001604051806060016040528060055481526020018381526020018473ffffffffffffffffffffffffffffffffffffffff168152509080600181540180825580915050600190039060005260206000209060030201600090919091909150600082015181600001556020820151816001019080519060200190611aae929190613613565b5060408201518160020160006101000a81548173ffffffffffffffffffffffffffffffffffffffff021916908373ffffffffffffffffffffffffffffffffffffffff1602179055505050611b37826040518060400160405280600781526020017f73747564656e7400000000000000000000000000000000000000000000000000815250613464565b7f94a56de67dd66b06691e0bd81e5b57fbf02e3ce04576def9d15b6371a0109fd28282604051611b689291906144df565b60405180910390a15050565b60065481565b604051602001611b8990614472565b60405160208183030381529060405280519060200120600b60003373ffffffffffffffffffffffffffffffffffffffff1673ffffffffffffffffffffffffffffffffffffffff168152602001908152602001600020604051602001611bee919061445b565b6040516020818303038152906040528051906020012014611c44576040517f08c379a0000000000000000000000000000000000000000000000000000000008152600401611c3b90614630565b60405180910390fd5b600a60008281526020019081526020016000206000808201600080820160009055600182016000611c759190613699565b600282016000611c8591906136d9565b600382016000611c9591906136fd565b600482016000611ca59190613721565b505060058201600090556006820160009055600782016000611cc79190613699565b6008820160009055505050565b604051602001611ce390614472565b60405160208183030381529060405280519060200120600b60003373ffffffffffffffffffffffffffffffffffffffff1673ffffffffffffffffffffffffffffffffffffffff168152602001908152602001600020604051602001611d48919061445b565b6040516020818303038152906040528051906020012014611d9e576040517f08c379a0000000000000000000000000000000000000000000000000000000008152600401611d9590614630565b60405180910390fd5b600760008273ffffffffffffffffffffffffffffffffffffffff1673ffffffffffffffffffffffffffffffffffffffff168152602001908152602001600020600080820160009055600182016000611df69190613699565b6002820160006101000a81549073ffffffffffffffffffffffffffffffffffffffff0219169055505050565b604051602001611e3190614472565b60405160208183030381529060405280519060200120600b60003373ffffffffffffffffffffffffffffffffffffffff1673ffffffffffffffffffffffffffffffffffffffff168152602001908152602001600020604051602001611e96919061445b565b6040516020818303038152906040528051906020012014611eec576040517f08c379a0000000000000000000000000000000000000000000000000000000008152600401611ee390614630565b60405180910390fd5b60096000828152602001908152602001600020600080820160009055600182016000611f189190613699565b600282016000611f2891906136d9565b600382016000611f3891906136fd565b600482016000611f489190613721565b505050565b604051602001611f5c90614472565b60405160208183030381529060405280519060200120600b60003373ffffffffffffffffffffffffffffffffffffffff1673ffffffffffffffffffffffffffffffffffffffff168152602001908152602001600020604051602001611fc1919061445b565b6040516020818303038152906040528051906020012014612017576040517f08c379a000000000000000000000000000000000000000000000000000000000815260040161200e90614630565b60405180910390fd5b6006600081548092919061202a90614ab6565b9190505550604051806060016040528060065481526020018281526020018373ffffffffffffffffffffffffffffffffffffffff16815250600860008473ffffffffffffffffffffffffffffffffffffffff1673ffffffffffffffffffffffffffffffffffffffff1681526020019081526020016000206000820151816000015560208201518160010190805190602001906120c7929190613613565b5060408201518160020160006101000a81548173ffffffffffffffffffffffffffffffffffffffff021916908373ffffffffffffffffffffffffffffffffffffffff1602179055509050506002604051806060016040528060065481526020018381526020018473ffffffffffffffffffffffffffffffffffffffff168152509080600181540180825580915050600190039060005260206000209060030201600090919091909150600082015181600001556020820151816001019080519060200190612196929190613613565b5060408201518160020160006101000a81548173ffffffffffffffffffffffffffffffffffffffff021916908373ffffffffffffffffffffffffffffffffffffffff160217905550505061221f826040518060400160405280600781526020017f7465616368657200000000000000000000000000000000000000000000000000815250613464565b7f6996ba1536de57e4c72a268600ac97e3feae59f326494fce7dc56c6c6de959e382826040516122509291906144df565b60405180910390a15050565b600b602052806000526040600020600091509050805461227b90614a84565b80601f01602080910402602001604051908101604052809291908181526020018280546122a790614a84565b80156122f45780601f106122c9576101008083540402835291602001916122f4565b820191906000526020600020905b8154815290600101906020018083116122d757829003601f168201915b505050505081565b600a6000838152602001908152602001600020600501546000805b60096000600a60008681526020019081526020016000206000016000015481526020019081526020016000206003018054905081101561242f57600760003373ffffffffffffffffffffffffffffffffffffffff1673ffffffffffffffffffffffffffffffffffffffff1681526020019081526020016000206000015460096000600a600087815260200190815260200160002060000160000154815260200190815260200160002060030182815481106123fb577f4e487b7100000000000000000000000000000000000000000000000000000000600052603260045260246000fd5b906000526020600020906003020160000154141561241c576001915061242f565b808061242790614ab6565b915050612317565b5080612470576040517f08c379a0000000000000000000000000000000000000000000000000000000008152600401612467906145b0565b60405180910390fd5b60001515600a600086815260200190815260200160002060090160003373ffffffffffffffffffffffffffffffffffffffff1673ffffffffffffffffffffffffffffffffffffffff16815260200190815260200160002060009054906101000a900460ff16151514612517576040517f08c379a000000000000000000000000000000000000000000000000000000000815260040161250e906145d0565b60405180910390fd5b826040516020016125289190614444565b60405160208183030381529060405280519060200120600a6000868152602001908152602001600020600701604051602001612564919061445b565b60405160208183030381529060405280519060200120146125ba576040517f08c379a00000000000000000000000000000000000000000000000000000000081526004016125b1906145f0565b60405180910390fd5b600a600085815260200190815260200160002060080154421115612613576040517f08c379a000000000000000000000000000000000000000000000000000000000815260040161260a90614590565b60405180910390fd5b6001600a600086815260200190815260200160002060090160003373ffffffffffffffffffffffffffffffffffffffff1673ffffffffffffffffffffffffffffffffffffffff16815260200190815260200160002060006101000a81548160ff0219169083151502179055507f1fc08eb0c2f0125b980d5b8b9c7d0c66f56fe49ed88c804b350f31b0130cda3884336040516126b09291906146ec565b60405180910390a150505050565b6040516020016126cd90614472565b60405160208183030381529060405280519060200120600b60003373ffffffffffffffffffffffffffffffffffffffff1673ffffffffffffffffffffffffffffffffffffffff168152602001908152602001600020604051602001612732919061445b565b6040516020818303038152906040528051906020012014612788576040517f08c379a000000000000000000000000000000000000000000000000000000000815260040161277f90614630565b60405180910390fd5b60096000838152602001908152602001600020600301600760008373ffffffffffffffffffffffffffffffffffffffff1673ffffffffffffffffffffffffffffffffffffffff168152602001908152602001600020908060018154018082558091505060019003906000526020600020906003020160009091909190915060008201548160000155600182018160010190805461282490614a84565b61282f929190613586565b506002820160009054906101000a900473ffffffffffffffffffffffffffffffffffffffff168160020160006101000a81548173ffffffffffffffffffffffffffffffffffffffff021916908373ffffffffffffffffffffffffffffffffffffffff16021790555050507f330f6a5433c3d731bf2a234085fc8f11bd40cdbdd41b574d8570189c6ea277cb82826040516128ca9291906146ec565b60405180910390a15050565b60096020528060005260406000206000915090508060000154908060010180546128ff90614a84565b80601f016020809104026020016040519081016040528092919081815260200182805461292b90614a84565b80156129785780601f1061294d57610100808354040283529160200191612978565b820191906000526020600020905b81548152906001019060200180831161295b57829003601f168201915b5050505050905082565b60076020528060005260406000206000915090508060000154908060010180546129ab90614a84565b80601f01602080910402602001604051908101604052809291908181526020018280546129d790614a84565b8015612a245780601f106129f957610100808354040283529160200191612a24565b820191906000526020600020905b815481529060010190602001808311612a0757829003601f168201915b5050505050908060020160009054906101000a900473ffffffffffffffffffffffffffffffffffffffff16905083565b604051602001612a6390614472565b60405160208183030381529060405280519060200120600b60003373ffffffffffffffffffffffffffffffffffffffff1673ffffffffffffffffffffffffffffffffffffffff168152602001908152602001600020604051602001612ac8919061445b565b6040516020818303038152906040528051906020012014612b1e576040517f08c379a0000000000000000000000000000000000000000000000000000000008152600401612b1590614630565b60405180910390fd5b60036000815480929190612b3190614ab6565b91905055506000600a6000600354815260200190815260200160002090506009600083815260200190815260200160002081600001600082015481600001556001820181600101908054612b8490614a84565b612b8f929190613586565b506002820181600201908054612ba6929190613742565b506003820181600301908054612bbd92919061382b565b506004820181600401908054612bd4929190613914565b5090505060035481600501819055508281600601819055506009600083815260200190815260200160002060040160035490806001815401808255809150506001900390600052602060002001600090919091909150557f5a3a80d0fae53d263cc7f8adc9b489c04a64d1f61278a26b20f7b67ebca6aa276003548484604051612c6093929190614783565b60405180910390a1505050565b60606000600860003373ffffffffffffffffffffffffffffffffffffffff1673ffffffffffffffffffffffffffffffffffffffff168152602001908152602001600020600001541415612cf5576040517f08c379a0000000000000000000000000000000000000000000000000000000008152600401612cec90614610565b60405180910390fd5b60006009600084815260200190815260200160002090506000805b8260020180549050811015612dd257600860003373ffffffffffffffffffffffffffffffffffffffff1673ffffffffffffffffffffffffffffffffffffffff16815260200190815260200160002060000154836002018281548110612d9e577f4e487b7100000000000000000000000000000000000000000000000000000000600052603260045260246000fd5b9060005260206000209060030201600001541415612dbf5760019150612dd2565b8080612dca90614ab6565b915050612d10565b5080612e13576040517f08c379a0000000000000000000000000000000000000000000000000000000008152600401612e0a90614650565b60405180910390fd5b81600301805480602002602001604051908101604052809291908181526020016000905b82821015612f5b578382906000526020600020906003020160405180606001604052908160008201548152602001600182018054612e7490614a84565b80601f0160208091040260200160405190810160405280929190818152602001828054612ea090614a84565b8015612eed5780601f10612ec257610100808354040283529160200191612eed565b820191906000526020600020905b815481529060010190602001808311612ed057829003601f168201915b505050505081526020016002820160009054906101000a900473ffffffffffffffffffffffffffffffffffffffff1673ffffffffffffffffffffffffffffffffffffffff1673ffffffffffffffffffffffffffffffffffffffff168152505081526020019060010190612e37565b5050505092505050919050565b606060096000838152602001908152602001600020600401805480602002602001604051908101604052809291908181526020018280548015612fca57602002820191906000526020600020905b815481526020019060010190808311612fb6575b50505050509050919050565b60045481565b60055481565b60008054906101000a900473ffffffffffffffffffffffffffffffffffffffff1681565b600a602052806000526040600020600091509050806000016040518060a00160405290816000820154815260200160018201805461304390614a84565b80601f016020809104026020016040519081016040528092919081815260200182805461306f90614a84565b80156130bc5780601f10613091576101008083540402835291602001916130bc565b820191906000526020600020905b81548152906001019060200180831161309f57829003601f168201915b5050505050815260200160028201805480602002602001604051908101604052809291908181526020016000905b8282101561320e57838290600052602060002090600302016040518060600160405290816000820154815260200160018201805461312790614a84565b80601f016020809104026020016040519081016040528092919081815260200182805461315390614a84565b80156131a05780601f10613175576101008083540402835291602001916131a0565b820191906000526020600020905b81548152906001019060200180831161318357829003601f168201915b505050505081526020016002820160009054906101000a900473ffffffffffffffffffffffffffffffffffffffff1673ffffffffffffffffffffffffffffffffffffffff1673ffffffffffffffffffffffffffffffffffffffff1681525050815260200190600101906130ea565b50505050815260200160038201805480602002602001604051908101604052809291908181526020016000905b8282101561335f57838290600052602060002090600302016040518060600160405290816000820154815260200160018201805461327890614a84565b80601f01602080910402602001604051908101604052809291908181526020018280546132a490614a84565b80156132f15780601f106132c6576101008083540402835291602001916132f1565b820191906000526020600020905b8154815290600101906020018083116132d457829003601f168201915b505050505081526020016002820160009054906101000a900473ffffffffffffffffffffffffffffffffffffffff1673ffffffffffffffffffffffffffffffffffffffff1673ffffffffffffffffffffffffffffffffffffffff16815250508152602001906001019061323b565b505050508152602001600482018054806020026020016040519081016040528092919081815260200182805480156133b657602002820191906000526020600020905b8154815260200190600101908083116133a2575b505050505081525050908060050154908060060154908060070180546133db90614a84565b80601f016020809104026020016040519081016040528092919081815260200182805461340790614a84565b80156134545780601f1061342957610100808354040283529160200191613454565b820191906000526020600020905b81548152906001019060200180831161343757829003601f168201915b5050505050908060080154905085565b60405160200161347390614472565b60405160208183030381529060405280519060200120600b60003373ffffffffffffffffffffffffffffffffffffffff1673ffffffffffffffffffffffffffffffffffffffff1681526020019081526020016000206040516020016134d8919061445b565b604051602081830303815290604052805190602001201461352e576040517f08c379a000000000000000000000000000000000000000000000000000000000815260040161352590614630565b60405180910390fd5b80600b60008473ffffffffffffffffffffffffffffffffffffffff1673ffffffffffffffffffffffffffffffffffffffff1681526020019081526020016000209080519060200190613581929190613613565b505050565b82805461359290614a84565b90600052602060002090601f0160209004810192826135b45760008555613602565b82601f106135c55780548555613602565b8280016001018555821561360257600052602060002091601f016020900482015b828111156136015782548255916001019190600101906135e6565b5b50905061360f9190613966565b5090565b82805461361f90614a84565b90600052602060002090601f0160209004810192826136415760008555613688565b82601f1061365a57805160ff1916838001178555613688565b82800160010185558215613688579182015b8281111561368757825182559160200191906001019061366c565b5b5090506136959190613966565b5090565b5080546136a590614a84565b6000825580601f106136b757506136d6565b601f0160209004906000526020600020908101906136d59190613966565b5b50565b50805460008255600302906000526020600020908101906136fa9190613983565b50565b508054600082556003029060005260206000209081019061371e91906139d9565b50565b508054600082559060005260206000209081019061373f9190613966565b50565b82805482825590600052602060002090600302810192821561381a5760005260206000209160030282015b8281111561381957828260008201548160000155600182018160010190805461379590614a84565b6137a0929190613586565b506002820160009054906101000a900473ffffffffffffffffffffffffffffffffffffffff168160020160006101000a81548173ffffffffffffffffffffffffffffffffffffffff021916908373ffffffffffffffffffffffffffffffffffffffff16021790555050509160030191906003019061376d565b5b5090506138279190613983565b5090565b8280548282559060005260206000209060030281019282156139035760005260206000209160030282015b8281111561390257828260008201548160000155600182018160010190805461387e90614a84565b613889929190613586565b506002820160009054906101000a900473ffffffffffffffffffffffffffffffffffffffff168160020160006101000a81548173ffffffffffffffffffffffffffffffffffffffff021916908373ffffffffffffffffffffffffffffffffffffffff160217905550505091600301919060030190613856565b5b50905061391091906139d9565b5090565b8280548282559060005260206000209081019282156139555760005260206000209182015b82811115613954578254825591600101919060010190613939565b5b5090506139629190613966565b5090565b5b8082111561397f576000816000905550600101613967565b5090565b5b808211156139d5576000808201600090556001820160006139a59190613699565b6002820160006101000a81549073ffffffffffffffffffffffffffffffffffffffff021916905550600301613984565b5090565b5b80821115613a2b576000808201600090556001820160006139fb9190613699565b6002820160006101000a81549073ffffffffffffffffffffffffffffffffffffffff0219169055506003016139da565b5090565b6000613a42613a3d846147eb565b6147ba565b905082815260208101848484011115613a5a57600080fd5b613a65848285614a42565b509392505050565b600081359050613a7c81614c42565b92915050565b600082601f830112613a9357600080fd5b8135613aa3848260208601613a2f565b91505092915050565b600081359050613abb81614c59565b92915050565b600060208284031215613ad357600080fd5b6000613ae184828501613a6d565b91505092915050565b60008060408385031215613afd57600080fd5b6000613b0b85828601613a6d565b925050602083013567ffffffffffffffff811115613b2857600080fd5b613b3485828601613a82565b9150509250929050565b600060208284031215613b5057600080fd5b600082013567ffffffffffffffff811115613b6a57600080fd5b613b7684828501613a82565b91505092915050565b600060208284031215613b9157600080fd5b6000613b9f84828501613aac565b91505092915050565b60008060408385031215613bbb57600080fd5b6000613bc985828601613aac565b9250506020613bda85828601613a6d565b9150509250929050565b60008060408385031215613bf757600080fd5b6000613c0585828601613aac565b925050602083013567ffffffffffffffff811115613c2257600080fd5b613c2e85828601613a82565b9150509250929050565b60008060408385031215613c4b57600080fd5b6000613c5985828601613aac565b9250506020613c6a85828601613aac565b9150509250929050565b6000613c8083836142e4565b905092915050565b6000613c9483836143bf565b905092915050565b6000613ca8838361440f565b60208301905092915050565b613cbd816149f0565b82525050565b613ccc816149f0565b82525050565b613ce3613cde826149f0565b614aff565b82525050565b6000613cf482614860565b613cfe81856148b3565b935083602082028501613d108561481b565b8060005b85811015613d4c5784840389528151613d2d8582613c74565b9450613d388361488c565b925060208a01995050600181019050613d14565b50829750879550505050505092915050565b6000613d6982614860565b613d7381856148c4565b935083602082028501613d858561481b565b8060005b85811015613dc15784840389528151613da28582613c74565b9450613dad8361488c565b925060208a01995050600181019050613d89565b50829750879550505050505092915050565b6000613dde8261486b565b613de881856148d5565b935083602082028501613dfa8561482b565b8060005b85811015613e365784840389528151613e178582613c88565b9450613e2283614899565b925060208a01995050600181019050613dfe565b50829750879550505050505092915050565b6000613e5382614876565b613e5d81856148e6565b9350613e688361483b565b8060005b83811015613e99578151613e808882613c9c565b9750613e8b836148a6565b925050600181019050613e6c565b5085935050505092915050565b6000613eb182614876565b613ebb81856148f7565b9350613ec68361483b565b8060005b83811015613ef7578151613ede8882613c9c565b9750613ee9836148a6565b925050600181019050613eca565b5085935050505092915050565b613f0d81614a02565b82525050565b613f24613f1f82614a0e565b614b11565b82525050565b6000613f3582614881565b613f3f8185614908565b9350613f4f818560208601614a51565b613f5881614c24565b840191505092915050565b6000613f6e82614881565b613f788185614919565b9350613f88818560208601614a51565b613f9181614c24565b840191505092915050565b6000613fa782614881565b613fb1818561492a565b9350613fc1818560208601614a51565b80840191505092915050565b60008154613fda81614a84565b613fe4818661492a565b94506001821660008114613fff576001811461401057614043565b60ff19831686528186019350614043565b6140198561484b565b60005b8381101561403b5781548189015260018201915060208101905061401c565b838801955050505b50505092915050565b6000614059601083614919565b91507f50617373776f72642065787069726564000000000000000000000000000000006000830152602082019050919050565b6000614099602d83614919565b91507f4f6e6c7920656e726f6c6c65642073747564656e74732063616e2063616c6c2060008301527f746869732066756e6374696f6e000000000000000000000000000000000000006020830152604082019050919050565b60006140ff601983614919565b91507f417474656e64616e636520616c7265616479206d61726b6564000000000000006000830152602082019050919050565b600061413f601083614919565b91507f496e76616c69642070617373776f7264000000000000000000000000000000006000830152602082019050919050565b600061417f602483614919565b91507f4f6e6c792074656163686572732063616e2063616c6c20746869732066756e6360008301527f74696f6e000000000000000000000000000000000000000000000000000000006020830152604082019050919050565b60006141e5602183614919565b91507f4f6e6c792061646d696e2063616e2063616c6c20746869732066756e6374696f60008301527f6e000000000000000000000000000000000000000000000000000000000000006020830152604082019050919050565b600061424b60058361492a565b91507f61646d696e0000000000000000000000000000000000000000000000000000006000830152600582019050919050565b600061428b602483614919565b91507f596f7520617265206e6f742061737369676e656420746f20746869732073756260008301527f6a656374000000000000000000000000000000000000000000000000000000006020830152604082019050919050565b60006060830160008301516142fc600086018261440f565b50602083015184820360208601526143148282613f2a565b91505060408301516143296040860182613cb4565b508091505092915050565b600060a08301600083015161434c600086018261440f565b50602083015184820360208601526143648282613f2a565b9150506040830151848203604086015261437e8282613dd3565b915050606083015184820360608601526143988282613ce9565b915050608083015184820360808601526143b28282613e48565b9150508091505092915050565b60006060830160008301516143d7600086018261440f565b50602083015184820360208601526143ef8282613f2a565b91505060408301516144046040860182613cb4565b508091505092915050565b61441881614a38565b82525050565b61442781614a38565b82525050565b61443e61443982614a38565b614b2d565b82525050565b60006144508284613f9c565b915081905092915050565b60006144678284613fcd565b915081905092915050565b600061447d8261423e565b9150819050919050565b6000614493828661442d565b6020820191506144a38285613f13565b6020820191506144b38284613cd2565b601482019150819050949350505050565b60006020820190506144d96000830184613cc3565b92915050565b60006040820190506144f46000830185613cc3565b81810360208301526145068184613f63565b90509392505050565b600060208201905081810360008301526145298184613d5e565b905092915050565b6000602082019050818103600083015261454b8184613ea6565b905092915050565b60006020820190506145686000830184613f04565b92915050565b600060208201905081810360008301526145888184613f63565b905092915050565b600060208201905081810360008301526145a98161404c565b9050919050565b600060208201905081810360008301526145c98161408c565b9050919050565b600060208201905081810360008301526145e9816140f2565b9050919050565b6000602082019050818103600083015261460981614132565b9050919050565b6000602082019050818103600083015261462981614172565b9050919050565b60006020820190508181036000830152614649816141d8565b9050919050565b600060208201905081810360008301526146698161427e565b9050919050565b600060a082019050818103600083015261468a8188614334565b9050614699602083018761441e565b6146a6604083018661441e565b81810360608301526146b88185613f63565b90506146c7608083018461441e565b9695505050505050565b60006020820190506146e6600083018461441e565b92915050565b6000604082019050614701600083018561441e565b61470e6020830184613cc3565b9392505050565b600060408201905061472a600083018561441e565b818103602083015261473c8184613f63565b90509392505050565b600060608201905061475a600083018661441e565b818103602083015261476c8185613f63565b905061477b6040830184613cc3565b949350505050565b6000606082019050614798600083018661441e565b6147a5602083018561441e565b6147b2604083018461441e565b949350505050565b6000604051905081810181811067ffffffffffffffff821117156147e1576147e0614bf5565b5b8060405250919050565b600067ffffffffffffffff82111561480657614805614bf5565b5b601f19601f8301169050602081019050919050565b6000819050602082019050919050565b6000819050602082019050919050565b6000819050602082019050919050565b60008190508160005260206000209050919050565b600081519050919050565b600081519050919050565b600081519050919050565b600081519050919050565b6000602082019050919050565b6000602082019050919050565b6000602082019050919050565b600082825260208201905092915050565b600082825260208201905092915050565b600082825260208201905092915050565b600082825260208201905092915050565b600082825260208201905092915050565b600082825260208201905092915050565b600082825260208201905092915050565b600081905092915050565b600061494082614a38565b915061494b83614a38565b9250827fffffffffffffffffffffffffffffffffffffffffffffffffffffffffffffffff038211156149805761497f614b68565b5b828201905092915050565b600061499682614a38565b91506149a183614a38565b9250826149b1576149b0614b97565b5b828204905092915050565b60006149c782614a38565b91506149d283614a38565b9250828210156149e5576149e4614b68565b5b828203905092915050565b60006149fb82614a18565b9050919050565b60008115159050919050565b6000819050919050565b600073ffffffffffffffffffffffffffffffffffffffff82169050919050565b6000819050919050565b82818337600083830152505050565b60005b83811015614a6f578082015181840152602081019050614a54565b83811115614a7e576000848401525b50505050565b60006002820490506001821680614a9c57607f821691505b60208210811415614ab057614aaf614bc6565b5b50919050565b6000614ac182614a38565b91507fffffffffffffffffffffffffffffffffffffffffffffffffffffffffffffffff821415614af457614af3614b68565b5b600182019050919050565b6000614b0a82614b1b565b9050919050565b6000819050919050565b6000614b2682614c35565b9050919050565b6000819050919050565b6000614b4282614a38565b9150614b4d83614a38565b925082614b5d57614b5c614b97565b5b828206905092915050565b7f4e487b7100000000000000000000000000000000000000000000000000000000600052601160045260246000fd5b7f4e487b7100000000000000000000000000000000000000000000000000000000600052601260045260246000fd5b7f4e487b7100000000000000000000000000000000000000000000000000000000600052602260045260246000fd5b7f4e487b7100000000000000000000000000000000000000000000000000000000600052604160045260246000fd5b6000601f19601f8301169050919050565b60008160601b9050919050565b614c4b816149f0565b8114614c5657600080fd5b50565b614c6281614a38565b8114614c6d57600080fd5b5056fe6162636465666768696a6b6c6d6e6f707172737475767778797a4142434445464748494a4b4c4d4e4f505152535455565758595a30313233343536373839402f2123a2646970667358221220c1a44c16e75aa7a187601629d1f96d4a8f764c930706e02e1cb2e4dc794d72d764736f6c63430008000033",
  "immutableReferences": {},
  "source": "//SPDX-License-Identifier: MIT\r\n\r\npragma solidity ^0.8.0;\r\n\r\ncontract Attendance {\r\n\r\n    address public admin;\r\n    Student[] public students;\r\n    Teacher[] public teachers;\r\n    uint256 public classCounter;\r\n    uint256 public subjectCounter;\r\n    uint256 public studentCounter;\r\n    uint256 public teacherCounter;\r\n\r\n    struct Student {\r\n        uint256 studentId;\r\n        string name;\r\n        address studentAddress;\r\n    }\r\n\r\n    struct Teacher {\r\n        uint256 teacherId;\r\n        string name;\r\n        address teacherAddress;\r\n    }\r\n\r\n    struct Subject {\r\n        uint256 subjectId;\r\n        string subjectName;\r\n        Teacher[] teachingTeachers;\r\n        Student[] enrolledStudents;\r\n        uint256[] classIds;\r\n    }\r\n\r\n    struct Class {\r\n        Subject subject;\r\n        uint256 classId;\r\n        uint256 classDate;\r\n        string classPwd;\r\n        uint256 passwordExpiry; // Expiration timestamp for the password\r\n        mapping(address => bool) attendance;\r\n    }\r\n\r\n    event studentAdded(address student, string name);\r\n    event teacherAdded(address teacher, string name);\r\n    event subjectCreated(uint256 subjectId, string subjectName);\r\n    event classCreated(uint256 classId, uint256 classDate, uint256 subjectId);\r\n    event studentEnrolled(uint256 subjectId, address student);\r\n    event teacherAssigned(uint256 subjectId, address teacher);\r\n    event attendanceMarked(uint256 classId, address student);\r\n\r\n\r\n    mapping(address => Student) public studentDetails;\r\n    mapping(address => Teacher) public teacherDetails;\r\n    mapping(uint256 => Subject) public subjectDetails;\r\n    mapping(uint256 => Class) public classDetails;\r\n\r\n    mapping(address => string) public roles;\r\n\r\n    constructor() {\r\n        admin = msg.sender;\r\n        roles[msg.sender] = \"admin\"; // Contract deployer is the admin\r\n    }\r\n\r\n    modifier onlyAdmin() {\r\n        require(keccak256(abi.encodePacked(roles[msg.sender])) == keccak256(abi.encodePacked(\"admin\")), \"Only admin can call this function\");\r\n        _;\r\n    }\r\n\r\n    modifier onlyTeacher() {\r\n        require(teacherDetails[msg.sender].teacherId != 0, \"Only teachers can call this function\");\r\n        _;\r\n    }\r\n\r\n    modifier onlyStudent() {\r\n        require(studentDetails[msg.sender].studentId != 0, \"Only students can call this function\");\r\n        _;\r\n    }\r\n\r\n    modifier onlyEnrolledStudent(uint256 classId) {\r\n        bool isEnrolled = false;\r\n        for (uint256 i = 0; i < subjectDetails[classDetails[classId].subject.subjectId].enrolledStudents.length; i++) {\r\n            if (subjectDetails[classDetails[classId].subject.subjectId].enrolledStudents[i].studentId == studentDetails[msg.sender].studentId) {\r\n                isEnrolled = true;\r\n                break;\r\n            }\r\n        }\r\n        require(isEnrolled, \"Only enrolled students can call this function\");\r\n        _;\r\n    }\r\n\r\n    function assignRole(address user, string memory role) internal onlyAdmin {\r\n        roles[user] = role;\r\n    }\r\n\r\n    function getRole(address user) public view returns (string memory) {\r\n        return roles[user];\r\n    }\r\n\r\n    function addStudent(address _student, string memory _name) public onlyAdmin {\r\n        studentCounter++;\r\n        studentDetails[_student] = Student(studentCounter, _name, _student);\r\n        students.push(Student(studentCounter, _name, _student));\r\n        assignRole(_student, \"student\");\r\n\r\n        emit studentAdded(_student, _name);\r\n    }   \r\n\r\n    function addTeacher(address _teacher, string memory _name) public onlyAdmin {\r\n        teacherCounter++;\r\n        teacherDetails[_teacher] = Teacher(teacherCounter,_name, _teacher);\r\n        teachers.push(Teacher(teacherCounter, _name, _teacher));\r\n        assignRole(_teacher, \"teacher\");\r\n\r\n        emit teacherAdded(_teacher, _name);\r\n    }\r\n\r\n    function createSubject(string memory _subjectName) public onlyAdmin {\r\n        subjectCounter++;\r\n        Subject storage newSubject = subjectDetails[subjectCounter];\r\n        newSubject.subjectId=subjectCounter;\r\n        newSubject.subjectName = _subjectName;\r\n\r\n        emit subjectCreated(subjectCounter, _subjectName);\r\n    }\r\n\r\n    function createClass(uint256 _classDate, uint256 _subjectId) public onlyAdmin {\r\n        classCounter++;\r\n        \r\n        Class storage newClass = classDetails[classCounter];\r\n        newClass.subject = subjectDetails[_subjectId];\r\n        newClass.classId = classCounter;\r\n        newClass.classDate = _classDate;\r\n        subjectDetails[_subjectId].classIds.push(classCounter);\r\n\r\n        emit classCreated(classCounter, _classDate, _subjectId);\r\n    }\r\n\r\n    function getClassIds(uint256 _subjectId) public view returns (uint256[] memory) {\r\n        return subjectDetails[_subjectId].classIds;\r\n    }\r\n\r\n    function enrollStudent(uint256 _subjectId, address _student) public onlyAdmin {\r\n        subjectDetails[_subjectId].enrolledStudents.push(studentDetails[_student]);\r\n\r\n        emit studentEnrolled(_subjectId, _student);\r\n    }\r\n\r\n    function assignTeacher(uint256 _subjectId, address _teacher) public onlyAdmin {\r\n        subjectDetails[_subjectId].teachingTeachers.push(teacherDetails[_teacher]);\r\n\r\n        emit teacherAssigned(_subjectId, _teacher);\r\n    }\r\n\r\n    function markAttendance(uint256 _classId, string memory _pwd) public onlyEnrolledStudent(classDetails[_classId].classId) {\r\n        require(classDetails[_classId].attendance[msg.sender] == false, \"Attendance already marked\");\r\n        require(keccak256(abi.encodePacked(classDetails[_classId].classPwd)) == keccak256(abi.encodePacked(_pwd)), \"Invalid password\");\r\n        require(block.timestamp <= classDetails[_classId].passwordExpiry, \"Password expired\"); // Check password expiration\r\n\r\n        classDetails[_classId].attendance[msg.sender] = true;\r\n        emit attendanceMarked(_classId, msg.sender);\r\n    }\r\n\r\n    function checkAttendance(uint256 _classId) public view returns (bool) {\r\n        return classDetails[_classId].attendance[msg.sender];\r\n    }\r\n\r\n    function checkAttendance(uint256 _classId, address _student) public view onlyTeacher returns (bool) {\r\n        return classDetails[_classId].attendance[_student];\r\n    }\r\n\r\n    function generateClassPwd(uint256 _classId) public onlyTeacher {\r\n        string memory classPwd = getRandomPassword();\r\n        classDetails[_classId].classPwd = classPwd;\r\n        classDetails[_classId].passwordExpiry = block.timestamp + 30; // Set expiration time to 30 seconds from now\r\n    }\r\n\r\n    function getRandomPassword() public view returns (string memory) {\r\n        bytes memory characters = \"abcdefghijklmnopqrstuvwxyzABCDEFGHIJKLMNOPQRSTUVWXYZ0123456789@/!#\";\r\n        uint256 length = 15;\r\n        bytes memory password = new bytes(length);\r\n        uint256 seed = uint256(keccak256(abi.encodePacked(block.timestamp, blockhash(block.number - 1), msg.sender)));\r\n\r\n        for (uint256 i = 0; i < length; i++) {\r\n            uint256 randomIndex = seed % characters.length;\r\n            password[i] = characters[randomIndex];\r\n            seed = seed / characters.length;\r\n        }\r\n        return string(password);\r\n    }\r\n\r\n    function getEnrolledStudents(uint256 _subjectId) public view onlyTeacher returns (Student[] memory) {\r\n        Subject storage subject = subjectDetails[_subjectId];\r\n\r\n        bool isAssigned = false;\r\n        for (uint256 i = 0; i < subject.teachingTeachers.length; i++) {\r\n            if (subject.teachingTeachers[i].teacherId == teacherDetails[msg.sender].teacherId) {\r\n                isAssigned = true;\r\n                break;\r\n            }\r\n        }\r\n        require(isAssigned, \"You are not assigned to this subject\");\r\n\r\n        return subject.enrolledStudents;\r\n    }\r\n\r\n    function getClassesForTeacher(uint256 _subjectId) public view onlyTeacher returns (uint256[] memory) {\r\n        Subject storage subject = subjectDetails[_subjectId];\r\n\r\n        bool isAssigned = false;\r\n        for (uint256 i = 0; i < subject.teachingTeachers.length; i++) {\r\n            if (subject.teachingTeachers[i].teacherId == teacherDetails[msg.sender].teacherId) {\r\n                isAssigned = true;\r\n                break;\r\n            }\r\n        }\r\n        require(isAssigned, \"You are not assigned to this subject\");\r\n\r\n        return subject.classIds;\r\n    }\r\n\r\n    function getClassesForStudent(uint256 _subjectId) public view returns (uint256[] memory) {\r\n        return subjectDetails[_subjectId].classIds;\r\n    }\r\n    \r\n    function getSubjectsForStudent() public view returns (uint256[] memory) {\r\n        uint256 totalSubjects = subjectCounter;\r\n        uint256 count = 0;\r\n\r\n        for (uint256 i = 1; i <= totalSubjects; i++) {\r\n            Subject storage subject = subjectDetails[i];\r\n            for (uint256 j = 0; j < subject.enrolledStudents.length; j++) {\r\n                if (subject.enrolledStudents[j].studentId == studentDetails[msg.sender].studentId) {\r\n                    count++;\r\n                    break;\r\n                }\r\n            }\r\n        }\r\n\r\n        uint256[] memory enrolledSubjectIds = new uint256[](count);\r\n        uint256 index = 0;\r\n\r\n        for (uint256 i = 1; i <= totalSubjects; i++) {\r\n            Subject storage subject = subjectDetails[i];\r\n            for (uint256 j = 0; j < subject.enrolledStudents.length; j++) {\r\n                if (subject.enrolledStudents[j].studentId == studentDetails[msg.sender].studentId) {\r\n                    enrolledSubjectIds[index] = i;\r\n                    index++;\r\n                    break;\r\n                }\r\n            }\r\n        }\r\n        return enrolledSubjectIds;\r\n    }\r\n\r\n    function removeStudent(address _student) public onlyAdmin {\r\n        delete studentDetails[_student];\r\n    }\r\n\r\n    function removeTeacher(address _teacher) public onlyAdmin {\r\n        delete teacherDetails[_teacher];\r\n    }\r\n\r\n    function removeSubject(uint256 _subjectId) public onlyAdmin {\r\n        delete subjectDetails[_subjectId];\r\n    }\r\n\r\n    function removeClass(uint256 _classId) public onlyAdmin {\r\n        delete classDetails[_classId];\r\n    }\r\n}",
  "sourcePath": "C:\\Users\\User\\Desktop\\dev\\Blockchain\\contracts\\Attendance.sol",
  "compiler": {
    "name": "solc",
    "version": "0.8.0+commit.c7dfd78e.Emscripten.clang"
  },
  "schemaVersion": "3.4.16",
  "updatedAt": "2025-01-22T05:37:46.019Z",
  "networkType": "ethereum",
  "devdoc": {
    "kind": "dev",
    "methods": {},
    "version": 1
  },
  "userdoc": {
    "kind": "user",
    "methods": {},
    "version": 1
  }
}