{
  "contractName": "Attendance",
  "abi": [
    {
      "inputs": [],
      "stateMutability": "nonpayable",
      "type": "constructor"
    },
    {
      "inputs": [],
      "name": "classCounter",
      "outputs": [
        {
          "internalType": "uint256",
          "name": "",
          "type": "uint256"
        }
      ],
      "stateMutability": "view",
      "type": "function",
      "constant": true
    },
    {
      "inputs": [
        {
          "internalType": "uint256",
          "name": "",
          "type": "uint256"
        }
      ],
      "name": "classDetails",
      "outputs": [
        {
          "components": [
            {
              "internalType": "uint256",
              "name": "subjectId",
              "type": "uint256"
            },
            {
              "internalType": "string",
              "name": "subjectName",
              "type": "string"
            },
            {
              "components": [
                {
                  "internalType": "uint256",
                  "name": "teacherId",
                  "type": "uint256"
                },
                {
                  "internalType": "string",
                  "name": "name",
                  "type": "string"
                }
              ],
              "internalType": "struct Attendance.Teacher[]",
              "name": "teachingTeachers",
              "type": "tuple[]"
            },
            {
              "components": [
                {
                  "internalType": "uint256",
                  "name": "studentId",
                  "type": "uint256"
                },
                {
                  "internalType": "string",
                  "name": "name",
                  "type": "string"
                }
              ],
              "internalType": "struct Attendance.Student[]",
              "name": "enrolledStudents",
              "type": "tuple[]"
            },
            {
              "internalType": "uint256[]",
              "name": "classIds",
              "type": "uint256[]"
            }
          ],
          "internalType": "struct Attendance.Subject",
          "name": "subject",
          "type": "tuple"
        },
        {
          "internalType": "uint256",
          "name": "classId",
          "type": "uint256"
        },
        {
          "internalType": "uint256",
          "name": "classDate",
          "type": "uint256"
        }
      ],
      "stateMutability": "view",
      "type": "function",
      "constant": true
    },
    {
      "inputs": [],
      "name": "owner",
      "outputs": [
        {
          "internalType": "address",
          "name": "",
          "type": "address"
        }
      ],
      "stateMutability": "view",
      "type": "function",
      "constant": true
    },
    {
      "inputs": [],
      "name": "studentCounter",
      "outputs": [
        {
          "internalType": "uint256",
          "name": "",
          "type": "uint256"
        }
      ],
      "stateMutability": "view",
      "type": "function",
      "constant": true
    },
    {
      "inputs": [
        {
          "internalType": "address",
          "name": "",
          "type": "address"
        }
      ],
      "name": "studentDetails",
      "outputs": [
        {
          "internalType": "uint256",
          "name": "studentId",
          "type": "uint256"
        },
        {
          "internalType": "string",
          "name": "name",
          "type": "string"
        }
      ],
      "stateMutability": "view",
      "type": "function",
      "constant": true
    },
    {
      "inputs": [
        {
          "internalType": "uint256",
          "name": "",
          "type": "uint256"
        }
      ],
      "name": "students",
      "outputs": [
        {
          "internalType": "uint256",
          "name": "studentId",
          "type": "uint256"
        },
        {
          "internalType": "string",
          "name": "name",
          "type": "string"
        }
      ],
      "stateMutability": "view",
      "type": "function",
      "constant": true
    },
    {
      "inputs": [],
      "name": "subjectCounter",
      "outputs": [
        {
          "internalType": "uint256",
          "name": "",
          "type": "uint256"
        }
      ],
      "stateMutability": "view",
      "type": "function",
      "constant": true
    },
    {
      "inputs": [
        {
          "internalType": "uint256",
          "name": "",
          "type": "uint256"
        }
      ],
      "name": "subjectDetails",
      "outputs": [
        {
          "internalType": "uint256",
          "name": "subjectId",
          "type": "uint256"
        },
        {
          "internalType": "string",
          "name": "subjectName",
          "type": "string"
        }
      ],
      "stateMutability": "view",
      "type": "function",
      "constant": true
    },
    {
      "inputs": [],
      "name": "teacherCounter",
      "outputs": [
        {
          "internalType": "uint256",
          "name": "",
          "type": "uint256"
        }
      ],
      "stateMutability": "view",
      "type": "function",
      "constant": true
    },
    {
      "inputs": [
        {
          "internalType": "address",
          "name": "",
          "type": "address"
        }
      ],
      "name": "teacherDetails",
      "outputs": [
        {
          "internalType": "uint256",
          "name": "teacherId",
          "type": "uint256"
        },
        {
          "internalType": "string",
          "name": "name",
          "type": "string"
        }
      ],
      "stateMutability": "view",
      "type": "function",
      "constant": true
    },
    {
      "inputs": [
        {
          "internalType": "uint256",
          "name": "",
          "type": "uint256"
        }
      ],
      "name": "teachers",
      "outputs": [
        {
          "internalType": "uint256",
          "name": "teacherId",
          "type": "uint256"
        },
        {
          "internalType": "string",
          "name": "name",
          "type": "string"
        }
      ],
      "stateMutability": "view",
      "type": "function",
      "constant": true
    },
    {
      "inputs": [
        {
          "internalType": "uint256",
          "name": "_subjectId",
          "type": "uint256"
        }
      ],
      "name": "getEnrolledStudents",
      "outputs": [
        {
          "internalType": "uint256[]",
          "name": "",
          "type": "uint256[]"
        }
      ],
      "stateMutability": "view",
      "type": "function",
      "constant": true
    },
    {
      "inputs": [
        {
          "internalType": "uint256",
          "name": "_subjectId",
          "type": "uint256"
        }
      ],
      "name": "getTeachingTeachers",
      "outputs": [
        {
          "internalType": "uint256[]",
          "name": "",
          "type": "uint256[]"
        }
      ],
      "stateMutability": "view",
      "type": "function",
      "constant": true
    },
    {
      "inputs": [
        {
          "internalType": "address",
          "name": "_student",
          "type": "address"
        },
        {
          "internalType": "string",
          "name": "_name",
          "type": "string"
        }
      ],
      "name": "addStudent",
      "outputs": [],
      "stateMutability": "nonpayable",
      "type": "function"
    },
    {
      "inputs": [
        {
          "internalType": "address",
          "name": "_teacher",
          "type": "address"
        },
        {
          "internalType": "string",
          "name": "_name",
          "type": "string"
        }
      ],
      "name": "addTeacher",
      "outputs": [],
      "stateMutability": "nonpayable",
      "type": "function"
    },
    {
      "inputs": [
        {
          "internalType": "string",
          "name": "_subjectName",
          "type": "string"
        }
      ],
      "name": "createSubject",
      "outputs": [],
      "stateMutability": "nonpayable",
      "type": "function"
    },
    {
      "inputs": [
        {
          "internalType": "uint256",
          "name": "_classDate",
          "type": "uint256"
        },
        {
          "internalType": "uint256",
          "name": "_subjectId",
          "type": "uint256"
        }
      ],
      "name": "createClass",
      "outputs": [],
      "stateMutability": "nonpayable",
      "type": "function"
    },
    {
      "inputs": [
        {
          "internalType": "uint256",
          "name": "_subjectId",
          "type": "uint256"
        },
        {
          "internalType": "address",
          "name": "_student",
          "type": "address"
        }
      ],
      "name": "enrollStudent",
      "outputs": [],
      "stateMutability": "nonpayable",
      "type": "function"
    },
    {
      "inputs": [
        {
          "internalType": "uint256",
          "name": "_subjectId",
          "type": "uint256"
        },
        {
          "internalType": "address",
          "name": "_teacher",
          "type": "address"
        }
      ],
      "name": "assignTeacher",
      "outputs": [],
      "stateMutability": "nonpayable",
      "type": "function"
    },
    {
      "inputs": [
        {
          "internalType": "uint256",
          "name": "_classId",
          "type": "uint256"
        }
      ],
      "name": "markAttendance",
      "outputs": [],
      "stateMutability": "nonpayable",
      "type": "function"
    },
    {
      "inputs": [
        {
          "internalType": "uint256",
          "name": "_classId",
          "type": "uint256"
        }
      ],
      "name": "checkAttendance",
      "outputs": [
        {
          "internalType": "bool",
          "name": "",
          "type": "bool"
        }
      ],
      "stateMutability": "view",
      "type": "function",
      "constant": true
    },
    {
      "inputs": [
        {
          "internalType": "uint256",
          "name": "_classId",
          "type": "uint256"
        },
        {
          "internalType": "address",
          "name": "_student",
          "type": "address"
        }
      ],
      "name": "checkAttendance",
      "outputs": [
        {
          "internalType": "bool",
          "name": "",
          "type": "bool"
        }
      ],
      "stateMutability": "view",
      "type": "function",
      "constant": true
    }
  ],
  "bytecode": "0x608060405234801561001057600080fd5b50336000806101000a81548173ffffffffffffffffffffffffffffffffffffffff021916908373ffffffffffffffffffffffffffffffffffffffff160217905550612820806100606000396000f3fe608060405234801561001057600080fd5b50600436106101425760003560e01c80638da5cb5b116100b8578063aed7419b1161007c578063aed7419b1461039d578063b6ba7230146103ce578063c91aacc4146103ea578063d1939ccf1461041a578063e3596cac14610438578063fe24ec651461045657610142565b80638da5cb5b146102fa5780638f5b9b2e14610318578063aba4234914610334578063ade4f8a214610350578063ae504c5c1461036c57610142565b80633954d58b1161010a5780633954d58b146102115780633d2d86631461022f5780633fd6c7741461025f57806344d370b81461028f5780635e8b8091146102c05780637194c5b3146102dc57610142565b806306ead22e146101475780630ddb03bb146101785780632520f9a1146101945780632b37f7e7146101b057806334ac0b40146101e0575b600080fd5b610161600480360381019061015c9190611e22565b610488565b60405161016f92919061249f565b60405180910390f35b610192600480360381019061018d9190611e4b565b610544565b005b6101ae60048036038101906101a99190611de1565b610680565b005b6101ca60048036038101906101c59190611e22565b610767565b6040516101d791906123cb565b60405180910390f35b6101fa60048036038101906101f59190611e22565b6107d1565b60405161020892919061249f565b60405180910390f35b61021961088d565b6040516102269190612484565b60405180910390f35b61024960048036038101906102449190611e4b565b610893565b60405161025691906123cb565b60405180910390f35b61027960048036038101906102749190611e22565b610983565b60405161028691906123a9565b60405180910390f35b6102a960048036038101906102a49190611d64565b610af7565b6040516102b792919061249f565b60405180910390f35b6102da60048036038101906102d59190611d8d565b610ba3565b005b6102e4610d38565b6040516102f19190612484565b60405180910390f35b610302610d3e565b60405161030f919061238e565b60405180910390f35b610332600480360381019061032d9190611d8d565b610d62565b005b61034e60048036038101906103499190611e4b565b610ef7565b005b61036a60048036038101906103659190611e22565b611033565b005b61038660048036038101906103819190611e22565b611218565b60405161039492919061249f565b60405180910390f35b6103b760048036038101906103b29190611d64565b6112c4565b6040516103c592919061249f565b60405180910390f35b6103e860048036038101906103e39190611e87565b611370565b005b61040460048036038101906103ff9190611e22565b611510565b60405161041191906123a9565b60405180910390f35b610422611684565b60405161042f9190612484565b60405180910390f35b61044061168a565b60405161044d9190612484565b60405180910390f35b610470600480360381019061046b9190611e22565b611690565b60405161047f93929190612446565b60405180910390f35b6001818154811061049857600080fd5b90600052602060002090600202016000915090508060000154908060010180546104c1906126a3565b80601f01602080910402602001604051908101604052809291908181526020018280546104ed906126a3565b801561053a5780601f1061050f5761010080835404028352916020019161053a565b820191906000526020600020905b81548152906001019060200180831161051d57829003601f168201915b5050505050905082565b60008054906101000a900473ffffffffffffffffffffffffffffffffffffffff1673ffffffffffffffffffffffffffffffffffffffff163373ffffffffffffffffffffffffffffffffffffffff16146105d2576040517f08c379a00000000000000000000000000000000000000000000000000000000081526004016105c9906123e6565b60405180910390fd5b60096000838152602001908152602001600020600201600860008373ffffffffffffffffffffffffffffffffffffffff1673ffffffffffffffffffffffffffffffffffffffff168152602001908152602001600020908060018154018082558091505060019003906000526020600020906002020160009091909190915060008201548160000155600182018160010190805461066e906126a3565b6106799291906119ae565b5050505050565b60008054906101000a900473ffffffffffffffffffffffffffffffffffffffff1673ffffffffffffffffffffffffffffffffffffffff163373ffffffffffffffffffffffffffffffffffffffff161461070e576040517f08c379a0000000000000000000000000000000000000000000000000000000008152600401610705906123e6565b60405180910390fd5b60046000815480929190610721906126d5565b919050555060006009600060045481526020019081526020016000209050600454816000018190555081816001019080519060200190610762929190611a3b565b505050565b6000600a600083815260200190815260200160002060070160003373ffffffffffffffffffffffffffffffffffffffff1673ffffffffffffffffffffffffffffffffffffffff16815260200190815260200160002060009054906101000a900460ff169050919050565b600281815481106107e157600080fd5b906000526020600020906002020160009150905080600001549080600101805461080a906126a3565b80601f0160208091040260200160405190810160405280929190818152602001828054610836906126a3565b80156108835780601f1061085857610100808354040283529160200191610883565b820191906000526020600020905b81548152906001019060200180831161086657829003601f168201915b5050505050905082565b60035481565b600080600860003373ffffffffffffffffffffffffffffffffffffffff1673ffffffffffffffffffffffffffffffffffffffff16815260200190815260200160002060000154141561091a576040517f08c379a000000000000000000000000000000000000000000000000000000000815260040161091190612426565b60405180910390fd5b600a600084815260200190815260200160002060070160008373ffffffffffffffffffffffffffffffffffffffff1673ffffffffffffffffffffffffffffffffffffffff16815260200190815260200160002060009054906101000a900460ff16905092915050565b60606000600960008481526020019081526020016000206002018054905067ffffffffffffffff8111156109e0577f4e487b7100000000000000000000000000000000000000000000000000000000600052604160045260246000fd5b604051908082528060200260200182016040528015610a0e5781602001602082028036833780820191505090505b50905060005b6009600085815260200190815260200160002060020180549050811015610aed57600960008581526020019081526020016000206002018181548110610a83577f4e487b7100000000000000000000000000000000000000000000000000000000600052603260045260246000fd5b906000526020600020906002020160000154828281518110610ace577f4e487b7100000000000000000000000000000000000000000000000000000000600052603260045260246000fd5b6020026020010181815250508080610ae5906126d5565b915050610a14565b5080915050919050565b6008602052806000526040600020600091509050806000015490806001018054610b20906126a3565b80601f0160208091040260200160405190810160405280929190818152602001828054610b4c906126a3565b8015610b995780601f10610b6e57610100808354040283529160200191610b99565b820191906000526020600020905b815481529060010190602001808311610b7c57829003601f168201915b5050505050905082565b60008054906101000a900473ffffffffffffffffffffffffffffffffffffffff1673ffffffffffffffffffffffffffffffffffffffff163373ffffffffffffffffffffffffffffffffffffffff1614610c31576040517f08c379a0000000000000000000000000000000000000000000000000000000008152600401610c28906123e6565b60405180910390fd5b60056000815480929190610c44906126d5565b91905055506040518060400160405280600554815260200182815250600760008473ffffffffffffffffffffffffffffffffffffffff1673ffffffffffffffffffffffffffffffffffffffff168152602001908152602001600020600082015181600001556020820151816001019080519060200190610cc5929190611a3b565b50905050600160405180604001604052806005548152602001838152509080600181540180825580915050600190039060005260206000209060020201600090919091909150600082015181600001556020820151816001019080519060200190610d31929190611a3b565b5050505050565b60065481565b60008054906101000a900473ffffffffffffffffffffffffffffffffffffffff1681565b60008054906101000a900473ffffffffffffffffffffffffffffffffffffffff1673ffffffffffffffffffffffffffffffffffffffff163373ffffffffffffffffffffffffffffffffffffffff1614610df0576040517f08c379a0000000000000000000000000000000000000000000000000000000008152600401610de7906123e6565b60405180910390fd5b60066000815480929190610e03906126d5565b91905055506040518060400160405280600654815260200182815250600860008473ffffffffffffffffffffffffffffffffffffffff1673ffffffffffffffffffffffffffffffffffffffff168152602001908152602001600020600082015181600001556020820151816001019080519060200190610e84929190611a3b565b50905050600260405180604001604052806006548152602001838152509080600181540180825580915050600190039060005260206000209060020201600090919091909150600082015181600001556020820151816001019080519060200190610ef0929190611a3b565b5050505050565b60008054906101000a900473ffffffffffffffffffffffffffffffffffffffff1673ffffffffffffffffffffffffffffffffffffffff163373ffffffffffffffffffffffffffffffffffffffff1614610f85576040517f08c379a0000000000000000000000000000000000000000000000000000000008152600401610f7c906123e6565b60405180910390fd5b60096000838152602001908152602001600020600301600760008373ffffffffffffffffffffffffffffffffffffffff1673ffffffffffffffffffffffffffffffffffffffff1681526020019081526020016000209080600181540180825580915050600190039060005260206000209060020201600090919091909150600082015481600001556001820181600101908054611021906126a3565b61102c9291906119ae565b5050505050565b600a6000828152602001908152602001600020600501546000805b60096000600a60008681526020019081526020016000206000016000015481526020019081526020016000206003018054905081101561116657600760003373ffffffffffffffffffffffffffffffffffffffff1673ffffffffffffffffffffffffffffffffffffffff1681526020019081526020016000206000015460096000600a60008781526020019081526020016000206000016000015481526020019081526020016000206003018281548110611132577f4e487b7100000000000000000000000000000000000000000000000000000000600052603260045260246000fd5b90600052602060002090600202016000015414156111535760019150611166565b808061115e906126d5565b91505061104e565b50806111a7576040517f08c379a000000000000000000000000000000000000000000000000000000000815260040161119e90612406565b60405180910390fd5b6001600a600085815260200190815260200160002060070160003373ffffffffffffffffffffffffffffffffffffffff1673ffffffffffffffffffffffffffffffffffffffff16815260200190815260200160002060006101000a81548160ff021916908315150217905550505050565b6009602052806000526040600020600091509050806000015490806001018054611241906126a3565b80601f016020809104026020016040519081016040528092919081815260200182805461126d906126a3565b80156112ba5780601f1061128f576101008083540402835291602001916112ba565b820191906000526020600020905b81548152906001019060200180831161129d57829003601f168201915b5050505050905082565b60076020528060005260406000206000915090508060000154908060010180546112ed906126a3565b80601f0160208091040260200160405190810160405280929190818152602001828054611319906126a3565b80156113665780601f1061133b57610100808354040283529160200191611366565b820191906000526020600020905b81548152906001019060200180831161134957829003601f168201915b5050505050905082565b60008054906101000a900473ffffffffffffffffffffffffffffffffffffffff1673ffffffffffffffffffffffffffffffffffffffff163373ffffffffffffffffffffffffffffffffffffffff16146113fe576040517f08c379a00000000000000000000000000000000000000000000000000000000081526004016113f5906123e6565b60405180910390fd5b60036000815480929190611411906126d5565b91905055506000600a6000600354815260200190815260200160002090506009600083815260200190815260200160002081600001600082015481600001556001820181600101908054611464906126a3565b61146f9291906119ae565b506002820181600201908054611486929190611ac1565b50600382018160030190805461149d929190611b43565b5060048201816004019080546114b4929190611bc5565b509050506003548160050181905550828160060181905550600960008381526020019081526020016000206004016003549080600181540180825580915050600190039060005260206000200160009091909190915055505050565b60606000600960008481526020019081526020016000206003018054905067ffffffffffffffff81111561156d577f4e487b7100000000000000000000000000000000000000000000000000000000600052604160045260246000fd5b60405190808252806020026020018201604052801561159b5781602001602082028036833780820191505090505b50905060005b600960008581526020019081526020016000206003018054905081101561167a57600960008581526020019081526020016000206003018181548110611610577f4e487b7100000000000000000000000000000000000000000000000000000000600052603260045260246000fd5b90600052602060002090600202016000015482828151811061165b577f4e487b7100000000000000000000000000000000000000000000000000000000600052603260045260246000fd5b6020026020010181815250508080611672906126d5565b9150506115a1565b5080915050919050565b60045481565b60055481565b600a602052806000526040600020600091509050806000016040518060a0016040529081600082015481526020016001820180546116cd906126a3565b80601f01602080910402602001604051908101604052809291908181526020018280546116f9906126a3565b80156117465780601f1061171b57610100808354040283529160200191611746565b820191906000526020600020905b81548152906001019060200180831161172957829003601f168201915b5050505050815260200160028201805480602002602001604051908101604052809291908181526020016000905b828210156118425783829060005260206000209060020201604051806040016040529081600082015481526020016001820180546117b1906126a3565b80601f01602080910402602001604051908101604052809291908181526020018280546117dd906126a3565b801561182a5780601f106117ff5761010080835404028352916020019161182a565b820191906000526020600020905b81548152906001019060200180831161180d57829003601f168201915b50505050508152505081526020019060010190611774565b50505050815260200160038201805480602002602001604051908101604052809291908181526020016000905b8282101561193d5783829060005260206000209060020201604051806040016040529081600082015481526020016001820180546118ac906126a3565b80601f01602080910402602001604051908101604052809291908181526020018280546118d8906126a3565b80156119255780601f106118fa57610100808354040283529160200191611925565b820191906000526020600020905b81548152906001019060200180831161190857829003601f168201915b5050505050815250508152602001906001019061186f565b5050505081526020016004820180548060200260200160405190810160405280929190818152602001828054801561199457602002820191906000526020600020905b815481526020019060010190808311611980575b505050505081525050908060050154908060060154905083565b8280546119ba906126a3565b90600052602060002090601f0160209004810192826119dc5760008555611a2a565b82601f106119ed5780548555611a2a565b82800160010185558215611a2a57600052602060002091601f016020900482015b82811115611a29578254825591600101919060010190611a0e565b5b509050611a379190611c17565b5090565b828054611a47906126a3565b90600052602060002090601f016020900481019282611a695760008555611ab0565b82601f10611a8257805160ff1916838001178555611ab0565b82800160010185558215611ab0579182015b82811115611aaf578251825591602001919060010190611a94565b5b509050611abd9190611c17565b5090565b828054828255906000526020600020906002028101928215611b325760005260206000209160020282015b82811115611b31578282600082015481600001556001820181600101908054611b14906126a3565b611b1f9291906119ae565b50505091600201919060020190611aec565b5b509050611b3f9190611c34565b5090565b828054828255906000526020600020906002028101928215611bb45760005260206000209160020282015b82811115611bb3578282600082015481600001556001820181600101908054611b96906126a3565b611ba19291906119ae565b50505091600201919060020190611b6e565b5b509050611bc19190611c63565b5090565b828054828255906000526020600020908101928215611c065760005260206000209182015b82811115611c05578254825591600101919060010190611bea565b5b509050611c139190611c17565b5090565b5b80821115611c30576000816000905550600101611c18565b5090565b5b80821115611c5f57600080820160009055600182016000611c569190611c92565b50600201611c35565b5090565b5b80821115611c8e57600080820160009055600182016000611c859190611c92565b50600201611c64565b5090565b508054611c9e906126a3565b6000825580601f10611cb05750611ccf565b601f016020900490600052602060002090810190611cce9190611c17565b5b50565b6000611ce5611ce084612500565b6124cf565b905082815260208101848484011115611cfd57600080fd5b611d08848285612661565b509392505050565b600081359050611d1f816127bc565b92915050565b600082601f830112611d3657600080fd5b8135611d46848260208601611cd2565b91505092915050565b600081359050611d5e816127d3565b92915050565b600060208284031215611d7657600080fd5b6000611d8484828501611d10565b91505092915050565b60008060408385031215611da057600080fd5b6000611dae85828601611d10565b925050602083013567ffffffffffffffff811115611dcb57600080fd5b611dd785828601611d25565b9150509250929050565b600060208284031215611df357600080fd5b600082013567ffffffffffffffff811115611e0d57600080fd5b611e1984828501611d25565b91505092915050565b600060208284031215611e3457600080fd5b6000611e4284828501611d4f565b91505092915050565b60008060408385031215611e5e57600080fd5b6000611e6c85828601611d4f565b9250506020611e7d85828601611d10565b9150509250929050565b60008060408385031215611e9a57600080fd5b6000611ea885828601611d4f565b9250506020611eb985828601611d4f565b9150509250929050565b6000611ecf838361226b565b905092915050565b6000611ee38383612333565b905092915050565b6000611ef78383612370565b60208301905092915050565b611f0c81612619565b82525050565b6000611f1d82612560565b611f2781856125b3565b935083602082028501611f3985612530565b8060005b85811015611f755784840389528151611f568582611ec3565b9450611f618361258c565b925060208a01995050600181019050611f3d565b50829750879550505050505092915050565b6000611f928261256b565b611f9c81856125c4565b935083602082028501611fae85612540565b8060005b85811015611fea5784840389528151611fcb8582611ed7565b9450611fd683612599565b925060208a01995050600181019050611fb2565b50829750879550505050505092915050565b600061200782612576565b61201181856125d5565b935061201c83612550565b8060005b8381101561204d5781516120348882611eeb565b975061203f836125a6565b925050600181019050612020565b5085935050505092915050565b600061206582612576565b61206f81856125e6565b935061207a83612550565b8060005b838110156120ab5781516120928882611eeb565b975061209d836125a6565b92505060018101905061207e565b5085935050505092915050565b6120c18161262b565b82525050565b60006120d282612581565b6120dc81856125f7565b93506120ec818560208601612670565b6120f5816127ab565b840191505092915050565b600061210b82612581565b6121158185612608565b9350612125818560208601612670565b61212e816127ab565b840191505092915050565b6000612146602183612608565b91507f4f6e6c79206f776e65722063616e2063616c6c20746869732066756e6374696f60008301527f6e000000000000000000000000000000000000000000000000000000000000006020830152604082019050919050565b60006121ac602d83612608565b91507f4f6e6c7920656e726f6c6c65642073747564656e74732063616e2063616c6c2060008301527f746869732066756e6374696f6e000000000000000000000000000000000000006020830152604082019050919050565b6000612212602483612608565b91507f4f6e6c792074656163686572732063616e2063616c6c20746869732066756e6360008301527f74696f6e000000000000000000000000000000000000000000000000000000006020830152604082019050919050565b60006040830160008301516122836000860182612370565b506020830151848203602086015261229b82826120c7565b9150508091505092915050565b600060a0830160008301516122c06000860182612370565b50602083015184820360208601526122d882826120c7565b915050604083015184820360408601526122f28282611f87565b9150506060830151848203606086015261230c8282611f12565b915050608083015184820360808601526123268282611ffc565b9150508091505092915050565b600060408301600083015161234b6000860182612370565b506020830151848203602086015261236382826120c7565b9150508091505092915050565b61237981612657565b82525050565b61238881612657565b82525050565b60006020820190506123a36000830184611f03565b92915050565b600060208201905081810360008301526123c3818461205a565b905092915050565b60006020820190506123e060008301846120b8565b92915050565b600060208201905081810360008301526123ff81612139565b9050919050565b6000602082019050818103600083015261241f8161219f565b9050919050565b6000602082019050818103600083015261243f81612205565b9050919050565b6000606082019050818103600083015261246081866122a8565b905061246f602083018561237f565b61247c604083018461237f565b949350505050565b6000602082019050612499600083018461237f565b92915050565b60006040820190506124b4600083018561237f565b81810360208301526124c68184612100565b90509392505050565b6000604051905081810181811067ffffffffffffffff821117156124f6576124f561277c565b5b8060405250919050565b600067ffffffffffffffff82111561251b5761251a61277c565b5b601f19601f8301169050602081019050919050565b6000819050602082019050919050565b6000819050602082019050919050565b6000819050602082019050919050565b600081519050919050565b600081519050919050565b600081519050919050565b600081519050919050565b6000602082019050919050565b6000602082019050919050565b6000602082019050919050565b600082825260208201905092915050565b600082825260208201905092915050565b600082825260208201905092915050565b600082825260208201905092915050565b600082825260208201905092915050565b600082825260208201905092915050565b600061262482612637565b9050919050565b60008115159050919050565b600073ffffffffffffffffffffffffffffffffffffffff82169050919050565b6000819050919050565b82818337600083830152505050565b60005b8381101561268e578082015181840152602081019050612673565b8381111561269d576000848401525b50505050565b600060028204905060018216806126bb57607f821691505b602082108114156126cf576126ce61274d565b5b50919050565b60006126e082612657565b91507fffffffffffffffffffffffffffffffffffffffffffffffffffffffffffffffff8214156127135761271261271e565b5b600182019050919050565b7f4e487b7100000000000000000000000000000000000000000000000000000000600052601160045260246000fd5b7f4e487b7100000000000000000000000000000000000000000000000000000000600052602260045260246000fd5b7f4e487b7100000000000000000000000000000000000000000000000000000000600052604160045260246000fd5b6000601f19601f8301169050919050565b6127c581612619565b81146127d057600080fd5b50565b6127dc81612657565b81146127e757600080fd5b5056fea2646970667358221220b7c6b1a1dadbb1e0a6dc333cbde6fd03e095536d41b3a577387b5ea62179e07364736f6c63430008000033",
  "immutableReferences": {},
  "source": "//SPDX-License-Identifier: MIT\n\npragma solidity ^0.8.0;\n\ncontract Attendance {\n\n    address public owner;\n    Student[] public students;\n    Teacher[] public teachers;\n    uint256 public classCounter;\n    uint256 public subjectCounter;\n    uint256 public studentCounter;\n    uint256 public teacherCounter;\n\n    struct Student {\n        uint256 studentId;\n        string name;\n    }\n\n    struct Teacher {\n        uint256 teacherId;\n        string name;\n    }\n\n    struct Subject {\n        uint256 subjectId;\n        string subjectName;\n        Teacher[] teachingTeachers;\n        Student[] enrolledStudents;\n        uint256[] classIds;\n    }\n\n    struct Class {\n        Subject subject;\n        uint256 classId;\n        uint256 classDate;\n        mapping(address => bool) attendance;\n\n    }\n\n    mapping(address => Student) public studentDetails;\n    mapping(address => Teacher) public teacherDetails;\n    mapping(uint256 => Subject) public subjectDetails;\n    mapping(uint256 => Class) public classDetails;\n\n    modifier onlyOwner() {\n        require(msg.sender == owner, \"Only owner can call this function\");\n        _;\n    }\n\n    modifier onlyTeacher() {\n        require(teacherDetails[msg.sender].teacherId != 0, \"Only teachers can call this function\");\n        _;\n    }\n\n    modifier onlyStudent() {\n        require(studentDetails[msg.sender].studentId != 0, \"Only students can call this function\");\n        _;\n    }\n\n    modifier onlyEnrolledStudent(uint256 classId) {\n        bool isEnrolled = false;\n        for (uint256 i = 0; i < subjectDetails[classDetails[classId].subject.subjectId].enrolledStudents.length; i++) {\n            if (subjectDetails[classDetails[classId].subject.subjectId].enrolledStudents[i].studentId == studentDetails[msg.sender].studentId) {\n                isEnrolled = true;\n                break;\n            }\n        }\n        require(isEnrolled, \"Only enrolled students can call this function\");\n        _;\n    }\n    \n    function getEnrolledStudents(uint256 _subjectId) public view returns (uint256[] memory) {\n        uint256[] memory studentIds = new uint256[](subjectDetails[_subjectId].enrolledStudents.length);\n        for (uint256 i = 0; i < subjectDetails[_subjectId].enrolledStudents.length; i++) {\n            studentIds[i] = subjectDetails[_subjectId].enrolledStudents[i].studentId;\n        }\n        return studentIds;\n    }\n\n    function getTeachingTeachers(uint256 _subjectId) public view returns (uint256[] memory) {\n        uint256[] memory teacherIds = new uint256[](subjectDetails[_subjectId].teachingTeachers.length);\n        for (uint256 i = 0; i < subjectDetails[_subjectId].teachingTeachers.length; i++) {\n            teacherIds[i] = subjectDetails[_subjectId].teachingTeachers[i].teacherId;\n        }\n        return teacherIds;\n    }\n\n    function addStudent(address _student, string memory _name) public onlyOwner {\n        studentCounter++;\n        studentDetails[_student] = Student(studentCounter, _name);\n        students.push(Student(studentCounter, _name));\n    }   \n\n    function addTeacher(address _teacher, string memory _name) public onlyOwner {\n        teacherCounter++;\n        teacherDetails[_teacher] = Teacher(teacherCounter,_name);\n        teachers.push(Teacher(teacherCounter, _name));\n    }\n\n    function createSubject(string memory _subjectName) public onlyOwner {\n        subjectCounter++;\n        Subject storage newSubject = subjectDetails[subjectCounter];\n        newSubject.subjectId=subjectCounter;\n        newSubject.subjectName = _subjectName;\n    }\n\n    function createClass(uint256 _classDate, uint256 _subjectId) public onlyOwner {\n        classCounter++;\n        \n        Class storage newClass = classDetails[classCounter];\n        newClass.subject = subjectDetails[_subjectId];\n        newClass.classId = classCounter;\n        newClass.classDate = _classDate;\n        subjectDetails[_subjectId].classIds.push(classCounter);\n    }\n\n    function enrollStudent(uint256 _subjectId, address _student) public onlyOwner {\n        subjectDetails[_subjectId].enrolledStudents.push(studentDetails[_student]);\n    }\n\n    function assignTeacher(uint256 _subjectId, address _teacher) public onlyOwner {\n        subjectDetails[_subjectId].teachingTeachers.push(teacherDetails[_teacher]);\n    }\n\n    function markAttendance(uint256 _classId) public onlyEnrolledStudent(classDetails[_classId].classId) {\n        classDetails[_classId].attendance[msg.sender] = true;\n    }\n\n    function checkAttendance(uint256 _classId) public view returns (bool) {\n        return classDetails[_classId].attendance[msg.sender];\n    }\n\n    function checkAttendance(uint256 _classId, address _student) public view onlyTeacher returns (bool) {\n        return classDetails[_classId].attendance[_student];\n    }\n\n    constructor() {\n        owner = msg.sender;\n    }\n\n}",
  "sourcePath": "C:\\Users\\User\\Desktop\\dev\\class-blockchain\\attendance-dapp\\contracts\\Attendance.sol",
  "compiler": {
    "name": "solc",
    "version": "0.8.0+commit.c7dfd78e.Emscripten.clang"
  },
  "schemaVersion": "3.4.16",
  "updatedAt": "2025-01-11T18:37:13.328Z",
  "networkType": "ethereum",
  "devdoc": {
    "kind": "dev",
    "methods": {},
    "version": 1
  },
  "userdoc": {
    "kind": "user",
    "methods": {},
    "version": 1
  }
}