{
  "contractName": "Attendance",
  "abi": [
    {
      "inputs": [],
      "stateMutability": "nonpayable",
      "type": "constructor"
    },
    {
      "anonymous": false,
      "inputs": [
        {
          "indexed": false,
          "internalType": "uint256",
          "name": "classId",
          "type": "uint256"
        },
        {
          "indexed": false,
          "internalType": "address",
          "name": "student",
          "type": "address"
        }
      ],
      "name": "attendanceMarked",
      "type": "event"
    },
    {
      "anonymous": false,
      "inputs": [
        {
          "indexed": false,
          "internalType": "uint256",
          "name": "classId",
          "type": "uint256"
        },
        {
          "indexed": false,
          "internalType": "uint256",
          "name": "classDate",
          "type": "uint256"
        },
        {
          "indexed": false,
          "internalType": "uint256",
          "name": "subjectId",
          "type": "uint256"
        }
      ],
      "name": "classCreated",
      "type": "event"
    },
    {
      "anonymous": false,
      "inputs": [
        {
          "indexed": false,
          "internalType": "address",
          "name": "student",
          "type": "address"
        },
        {
          "indexed": false,
          "internalType": "string",
          "name": "name",
          "type": "string"
        }
      ],
      "name": "studentAdded",
      "type": "event"
    },
    {
      "anonymous": false,
      "inputs": [
        {
          "indexed": false,
          "internalType": "uint256",
          "name": "subjectId",
          "type": "uint256"
        },
        {
          "indexed": false,
          "internalType": "address",
          "name": "student",
          "type": "address"
        }
      ],
      "name": "studentEnrolled",
      "type": "event"
    },
    {
      "anonymous": false,
      "inputs": [
        {
          "indexed": false,
          "internalType": "uint256",
          "name": "subjectId",
          "type": "uint256"
        },
        {
          "indexed": false,
          "internalType": "string",
          "name": "subjectName",
          "type": "string"
        }
      ],
      "name": "subjectCreated",
      "type": "event"
    },
    {
      "anonymous": false,
      "inputs": [
        {
          "indexed": false,
          "internalType": "address",
          "name": "teacher",
          "type": "address"
        },
        {
          "indexed": false,
          "internalType": "string",
          "name": "name",
          "type": "string"
        }
      ],
      "name": "teacherAdded",
      "type": "event"
    },
    {
      "anonymous": false,
      "inputs": [
        {
          "indexed": false,
          "internalType": "uint256",
          "name": "subjectId",
          "type": "uint256"
        },
        {
          "indexed": false,
          "internalType": "address",
          "name": "teacher",
          "type": "address"
        }
      ],
      "name": "teacherAssigned",
      "type": "event"
    },
    {
      "inputs": [],
      "name": "admin",
      "outputs": [
        {
          "internalType": "address",
          "name": "",
          "type": "address"
        }
      ],
      "stateMutability": "view",
      "type": "function",
      "constant": true
    },
    {
      "inputs": [],
      "name": "classCounter",
      "outputs": [
        {
          "internalType": "uint256",
          "name": "",
          "type": "uint256"
        }
      ],
      "stateMutability": "view",
      "type": "function",
      "constant": true
    },
    {
      "inputs": [
        {
          "internalType": "uint256",
          "name": "",
          "type": "uint256"
        }
      ],
      "name": "classDetails",
      "outputs": [
        {
          "components": [
            {
              "internalType": "uint256",
              "name": "subjectId",
              "type": "uint256"
            },
            {
              "internalType": "string",
              "name": "subjectName",
              "type": "string"
            },
            {
              "components": [
                {
                  "internalType": "uint256",
                  "name": "teacherId",
                  "type": "uint256"
                },
                {
                  "internalType": "string",
                  "name": "name",
                  "type": "string"
                }
              ],
              "internalType": "struct Attendance.Teacher[]",
              "name": "teachingTeachers",
              "type": "tuple[]"
            },
            {
              "components": [
                {
                  "internalType": "uint256",
                  "name": "studentId",
                  "type": "uint256"
                },
                {
                  "internalType": "string",
                  "name": "name",
                  "type": "string"
                }
              ],
              "internalType": "struct Attendance.Student[]",
              "name": "enrolledStudents",
              "type": "tuple[]"
            },
            {
              "internalType": "uint256[]",
              "name": "classIds",
              "type": "uint256[]"
            }
          ],
          "internalType": "struct Attendance.Subject",
          "name": "subject",
          "type": "tuple"
        },
        {
          "internalType": "uint256",
          "name": "classId",
          "type": "uint256"
        },
        {
          "internalType": "uint256",
          "name": "classDate",
          "type": "uint256"
        },
        {
          "internalType": "uint256",
          "name": "classPwd",
          "type": "uint256"
        }
      ],
      "stateMutability": "view",
      "type": "function",
      "constant": true
    },
    {
      "inputs": [
        {
          "internalType": "address",
          "name": "",
          "type": "address"
        }
      ],
      "name": "roles",
      "outputs": [
        {
          "internalType": "string",
          "name": "",
          "type": "string"
        }
      ],
      "stateMutability": "view",
      "type": "function",
      "constant": true
    },
    {
      "inputs": [],
      "name": "studentCounter",
      "outputs": [
        {
          "internalType": "uint256",
          "name": "",
          "type": "uint256"
        }
      ],
      "stateMutability": "view",
      "type": "function",
      "constant": true
    },
    {
      "inputs": [
        {
          "internalType": "address",
          "name": "",
          "type": "address"
        }
      ],
      "name": "studentDetails",
      "outputs": [
        {
          "internalType": "uint256",
          "name": "studentId",
          "type": "uint256"
        },
        {
          "internalType": "string",
          "name": "name",
          "type": "string"
        }
      ],
      "stateMutability": "view",
      "type": "function",
      "constant": true
    },
    {
      "inputs": [
        {
          "internalType": "uint256",
          "name": "",
          "type": "uint256"
        }
      ],
      "name": "students",
      "outputs": [
        {
          "internalType": "uint256",
          "name": "studentId",
          "type": "uint256"
        },
        {
          "internalType": "string",
          "name": "name",
          "type": "string"
        }
      ],
      "stateMutability": "view",
      "type": "function",
      "constant": true
    },
    {
      "inputs": [],
      "name": "subjectCounter",
      "outputs": [
        {
          "internalType": "uint256",
          "name": "",
          "type": "uint256"
        }
      ],
      "stateMutability": "view",
      "type": "function",
      "constant": true
    },
    {
      "inputs": [
        {
          "internalType": "uint256",
          "name": "",
          "type": "uint256"
        }
      ],
      "name": "subjectDetails",
      "outputs": [
        {
          "internalType": "uint256",
          "name": "subjectId",
          "type": "uint256"
        },
        {
          "internalType": "string",
          "name": "subjectName",
          "type": "string"
        }
      ],
      "stateMutability": "view",
      "type": "function",
      "constant": true
    },
    {
      "inputs": [],
      "name": "teacherCounter",
      "outputs": [
        {
          "internalType": "uint256",
          "name": "",
          "type": "uint256"
        }
      ],
      "stateMutability": "view",
      "type": "function",
      "constant": true
    },
    {
      "inputs": [
        {
          "internalType": "address",
          "name": "",
          "type": "address"
        }
      ],
      "name": "teacherDetails",
      "outputs": [
        {
          "internalType": "uint256",
          "name": "teacherId",
          "type": "uint256"
        },
        {
          "internalType": "string",
          "name": "name",
          "type": "string"
        }
      ],
      "stateMutability": "view",
      "type": "function",
      "constant": true
    },
    {
      "inputs": [
        {
          "internalType": "uint256",
          "name": "",
          "type": "uint256"
        }
      ],
      "name": "teachers",
      "outputs": [
        {
          "internalType": "uint256",
          "name": "teacherId",
          "type": "uint256"
        },
        {
          "internalType": "string",
          "name": "name",
          "type": "string"
        }
      ],
      "stateMutability": "view",
      "type": "function",
      "constant": true
    },
    {
      "inputs": [
        {
          "internalType": "address",
          "name": "user",
          "type": "address"
        }
      ],
      "name": "getRole",
      "outputs": [
        {
          "internalType": "string",
          "name": "",
          "type": "string"
        }
      ],
      "stateMutability": "view",
      "type": "function",
      "constant": true
    },
    {
      "inputs": [
        {
          "internalType": "address",
          "name": "_student",
          "type": "address"
        },
        {
          "internalType": "string",
          "name": "_name",
          "type": "string"
        }
      ],
      "name": "addStudent",
      "outputs": [],
      "stateMutability": "nonpayable",
      "type": "function"
    },
    {
      "inputs": [
        {
          "internalType": "address",
          "name": "_teacher",
          "type": "address"
        },
        {
          "internalType": "string",
          "name": "_name",
          "type": "string"
        }
      ],
      "name": "addTeacher",
      "outputs": [],
      "stateMutability": "nonpayable",
      "type": "function"
    },
    {
      "inputs": [
        {
          "internalType": "string",
          "name": "_subjectName",
          "type": "string"
        }
      ],
      "name": "createSubject",
      "outputs": [],
      "stateMutability": "nonpayable",
      "type": "function"
    },
    {
      "inputs": [
        {
          "internalType": "uint256",
          "name": "_classDate",
          "type": "uint256"
        },
        {
          "internalType": "uint256",
          "name": "_subjectId",
          "type": "uint256"
        }
      ],
      "name": "createClass",
      "outputs": [],
      "stateMutability": "nonpayable",
      "type": "function"
    },
    {
      "inputs": [
        {
          "internalType": "uint256",
          "name": "_subjectId",
          "type": "uint256"
        },
        {
          "internalType": "address",
          "name": "_student",
          "type": "address"
        }
      ],
      "name": "enrollStudent",
      "outputs": [],
      "stateMutability": "nonpayable",
      "type": "function"
    },
    {
      "inputs": [
        {
          "internalType": "uint256",
          "name": "_subjectId",
          "type": "uint256"
        },
        {
          "internalType": "address",
          "name": "_teacher",
          "type": "address"
        }
      ],
      "name": "assignTeacher",
      "outputs": [],
      "stateMutability": "nonpayable",
      "type": "function"
    },
    {
      "inputs": [
        {
          "internalType": "uint256",
          "name": "_classId",
          "type": "uint256"
        },
        {
          "internalType": "uint256",
          "name": "_pwd",
          "type": "uint256"
        }
      ],
      "name": "markAttendance",
      "outputs": [],
      "stateMutability": "nonpayable",
      "type": "function"
    },
    {
      "inputs": [
        {
          "internalType": "uint256",
          "name": "_classId",
          "type": "uint256"
        }
      ],
      "name": "checkAttendance",
      "outputs": [
        {
          "internalType": "bool",
          "name": "",
          "type": "bool"
        }
      ],
      "stateMutability": "view",
      "type": "function",
      "constant": true
    },
    {
      "inputs": [
        {
          "internalType": "uint256",
          "name": "_classId",
          "type": "uint256"
        },
        {
          "internalType": "address",
          "name": "_student",
          "type": "address"
        }
      ],
      "name": "checkAttendance",
      "outputs": [
        {
          "internalType": "bool",
          "name": "",
          "type": "bool"
        }
      ],
      "stateMutability": "view",
      "type": "function",
      "constant": true
    },
    {
      "inputs": [
        {
          "internalType": "uint256",
          "name": "_classId",
          "type": "uint256"
        }
      ],
      "name": "generateClassPwd",
      "outputs": [],
      "stateMutability": "nonpayable",
      "type": "function"
    },
    {
      "inputs": [],
      "name": "getRandomPassword",
      "outputs": [
        {
          "internalType": "string",
          "name": "",
          "type": "string"
        }
      ],
      "stateMutability": "view",
      "type": "function",
      "constant": true
    },
    {
      "inputs": [
        {
          "internalType": "address",
          "name": "teacher",
          "type": "address"
        }
      ],
      "name": "getStudentsByTeacher",
      "outputs": [
        {
          "components": [
            {
              "internalType": "uint256",
              "name": "studentId",
              "type": "uint256"
            },
            {
              "internalType": "string",
              "name": "name",
              "type": "string"
            }
          ],
          "internalType": "struct Attendance.Student[]",
          "name": "",
          "type": "tuple[]"
        }
      ],
      "stateMutability": "view",
      "type": "function",
      "constant": true
    },
    {
      "inputs": [
        {
          "internalType": "address",
          "name": "_student",
          "type": "address"
        }
      ],
      "name": "removeStudent",
      "outputs": [],
      "stateMutability": "nonpayable",
      "type": "function"
    },
    {
      "inputs": [
        {
          "internalType": "address",
          "name": "_teacher",
          "type": "address"
        }
      ],
      "name": "removeTeacher",
      "outputs": [],
      "stateMutability": "nonpayable",
      "type": "function"
    },
    {
      "inputs": [
        {
          "internalType": "uint256",
          "name": "_subjectId",
          "type": "uint256"
        }
      ],
      "name": "removeSubject",
      "outputs": [],
      "stateMutability": "nonpayable",
      "type": "function"
    },
    {
      "inputs": [
        {
          "internalType": "uint256",
          "name": "_classId",
          "type": "uint256"
        }
      ],
      "name": "removeClass",
      "outputs": [],
      "stateMutability": "nonpayable",
      "type": "function"
    }
  ],
  "bytecode": "0x60806040523480156200001157600080fd5b50336000806101000a81548173ffffffffffffffffffffffffffffffffffffffff021916908373ffffffffffffffffffffffffffffffffffffffff1602179055506040518060400160405280600581526020017f61646d696e000000000000000000000000000000000000000000000000000000815250600b60003373ffffffffffffffffffffffffffffffffffffffff1673ffffffffffffffffffffffffffffffffffffffff1681526020019081526020016000209080519060200190620000dc929190620000e3565b50620001f8565b828054620000f19062000193565b90600052602060002090601f01602090048101928262000115576000855562000161565b82601f106200013057805160ff191683800117855562000161565b8280016001018555821562000161579182015b828111156200016057825182559160200191906001019062000143565b5b50905062000170919062000174565b5090565b5b808211156200018f57600081600090555060010162000175565b5090565b60006002820490506001821680620001ac57607f821691505b60208210811415620001c357620001c2620001c9565b5b50919050565b7f4e487b7100000000000000000000000000000000000000000000000000000000600052602260045260246000fd5b613f4080620002086000396000f3fe608060405234801561001057600080fd5b50600436106101cf5760003560e01c806372c30f4511610104578063ae504c5c116100a2578063e3596cac11610071578063e3596cac14610551578063e91e41aa1461056f578063f851a4401461059f578063fe24ec65146105bd576101cf565b8063ae504c5c146104b5578063aed7419b146104e6578063b6ba723014610517578063d1939ccf14610533576101cf565b80638f5b9b2e116100de5780638f5b9b2e14610431578063993746421461044d578063aba423491461047d578063ac80b4d214610499576101cf565b806372c30f45146103dd57806378c4798c146103f957806380d0199914610415576101cf565b8063442767331161017157806350e0b94d1161014b57806350e0b94d1461036b57806352ff6846146103875780635e8b8091146103a35780637194c5b3146103bf576101cf565b806344276733146102ec57806344d370b81461031c578063465c0e531461034d576101cf565b80632b37f7e7116101ad5780632b37f7e71461023d57806334ac0b401461026d5780633954d58b1461029e5780633d2d8663146102bc576101cf565b806306ead22e146101d45780630ddb03bb146102055780632520f9a114610221575b600080fd5b6101ee60048036038101906101e99190613080565b6105f0565b6040516101fc929190613a12565b60405180910390f35b61021f600480360381019061021a91906130a9565b6106ac565b005b61023b6004803603810190610236919061303f565b61085d565b005b61025760048036038101906102529190613080565b6109bb565b60405161026491906138a5565b60405180910390f35b61028760048036038101906102829190613080565b610a25565b604051610295929190613a12565b60405180910390f35b6102a6610ae1565b6040516102b391906139ce565b60405180910390f35b6102d660048036038101906102d191906130a9565b610ae7565b6040516102e391906138a5565b60405180910390f35b61030660048036038101906103019190612fc2565b610bd7565b60405161031391906138c0565b60405180910390f35b61033660048036038101906103319190612fc2565b610ca8565b604051610344929190613a12565b60405180910390f35b610355610d54565b60405161036291906138c0565b60405180910390f35b61038560048036038101906103809190613080565b610f25565b005b6103a1600480360381019061039c9190612fc2565b610fff565b005b6103bd60048036038101906103b89190612feb565b611126565b005b6103c761136f565b6040516103d491906139ce565b60405180910390f35b6103f760048036038101906103f29190613080565b611375565b005b610413600480360381019061040e9190612fc2565b6114bf565b005b61042f600480360381019061042a9190613080565b6115e6565b005b61044b60048036038101906104469190612feb565b611711565b005b61046760048036038101906104629190612fc2565b61195a565b60405161047491906138c0565b60405180910390f35b610497600480360381019061049291906130a9565b6119fa565b005b6104b360048036038101906104ae91906130e5565b611bab565b005b6104cf60048036038101906104ca9190613080565b611ec9565b6040516104dd929190613a12565b60405180910390f35b61050060048036038101906104fb9190612fc2565b611f75565b60405161050e929190613a12565b60405180910390f35b610531600480360381019061052c91906130e5565b612021565b005b61053b61223a565b60405161054891906139ce565b60405180910390f35b610559612240565b60405161056691906139ce565b60405180910390f35b61058960048036038101906105849190612fc2565b612246565b6040516105969190613883565b60405180910390f35b6105a761271f565b6040516105b49190613838565b60405180910390f35b6105d760048036038101906105d29190613080565b612743565b6040516105e79493929190613982565b60405180910390f35b6001818154811061060057600080fd5b906000526020600020906002020160009150905080600001549080600101805461062990613cdc565b80601f016020809104026020016040519081016040528092919081815260200182805461065590613cdc565b80156106a25780601f10610677576101008083540402835291602001916106a2565b820191906000526020600020905b81548152906001019060200180831161068557829003601f168201915b5050505050905082565b6040516020016106bb906137e6565b60405160208183030381529060405280519060200120600b60003373ffffffffffffffffffffffffffffffffffffffff1673ffffffffffffffffffffffffffffffffffffffff16815260200190815260200160002060405160200161072091906137cf565b6040516020818303038152906040528051906020012014610776576040517f08c379a000000000000000000000000000000000000000000000000000000000815260040161076d90613962565b60405180910390fd5b60096000838152602001908152602001600020600201600860008373ffffffffffffffffffffffffffffffffffffffff1673ffffffffffffffffffffffffffffffffffffffff168152602001908152602001600020908060018154018082558091505060019003906000526020600020906002020160009091909190915060008201548160000155600182018160010190805461081290613cdc565b61081d929190612b89565b5050507f8c067146ec725333e811330fd75fb90567f7eeca601628b5943875fc4a43723e82826040516108519291906139e9565b60405180910390a15050565b60405160200161086c906137e6565b60405160208183030381529060405280519060200120600b60003373ffffffffffffffffffffffffffffffffffffffff1673ffffffffffffffffffffffffffffffffffffffff1681526020019081526020016000206040516020016108d191906137cf565b6040516020818303038152906040528051906020012014610927576040517f08c379a000000000000000000000000000000000000000000000000000000000815260040161091e90613962565b60405180910390fd5b6004600081548092919061093a90613d0e565b91905055506000600960006004548152602001908152602001600020905060045481600001819055508181600101908051906020019061097b929190612c16565b507feeb360ad20d46a8343b758e287ec025d44c51139825f3af2950630c14599acbd600454836040516109af929190613a12565b60405180910390a15050565b6000600a600083815260200190815260200160002060080160003373ffffffffffffffffffffffffffffffffffffffff1673ffffffffffffffffffffffffffffffffffffffff16815260200190815260200160002060009054906101000a900460ff169050919050565b60028181548110610a3557600080fd5b9060005260206000209060020201600091509050806000015490806001018054610a5e90613cdc565b80601f0160208091040260200160405190810160405280929190818152602001828054610a8a90613cdc565b8015610ad75780601f10610aac57610100808354040283529160200191610ad7565b820191906000526020600020905b815481529060010190602001808311610aba57829003601f168201915b5050505050905082565b60035481565b600080600860003373ffffffffffffffffffffffffffffffffffffffff1673ffffffffffffffffffffffffffffffffffffffff168152602001908152602001600020600001541415610b6e576040517f08c379a0000000000000000000000000000000000000000000000000000000008152600401610b6590613942565b60405180910390fd5b600a600084815260200190815260200160002060080160008373ffffffffffffffffffffffffffffffffffffffff1673ffffffffffffffffffffffffffffffffffffffff16815260200190815260200160002060009054906101000a900460ff16905092915050565b6060600b60008373ffffffffffffffffffffffffffffffffffffffff1673ffffffffffffffffffffffffffffffffffffffff1681526020019081526020016000208054610c2390613cdc565b80601f0160208091040260200160405190810160405280929190818152602001828054610c4f90613cdc565b8015610c9c5780601f10610c7157610100808354040283529160200191610c9c565b820191906000526020600020905b815481529060010190602001808311610c7f57829003601f168201915b50505050509050919050565b6008602052806000526040600020600091509050806000015490806001018054610cd190613cdc565b80601f0160208091040260200160405190810160405280929190818152602001828054610cfd90613cdc565b8015610d4a5780601f10610d1f57610100808354040283529160200191610d4a565b820191906000526020600020905b815481529060010190602001808311610d2d57829003601f168201915b5050505050905082565b60606000604051806080016040528060428152602001613ec96042913990506000600f905060008167ffffffffffffffff811115610dbb577f4e487b7100000000000000000000000000000000000000000000000000000000600052604160045260246000fd5b6040519080825280601f01601f191660200182016040528015610ded5781602001600182028036833780820191505090505b509050600042600143610e009190613c14565b4033604051602001610e14939291906137fb565b6040516020818303038152906040528051906020012060001c905060005b83811015610f1a576000855183610e499190613d8f565b9050858181518110610e84577f4e487b7100000000000000000000000000000000000000000000000000000000600052603260045260246000fd5b602001015160f81c60f81b848381518110610ec8577f4e487b7100000000000000000000000000000000000000000000000000000000600052603260045260246000fd5b60200101907effffffffffffffffffffffffffffffffffffffffffffffffffffffffffffff1916908160001a905350855183610f049190613be3565b9250508080610f1290613d0e565b915050610e32565b508194505050505090565b6000600860003373ffffffffffffffffffffffffffffffffffffffff1673ffffffffffffffffffffffffffffffffffffffff168152602001908152602001600020600001541415610fab576040517f08c379a0000000000000000000000000000000000000000000000000000000008152600401610fa290613942565b60405180910390fd5b6000610fb5610d54565b905080604051602001610fc891906137b8565b6040516020818303038152906040528051906020012060001c600a6000848152602001908152602001600020600701819055505050565b60405160200161100e906137e6565b60405160208183030381529060405280519060200120600b60003373ffffffffffffffffffffffffffffffffffffffff1673ffffffffffffffffffffffffffffffffffffffff16815260200190815260200160002060405160200161107391906137cf565b60405160208183030381529060405280519060200120146110c9576040517f08c379a00000000000000000000000000000000000000000000000000000000081526004016110c090613962565b60405180910390fd5b600860008273ffffffffffffffffffffffffffffffffffffffff1673ffffffffffffffffffffffffffffffffffffffff1681526020019081526020016000206000808201600090556001820160006111219190612c9c565b505050565b604051602001611135906137e6565b60405160208183030381529060405280519060200120600b60003373ffffffffffffffffffffffffffffffffffffffff1673ffffffffffffffffffffffffffffffffffffffff16815260200190815260200160002060405160200161119a91906137cf565b60405160208183030381529060405280519060200120146111f0576040517f08c379a00000000000000000000000000000000000000000000000000000000081526004016111e790613962565b60405180910390fd5b6005600081548092919061120390613d0e565b91905055506040518060400160405280600554815260200182815250600760008473ffffffffffffffffffffffffffffffffffffffff1673ffffffffffffffffffffffffffffffffffffffff168152602001908152602001600020600082015181600001556020820151816001019080519060200190611284929190612c16565b509050506001604051806040016040528060055481526020018381525090806001815401808255809150506001900390600052602060002090600202016000909190919091506000820151816000015560208201518160010190805190602001906112f0929190612c16565b505050611332826040518060400160405280600781526020017f73747564656e7400000000000000000000000000000000000000000000000000815250612a67565b7f94a56de67dd66b06691e0bd81e5b57fbf02e3ce04576def9d15b6371a0109fd28282604051611363929190613853565b60405180910390a15050565b60065481565b604051602001611384906137e6565b60405160208183030381529060405280519060200120600b60003373ffffffffffffffffffffffffffffffffffffffff1673ffffffffffffffffffffffffffffffffffffffff1681526020019081526020016000206040516020016113e991906137cf565b604051602081830303815290604052805190602001201461143f576040517f08c379a000000000000000000000000000000000000000000000000000000000815260040161143690613962565b60405180910390fd5b600a600082815260200190815260200160002060008082016000808201600090556001820160006114709190612c9c565b6002820160006114809190612cdc565b6003820160006114909190612d00565b6004820160006114a09190612d24565b5050600582016000905560068201600090556007820160009055505050565b6040516020016114ce906137e6565b60405160208183030381529060405280519060200120600b60003373ffffffffffffffffffffffffffffffffffffffff1673ffffffffffffffffffffffffffffffffffffffff16815260200190815260200160002060405160200161153391906137cf565b6040516020818303038152906040528051906020012014611589576040517f08c379a000000000000000000000000000000000000000000000000000000000815260040161158090613962565b60405180910390fd5b600760008273ffffffffffffffffffffffffffffffffffffffff1673ffffffffffffffffffffffffffffffffffffffff1681526020019081526020016000206000808201600090556001820160006115e19190612c9c565b505050565b6040516020016115f5906137e6565b60405160208183030381529060405280519060200120600b60003373ffffffffffffffffffffffffffffffffffffffff1673ffffffffffffffffffffffffffffffffffffffff16815260200190815260200160002060405160200161165a91906137cf565b60405160208183030381529060405280519060200120146116b0576040517f08c379a00000000000000000000000000000000000000000000000000000000081526004016116a790613962565b60405180910390fd5b600960008281526020019081526020016000206000808201600090556001820160006116dc9190612c9c565b6002820160006116ec9190612cdc565b6003820160006116fc9190612d00565b60048201600061170c9190612d24565b505050565b604051602001611720906137e6565b60405160208183030381529060405280519060200120600b60003373ffffffffffffffffffffffffffffffffffffffff1673ffffffffffffffffffffffffffffffffffffffff16815260200190815260200160002060405160200161178591906137cf565b60405160208183030381529060405280519060200120146117db576040517f08c379a00000000000000000000000000000000000000000000000000000000081526004016117d290613962565b60405180910390fd5b600660008154809291906117ee90613d0e565b91905055506040518060400160405280600654815260200182815250600860008473ffffffffffffffffffffffffffffffffffffffff1673ffffffffffffffffffffffffffffffffffffffff16815260200190815260200160002060008201518160000155602082015181600101908051906020019061186f929190612c16565b509050506002604051806040016040528060065481526020018381525090806001815401808255809150506001900390600052602060002090600202016000909190919091506000820151816000015560208201518160010190805190602001906118db929190612c16565b50505061191d826040518060400160405280600781526020017f7465616368657200000000000000000000000000000000000000000000000000815250612a67565b7f6996ba1536de57e4c72a268600ac97e3feae59f326494fce7dc56c6c6de959e3828260405161194e929190613853565b60405180910390a15050565b600b602052806000526040600020600091509050805461197990613cdc565b80601f01602080910402602001604051908101604052809291908181526020018280546119a590613cdc565b80156119f25780601f106119c7576101008083540402835291602001916119f2565b820191906000526020600020905b8154815290600101906020018083116119d557829003601f168201915b505050505081565b604051602001611a09906137e6565b60405160208183030381529060405280519060200120600b60003373ffffffffffffffffffffffffffffffffffffffff1673ffffffffffffffffffffffffffffffffffffffff168152602001908152602001600020604051602001611a6e91906137cf565b6040516020818303038152906040528051906020012014611ac4576040517f08c379a0000000000000000000000000000000000000000000000000000000008152600401611abb90613962565b60405180910390fd5b60096000838152602001908152602001600020600301600760008373ffffffffffffffffffffffffffffffffffffffff1673ffffffffffffffffffffffffffffffffffffffff1681526020019081526020016000209080600181540180825580915050600190039060005260206000209060020201600090919091909150600082015481600001556001820181600101908054611b6090613cdc565b611b6b929190612b89565b5050507f330f6a5433c3d731bf2a234085fc8f11bd40cdbdd41b574d8570189c6ea277cb8282604051611b9f9291906139e9565b60405180910390a15050565b600a6000838152602001908152602001600020600501546000805b60096000600a600086815260200190815260200160002060000160000154815260200190815260200160002060030180549050811015611cde57600760003373ffffffffffffffffffffffffffffffffffffffff1673ffffffffffffffffffffffffffffffffffffffff1681526020019081526020016000206000015460096000600a60008781526020019081526020016000206000016000015481526020019081526020016000206003018281548110611caa577f4e487b7100000000000000000000000000000000000000000000000000000000600052603260045260246000fd5b9060005260206000209060020201600001541415611ccb5760019150611cde565b8080611cd690613d0e565b915050611bc6565b5080611d1f576040517f08c379a0000000000000000000000000000000000000000000000000000000008152600401611d16906138e2565b60405180910390fd5b60001515600a600086815260200190815260200160002060080160003373ffffffffffffffffffffffffffffffffffffffff1673ffffffffffffffffffffffffffffffffffffffff16815260200190815260200160002060009054906101000a900460ff16151514611dc6576040517f08c379a0000000000000000000000000000000000000000000000000000000008152600401611dbd90613902565b60405180910390fd5b82600a60008681526020019081526020016000206007015414611e1e576040517f08c379a0000000000000000000000000000000000000000000000000000000008152600401611e1590613922565b60405180910390fd5b6001600a600086815260200190815260200160002060080160003373ffffffffffffffffffffffffffffffffffffffff1673ffffffffffffffffffffffffffffffffffffffff16815260200190815260200160002060006101000a81548160ff0219169083151502179055507f1fc08eb0c2f0125b980d5b8b9c7d0c66f56fe49ed88c804b350f31b0130cda388433604051611ebb9291906139e9565b60405180910390a150505050565b6009602052806000526040600020600091509050806000015490806001018054611ef290613cdc565b80601f0160208091040260200160405190810160405280929190818152602001828054611f1e90613cdc565b8015611f6b5780601f10611f4057610100808354040283529160200191611f6b565b820191906000526020600020905b815481529060010190602001808311611f4e57829003601f168201915b5050505050905082565b6007602052806000526040600020600091509050806000015490806001018054611f9e90613cdc565b80601f0160208091040260200160405190810160405280929190818152602001828054611fca90613cdc565b80156120175780601f10611fec57610100808354040283529160200191612017565b820191906000526020600020905b815481529060010190602001808311611ffa57829003601f168201915b5050505050905082565b604051602001612030906137e6565b60405160208183030381529060405280519060200120600b60003373ffffffffffffffffffffffffffffffffffffffff1673ffffffffffffffffffffffffffffffffffffffff16815260200190815260200160002060405160200161209591906137cf565b60405160208183030381529060405280519060200120146120eb576040517f08c379a00000000000000000000000000000000000000000000000000000000081526004016120e290613962565b60405180910390fd5b600360008154809291906120fe90613d0e565b91905055506000600a600060035481526020019081526020016000209050600960008381526020019081526020016000208160000160008201548160000155600182018160010190805461215190613cdc565b61215c929190612b89565b506002820181600201908054612173929190612d45565b50600382018160030190805461218a929190612dc7565b5060048201816004019080546121a1929190612e49565b5090505060035481600501819055508281600601819055506009600083815260200190815260200160002060040160035490806001815401808255809150506001900390600052602060002001600090919091909150557f5a3a80d0fae53d263cc7f8adc9b489c04a64d1f61278a26b20f7b67ebca6aa27600354848460405161222d93929190613a42565b60405180910390a1505050565b60045481565b60055481565b60606000600860003373ffffffffffffffffffffffffffffffffffffffff1673ffffffffffffffffffffffffffffffffffffffff1681526020019081526020016000206000015414156122ce576040517f08c379a00000000000000000000000000000000000000000000000000000000081526004016122c590613942565b60405180910390fd5b600060045467ffffffffffffffff811115612312577f4e487b7100000000000000000000000000000000000000000000000000000000600052604160045260246000fd5b6040519080825280602002602001820160405280156123405781602001602082028036833780820191505090505b509050600080600190505b60045481116124a15760005b600960008381526020019081526020016000206002018054905081101561248d57600860008773ffffffffffffffffffffffffffffffffffffffff1673ffffffffffffffffffffffffffffffffffffffff16815260200190815260200160002060000154600960008481526020019081526020016000206002018281548110612409577f4e487b7100000000000000000000000000000000000000000000000000000000600052603260045260246000fd5b906000526020600020906002020160000154141561247a578184848151811061245b577f4e487b7100000000000000000000000000000000000000000000000000000000600052603260045260246000fd5b602002602001018181525050828061247290613d0e565b93505061248d565b808061248590613d0e565b915050612357565b50808061249990613d0e565b91505061234b565b5060008167ffffffffffffffff8111156124e4577f4e487b7100000000000000000000000000000000000000000000000000000000600052604160045260246000fd5b60405190808252806020026020018201604052801561251d57816020015b61250a612e9b565b8152602001906001900390816125025790505b5090506000805b83811015612712576000858281518110612567577f4e487b7100000000000000000000000000000000000000000000000000000000600052603260045260246000fd5b6020026020010151905060005b60096000838152602001908152602001600020600301805490508110156126fd576009600083815260200190815260200160002060030181815481106125e3577f4e487b7100000000000000000000000000000000000000000000000000000000600052603260045260246000fd5b90600052602060002090600202016040518060400160405290816000820154815260200160018201805461261690613cdc565b80601f016020809104026020016040519081016040528092919081815260200182805461264290613cdc565b801561268f5780601f106126645761010080835404028352916020019161268f565b820191906000526020600020905b81548152906001019060200180831161267257829003601f168201915b5050505050815250508585815181106126d1577f4e487b7100000000000000000000000000000000000000000000000000000000600052603260045260246000fd5b602002602001018190525083806126e790613d0e565b94505080806126f590613d0e565b915050612574565b5050808061270a90613d0e565b915050612524565b5081945050505050919050565b60008054906101000a900473ffffffffffffffffffffffffffffffffffffffff1681565b600a602052806000526040600020600091509050806000016040518060a00160405290816000820154815260200160018201805461278090613cdc565b80601f01602080910402602001604051908101604052809291908181526020018280546127ac90613cdc565b80156127f95780601f106127ce576101008083540402835291602001916127f9565b820191906000526020600020905b8154815290600101906020018083116127dc57829003601f168201915b5050505050815260200160028201805480602002602001604051908101604052809291908181526020016000905b828210156128f557838290600052602060002090600202016040518060400160405290816000820154815260200160018201805461286490613cdc565b80601f016020809104026020016040519081016040528092919081815260200182805461289090613cdc565b80156128dd5780601f106128b2576101008083540402835291602001916128dd565b820191906000526020600020905b8154815290600101906020018083116128c057829003601f168201915b50505050508152505081526020019060010190612827565b50505050815260200160038201805480602002602001604051908101604052809291908181526020016000905b828210156129f057838290600052602060002090600202016040518060400160405290816000820154815260200160018201805461295f90613cdc565b80601f016020809104026020016040519081016040528092919081815260200182805461298b90613cdc565b80156129d85780601f106129ad576101008083540402835291602001916129d8565b820191906000526020600020905b8154815290600101906020018083116129bb57829003601f168201915b50505050508152505081526020019060010190612922565b50505050815260200160048201805480602002602001604051908101604052809291908181526020018280548015612a4757602002820191906000526020600020905b815481526020019060010190808311612a33575b505050505081525050908060050154908060060154908060070154905084565b604051602001612a76906137e6565b60405160208183030381529060405280519060200120600b60003373ffffffffffffffffffffffffffffffffffffffff1673ffffffffffffffffffffffffffffffffffffffff168152602001908152602001600020604051602001612adb91906137cf565b6040516020818303038152906040528051906020012014612b31576040517f08c379a0000000000000000000000000000000000000000000000000000000008152600401612b2890613962565b60405180910390fd5b80600b60008473ffffffffffffffffffffffffffffffffffffffff1673ffffffffffffffffffffffffffffffffffffffff1681526020019081526020016000209080519060200190612b84929190612c16565b505050565b828054612b9590613cdc565b90600052602060002090601f016020900481019282612bb75760008555612c05565b82601f10612bc85780548555612c05565b82800160010185558215612c0557600052602060002091601f016020900482015b82811115612c04578254825591600101919060010190612be9565b5b509050612c129190612eb5565b5090565b828054612c2290613cdc565b90600052602060002090601f016020900481019282612c445760008555612c8b565b82601f10612c5d57805160ff1916838001178555612c8b565b82800160010185558215612c8b579182015b82811115612c8a578251825591602001919060010190612c6f565b5b509050612c989190612eb5565b5090565b508054612ca890613cdc565b6000825580601f10612cba5750612cd9565b601f016020900490600052602060002090810190612cd89190612eb5565b5b50565b5080546000825560020290600052602060002090810190612cfd9190612ed2565b50565b5080546000825560020290600052602060002090810190612d219190612f01565b50565b5080546000825590600052602060002090810190612d429190612eb5565b50565b828054828255906000526020600020906002028101928215612db65760005260206000209160020282015b82811115612db5578282600082015481600001556001820181600101908054612d9890613cdc565b612da3929190612b89565b50505091600201919060020190612d70565b5b509050612dc39190612ed2565b5090565b828054828255906000526020600020906002028101928215612e385760005260206000209160020282015b82811115612e37578282600082015481600001556001820181600101908054612e1a90613cdc565b612e25929190612b89565b50505091600201919060020190612df2565b5b509050612e459190612f01565b5090565b828054828255906000526020600020908101928215612e8a5760005260206000209182015b82811115612e89578254825591600101919060010190612e6e565b5b509050612e979190612eb5565b5090565b604051806040016040528060008152602001606081525090565b5b80821115612ece576000816000905550600101612eb6565b5090565b5b80821115612efd57600080820160009055600182016000612ef49190612c9c565b50600201612ed3565b5090565b5b80821115612f2c57600080820160009055600182016000612f239190612c9c565b50600201612f02565b5090565b6000612f43612f3e84613aaa565b613a79565b905082815260208101848484011115612f5b57600080fd5b612f66848285613c9a565b509392505050565b600081359050612f7d81613e9a565b92915050565b600082601f830112612f9457600080fd5b8135612fa4848260208601612f30565b91505092915050565b600081359050612fbc81613eb1565b92915050565b600060208284031215612fd457600080fd5b6000612fe284828501612f6e565b91505092915050565b60008060408385031215612ffe57600080fd5b600061300c85828601612f6e565b925050602083013567ffffffffffffffff81111561302957600080fd5b61303585828601612f83565b9150509250929050565b60006020828403121561305157600080fd5b600082013567ffffffffffffffff81111561306b57600080fd5b61307784828501612f83565b91505092915050565b60006020828403121561309257600080fd5b60006130a084828501612fad565b91505092915050565b600080604083850312156130bc57600080fd5b60006130ca85828601612fad565b92505060206130db85828601612f6e565b9150509250929050565b600080604083850312156130f857600080fd5b600061310685828601612fad565b925050602061311785828601612fad565b9150509250929050565b600061312d838361367e565b905092915050565b60006131418383613746565b905092915050565b60006131558383613783565b60208301905092915050565b61316a81613c48565b82525050565b61318161317c82613c48565b613d57565b82525050565b600061319282613b1f565b61319c8185613b72565b9350836020820285016131ae85613ada565b8060005b858110156131ea57848403895281516131cb8582613121565b94506131d683613b4b565b925060208a019950506001810190506131b2565b50829750879550505050505092915050565b600061320782613b1f565b6132118185613b83565b93508360208202850161322385613ada565b8060005b8581101561325f57848403895281516132408582613121565b945061324b83613b4b565b925060208a01995050600181019050613227565b50829750879550505050505092915050565b600061327c82613b2a565b6132868185613b94565b93508360208202850161329885613aea565b8060005b858110156132d457848403895281516132b58582613135565b94506132c083613b58565b925060208a0199505060018101905061329c565b50829750879550505050505092915050565b60006132f182613b35565b6132fb8185613ba5565b935061330683613afa565b8060005b8381101561333757815161331e8882613149565b975061332983613b65565b92505060018101905061330a565b5085935050505092915050565b61334d81613c5a565b82525050565b61336461335f82613c66565b613d69565b82525050565b600061337582613b40565b61337f8185613bb6565b935061338f818560208601613ca9565b61339881613e7c565b840191505092915050565b60006133ae82613b40565b6133b88185613bc7565b93506133c8818560208601613ca9565b6133d181613e7c565b840191505092915050565b60006133e782613b40565b6133f18185613bd8565b9350613401818560208601613ca9565b80840191505092915050565b6000815461341a81613cdc565b6134248186613bd8565b9450600182166000811461343f576001811461345057613483565b60ff19831686528186019350613483565b61345985613b0a565b60005b8381101561347b5781548189015260018201915060208101905061345c565b838801955050505b50505092915050565b6000613499602d83613bc7565b91507f4f6e6c7920656e726f6c6c65642073747564656e74732063616e2063616c6c2060008301527f746869732066756e6374696f6e000000000000000000000000000000000000006020830152604082019050919050565b60006134ff601983613bc7565b91507f417474656e64616e636520616c7265616479206d61726b6564000000000000006000830152602082019050919050565b600061353f601083613bc7565b91507f496e76616c69642070617373776f7264000000000000000000000000000000006000830152602082019050919050565b600061357f602483613bc7565b91507f4f6e6c792074656163686572732063616e2063616c6c20746869732066756e6360008301527f74696f6e000000000000000000000000000000000000000000000000000000006020830152604082019050919050565b60006135e5602183613bc7565b91507f4f6e6c792061646d696e2063616e2063616c6c20746869732066756e6374696f60008301527f6e000000000000000000000000000000000000000000000000000000000000006020830152604082019050919050565b600061364b600583613bd8565b91507f61646d696e0000000000000000000000000000000000000000000000000000006000830152600582019050919050565b60006040830160008301516136966000860182613783565b50602083015184820360208601526136ae828261336a565b9150508091505092915050565b600060a0830160008301516136d36000860182613783565b50602083015184820360208601526136eb828261336a565b915050604083015184820360408601526137058282613271565b9150506060830151848203606086015261371f8282613187565b9150506080830151848203608086015261373982826132e6565b9150508091505092915050565b600060408301600083015161375e6000860182613783565b5060208301518482036020860152613776828261336a565b9150508091505092915050565b61378c81613c90565b82525050565b61379b81613c90565b82525050565b6137b26137ad82613c90565b613d85565b82525050565b60006137c482846133dc565b915081905092915050565b60006137db828461340d565b915081905092915050565b60006137f18261363e565b9150819050919050565b600061380782866137a1565b6020820191506138178285613353565b6020820191506138278284613170565b601482019150819050949350505050565b600060208201905061384d6000830184613161565b92915050565b60006040820190506138686000830185613161565b818103602083015261387a81846133a3565b90509392505050565b6000602082019050818103600083015261389d81846131fc565b905092915050565b60006020820190506138ba6000830184613344565b92915050565b600060208201905081810360008301526138da81846133a3565b905092915050565b600060208201905081810360008301526138fb8161348c565b9050919050565b6000602082019050818103600083015261391b816134f2565b9050919050565b6000602082019050818103600083015261393b81613532565b9050919050565b6000602082019050818103600083015261395b81613572565b9050919050565b6000602082019050818103600083015261397b816135d8565b9050919050565b6000608082019050818103600083015261399c81876136bb565b90506139ab6020830186613792565b6139b86040830185613792565b6139c56060830184613792565b95945050505050565b60006020820190506139e36000830184613792565b92915050565b60006040820190506139fe6000830185613792565b613a0b6020830184613161565b9392505050565b6000604082019050613a276000830185613792565b8181036020830152613a3981846133a3565b90509392505050565b6000606082019050613a576000830186613792565b613a646020830185613792565b613a716040830184613792565b949350505050565b6000604051905081810181811067ffffffffffffffff82111715613aa057613a9f613e4d565b5b8060405250919050565b600067ffffffffffffffff821115613ac557613ac4613e4d565b5b601f19601f8301169050602081019050919050565b6000819050602082019050919050565b6000819050602082019050919050565b6000819050602082019050919050565b60008190508160005260206000209050919050565b600081519050919050565b600081519050919050565b600081519050919050565b600081519050919050565b6000602082019050919050565b6000602082019050919050565b6000602082019050919050565b600082825260208201905092915050565b600082825260208201905092915050565b600082825260208201905092915050565b600082825260208201905092915050565b600082825260208201905092915050565b600082825260208201905092915050565b600081905092915050565b6000613bee82613c90565b9150613bf983613c90565b925082613c0957613c08613def565b5b828204905092915050565b6000613c1f82613c90565b9150613c2a83613c90565b925082821015613c3d57613c3c613dc0565b5b828203905092915050565b6000613c5382613c70565b9050919050565b60008115159050919050565b6000819050919050565b600073ffffffffffffffffffffffffffffffffffffffff82169050919050565b6000819050919050565b82818337600083830152505050565b60005b83811015613cc7578082015181840152602081019050613cac565b83811115613cd6576000848401525b50505050565b60006002820490506001821680613cf457607f821691505b60208210811415613d0857613d07613e1e565b5b50919050565b6000613d1982613c90565b91507fffffffffffffffffffffffffffffffffffffffffffffffffffffffffffffffff821415613d4c57613d4b613dc0565b5b600182019050919050565b6000613d6282613d73565b9050919050565b6000819050919050565b6000613d7e82613e8d565b9050919050565b6000819050919050565b6000613d9a82613c90565b9150613da583613c90565b925082613db557613db4613def565b5b828206905092915050565b7f4e487b7100000000000000000000000000000000000000000000000000000000600052601160045260246000fd5b7f4e487b7100000000000000000000000000000000000000000000000000000000600052601260045260246000fd5b7f4e487b7100000000000000000000000000000000000000000000000000000000600052602260045260246000fd5b7f4e487b7100000000000000000000000000000000000000000000000000000000600052604160045260246000fd5b6000601f19601f8301169050919050565b60008160601b9050919050565b613ea381613c48565b8114613eae57600080fd5b50565b613eba81613c90565b8114613ec557600080fd5b5056fe6162636465666768696a6b6c6d6e6f707172737475767778797a4142434445464748494a4b4c4d4e4f505152535455565758595a30313233343536373839402f2123a264697066735822122052cb3cdee26b599592db5217187a63861e8e337c23ee4a7a9b17763d987db91164736f6c63430008000033",
  "immutableReferences": {},
  "source": "//SPDX-License-Identifier: MIT\r\n\r\npragma solidity ^0.8.0;\r\n\r\ncontract Attendance {\r\n\r\n    address public admin;\r\n    Student[] public students;\r\n    Teacher[] public teachers;\r\n    uint256 public classCounter;\r\n    uint256 public subjectCounter;\r\n    uint256 public studentCounter;\r\n    uint256 public teacherCounter;\r\n\r\n    struct Student {\r\n        uint256 studentId;\r\n        string name;\r\n    }\r\n\r\n    struct Teacher {\r\n        uint256 teacherId;\r\n        string name;\r\n    }\r\n\r\n    struct Subject {\r\n        uint256 subjectId;\r\n        string subjectName;\r\n        Teacher[] teachingTeachers;\r\n        Student[] enrolledStudents;\r\n        uint256[] classIds;\r\n    }\r\n\r\n    struct Class {\r\n        Subject subject;\r\n        uint256 classId;\r\n        uint256 classDate;\r\n        uint256 classPwd;\r\n        mapping(address => bool) attendance;\r\n    }\r\n\r\n    event studentAdded(address student, string name);\r\n    event teacherAdded(address teacher, string name);\r\n    event subjectCreated(uint256 subjectId, string subjectName);\r\n    event classCreated(uint256 classId, uint256 classDate, uint256 subjectId);\r\n    event studentEnrolled(uint256 subjectId, address student);\r\n    event teacherAssigned(uint256 subjectId, address teacher);\r\n    event attendanceMarked(uint256 classId, address student);\r\n\r\n\r\n    mapping(address => Student) public studentDetails;\r\n    mapping(address => Teacher) public teacherDetails;\r\n    mapping(uint256 => Subject) public subjectDetails;\r\n    mapping(uint256 => Class) public classDetails;\r\n\r\n    mapping(address => string) public roles;\r\n\r\n    constructor() {\r\n        admin = msg.sender;\r\n        roles[msg.sender] = \"admin\"; // Contract deployer is the admin\r\n    }\r\n\r\n    modifier onlyAdmin() {\r\n        require(keccak256(abi.encodePacked(roles[msg.sender])) == keccak256(abi.encodePacked(\"admin\")), \"Only admin can call this function\");\r\n        _;\r\n    }\r\n\r\n    modifier onlyTeacher() {\r\n        require(teacherDetails[msg.sender].teacherId != 0, \"Only teachers can call this function\");\r\n        _;\r\n    }\r\n\r\n    modifier onlyStudent() {\r\n        require(studentDetails[msg.sender].studentId != 0, \"Only students can call this function\");\r\n        _;\r\n    }\r\n\r\n    modifier onlyEnrolledStudent(uint256 classId) {\r\n        bool isEnrolled = false;\r\n        for (uint256 i = 0; i < subjectDetails[classDetails[classId].subject.subjectId].enrolledStudents.length; i++) {\r\n            if (subjectDetails[classDetails[classId].subject.subjectId].enrolledStudents[i].studentId == studentDetails[msg.sender].studentId) {\r\n                isEnrolled = true;\r\n                break;\r\n            }\r\n        }\r\n        require(isEnrolled, \"Only enrolled students can call this function\");\r\n        _;\r\n    }\r\n\r\n    function assignRole(address user, string memory role) internal onlyAdmin {\r\n        roles[user] = role;\r\n    }\r\n\r\n    function getRole(address user) public view returns (string memory) {\r\n        return roles[user];\r\n    }\r\n\r\n    function addStudent(address _student, string memory _name) public onlyAdmin {\r\n        studentCounter++;\r\n        studentDetails[_student] = Student(studentCounter, _name);\r\n        students.push(Student(studentCounter, _name));\r\n        assignRole(_student, \"student\");\r\n\r\n        emit studentAdded(_student, _name);\r\n    }   \r\n\r\n    function addTeacher(address _teacher, string memory _name) public onlyAdmin {\r\n        teacherCounter++;\r\n        teacherDetails[_teacher] = Teacher(teacherCounter,_name);\r\n        teachers.push(Teacher(teacherCounter, _name));\r\n        assignRole(_teacher, \"teacher\");\r\n\r\n        emit teacherAdded(_teacher, _name);\r\n    }\r\n\r\n    function createSubject(string memory _subjectName) public onlyAdmin {\r\n        subjectCounter++;\r\n        Subject storage newSubject = subjectDetails[subjectCounter];\r\n        newSubject.subjectId=subjectCounter;\r\n        newSubject.subjectName = _subjectName;\r\n\r\n        emit subjectCreated(subjectCounter, _subjectName);\r\n    }\r\n\r\n    function createClass(uint256 _classDate, uint256 _subjectId) public onlyAdmin {\r\n        classCounter++;\r\n        \r\n        Class storage newClass = classDetails[classCounter];\r\n        newClass.subject = subjectDetails[_subjectId];\r\n        newClass.classId = classCounter;\r\n        newClass.classDate = _classDate;\r\n        subjectDetails[_subjectId].classIds.push(classCounter);\r\n\r\n        emit classCreated(classCounter, _classDate, _subjectId);\r\n    }\r\n\r\n    function enrollStudent(uint256 _subjectId, address _student) public onlyAdmin {\r\n        subjectDetails[_subjectId].enrolledStudents.push(studentDetails[_student]);\r\n\r\n        emit studentEnrolled(_subjectId, _student);\r\n    }\r\n\r\n    function assignTeacher(uint256 _subjectId, address _teacher) public onlyAdmin {\r\n        subjectDetails[_subjectId].teachingTeachers.push(teacherDetails[_teacher]);\r\n\r\n        emit teacherAssigned(_subjectId, _teacher);\r\n    }\r\n\r\n    function markAttendance(uint256 _classId, uint256 _pwd) public onlyEnrolledStudent(classDetails[_classId].classId) {\r\n        require(classDetails[_classId].attendance[msg.sender] == false, \"Attendance already marked\");\r\n        require(classDetails[_classId].classPwd == _pwd, \"Invalid password\");\r\n        classDetails[_classId].attendance[msg.sender] = true;\r\n\r\n        emit attendanceMarked(_classId, msg.sender);\r\n    }\r\n\r\n    function checkAttendance(uint256 _classId) public view returns (bool) {\r\n        return classDetails[_classId].attendance[msg.sender];\r\n    }\r\n\r\n    function checkAttendance(uint256 _classId, address _student) public view onlyTeacher returns (bool) {\r\n        return classDetails[_classId].attendance[_student];\r\n    }\r\n\r\n    function generateClassPwd(uint256 _classId) public onlyTeacher {\r\n        string memory randomPwd = getRandomPassword();\r\n        classDetails[_classId].classPwd = uint256(keccak256(abi.encodePacked(randomPwd)));\r\n    }\r\n\r\n    function getRandomPassword() public view returns (string memory) {\r\n        bytes memory characters = \"abcdefghijklmnopqrstuvwxyzABCDEFGHIJKLMNOPQRSTUVWXYZ0123456789@/!#\";\r\n        uint256 length = 15;\r\n        bytes memory password = new bytes(length);\r\n        uint256 seed = uint256(keccak256(abi.encodePacked(block.timestamp, blockhash(block.number - 1), msg.sender)));\r\n\r\n        for (uint256 i = 0; i < length; i++) {\r\n            uint256 randomIndex = seed % characters.length;\r\n            password[i] = characters[randomIndex];\r\n            seed = seed / characters.length;\r\n        }\r\n        return string(password);\r\n    }\r\n\r\n    function getStudentsByTeacher(address teacher) public view onlyTeacher returns (Student[] memory) {\r\n        uint256[] memory subjectIds = new uint256[](subjectCounter);\r\n        uint256 subjectCount = 0;\r\n\r\n        // Find all subjects that this teacher is assigned to\r\n        for (uint256 i = 1; i <= subjectCounter; i++) {\r\n            for (uint256 j = 0; j < subjectDetails[i].teachingTeachers.length; j++) {\r\n                if (subjectDetails[i].teachingTeachers[j].teacherId == teacherDetails[teacher].teacherId) {\r\n                    subjectIds[subjectCount] = i;\r\n                    subjectCount++;\r\n                    break;\r\n                }\r\n            }\r\n        }\r\n\r\n        // Create an array of all students enrolled in the found subjects\r\n        Student[] memory enrolledStudents = new Student[](subjectCount);\r\n        uint256 studentIndex = 0;\r\n        for (uint256 i = 0; i < subjectCount; i++) {\r\n            uint256 subjectId = subjectIds[i];\r\n            for (uint256 j = 0; j < subjectDetails[subjectId].enrolledStudents.length; j++) {\r\n                enrolledStudents[studentIndex] = subjectDetails[subjectId].enrolledStudents[j];\r\n                studentIndex++;\r\n            }\r\n        }\r\n        return enrolledStudents;\r\n    }\r\n\r\n    function removeStudent(address _student) public onlyAdmin {\r\n        delete studentDetails[_student];\r\n    }\r\n\r\n    function removeTeacher(address _teacher) public onlyAdmin {\r\n        delete teacherDetails[_teacher];\r\n    }\r\n\r\n    function removeSubject(uint256 _subjectId) public onlyAdmin {\r\n        delete subjectDetails[_subjectId];\r\n    }\r\n\r\n    function removeClass(uint256 _classId) public onlyAdmin {\r\n        delete classDetails[_classId];\r\n    }\r\n}",
  "sourcePath": "C:\\Users\\User\\Desktop\\dev\\Blockchain\\contracts\\Attendance.sol",
  "compiler": {
    "name": "solc",
    "version": "0.8.0+commit.c7dfd78e.Emscripten.clang"
  },
  "schemaVersion": "3.4.16",
  "updatedAt": "2025-01-19T08:21:24.621Z",
  "networkType": "ethereum",
  "devdoc": {
    "kind": "dev",
    "methods": {},
    "version": 1
  },
  "userdoc": {
    "kind": "user",
    "methods": {},
    "version": 1
  }
}