{
  "contractName": "Attendance",
  "abi": [
    {
      "inputs": [],
      "stateMutability": "nonpayable",
      "type": "constructor"
    },
    {
      "anonymous": false,
      "inputs": [
        {
          "indexed": false,
          "internalType": "uint256",
          "name": "classId",
          "type": "uint256"
        },
        {
          "indexed": false,
          "internalType": "address",
          "name": "student",
          "type": "address"
        }
      ],
      "name": "attendanceMarked",
      "type": "event"
    },
    {
      "anonymous": false,
      "inputs": [
        {
          "indexed": false,
          "internalType": "uint256",
          "name": "classId",
          "type": "uint256"
        },
        {
          "indexed": false,
          "internalType": "uint256",
          "name": "classDate",
          "type": "uint256"
        },
        {
          "indexed": false,
          "internalType": "uint256",
          "name": "subjectId",
          "type": "uint256"
        }
      ],
      "name": "classCreated",
      "type": "event"
    },
    {
      "anonymous": false,
      "inputs": [
        {
          "indexed": false,
          "internalType": "address",
          "name": "student",
          "type": "address"
        },
        {
          "indexed": false,
          "internalType": "string",
          "name": "name",
          "type": "string"
        }
      ],
      "name": "studentAdded",
      "type": "event"
    },
    {
      "anonymous": false,
      "inputs": [
        {
          "indexed": false,
          "internalType": "uint256",
          "name": "subjectId",
          "type": "uint256"
        },
        {
          "indexed": false,
          "internalType": "address",
          "name": "student",
          "type": "address"
        }
      ],
      "name": "studentEnrolled",
      "type": "event"
    },
    {
      "anonymous": false,
      "inputs": [
        {
          "indexed": false,
          "internalType": "uint256",
          "name": "subjectId",
          "type": "uint256"
        },
        {
          "indexed": false,
          "internalType": "string",
          "name": "subjectName",
          "type": "string"
        }
      ],
      "name": "subjectCreated",
      "type": "event"
    },
    {
      "anonymous": false,
      "inputs": [
        {
          "indexed": false,
          "internalType": "address",
          "name": "teacher",
          "type": "address"
        },
        {
          "indexed": false,
          "internalType": "string",
          "name": "name",
          "type": "string"
        }
      ],
      "name": "teacherAdded",
      "type": "event"
    },
    {
      "anonymous": false,
      "inputs": [
        {
          "indexed": false,
          "internalType": "uint256",
          "name": "subjectId",
          "type": "uint256"
        },
        {
          "indexed": false,
          "internalType": "address",
          "name": "teacher",
          "type": "address"
        }
      ],
      "name": "teacherAssigned",
      "type": "event"
    },
    {
      "inputs": [],
      "name": "admin",
      "outputs": [
        {
          "internalType": "address",
          "name": "",
          "type": "address"
        }
      ],
      "stateMutability": "view",
      "type": "function",
      "constant": true
    },
    {
      "inputs": [],
      "name": "classCounter",
      "outputs": [
        {
          "internalType": "uint256",
          "name": "",
          "type": "uint256"
        }
      ],
      "stateMutability": "view",
      "type": "function",
      "constant": true
    },
    {
      "inputs": [
        {
          "internalType": "uint256",
          "name": "",
          "type": "uint256"
        }
      ],
      "name": "classDetails",
      "outputs": [
        {
          "components": [
            {
              "internalType": "uint256",
              "name": "subjectId",
              "type": "uint256"
            },
            {
              "internalType": "string",
              "name": "subjectName",
              "type": "string"
            },
            {
              "components": [
                {
                  "internalType": "uint256",
                  "name": "teacherId",
                  "type": "uint256"
                },
                {
                  "internalType": "string",
                  "name": "name",
                  "type": "string"
                }
              ],
              "internalType": "struct Attendance.Teacher[]",
              "name": "teachingTeachers",
              "type": "tuple[]"
            },
            {
              "components": [
                {
                  "internalType": "uint256",
                  "name": "studentId",
                  "type": "uint256"
                },
                {
                  "internalType": "string",
                  "name": "name",
                  "type": "string"
                }
              ],
              "internalType": "struct Attendance.Student[]",
              "name": "enrolledStudents",
              "type": "tuple[]"
            },
            {
              "internalType": "uint256[]",
              "name": "classIds",
              "type": "uint256[]"
            }
          ],
          "internalType": "struct Attendance.Subject",
          "name": "subject",
          "type": "tuple"
        },
        {
          "internalType": "uint256",
          "name": "classId",
          "type": "uint256"
        },
        {
          "internalType": "uint256",
          "name": "classDate",
          "type": "uint256"
        },
        {
          "internalType": "uint256",
          "name": "classPwd",
          "type": "uint256"
        }
      ],
      "stateMutability": "view",
      "type": "function",
      "constant": true
    },
    {
      "inputs": [
        {
          "internalType": "address",
          "name": "",
          "type": "address"
        }
      ],
      "name": "roles",
      "outputs": [
        {
          "internalType": "string",
          "name": "",
          "type": "string"
        }
      ],
      "stateMutability": "view",
      "type": "function",
      "constant": true
    },
    {
      "inputs": [],
      "name": "studentCounter",
      "outputs": [
        {
          "internalType": "uint256",
          "name": "",
          "type": "uint256"
        }
      ],
      "stateMutability": "view",
      "type": "function",
      "constant": true
    },
    {
      "inputs": [
        {
          "internalType": "address",
          "name": "",
          "type": "address"
        }
      ],
      "name": "studentDetails",
      "outputs": [
        {
          "internalType": "uint256",
          "name": "studentId",
          "type": "uint256"
        },
        {
          "internalType": "string",
          "name": "name",
          "type": "string"
        }
      ],
      "stateMutability": "view",
      "type": "function",
      "constant": true
    },
    {
      "inputs": [
        {
          "internalType": "uint256",
          "name": "",
          "type": "uint256"
        }
      ],
      "name": "students",
      "outputs": [
        {
          "internalType": "uint256",
          "name": "studentId",
          "type": "uint256"
        },
        {
          "internalType": "string",
          "name": "name",
          "type": "string"
        }
      ],
      "stateMutability": "view",
      "type": "function",
      "constant": true
    },
    {
      "inputs": [],
      "name": "subjectCounter",
      "outputs": [
        {
          "internalType": "uint256",
          "name": "",
          "type": "uint256"
        }
      ],
      "stateMutability": "view",
      "type": "function",
      "constant": true
    },
    {
      "inputs": [
        {
          "internalType": "uint256",
          "name": "",
          "type": "uint256"
        }
      ],
      "name": "subjectDetails",
      "outputs": [
        {
          "internalType": "uint256",
          "name": "subjectId",
          "type": "uint256"
        },
        {
          "internalType": "string",
          "name": "subjectName",
          "type": "string"
        }
      ],
      "stateMutability": "view",
      "type": "function",
      "constant": true
    },
    {
      "inputs": [],
      "name": "teacherCounter",
      "outputs": [
        {
          "internalType": "uint256",
          "name": "",
          "type": "uint256"
        }
      ],
      "stateMutability": "view",
      "type": "function",
      "constant": true
    },
    {
      "inputs": [
        {
          "internalType": "address",
          "name": "",
          "type": "address"
        }
      ],
      "name": "teacherDetails",
      "outputs": [
        {
          "internalType": "uint256",
          "name": "teacherId",
          "type": "uint256"
        },
        {
          "internalType": "string",
          "name": "name",
          "type": "string"
        }
      ],
      "stateMutability": "view",
      "type": "function",
      "constant": true
    },
    {
      "inputs": [
        {
          "internalType": "uint256",
          "name": "",
          "type": "uint256"
        }
      ],
      "name": "teachers",
      "outputs": [
        {
          "internalType": "uint256",
          "name": "teacherId",
          "type": "uint256"
        },
        {
          "internalType": "string",
          "name": "name",
          "type": "string"
        }
      ],
      "stateMutability": "view",
      "type": "function",
      "constant": true
    },
    {
      "inputs": [
        {
          "internalType": "address",
          "name": "user",
          "type": "address"
        }
      ],
      "name": "getRole",
      "outputs": [
        {
          "internalType": "string",
          "name": "",
          "type": "string"
        }
      ],
      "stateMutability": "view",
      "type": "function",
      "constant": true
    },
    {
      "inputs": [
        {
          "internalType": "address",
          "name": "_student",
          "type": "address"
        },
        {
          "internalType": "string",
          "name": "_name",
          "type": "string"
        }
      ],
      "name": "addStudent",
      "outputs": [],
      "stateMutability": "nonpayable",
      "type": "function"
    },
    {
      "inputs": [
        {
          "internalType": "address",
          "name": "_teacher",
          "type": "address"
        },
        {
          "internalType": "string",
          "name": "_name",
          "type": "string"
        }
      ],
      "name": "addTeacher",
      "outputs": [],
      "stateMutability": "nonpayable",
      "type": "function"
    },
    {
      "inputs": [
        {
          "internalType": "string",
          "name": "_subjectName",
          "type": "string"
        }
      ],
      "name": "createSubject",
      "outputs": [],
      "stateMutability": "nonpayable",
      "type": "function"
    },
    {
      "inputs": [
        {
          "internalType": "uint256",
          "name": "_classDate",
          "type": "uint256"
        },
        {
          "internalType": "uint256",
          "name": "_subjectId",
          "type": "uint256"
        }
      ],
      "name": "createClass",
      "outputs": [],
      "stateMutability": "nonpayable",
      "type": "function"
    },
    {
      "inputs": [
        {
          "internalType": "uint256",
          "name": "_subjectId",
          "type": "uint256"
        },
        {
          "internalType": "address",
          "name": "_student",
          "type": "address"
        }
      ],
      "name": "enrollStudent",
      "outputs": [],
      "stateMutability": "nonpayable",
      "type": "function"
    },
    {
      "inputs": [
        {
          "internalType": "uint256",
          "name": "_subjectId",
          "type": "uint256"
        },
        {
          "internalType": "address",
          "name": "_teacher",
          "type": "address"
        }
      ],
      "name": "assignTeacher",
      "outputs": [],
      "stateMutability": "nonpayable",
      "type": "function"
    },
    {
      "inputs": [
        {
          "internalType": "uint256",
          "name": "_classId",
          "type": "uint256"
        },
        {
          "internalType": "uint256",
          "name": "_pwd",
          "type": "uint256"
        }
      ],
      "name": "markAttendance",
      "outputs": [],
      "stateMutability": "nonpayable",
      "type": "function"
    },
    {
      "inputs": [
        {
          "internalType": "uint256",
          "name": "_classId",
          "type": "uint256"
        }
      ],
      "name": "checkAttendance",
      "outputs": [
        {
          "internalType": "bool",
          "name": "",
          "type": "bool"
        }
      ],
      "stateMutability": "view",
      "type": "function",
      "constant": true
    },
    {
      "inputs": [
        {
          "internalType": "uint256",
          "name": "_classId",
          "type": "uint256"
        },
        {
          "internalType": "address",
          "name": "_student",
          "type": "address"
        }
      ],
      "name": "checkAttendance",
      "outputs": [
        {
          "internalType": "bool",
          "name": "",
          "type": "bool"
        }
      ],
      "stateMutability": "view",
      "type": "function",
      "constant": true
    },
    {
      "inputs": [
        {
          "internalType": "uint256",
          "name": "_classId",
          "type": "uint256"
        },
        {
          "internalType": "uint256",
          "name": "_seed",
          "type": "uint256"
        }
      ],
      "name": "generateClassPwd",
      "outputs": [],
      "stateMutability": "nonpayable",
      "type": "function"
    },
    {
      "inputs": [
        {
          "internalType": "uint256",
          "name": "seed",
          "type": "uint256"
        }
      ],
      "name": "getRandomNumber",
      "outputs": [
        {
          "internalType": "uint256",
          "name": "",
          "type": "uint256"
        }
      ],
      "stateMutability": "view",
      "type": "function",
      "constant": true
    },
    {
      "inputs": [
        {
          "internalType": "address",
          "name": "_student",
          "type": "address"
        }
      ],
      "name": "removeStudent",
      "outputs": [],
      "stateMutability": "nonpayable",
      "type": "function"
    },
    {
      "inputs": [
        {
          "internalType": "address",
          "name": "_teacher",
          "type": "address"
        }
      ],
      "name": "removeTeacher",
      "outputs": [],
      "stateMutability": "nonpayable",
      "type": "function"
    },
    {
      "inputs": [
        {
          "internalType": "uint256",
          "name": "_subjectId",
          "type": "uint256"
        }
      ],
      "name": "removeSubject",
      "outputs": [],
      "stateMutability": "nonpayable",
      "type": "function"
    },
    {
      "inputs": [
        {
          "internalType": "uint256",
          "name": "_classId",
          "type": "uint256"
        }
      ],
      "name": "removeClass",
      "outputs": [],
      "stateMutability": "nonpayable",
      "type": "function"
    }
  ],
  "bytecode": "0x60806040523480156200001157600080fd5b50336000806101000a81548173ffffffffffffffffffffffffffffffffffffffff021916908373ffffffffffffffffffffffffffffffffffffffff1602179055506040518060400160405280600581526020017f61646d696e000000000000000000000000000000000000000000000000000000815250600b60003373ffffffffffffffffffffffffffffffffffffffff1673ffffffffffffffffffffffffffffffffffffffff1681526020019081526020016000209080519060200190620000dc929190620000e3565b50620001f8565b828054620000f19062000193565b90600052602060002090601f01602090048101928262000115576000855562000161565b82601f106200013057805160ff191683800117855562000161565b8280016001018555821562000161579182015b828111156200016057825182559160200191906001019062000143565b5b50905062000170919062000174565b5090565b5b808211156200018f57600081600090555060010162000175565b5090565b60006002820490506001821680620001ac57607f821691505b60208210811415620001c357620001c2620001c9565b5b50919050565b7f4e487b7100000000000000000000000000000000000000000000000000000000600052602260045260246000fd5b613c3680620002086000396000f3fe608060405234801561001057600080fd5b50600436106101c45760003560e01c806380d01999116100f9578063b0d2429d11610097578063d1939ccf11610071578063d1939ccf1461053a578063e3596cac14610558578063f851a44014610576578063fe24ec6514610594576101c4565b8063b0d2429d146104d2578063b37217a4146104ee578063b6ba72301461051e576101c4565b8063aba42349116100d3578063aba4234914610438578063ac80b4d214610454578063ae504c5c14610470578063aed7419b146104a1576101c4565b806380d01999146103d05780638f5b9b2e146103ec5780639937464214610408576101c4565b806344276733116101665780635e8b8091116101405780635e8b80911461035e5780637194c5b31461037a57806372c30f451461039857806378c4798c146103b4576101c4565b806344276733146102e157806344d370b81461031157806352ff684614610342576101c4565b80632b37f7e7116101a25780632b37f7e71461023257806334ac0b40146102625780633954d58b146102935780633d2d8663146102b1576101c4565b806306ead22e146101c95780630ddb03bb146101fa5780632520f9a114610216575b600080fd5b6101e360048036038101906101de9190612e93565b6105c7565b6040516101f1929190613800565b60405180910390f35b610214600480360381019061020f9190612ebc565b610683565b005b610230600480360381019061022b9190612e52565b610834565b005b61024c60048036038101906102479190612e93565b610992565b6040516102599190613653565b60405180910390f35b61027c60048036038101906102779190612e93565b6109fc565b60405161028a929190613800565b60405180910390f35b61029b610ab8565b6040516102a891906137bc565b60405180910390f35b6102cb60048036038101906102c69190612ebc565b610abe565b6040516102d89190613653565b60405180910390f35b6102fb60048036038101906102f69190612dd5565b610bae565b604051610308919061366e565b60405180910390f35b61032b60048036038101906103269190612dd5565b610c7f565b604051610339929190613800565b60405180910390f35b61035c60048036038101906103579190612dd5565b610d2b565b005b61037860048036038101906103739190612dfe565b6110cd565b005b610382611316565b60405161038f91906137bc565b60405180910390f35b6103b260048036038101906103ad9190612e93565b61131c565b005b6103ce60048036038101906103c99190612dd5565b611466565b005b6103ea60048036038101906103e59190612e93565b611806565b005b61040660048036038101906104019190612dfe565b611931565b005b610422600480360381019061041d9190612dd5565b611b7a565b60405161042f919061366e565b60405180910390f35b610452600480360381019061044d9190612ebc565b611c1a565b005b61046e60048036038101906104699190612ef8565b611dcb565b005b61048a60048036038101906104859190612e93565b6120e9565b604051610498929190613800565b60405180910390f35b6104bb60048036038101906104b69190612dd5565b612195565b6040516104c9929190613800565b60405180910390f35b6104ec60048036038101906104e79190612ef8565b612241565b005b61050860048036038101906105039190612e93565b6122ee565b60405161051591906137bc565b60405180910390f35b61053860048036038101906105339190612ef8565b612327565b005b610542612540565b60405161054f91906137bc565b60405180910390f35b610560612546565b60405161056d91906137bc565b60405180910390f35b61057e61254c565b60405161058b9190613608565b60405180910390f35b6105ae60048036038101906105a99190612e93565b612570565b6040516105be9493929190613770565b60405180910390f35b600181815481106105d757600080fd5b906000526020600020906002020160009150905080600001549080600101805461060090613a7e565b80601f016020809104026020016040519081016040528092919081815260200182805461062c90613a7e565b80156106795780601f1061064e57610100808354040283529160200191610679565b820191906000526020600020905b81548152906001019060200180831161065c57829003601f168201915b5050505050905082565b604051602001610692906135a5565b60405160208183030381529060405280519060200120600b60003373ffffffffffffffffffffffffffffffffffffffff1673ffffffffffffffffffffffffffffffffffffffff1681526020019081526020016000206040516020016106f7919061358e565b604051602081830303815290604052805190602001201461074d576040517f08c379a000000000000000000000000000000000000000000000000000000000815260040161074490613730565b60405180910390fd5b60096000838152602001908152602001600020600201600860008373ffffffffffffffffffffffffffffffffffffffff1673ffffffffffffffffffffffffffffffffffffffff16815260200190815260200160002090806001815401808255809150506001900390600052602060002090600202016000909190919091506000820154816000015560018201816001019080546107e990613a7e565b6107f49291906129b6565b5050507f8c067146ec725333e811330fd75fb90567f7eeca601628b5943875fc4a43723e82826040516108289291906137d7565b60405180910390a15050565b604051602001610843906135a5565b60405160208183030381529060405280519060200120600b60003373ffffffffffffffffffffffffffffffffffffffff1673ffffffffffffffffffffffffffffffffffffffff1681526020019081526020016000206040516020016108a8919061358e565b60405160208183030381529060405280519060200120146108fe576040517f08c379a00000000000000000000000000000000000000000000000000000000081526004016108f590613730565b60405180910390fd5b6004600081548092919061091190613ab0565b919050555060006009600060045481526020019081526020016000209050600454816000018190555081816001019080519060200190610952929190612a43565b507feeb360ad20d46a8343b758e287ec025d44c51139825f3af2950630c14599acbd60045483604051610986929190613800565b60405180910390a15050565b6000600a600083815260200190815260200160002060080160003373ffffffffffffffffffffffffffffffffffffffff1673ffffffffffffffffffffffffffffffffffffffff16815260200190815260200160002060009054906101000a900460ff169050919050565b60028181548110610a0c57600080fd5b9060005260206000209060020201600091509050806000015490806001018054610a3590613a7e565b80601f0160208091040260200160405190810160405280929190818152602001828054610a6190613a7e565b8015610aae5780601f10610a8357610100808354040283529160200191610aae565b820191906000526020600020905b815481529060010190602001808311610a9157829003601f168201915b5050505050905082565b60035481565b600080600860003373ffffffffffffffffffffffffffffffffffffffff1673ffffffffffffffffffffffffffffffffffffffff168152602001908152602001600020600001541415610b45576040517f08c379a0000000000000000000000000000000000000000000000000000000008152600401610b3c90613710565b60405180910390fd5b600a600084815260200190815260200160002060080160008373ffffffffffffffffffffffffffffffffffffffff1673ffffffffffffffffffffffffffffffffffffffff16815260200190815260200160002060009054906101000a900460ff16905092915050565b6060600b60008373ffffffffffffffffffffffffffffffffffffffff1673ffffffffffffffffffffffffffffffffffffffff1681526020019081526020016000208054610bfa90613a7e565b80601f0160208091040260200160405190810160405280929190818152602001828054610c2690613a7e565b8015610c735780601f10610c4857610100808354040283529160200191610c73565b820191906000526020600020905b815481529060010190602001808311610c5657829003601f168201915b50505050509050919050565b6008602052806000526040600020600091509050806000015490806001018054610ca890613a7e565b80601f0160208091040260200160405190810160405280929190818152602001828054610cd490613a7e565b8015610d215780601f10610cf657610100808354040283529160200191610d21565b820191906000526020600020905b815481529060010190602001808311610d0457829003601f168201915b5050505050905082565b604051602001610d3a906135a5565b60405160208183030381529060405280519060200120600b60003373ffffffffffffffffffffffffffffffffffffffff1673ffffffffffffffffffffffffffffffffffffffff168152602001908152602001600020604051602001610d9f919061358e565b6040516020818303038152906040528051906020012014610df5576040517f08c379a0000000000000000000000000000000000000000000000000000000008152600401610dec90613730565b60405180910390fd5b6000600860008373ffffffffffffffffffffffffffffffffffffffff1673ffffffffffffffffffffffffffffffffffffffff168152602001908152602001600020600001541415610e7b576040517f08c379a0000000000000000000000000000000000000000000000000000000008152600401610e7290613750565b60405180910390fd5b600860008273ffffffffffffffffffffffffffffffffffffffff1673ffffffffffffffffffffffffffffffffffffffff168152602001908152602001600020600080820160009055600182016000610ed39190612ac9565b505060005b6002805490508110156110c957600860008373ffffffffffffffffffffffffffffffffffffffff1673ffffffffffffffffffffffffffffffffffffffff1681526020019081526020016000206000015460028281548110610f62577f4e487b7100000000000000000000000000000000000000000000000000000000600052603260045260246000fd5b90600052602060002090600202016000015414156110b65760026001600280549050610f8e91906139c0565b81548110610fc5577f4e487b7100000000000000000000000000000000000000000000000000000000600052603260045260246000fd5b90600052602060002090600202016002828154811061100d577f4e487b7100000000000000000000000000000000000000000000000000000000600052603260045260246000fd5b906000526020600020906002020160008201548160000155600182018160010190805461103990613a7e565b6110449291906129b6565b509050506002805480611080577f4e487b7100000000000000000000000000000000000000000000000000000000600052603160045260246000fd5b60019003818190600052602060002090600202016000808201600090556001820160006110ad9190612ac9565b505090556110c9565b80806110c190613ab0565b915050610ed8565b5050565b6040516020016110dc906135a5565b60405160208183030381529060405280519060200120600b60003373ffffffffffffffffffffffffffffffffffffffff1673ffffffffffffffffffffffffffffffffffffffff168152602001908152602001600020604051602001611141919061358e565b6040516020818303038152906040528051906020012014611197576040517f08c379a000000000000000000000000000000000000000000000000000000000815260040161118e90613730565b60405180910390fd5b600560008154809291906111aa90613ab0565b91905055506040518060400160405280600554815260200182815250600760008473ffffffffffffffffffffffffffffffffffffffff1673ffffffffffffffffffffffffffffffffffffffff16815260200190815260200160002060008201518160000155602082015181600101908051906020019061122b929190612a43565b50905050600160405180604001604052806005548152602001838152509080600181540180825580915050600190039060005260206000209060020201600090919091909150600082015181600001556020820151816001019080519060200190611297929190612a43565b5050506112d9826040518060400160405280600781526020017f73747564656e7400000000000000000000000000000000000000000000000000815250612894565b7f94a56de67dd66b06691e0bd81e5b57fbf02e3ce04576def9d15b6371a0109fd2828260405161130a929190613623565b60405180910390a15050565b60065481565b60405160200161132b906135a5565b60405160208183030381529060405280519060200120600b60003373ffffffffffffffffffffffffffffffffffffffff1673ffffffffffffffffffffffffffffffffffffffff168152602001908152602001600020604051602001611390919061358e565b60405160208183030381529060405280519060200120146113e6576040517f08c379a00000000000000000000000000000000000000000000000000000000081526004016113dd90613730565b60405180910390fd5b600a600082815260200190815260200160002060008082016000808201600090556001820160006114179190612ac9565b6002820160006114279190612b09565b6003820160006114379190612b2d565b6004820160006114479190612b51565b5050600582016000905560068201600090556007820160009055505050565b604051602001611475906135a5565b60405160208183030381529060405280519060200120600b60003373ffffffffffffffffffffffffffffffffffffffff1673ffffffffffffffffffffffffffffffffffffffff1681526020019081526020016000206040516020016114da919061358e565b6040516020818303038152906040528051906020012014611530576040517f08c379a000000000000000000000000000000000000000000000000000000000815260040161152790613730565b60405180910390fd5b6000600760008373ffffffffffffffffffffffffffffffffffffffff1673ffffffffffffffffffffffffffffffffffffffff1681526020019081526020016000206000015414156115b6576040517f08c379a00000000000000000000000000000000000000000000000000000000081526004016115ad906136b0565b60405180910390fd5b600760008273ffffffffffffffffffffffffffffffffffffffff1673ffffffffffffffffffffffffffffffffffffffff16815260200190815260200160002060008082016000905560018201600061160e9190612ac9565b505060005b60018054905081101561180257600760008373ffffffffffffffffffffffffffffffffffffffff1673ffffffffffffffffffffffffffffffffffffffff168152602001908152602001600020600001546001828154811061169d577f4e487b7100000000000000000000000000000000000000000000000000000000600052603260045260246000fd5b90600052602060002090600202016000015414156117ef5760018080805490506116c791906139c0565b815481106116fe577f4e487b7100000000000000000000000000000000000000000000000000000000600052603260045260246000fd5b906000526020600020906002020160018281548110611746577f4e487b7100000000000000000000000000000000000000000000000000000000600052603260045260246000fd5b906000526020600020906002020160008201548160000155600182018160010190805461177290613a7e565b61177d9291906129b6565b5090505060018054806117b9577f4e487b7100000000000000000000000000000000000000000000000000000000600052603160045260246000fd5b60019003818190600052602060002090600202016000808201600090556001820160006117e69190612ac9565b50509055611802565b80806117fa90613ab0565b915050611613565b5050565b604051602001611815906135a5565b60405160208183030381529060405280519060200120600b60003373ffffffffffffffffffffffffffffffffffffffff1673ffffffffffffffffffffffffffffffffffffffff16815260200190815260200160002060405160200161187a919061358e565b60405160208183030381529060405280519060200120146118d0576040517f08c379a00000000000000000000000000000000000000000000000000000000081526004016118c790613730565b60405180910390fd5b600960008281526020019081526020016000206000808201600090556001820160006118fc9190612ac9565b60028201600061190c9190612b09565b60038201600061191c9190612b2d565b60048201600061192c9190612b51565b505050565b604051602001611940906135a5565b60405160208183030381529060405280519060200120600b60003373ffffffffffffffffffffffffffffffffffffffff1673ffffffffffffffffffffffffffffffffffffffff1681526020019081526020016000206040516020016119a5919061358e565b60405160208183030381529060405280519060200120146119fb576040517f08c379a00000000000000000000000000000000000000000000000000000000081526004016119f290613730565b60405180910390fd5b60066000815480929190611a0e90613ab0565b91905055506040518060400160405280600654815260200182815250600860008473ffffffffffffffffffffffffffffffffffffffff1673ffffffffffffffffffffffffffffffffffffffff168152602001908152602001600020600082015181600001556020820151816001019080519060200190611a8f929190612a43565b50905050600260405180604001604052806006548152602001838152509080600181540180825580915050600190039060005260206000209060020201600090919091909150600082015181600001556020820151816001019080519060200190611afb929190612a43565b505050611b3d826040518060400160405280600781526020017f7465616368657200000000000000000000000000000000000000000000000000815250612894565b7f6996ba1536de57e4c72a268600ac97e3feae59f326494fce7dc56c6c6de959e38282604051611b6e929190613623565b60405180910390a15050565b600b6020528060005260406000206000915090508054611b9990613a7e565b80601f0160208091040260200160405190810160405280929190818152602001828054611bc590613a7e565b8015611c125780601f10611be757610100808354040283529160200191611c12565b820191906000526020600020905b815481529060010190602001808311611bf557829003601f168201915b505050505081565b604051602001611c29906135a5565b60405160208183030381529060405280519060200120600b60003373ffffffffffffffffffffffffffffffffffffffff1673ffffffffffffffffffffffffffffffffffffffff168152602001908152602001600020604051602001611c8e919061358e565b6040516020818303038152906040528051906020012014611ce4576040517f08c379a0000000000000000000000000000000000000000000000000000000008152600401611cdb90613730565b60405180910390fd5b60096000838152602001908152602001600020600301600760008373ffffffffffffffffffffffffffffffffffffffff1673ffffffffffffffffffffffffffffffffffffffff1681526020019081526020016000209080600181540180825580915050600190039060005260206000209060020201600090919091909150600082015481600001556001820181600101908054611d8090613a7e565b611d8b9291906129b6565b5050507f330f6a5433c3d731bf2a234085fc8f11bd40cdbdd41b574d8570189c6ea277cb8282604051611dbf9291906137d7565b60405180910390a15050565b600a6000838152602001908152602001600020600501546000805b60096000600a600086815260200190815260200160002060000160000154815260200190815260200160002060030180549050811015611efe57600760003373ffffffffffffffffffffffffffffffffffffffff1673ffffffffffffffffffffffffffffffffffffffff1681526020019081526020016000206000015460096000600a60008781526020019081526020016000206000016000015481526020019081526020016000206003018281548110611eca577f4e487b7100000000000000000000000000000000000000000000000000000000600052603260045260246000fd5b9060005260206000209060020201600001541415611eeb5760019150611efe565b8080611ef690613ab0565b915050611de6565b5080611f3f576040517f08c379a0000000000000000000000000000000000000000000000000000000008152600401611f3690613690565b60405180910390fd5b60001515600a600086815260200190815260200160002060080160003373ffffffffffffffffffffffffffffffffffffffff1673ffffffffffffffffffffffffffffffffffffffff16815260200190815260200160002060009054906101000a900460ff16151514611fe6576040517f08c379a0000000000000000000000000000000000000000000000000000000008152600401611fdd906136d0565b60405180910390fd5b82600a6000868152602001908152602001600020600701541461203e576040517f08c379a0000000000000000000000000000000000000000000000000000000008152600401612035906136f0565b60405180910390fd5b6001600a600086815260200190815260200160002060080160003373ffffffffffffffffffffffffffffffffffffffff1673ffffffffffffffffffffffffffffffffffffffff16815260200190815260200160002060006101000a81548160ff0219169083151502179055507f1fc08eb0c2f0125b980d5b8b9c7d0c66f56fe49ed88c804b350f31b0130cda3884336040516120db9291906137d7565b60405180910390a150505050565b600960205280600052604060002060009150905080600001549080600101805461211290613a7e565b80601f016020809104026020016040519081016040528092919081815260200182805461213e90613a7e565b801561218b5780601f106121605761010080835404028352916020019161218b565b820191906000526020600020905b81548152906001019060200180831161216e57829003601f168201915b5050505050905082565b60076020528060005260406000206000915090508060000154908060010180546121be90613a7e565b80601f01602080910402602001604051908101604052809291908181526020018280546121ea90613a7e565b80156122375780601f1061220c57610100808354040283529160200191612237565b820191906000526020600020905b81548152906001019060200180831161221a57829003601f168201915b5050505050905082565b6000600860003373ffffffffffffffffffffffffffffffffffffffff1673ffffffffffffffffffffffffffffffffffffffff1681526020019081526020016000206000015414156122c7576040517f08c379a00000000000000000000000000000000000000000000000000000000081526004016122be90613710565b60405180910390fd5b6122d0816122ee565b600a6000848152602001908152602001600020600701819055505050565b60004242338460405160200161230794939291906135ba565b6040516020818303038152906040528051906020012060001c9050919050565b604051602001612336906135a5565b60405160208183030381529060405280519060200120600b60003373ffffffffffffffffffffffffffffffffffffffff1673ffffffffffffffffffffffffffffffffffffffff16815260200190815260200160002060405160200161239b919061358e565b60405160208183030381529060405280519060200120146123f1576040517f08c379a00000000000000000000000000000000000000000000000000000000081526004016123e890613730565b60405180910390fd5b6003600081548092919061240490613ab0565b91905055506000600a600060035481526020019081526020016000209050600960008381526020019081526020016000208160000160008201548160000155600182018160010190805461245790613a7e565b6124629291906129b6565b506002820181600201908054612479929190612b72565b506003820181600301908054612490929190612bf4565b5060048201816004019080546124a7929190612c76565b5090505060035481600501819055508281600601819055506009600083815260200190815260200160002060040160035490806001815401808255809150506001900390600052602060002001600090919091909150557f5a3a80d0fae53d263cc7f8adc9b489c04a64d1f61278a26b20f7b67ebca6aa27600354848460405161253393929190613830565b60405180910390a1505050565b60045481565b60055481565b60008054906101000a900473ffffffffffffffffffffffffffffffffffffffff1681565b600a602052806000526040600020600091509050806000016040518060a0016040529081600082015481526020016001820180546125ad90613a7e565b80601f01602080910402602001604051908101604052809291908181526020018280546125d990613a7e565b80156126265780601f106125fb57610100808354040283529160200191612626565b820191906000526020600020905b81548152906001019060200180831161260957829003601f168201915b5050505050815260200160028201805480602002602001604051908101604052809291908181526020016000905b8282101561272257838290600052602060002090600202016040518060400160405290816000820154815260200160018201805461269190613a7e565b80601f01602080910402602001604051908101604052809291908181526020018280546126bd90613a7e565b801561270a5780601f106126df5761010080835404028352916020019161270a565b820191906000526020600020905b8154815290600101906020018083116126ed57829003601f168201915b50505050508152505081526020019060010190612654565b50505050815260200160038201805480602002602001604051908101604052809291908181526020016000905b8282101561281d57838290600052602060002090600202016040518060400160405290816000820154815260200160018201805461278c90613a7e565b80601f01602080910402602001604051908101604052809291908181526020018280546127b890613a7e565b80156128055780601f106127da57610100808354040283529160200191612805565b820191906000526020600020905b8154815290600101906020018083116127e857829003601f168201915b5050505050815250508152602001906001019061274f565b5050505081526020016004820180548060200260200160405190810160405280929190818152602001828054801561287457602002820191906000526020600020905b815481526020019060010190808311612860575b505050505081525050908060050154908060060154908060070154905084565b6040516020016128a3906135a5565b60405160208183030381529060405280519060200120600b60003373ffffffffffffffffffffffffffffffffffffffff1673ffffffffffffffffffffffffffffffffffffffff168152602001908152602001600020604051602001612908919061358e565b604051602081830303815290604052805190602001201461295e576040517f08c379a000000000000000000000000000000000000000000000000000000000815260040161295590613730565b60405180910390fd5b80600b60008473ffffffffffffffffffffffffffffffffffffffff1673ffffffffffffffffffffffffffffffffffffffff16815260200190815260200160002090805190602001906129b1929190612a43565b505050565b8280546129c290613a7e565b90600052602060002090601f0160209004810192826129e45760008555612a32565b82601f106129f55780548555612a32565b82800160010185558215612a3257600052602060002091601f016020900482015b82811115612a31578254825591600101919060010190612a16565b5b509050612a3f9190612cc8565b5090565b828054612a4f90613a7e565b90600052602060002090601f016020900481019282612a715760008555612ab8565b82601f10612a8a57805160ff1916838001178555612ab8565b82800160010185558215612ab8579182015b82811115612ab7578251825591602001919060010190612a9c565b5b509050612ac59190612cc8565b5090565b508054612ad590613a7e565b6000825580601f10612ae75750612b06565b601f016020900490600052602060002090810190612b059190612cc8565b5b50565b5080546000825560020290600052602060002090810190612b2a9190612ce5565b50565b5080546000825560020290600052602060002090810190612b4e9190612d14565b50565b5080546000825590600052602060002090810190612b6f9190612cc8565b50565b828054828255906000526020600020906002028101928215612be35760005260206000209160020282015b82811115612be2578282600082015481600001556001820181600101908054612bc590613a7e565b612bd09291906129b6565b50505091600201919060020190612b9d565b5b509050612bf09190612ce5565b5090565b828054828255906000526020600020906002028101928215612c655760005260206000209160020282015b82811115612c64578282600082015481600001556001820181600101908054612c4790613a7e565b612c529291906129b6565b50505091600201919060020190612c1f565b5b509050612c729190612d14565b5090565b828054828255906000526020600020908101928215612cb75760005260206000209182015b82811115612cb6578254825591600101919060010190612c9b565b5b509050612cc49190612cc8565b5090565b5b80821115612ce1576000816000905550600101612cc9565b5090565b5b80821115612d1057600080820160009055600182016000612d079190612ac9565b50600201612ce6565b5090565b5b80821115612d3f57600080820160009055600182016000612d369190612ac9565b50600201612d15565b5090565b6000612d56612d5184613898565b613867565b905082815260208101848484011115612d6e57600080fd5b612d79848285613a3c565b509392505050565b600081359050612d9081613bd2565b92915050565b600082601f830112612da757600080fd5b8135612db7848260208601612d43565b91505092915050565b600081359050612dcf81613be9565b92915050565b600060208284031215612de757600080fd5b6000612df584828501612d81565b91505092915050565b60008060408385031215612e1157600080fd5b6000612e1f85828601612d81565b925050602083013567ffffffffffffffff811115612e3c57600080fd5b612e4885828601612d96565b9150509250929050565b600060208284031215612e6457600080fd5b600082013567ffffffffffffffff811115612e7e57600080fd5b612e8a84828501612d96565b91505092915050565b600060208284031215612ea557600080fd5b6000612eb384828501612dc0565b91505092915050565b60008060408385031215612ecf57600080fd5b6000612edd85828601612dc0565b9250506020612eee85828601612d81565b9150509250929050565b60008060408385031215612f0b57600080fd5b6000612f1985828601612dc0565b9250506020612f2a85828601612dc0565b9150509250929050565b6000612f408383613454565b905092915050565b6000612f54838361351c565b905092915050565b6000612f688383613559565b60208301905092915050565b612f7d816139f4565b82525050565b612f94612f8f826139f4565b613af9565b82525050565b6000612fa58261390d565b612faf8185613960565b935083602082028501612fc1856138c8565b8060005b85811015612ffd5784840389528151612fde8582612f34565b9450612fe983613939565b925060208a01995050600181019050612fc5565b50829750879550505050505092915050565b600061301a82613918565b6130248185613971565b935083602082028501613036856138d8565b8060005b8581101561307257848403895281516130538582612f48565b945061305e83613946565b925060208a0199505060018101905061303a565b50829750879550505050505092915050565b600061308f82613923565b6130998185613982565b93506130a4836138e8565b8060005b838110156130d55781516130bc8882612f5c565b97506130c783613953565b9250506001810190506130a8565b5085935050505092915050565b6130eb81613a06565b82525050565b60006130fc8261392e565b6131068185613993565b9350613116818560208601613a4b565b61311f81613bb4565b840191505092915050565b60006131358261392e565b61313f81856139a4565b935061314f818560208601613a4b565b61315881613bb4565b840191505092915050565b6000815461317081613a7e565b61317a81866139b5565b9450600182166000811461319557600181146131a6576131d9565b60ff198316865281860193506131d9565b6131af856138f8565b60005b838110156131d1578154818901526001820191506020810190506131b2565b838801955050505b50505092915050565b60006131ef602d836139a4565b91507f4f6e6c7920656e726f6c6c65642073747564656e74732063616e2063616c6c2060008301527f746869732066756e6374696f6e000000000000000000000000000000000000006020830152604082019050919050565b60006132556016836139a4565b91507f53747564656e7420646f6573206e6f74206578697374000000000000000000006000830152602082019050919050565b60006132956019836139a4565b91507f417474656e64616e636520616c7265616479206d61726b6564000000000000006000830152602082019050919050565b60006132d56010836139a4565b91507f496e76616c69642070617373776f7264000000000000000000000000000000006000830152602082019050919050565b60006133156024836139a4565b91507f4f6e6c792074656163686572732063616e2063616c6c20746869732066756e6360008301527f74696f6e000000000000000000000000000000000000000000000000000000006020830152604082019050919050565b600061337b6021836139a4565b91507f4f6e6c792061646d696e2063616e2063616c6c20746869732066756e6374696f60008301527f6e000000000000000000000000000000000000000000000000000000000000006020830152604082019050919050565b60006133e16005836139b5565b91507f61646d696e0000000000000000000000000000000000000000000000000000006000830152600582019050919050565b60006134216016836139a4565b91507f5465616368657220646f6573206e6f74206578697374000000000000000000006000830152602082019050919050565b600060408301600083015161346c6000860182613559565b506020830151848203602086015261348482826130f1565b9150508091505092915050565b600060a0830160008301516134a96000860182613559565b50602083015184820360208601526134c182826130f1565b915050604083015184820360408601526134db828261300f565b915050606083015184820360608601526134f58282612f9a565b9150506080830151848203608086015261350f8282613084565b9150508091505092915050565b60006040830160008301516135346000860182613559565b506020830151848203602086015261354c82826130f1565b9150508091505092915050565b61356281613a32565b82525050565b61357181613a32565b82525050565b61358861358382613a32565b613b1d565b82525050565b600061359a8284613163565b915081905092915050565b60006135b0826133d4565b9150819050919050565b60006135c68287613577565b6020820191506135d68286613577565b6020820191506135e68285612f83565b6014820191506135f68284613577565b60208201915081905095945050505050565b600060208201905061361d6000830184612f74565b92915050565b60006040820190506136386000830185612f74565b818103602083015261364a818461312a565b90509392505050565b600060208201905061366860008301846130e2565b92915050565b60006020820190508181036000830152613688818461312a565b905092915050565b600060208201905081810360008301526136a9816131e2565b9050919050565b600060208201905081810360008301526136c981613248565b9050919050565b600060208201905081810360008301526136e981613288565b9050919050565b60006020820190508181036000830152613709816132c8565b9050919050565b6000602082019050818103600083015261372981613308565b9050919050565b600060208201905081810360008301526137498161336e565b9050919050565b6000602082019050818103600083015261376981613414565b9050919050565b6000608082019050818103600083015261378a8187613491565b90506137996020830186613568565b6137a66040830185613568565b6137b36060830184613568565b95945050505050565b60006020820190506137d16000830184613568565b92915050565b60006040820190506137ec6000830185613568565b6137f96020830184612f74565b9392505050565b60006040820190506138156000830185613568565b8181036020830152613827818461312a565b90509392505050565b60006060820190506138456000830186613568565b6138526020830185613568565b61385f6040830184613568565b949350505050565b6000604051905081810181811067ffffffffffffffff8211171561388e5761388d613b85565b5b8060405250919050565b600067ffffffffffffffff8211156138b3576138b2613b85565b5b601f19601f8301169050602081019050919050565b6000819050602082019050919050565b6000819050602082019050919050565b6000819050602082019050919050565b60008190508160005260206000209050919050565b600081519050919050565b600081519050919050565b600081519050919050565b600081519050919050565b6000602082019050919050565b6000602082019050919050565b6000602082019050919050565b600082825260208201905092915050565b600082825260208201905092915050565b600082825260208201905092915050565b600082825260208201905092915050565b600082825260208201905092915050565b600081905092915050565b60006139cb82613a32565b91506139d683613a32565b9250828210156139e9576139e8613b27565b5b828203905092915050565b60006139ff82613a12565b9050919050565b60008115159050919050565b600073ffffffffffffffffffffffffffffffffffffffff82169050919050565b6000819050919050565b82818337600083830152505050565b60005b83811015613a69578082015181840152602081019050613a4e565b83811115613a78576000848401525b50505050565b60006002820490506001821680613a9657607f821691505b60208210811415613aaa57613aa9613b56565b5b50919050565b6000613abb82613a32565b91507fffffffffffffffffffffffffffffffffffffffffffffffffffffffffffffffff821415613aee57613aed613b27565b5b600182019050919050565b6000613b0482613b0b565b9050919050565b6000613b1682613bc5565b9050919050565b6000819050919050565b7f4e487b7100000000000000000000000000000000000000000000000000000000600052601160045260246000fd5b7f4e487b7100000000000000000000000000000000000000000000000000000000600052602260045260246000fd5b7f4e487b7100000000000000000000000000000000000000000000000000000000600052604160045260246000fd5b6000601f19601f8301169050919050565b60008160601b9050919050565b613bdb816139f4565b8114613be657600080fd5b50565b613bf281613a32565b8114613bfd57600080fd5b5056fea2646970667358221220e12e92d911ebda795ed579b6122b349d15088ffd9db87824baec4429a7360bb464736f6c63430008000033",
  "immutableReferences": {},
  "source": "//SPDX-License-Identifier: MIT\r\n\r\npragma solidity ^0.8.0;\r\n\r\ncontract Attendance {\r\n\r\n    address public admin;\r\n    Student[] public students;\r\n    Teacher[] public teachers;\r\n    uint256 public classCounter;\r\n    uint256 public subjectCounter;\r\n    uint256 public studentCounter;\r\n    uint256 public teacherCounter;\r\n\r\n    struct Student {\r\n        uint256 studentId;\r\n        string name;\r\n    }\r\n\r\n    struct Teacher {\r\n        uint256 teacherId;\r\n        string name;\r\n    }\r\n\r\n    struct Subject {\r\n        uint256 subjectId;\r\n        string subjectName;\r\n        Teacher[] teachingTeachers;\r\n        Student[] enrolledStudents;\r\n        uint256[] classIds;\r\n    }\r\n\r\n    struct Class {\r\n        Subject subject;\r\n        uint256 classId;\r\n        uint256 classDate;\r\n        uint256 classPwd;\r\n        mapping(address => bool) attendance;\r\n    }\r\n\r\n    event studentAdded(address student, string name);\r\n    event teacherAdded(address teacher, string name);\r\n    event subjectCreated(uint256 subjectId, string subjectName);\r\n    event classCreated(uint256 classId, uint256 classDate, uint256 subjectId);\r\n    event studentEnrolled(uint256 subjectId, address student);\r\n    event teacherAssigned(uint256 subjectId, address teacher);\r\n    event attendanceMarked(uint256 classId, address student);\r\n\r\n\r\n    mapping(address => Student) public studentDetails;\r\n    mapping(address => Teacher) public teacherDetails;\r\n    mapping(uint256 => Subject) public subjectDetails;\r\n    mapping(uint256 => Class) public classDetails;\r\n\r\n    mapping(address => string) public roles;\r\n\r\n    constructor() {\r\n        admin = msg.sender;\r\n        roles[msg.sender] = \"admin\"; // Contract deployer is the admin\r\n    }\r\n\r\n    modifier onlyAdmin() {\r\n        require(keccak256(abi.encodePacked(roles[msg.sender])) == keccak256(abi.encodePacked(\"admin\")), \"Only admin can call this function\");\r\n        _;\r\n    }\r\n\r\n    modifier onlyTeacher() {\r\n        require(teacherDetails[msg.sender].teacherId != 0, \"Only teachers can call this function\");\r\n        _;\r\n    }\r\n\r\n    modifier onlyStudent() {\r\n        require(studentDetails[msg.sender].studentId != 0, \"Only students can call this function\");\r\n        _;\r\n    }\r\n\r\n    modifier onlyEnrolledStudent(uint256 classId) {\r\n        bool isEnrolled = false;\r\n        for (uint256 i = 0; i < subjectDetails[classDetails[classId].subject.subjectId].enrolledStudents.length; i++) {\r\n            if (subjectDetails[classDetails[classId].subject.subjectId].enrolledStudents[i].studentId == studentDetails[msg.sender].studentId) {\r\n                isEnrolled = true;\r\n                break;\r\n            }\r\n        }\r\n        require(isEnrolled, \"Only enrolled students can call this function\");\r\n        _;\r\n    }\r\n\r\n    function assignRole(address user, string memory role) internal onlyAdmin {\r\n        roles[user] = role;\r\n    }\r\n\r\n    function getRole(address user) public view returns (string memory) {\r\n        return roles[user];\r\n    }\r\n\r\n    function addStudent(address _student, string memory _name) public onlyAdmin {\r\n        studentCounter++;\r\n        studentDetails[_student] = Student(studentCounter, _name);\r\n        students.push(Student(studentCounter, _name));\r\n        assignRole(_student, \"student\");\r\n\r\n        emit studentAdded(_student, _name);\r\n    }   \r\n\r\n    function addTeacher(address _teacher, string memory _name) public onlyAdmin {\r\n        teacherCounter++;\r\n        teacherDetails[_teacher] = Teacher(teacherCounter,_name);\r\n        teachers.push(Teacher(teacherCounter, _name));\r\n        assignRole(_teacher, \"teacher\");\r\n\r\n        emit teacherAdded(_teacher, _name);\r\n    }\r\n\r\n    function createSubject(string memory _subjectName) public onlyAdmin {\r\n        subjectCounter++;\r\n        Subject storage newSubject = subjectDetails[subjectCounter];\r\n        newSubject.subjectId=subjectCounter;\r\n        newSubject.subjectName = _subjectName;\r\n\r\n        emit subjectCreated(subjectCounter, _subjectName);\r\n    }\r\n\r\n    function createClass(uint256 _classDate, uint256 _subjectId) public onlyAdmin {\r\n        classCounter++;\r\n        \r\n        Class storage newClass = classDetails[classCounter];\r\n        newClass.subject = subjectDetails[_subjectId];\r\n        newClass.classId = classCounter;\r\n        newClass.classDate = _classDate;\r\n        subjectDetails[_subjectId].classIds.push(classCounter);\r\n\r\n        emit classCreated(classCounter, _classDate, _subjectId);\r\n    }\r\n\r\n    function enrollStudent(uint256 _subjectId, address _student) public onlyAdmin {\r\n        subjectDetails[_subjectId].enrolledStudents.push(studentDetails[_student]);\r\n\r\n        emit studentEnrolled(_subjectId, _student);\r\n    }\r\n\r\n    function assignTeacher(uint256 _subjectId, address _teacher) public onlyAdmin {\r\n        subjectDetails[_subjectId].teachingTeachers.push(teacherDetails[_teacher]);\r\n\r\n        emit teacherAssigned(_subjectId, _teacher);\r\n    }\r\n\r\n    function markAttendance(uint256 _classId, uint256 _pwd) public onlyEnrolledStudent(classDetails[_classId].classId) {\r\n        require(classDetails[_classId].attendance[msg.sender] == false, \"Attendance already marked\");\r\n        require(classDetails[_classId].classPwd == _pwd, \"Invalid password\");\r\n        classDetails[_classId].attendance[msg.sender] = true;\r\n\r\n        emit attendanceMarked(_classId, msg.sender);\r\n    }\r\n\r\n    function checkAttendance(uint256 _classId) public view returns (bool) {\r\n        return classDetails[_classId].attendance[msg.sender];\r\n    }\r\n\r\n    function checkAttendance(uint256 _classId, address _student) public view onlyTeacher returns (bool) {\r\n        return classDetails[_classId].attendance[_student];\r\n    }\r\n\r\n    function generateClassPwd(uint256 _classId, uint256 _seed) public onlyTeacher {\r\n        classDetails[_classId].classPwd = getRandomNumber(_seed);\r\n    }\r\n\r\n    function getRandomNumber(uint256 seed) public view returns (uint256) {\r\n        return uint256(keccak256(abi.encodePacked(block.timestamp, block.timestamp, msg.sender, seed)));\r\n    }\r\n\r\n    function removeStudent(address _student) public onlyAdmin {\r\n        delete studentDetails[_student];\r\n    }\r\n\r\n    function removeTeacher(address _teacher) public onlyAdmin {\r\n        delete teacherDetails[_teacher];\r\n    }\r\n\r\n    function removeSubject(uint256 _subjectId) public onlyAdmin {\r\n        delete subjectDetails[_subjectId];\r\n    }\r\n\r\n    function removeClass(uint256 _classId) public onlyAdmin {\r\n        delete classDetails[_classId];\r\n    }\r\n\r\n}",
  "sourcePath": "C:\\Users\\User\\Desktop\\dev\\Blockchain\\contracts\\Attendance.sol",
  "compiler": {
    "name": "solc",
    "version": "0.8.0+commit.c7dfd78e.Emscripten.clang"
  },
  "schemaVersion": "3.4.16",
  "updatedAt": "2025-01-18T10:41:02.750Z",
  "networkType": "ethereum",
  "devdoc": {
    "kind": "dev",
    "methods": {},
    "version": 1
  },
  "userdoc": {
    "kind": "user",
    "methods": {},
    "version": 1
  }
}