{
  "contractName": "Attendance",
  "abi": [
    {
      "inputs": [],
      "stateMutability": "nonpayable",
      "type": "constructor"
    },
    {
      "anonymous": false,
      "inputs": [
        {
          "indexed": false,
          "internalType": "uint256",
          "name": "classId",
          "type": "uint256"
        },
        {
          "indexed": false,
          "internalType": "address",
          "name": "student",
          "type": "address"
        }
      ],
      "name": "attendanceMarked",
      "type": "event"
    },
    {
      "anonymous": false,
      "inputs": [
        {
          "indexed": false,
          "internalType": "uint256",
          "name": "classId",
          "type": "uint256"
        },
        {
          "indexed": false,
          "internalType": "uint256",
          "name": "classDate",
          "type": "uint256"
        },
        {
          "indexed": false,
          "internalType": "uint256",
          "name": "subjectId",
          "type": "uint256"
        }
      ],
      "name": "classCreated",
      "type": "event"
    },
    {
      "anonymous": false,
      "inputs": [
        {
          "indexed": false,
          "internalType": "address",
          "name": "student",
          "type": "address"
        },
        {
          "indexed": false,
          "internalType": "string",
          "name": "name",
          "type": "string"
        }
      ],
      "name": "studentAdded",
      "type": "event"
    },
    {
      "anonymous": false,
      "inputs": [
        {
          "indexed": false,
          "internalType": "uint256",
          "name": "subjectId",
          "type": "uint256"
        },
        {
          "indexed": false,
          "internalType": "address",
          "name": "student",
          "type": "address"
        }
      ],
      "name": "studentEnrolled",
      "type": "event"
    },
    {
      "anonymous": false,
      "inputs": [
        {
          "indexed": false,
          "internalType": "uint256",
          "name": "subjectId",
          "type": "uint256"
        },
        {
          "indexed": false,
          "internalType": "string",
          "name": "subjectName",
          "type": "string"
        }
      ],
      "name": "subjectCreated",
      "type": "event"
    },
    {
      "anonymous": false,
      "inputs": [
        {
          "indexed": false,
          "internalType": "address",
          "name": "teacher",
          "type": "address"
        },
        {
          "indexed": false,
          "internalType": "string",
          "name": "name",
          "type": "string"
        }
      ],
      "name": "teacherAdded",
      "type": "event"
    },
    {
      "anonymous": false,
      "inputs": [
        {
          "indexed": false,
          "internalType": "uint256",
          "name": "subjectId",
          "type": "uint256"
        },
        {
          "indexed": false,
          "internalType": "address",
          "name": "teacher",
          "type": "address"
        }
      ],
      "name": "teacherAssigned",
      "type": "event"
    },
    {
      "inputs": [],
      "name": "admin",
      "outputs": [
        {
          "internalType": "address",
          "name": "",
          "type": "address"
        }
      ],
      "stateMutability": "view",
      "type": "function",
      "constant": true
    },
    {
      "inputs": [],
      "name": "classCounter",
      "outputs": [
        {
          "internalType": "uint256",
          "name": "",
          "type": "uint256"
        }
      ],
      "stateMutability": "view",
      "type": "function",
      "constant": true
    },
    {
      "inputs": [
        {
          "internalType": "uint256",
          "name": "",
          "type": "uint256"
        }
      ],
      "name": "classDetails",
      "outputs": [
        {
          "components": [
            {
              "internalType": "uint256",
              "name": "subjectId",
              "type": "uint256"
            },
            {
              "internalType": "string",
              "name": "subjectName",
              "type": "string"
            },
            {
              "components": [
                {
                  "internalType": "uint256",
                  "name": "teacherId",
                  "type": "uint256"
                },
                {
                  "internalType": "string",
                  "name": "name",
                  "type": "string"
                }
              ],
              "internalType": "struct Attendance.Teacher[]",
              "name": "teachingTeachers",
              "type": "tuple[]"
            },
            {
              "components": [
                {
                  "internalType": "uint256",
                  "name": "studentId",
                  "type": "uint256"
                },
                {
                  "internalType": "string",
                  "name": "name",
                  "type": "string"
                }
              ],
              "internalType": "struct Attendance.Student[]",
              "name": "enrolledStudents",
              "type": "tuple[]"
            },
            {
              "internalType": "uint256[]",
              "name": "classIds",
              "type": "uint256[]"
            }
          ],
          "internalType": "struct Attendance.Subject",
          "name": "subject",
          "type": "tuple"
        },
        {
          "internalType": "uint256",
          "name": "classId",
          "type": "uint256"
        },
        {
          "internalType": "uint256",
          "name": "classDate",
          "type": "uint256"
        },
        {
          "internalType": "string",
          "name": "classPwd",
          "type": "string"
        }
      ],
      "stateMutability": "view",
      "type": "function",
      "constant": true
    },
    {
      "inputs": [
        {
          "internalType": "address",
          "name": "",
          "type": "address"
        }
      ],
      "name": "roles",
      "outputs": [
        {
          "internalType": "string",
          "name": "",
          "type": "string"
        }
      ],
      "stateMutability": "view",
      "type": "function",
      "constant": true
    },
    {
      "inputs": [],
      "name": "studentCounter",
      "outputs": [
        {
          "internalType": "uint256",
          "name": "",
          "type": "uint256"
        }
      ],
      "stateMutability": "view",
      "type": "function",
      "constant": true
    },
    {
      "inputs": [
        {
          "internalType": "address",
          "name": "",
          "type": "address"
        }
      ],
      "name": "studentDetails",
      "outputs": [
        {
          "internalType": "uint256",
          "name": "studentId",
          "type": "uint256"
        },
        {
          "internalType": "string",
          "name": "name",
          "type": "string"
        }
      ],
      "stateMutability": "view",
      "type": "function",
      "constant": true
    },
    {
      "inputs": [
        {
          "internalType": "uint256",
          "name": "",
          "type": "uint256"
        }
      ],
      "name": "students",
      "outputs": [
        {
          "internalType": "uint256",
          "name": "studentId",
          "type": "uint256"
        },
        {
          "internalType": "string",
          "name": "name",
          "type": "string"
        }
      ],
      "stateMutability": "view",
      "type": "function",
      "constant": true
    },
    {
      "inputs": [],
      "name": "subjectCounter",
      "outputs": [
        {
          "internalType": "uint256",
          "name": "",
          "type": "uint256"
        }
      ],
      "stateMutability": "view",
      "type": "function",
      "constant": true
    },
    {
      "inputs": [
        {
          "internalType": "uint256",
          "name": "",
          "type": "uint256"
        }
      ],
      "name": "subjectDetails",
      "outputs": [
        {
          "internalType": "uint256",
          "name": "subjectId",
          "type": "uint256"
        },
        {
          "internalType": "string",
          "name": "subjectName",
          "type": "string"
        }
      ],
      "stateMutability": "view",
      "type": "function",
      "constant": true
    },
    {
      "inputs": [],
      "name": "teacherCounter",
      "outputs": [
        {
          "internalType": "uint256",
          "name": "",
          "type": "uint256"
        }
      ],
      "stateMutability": "view",
      "type": "function",
      "constant": true
    },
    {
      "inputs": [
        {
          "internalType": "address",
          "name": "",
          "type": "address"
        }
      ],
      "name": "teacherDetails",
      "outputs": [
        {
          "internalType": "uint256",
          "name": "teacherId",
          "type": "uint256"
        },
        {
          "internalType": "string",
          "name": "name",
          "type": "string"
        }
      ],
      "stateMutability": "view",
      "type": "function",
      "constant": true
    },
    {
      "inputs": [
        {
          "internalType": "uint256",
          "name": "",
          "type": "uint256"
        }
      ],
      "name": "teachers",
      "outputs": [
        {
          "internalType": "uint256",
          "name": "teacherId",
          "type": "uint256"
        },
        {
          "internalType": "string",
          "name": "name",
          "type": "string"
        }
      ],
      "stateMutability": "view",
      "type": "function",
      "constant": true
    },
    {
      "inputs": [
        {
          "internalType": "address",
          "name": "user",
          "type": "address"
        }
      ],
      "name": "getRole",
      "outputs": [
        {
          "internalType": "string",
          "name": "",
          "type": "string"
        }
      ],
      "stateMutability": "view",
      "type": "function",
      "constant": true
    },
    {
      "inputs": [
        {
          "internalType": "address",
          "name": "_student",
          "type": "address"
        },
        {
          "internalType": "string",
          "name": "_name",
          "type": "string"
        }
      ],
      "name": "addStudent",
      "outputs": [],
      "stateMutability": "nonpayable",
      "type": "function"
    },
    {
      "inputs": [
        {
          "internalType": "address",
          "name": "_teacher",
          "type": "address"
        },
        {
          "internalType": "string",
          "name": "_name",
          "type": "string"
        }
      ],
      "name": "addTeacher",
      "outputs": [],
      "stateMutability": "nonpayable",
      "type": "function"
    },
    {
      "inputs": [
        {
          "internalType": "string",
          "name": "_subjectName",
          "type": "string"
        }
      ],
      "name": "createSubject",
      "outputs": [],
      "stateMutability": "nonpayable",
      "type": "function"
    },
    {
      "inputs": [
        {
          "internalType": "uint256",
          "name": "_classDate",
          "type": "uint256"
        },
        {
          "internalType": "uint256",
          "name": "_subjectId",
          "type": "uint256"
        }
      ],
      "name": "createClass",
      "outputs": [],
      "stateMutability": "nonpayable",
      "type": "function"
    },
    {
      "inputs": [
        {
          "internalType": "uint256",
          "name": "_subjectId",
          "type": "uint256"
        },
        {
          "internalType": "address",
          "name": "_student",
          "type": "address"
        }
      ],
      "name": "enrollStudent",
      "outputs": [],
      "stateMutability": "nonpayable",
      "type": "function"
    },
    {
      "inputs": [
        {
          "internalType": "uint256",
          "name": "_subjectId",
          "type": "uint256"
        },
        {
          "internalType": "address",
          "name": "_teacher",
          "type": "address"
        }
      ],
      "name": "assignTeacher",
      "outputs": [],
      "stateMutability": "nonpayable",
      "type": "function"
    },
    {
      "inputs": [
        {
          "internalType": "uint256",
          "name": "_classId",
          "type": "uint256"
        },
        {
          "internalType": "string",
          "name": "_pwd",
          "type": "string"
        }
      ],
      "name": "markAttendance",
      "outputs": [],
      "stateMutability": "nonpayable",
      "type": "function"
    },
    {
      "inputs": [
        {
          "internalType": "uint256",
          "name": "_classId",
          "type": "uint256"
        }
      ],
      "name": "checkAttendance",
      "outputs": [
        {
          "internalType": "bool",
          "name": "",
          "type": "bool"
        }
      ],
      "stateMutability": "view",
      "type": "function",
      "constant": true
    },
    {
      "inputs": [
        {
          "internalType": "uint256",
          "name": "_classId",
          "type": "uint256"
        },
        {
          "internalType": "address",
          "name": "_student",
          "type": "address"
        }
      ],
      "name": "checkAttendance",
      "outputs": [
        {
          "internalType": "bool",
          "name": "",
          "type": "bool"
        }
      ],
      "stateMutability": "view",
      "type": "function",
      "constant": true
    },
    {
      "inputs": [
        {
          "internalType": "uint256",
          "name": "_classId",
          "type": "uint256"
        }
      ],
      "name": "generateClassPwd",
      "outputs": [],
      "stateMutability": "nonpayable",
      "type": "function"
    },
    {
      "inputs": [],
      "name": "getRandomPassword",
      "outputs": [
        {
          "internalType": "string",
          "name": "",
          "type": "string"
        }
      ],
      "stateMutability": "view",
      "type": "function",
      "constant": true
    },
    {
      "inputs": [
        {
          "internalType": "address",
          "name": "_student",
          "type": "address"
        }
      ],
      "name": "removeStudent",
      "outputs": [],
      "stateMutability": "nonpayable",
      "type": "function"
    },
    {
      "inputs": [
        {
          "internalType": "address",
          "name": "_teacher",
          "type": "address"
        }
      ],
      "name": "removeTeacher",
      "outputs": [],
      "stateMutability": "nonpayable",
      "type": "function"
    },
    {
      "inputs": [
        {
          "internalType": "uint256",
          "name": "_subjectId",
          "type": "uint256"
        }
      ],
      "name": "removeSubject",
      "outputs": [],
      "stateMutability": "nonpayable",
      "type": "function"
    },
    {
      "inputs": [
        {
          "internalType": "uint256",
          "name": "_classId",
          "type": "uint256"
        }
      ],
      "name": "removeClass",
      "outputs": [],
      "stateMutability": "nonpayable",
      "type": "function"
    }
  ],
  "bytecode": "0x60806040523480156200001157600080fd5b50336000806101000a81548173ffffffffffffffffffffffffffffffffffffffff021916908373ffffffffffffffffffffffffffffffffffffffff1602179055506040518060400160405280600581526020017f61646d696e000000000000000000000000000000000000000000000000000000815250600b60003373ffffffffffffffffffffffffffffffffffffffff1673ffffffffffffffffffffffffffffffffffffffff1681526020019081526020016000209080519060200190620000dc929190620000e3565b50620001f8565b828054620000f19062000193565b90600052602060002090601f01602090048101928262000115576000855562000161565b82601f106200013057805160ff191683800117855562000161565b8280016001018555821562000161579182015b828111156200016057825182559160200191906001019062000143565b5b50905062000170919062000174565b5090565b5b808211156200018f57600081600090555060010162000175565b5090565b60006002820490506001821680620001ac57607f821691505b60208210811415620001c357620001c2620001c9565b5b50919050565b7f4e487b7100000000000000000000000000000000000000000000000000000000600052602260045260246000fd5b613a8780620002086000396000f3fe608060405234801561001057600080fd5b50600436106101c45760003560e01c806372c30f45116100f9578063ae504c5c11610097578063d1939ccf11610071578063d1939ccf14610528578063e3596cac14610546578063f851a44014610564578063fe24ec6514610582576101c4565b8063ae504c5c146104aa578063aed7419b146104db578063b6ba72301461050c576101c4565b80638f5b9b2e116100d35780638f5b9b2e146104265780639937464214610442578063a90795cf14610472578063aba423491461048e576101c4565b806372c30f45146103d257806378c4798c146103ee57806380d019991461040a576101c4565b8063442767331161016657806350e0b94d1161014057806350e0b94d1461036057806352ff68461461037c5780635e8b8091146103985780637194c5b3146103b4576101c4565b806344276733146102e157806344d370b814610311578063465c0e5314610342576101c4565b80632b37f7e7116101a25780632b37f7e71461023257806334ac0b40146102625780633954d58b146102935780633d2d8663146102b1576101c4565b806306ead22e146101c95780630ddb03bb146101fa5780632520f9a114610216575b600080fd5b6101e360048036038101906101de9190612c14565b6105b5565b6040516101f192919061356a565b60405180910390f35b610214600480360381019061020f9190612c3d565b610671565b005b610230600480360381019061022b9190612bd3565b610822565b005b61024c60048036038101906102479190612c14565b610980565b60405161025991906133f6565b60405180910390f35b61027c60048036038101906102779190612c14565b6109ea565b60405161028a92919061356a565b60405180910390f35b61029b610aa6565b6040516102a89190613526565b60405180910390f35b6102cb60048036038101906102c69190612c3d565b610aac565b6040516102d891906133f6565b60405180910390f35b6102fb60048036038101906102f69190612b56565b610b9c565b6040516103089190613411565b60405180910390f35b61032b60048036038101906103269190612b56565b610c6d565b60405161033992919061356a565b60405180910390f35b61034a610d19565b6040516103579190613411565b60405180910390f35b61037a60048036038101906103759190612c14565b610eea565b005b61039660048036038101906103919190612b56565b610fab565b005b6103b260048036038101906103ad9190612b7f565b6110d2565b005b6103bc61131b565b6040516103c99190613526565b60405180910390f35b6103ec60048036038101906103e79190612c14565b611321565b005b61040860048036038101906104039190612b56565b611473565b005b610424600480360381019061041f9190612c14565b61159a565b005b610440600480360381019061043b9190612b7f565b6116c5565b005b61045c60048036038101906104579190612b56565b61190e565b6040516104699190613411565b60405180910390f35b61048c60048036038101906104879190612c79565b6119ae565b005b6104a860048036038101906104a39190612c3d565b611d17565b005b6104c460048036038101906104bf9190612c14565b611ec8565b6040516104d292919061356a565b60405180910390f35b6104f560048036038101906104f09190612b56565b611f74565b60405161050392919061356a565b60405180910390f35b61052660048036038101906105219190612ccd565b612020565b005b610530612239565b60405161053d9190613526565b60405180910390f35b61054e61223f565b60405161055b9190613526565b60405180910390f35b61056c612245565b60405161057991906133ab565b60405180910390f35b61059c60048036038101906105979190612c14565b612269565b6040516105ac94939291906134d3565b60405180910390f35b600181815481106105c557600080fd5b90600052602060002090600202016000915090508060000154908060010180546105ee90613823565b80601f016020809104026020016040519081016040528092919081815260200182805461061a90613823565b80156106675780601f1061063c57610100808354040283529160200191610667565b820191906000526020600020905b81548152906001019060200180831161064a57829003601f168201915b5050505050905082565b60405160200161068090613359565b60405160208183030381529060405280519060200120600b60003373ffffffffffffffffffffffffffffffffffffffff1673ffffffffffffffffffffffffffffffffffffffff1681526020019081526020016000206040516020016106e59190613342565b604051602081830303815290604052805190602001201461073b576040517f08c379a0000000000000000000000000000000000000000000000000000000008152600401610732906134b3565b60405180910390fd5b60096000838152602001908152602001600020600201600860008373ffffffffffffffffffffffffffffffffffffffff1673ffffffffffffffffffffffffffffffffffffffff16815260200190815260200160002090806001815401808255809150506001900390600052602060002090600202016000909190919091506000820154816000015560018201816001019080546107d790613823565b6107e2929190612737565b5050507f8c067146ec725333e811330fd75fb90567f7eeca601628b5943875fc4a43723e8282604051610816929190613541565b60405180910390a15050565b60405160200161083190613359565b60405160208183030381529060405280519060200120600b60003373ffffffffffffffffffffffffffffffffffffffff1673ffffffffffffffffffffffffffffffffffffffff1681526020019081526020016000206040516020016108969190613342565b60405160208183030381529060405280519060200120146108ec576040517f08c379a00000000000000000000000000000000000000000000000000000000081526004016108e3906134b3565b60405180910390fd5b600460008154809291906108ff90613855565b9190505550600060096000600454815260200190815260200160002090506004548160000181905550818160010190805190602001906109409291906127c4565b507feeb360ad20d46a8343b758e287ec025d44c51139825f3af2950630c14599acbd6004548360405161097492919061356a565b60405180910390a15050565b6000600a600083815260200190815260200160002060080160003373ffffffffffffffffffffffffffffffffffffffff1673ffffffffffffffffffffffffffffffffffffffff16815260200190815260200160002060009054906101000a900460ff169050919050565b600281815481106109fa57600080fd5b9060005260206000209060020201600091509050806000015490806001018054610a2390613823565b80601f0160208091040260200160405190810160405280929190818152602001828054610a4f90613823565b8015610a9c5780601f10610a7157610100808354040283529160200191610a9c565b820191906000526020600020905b815481529060010190602001808311610a7f57829003601f168201915b5050505050905082565b60035481565b600080600860003373ffffffffffffffffffffffffffffffffffffffff1673ffffffffffffffffffffffffffffffffffffffff168152602001908152602001600020600001541415610b33576040517f08c379a0000000000000000000000000000000000000000000000000000000008152600401610b2a90613493565b60405180910390fd5b600a600084815260200190815260200160002060080160008373ffffffffffffffffffffffffffffffffffffffff1673ffffffffffffffffffffffffffffffffffffffff16815260200190815260200160002060009054906101000a900460ff16905092915050565b6060600b60008373ffffffffffffffffffffffffffffffffffffffff1673ffffffffffffffffffffffffffffffffffffffff1681526020019081526020016000208054610be890613823565b80601f0160208091040260200160405190810160405280929190818152602001828054610c1490613823565b8015610c615780601f10610c3657610100808354040283529160200191610c61565b820191906000526020600020905b815481529060010190602001808311610c4457829003601f168201915b50505050509050919050565b6008602052806000526040600020600091509050806000015490806001018054610c9690613823565b80601f0160208091040260200160405190810160405280929190818152602001828054610cc290613823565b8015610d0f5780601f10610ce457610100808354040283529160200191610d0f565b820191906000526020600020905b815481529060010190602001808311610cf257829003601f168201915b5050505050905082565b60606000604051806080016040528060428152602001613a106042913990506000600f905060008167ffffffffffffffff811115610d80577f4e487b7100000000000000000000000000000000000000000000000000000000600052604160045260246000fd5b6040519080825280601f01601f191660200182016040528015610db25781602001600182028036833780820191505090505b509050600042600143610dc5919061375b565b4033604051602001610dd99392919061336e565b6040516020818303038152906040528051906020012060001c905060005b83811015610edf576000855183610e0e91906138d6565b9050858181518110610e49577f4e487b7100000000000000000000000000000000000000000000000000000000600052603260045260246000fd5b602001015160f81c60f81b848381518110610e8d577f4e487b7100000000000000000000000000000000000000000000000000000000600052603260045260246000fd5b60200101907effffffffffffffffffffffffffffffffffffffffffffffffffffffffffffff1916908160001a905350855183610ec9919061372a565b9250508080610ed790613855565b915050610df7565b508194505050505090565b6000600860003373ffffffffffffffffffffffffffffffffffffffff1673ffffffffffffffffffffffffffffffffffffffff168152602001908152602001600020600001541415610f70576040517f08c379a0000000000000000000000000000000000000000000000000000000008152600401610f6790613493565b60405180910390fd5b6000610f7a610d19565b905080600a60008481526020019081526020016000206007019080519060200190610fa69291906127c4565b505050565b604051602001610fba90613359565b60405160208183030381529060405280519060200120600b60003373ffffffffffffffffffffffffffffffffffffffff1673ffffffffffffffffffffffffffffffffffffffff16815260200190815260200160002060405160200161101f9190613342565b6040516020818303038152906040528051906020012014611075576040517f08c379a000000000000000000000000000000000000000000000000000000000815260040161106c906134b3565b60405180910390fd5b600860008273ffffffffffffffffffffffffffffffffffffffff1673ffffffffffffffffffffffffffffffffffffffff1681526020019081526020016000206000808201600090556001820160006110cd919061284a565b505050565b6040516020016110e190613359565b60405160208183030381529060405280519060200120600b60003373ffffffffffffffffffffffffffffffffffffffff1673ffffffffffffffffffffffffffffffffffffffff1681526020019081526020016000206040516020016111469190613342565b604051602081830303815290604052805190602001201461119c576040517f08c379a0000000000000000000000000000000000000000000000000000000008152600401611193906134b3565b60405180910390fd5b600560008154809291906111af90613855565b91905055506040518060400160405280600554815260200182815250600760008473ffffffffffffffffffffffffffffffffffffffff1673ffffffffffffffffffffffffffffffffffffffff1681526020019081526020016000206000820151816000015560208201518160010190805190602001906112309291906127c4565b5090505060016040518060400160405280600554815260200183815250908060018154018082558091505060019003906000526020600020906002020160009091909190915060008201518160000155602082015181600101908051906020019061129c9291906127c4565b5050506112de826040518060400160405280600781526020017f73747564656e7400000000000000000000000000000000000000000000000000815250612615565b7f94a56de67dd66b06691e0bd81e5b57fbf02e3ce04576def9d15b6371a0109fd2828260405161130f9291906133c6565b60405180910390a15050565b60065481565b60405160200161133090613359565b60405160208183030381529060405280519060200120600b60003373ffffffffffffffffffffffffffffffffffffffff1673ffffffffffffffffffffffffffffffffffffffff1681526020019081526020016000206040516020016113959190613342565b60405160208183030381529060405280519060200120146113eb576040517f08c379a00000000000000000000000000000000000000000000000000000000081526004016113e2906134b3565b60405180910390fd5b600a6000828152602001908152602001600020600080820160008082016000905560018201600061141c919061284a565b60028201600061142c919061288a565b60038201600061143c91906128ae565b60048201600061144c91906128d2565b50506005820160009055600682016000905560078201600061146e919061284a565b505050565b60405160200161148290613359565b60405160208183030381529060405280519060200120600b60003373ffffffffffffffffffffffffffffffffffffffff1673ffffffffffffffffffffffffffffffffffffffff1681526020019081526020016000206040516020016114e79190613342565b604051602081830303815290604052805190602001201461153d576040517f08c379a0000000000000000000000000000000000000000000000000000000008152600401611534906134b3565b60405180910390fd5b600760008273ffffffffffffffffffffffffffffffffffffffff1673ffffffffffffffffffffffffffffffffffffffff168152602001908152602001600020600080820160009055600182016000611595919061284a565b505050565b6040516020016115a990613359565b60405160208183030381529060405280519060200120600b60003373ffffffffffffffffffffffffffffffffffffffff1673ffffffffffffffffffffffffffffffffffffffff16815260200190815260200160002060405160200161160e9190613342565b6040516020818303038152906040528051906020012014611664576040517f08c379a000000000000000000000000000000000000000000000000000000000815260040161165b906134b3565b60405180910390fd5b60096000828152602001908152602001600020600080820160009055600182016000611690919061284a565b6002820160006116a0919061288a565b6003820160006116b091906128ae565b6004820160006116c091906128d2565b505050565b6040516020016116d490613359565b60405160208183030381529060405280519060200120600b60003373ffffffffffffffffffffffffffffffffffffffff1673ffffffffffffffffffffffffffffffffffffffff1681526020019081526020016000206040516020016117399190613342565b604051602081830303815290604052805190602001201461178f576040517f08c379a0000000000000000000000000000000000000000000000000000000008152600401611786906134b3565b60405180910390fd5b600660008154809291906117a290613855565b91905055506040518060400160405280600654815260200182815250600860008473ffffffffffffffffffffffffffffffffffffffff1673ffffffffffffffffffffffffffffffffffffffff1681526020019081526020016000206000820151816000015560208201518160010190805190602001906118239291906127c4565b5090505060026040518060400160405280600654815260200183815250908060018154018082558091505060019003906000526020600020906002020160009091909190915060008201518160000155602082015181600101908051906020019061188f9291906127c4565b5050506118d1826040518060400160405280600781526020017f7465616368657200000000000000000000000000000000000000000000000000815250612615565b7f6996ba1536de57e4c72a268600ac97e3feae59f326494fce7dc56c6c6de959e382826040516119029291906133c6565b60405180910390a15050565b600b602052806000526040600020600091509050805461192d90613823565b80601f016020809104026020016040519081016040528092919081815260200182805461195990613823565b80156119a65780601f1061197b576101008083540402835291602001916119a6565b820191906000526020600020905b81548152906001019060200180831161198957829003601f168201915b505050505081565b600a6000838152602001908152602001600020600501546000805b60096000600a600086815260200190815260200160002060000160000154815260200190815260200160002060030180549050811015611ae157600760003373ffffffffffffffffffffffffffffffffffffffff1673ffffffffffffffffffffffffffffffffffffffff1681526020019081526020016000206000015460096000600a60008781526020019081526020016000206000016000015481526020019081526020016000206003018281548110611aad577f4e487b7100000000000000000000000000000000000000000000000000000000600052603260045260246000fd5b9060005260206000209060020201600001541415611ace5760019150611ae1565b8080611ad990613855565b9150506119c9565b5080611b22576040517f08c379a0000000000000000000000000000000000000000000000000000000008152600401611b1990613433565b60405180910390fd5b60001515600a600086815260200190815260200160002060080160003373ffffffffffffffffffffffffffffffffffffffff1673ffffffffffffffffffffffffffffffffffffffff16815260200190815260200160002060009054906101000a900460ff16151514611bc9576040517f08c379a0000000000000000000000000000000000000000000000000000000008152600401611bc090613453565b60405180910390fd5b82604051602001611bda919061332b565b60405160208183030381529060405280519060200120600a6000868152602001908152602001600020600701604051602001611c169190613342565b6040516020818303038152906040528051906020012014611c6c576040517f08c379a0000000000000000000000000000000000000000000000000000000008152600401611c6390613473565b60405180910390fd5b6001600a600086815260200190815260200160002060080160003373ffffffffffffffffffffffffffffffffffffffff1673ffffffffffffffffffffffffffffffffffffffff16815260200190815260200160002060006101000a81548160ff0219169083151502179055507f1fc08eb0c2f0125b980d5b8b9c7d0c66f56fe49ed88c804b350f31b0130cda388433604051611d09929190613541565b60405180910390a150505050565b604051602001611d2690613359565b60405160208183030381529060405280519060200120600b60003373ffffffffffffffffffffffffffffffffffffffff1673ffffffffffffffffffffffffffffffffffffffff168152602001908152602001600020604051602001611d8b9190613342565b6040516020818303038152906040528051906020012014611de1576040517f08c379a0000000000000000000000000000000000000000000000000000000008152600401611dd8906134b3565b60405180910390fd5b60096000838152602001908152602001600020600301600760008373ffffffffffffffffffffffffffffffffffffffff1673ffffffffffffffffffffffffffffffffffffffff1681526020019081526020016000209080600181540180825580915050600190039060005260206000209060020201600090919091909150600082015481600001556001820181600101908054611e7d90613823565b611e88929190612737565b5050507f330f6a5433c3d731bf2a234085fc8f11bd40cdbdd41b574d8570189c6ea277cb8282604051611ebc929190613541565b60405180910390a15050565b6009602052806000526040600020600091509050806000015490806001018054611ef190613823565b80601f0160208091040260200160405190810160405280929190818152602001828054611f1d90613823565b8015611f6a5780601f10611f3f57610100808354040283529160200191611f6a565b820191906000526020600020905b815481529060010190602001808311611f4d57829003601f168201915b5050505050905082565b6007602052806000526040600020600091509050806000015490806001018054611f9d90613823565b80601f0160208091040260200160405190810160405280929190818152602001828054611fc990613823565b80156120165780601f10611feb57610100808354040283529160200191612016565b820191906000526020600020905b815481529060010190602001808311611ff957829003601f168201915b5050505050905082565b60405160200161202f90613359565b60405160208183030381529060405280519060200120600b60003373ffffffffffffffffffffffffffffffffffffffff1673ffffffffffffffffffffffffffffffffffffffff1681526020019081526020016000206040516020016120949190613342565b60405160208183030381529060405280519060200120146120ea576040517f08c379a00000000000000000000000000000000000000000000000000000000081526004016120e1906134b3565b60405180910390fd5b600360008154809291906120fd90613855565b91905055506000600a600060035481526020019081526020016000209050600960008381526020019081526020016000208160000160008201548160000155600182018160010190805461215090613823565b61215b929190612737565b5060028201816002019080546121729291906128f3565b506003820181600301908054612189929190612975565b5060048201816004019080546121a09291906129f7565b5090505060035481600501819055508281600601819055506009600083815260200190815260200160002060040160035490806001815401808255809150506001900390600052602060002001600090919091909150557f5a3a80d0fae53d263cc7f8adc9b489c04a64d1f61278a26b20f7b67ebca6aa27600354848460405161222c9392919061359a565b60405180910390a1505050565b60045481565b60055481565b60008054906101000a900473ffffffffffffffffffffffffffffffffffffffff1681565b600a602052806000526040600020600091509050806000016040518060a0016040529081600082015481526020016001820180546122a690613823565b80601f01602080910402602001604051908101604052809291908181526020018280546122d290613823565b801561231f5780601f106122f45761010080835404028352916020019161231f565b820191906000526020600020905b81548152906001019060200180831161230257829003601f168201915b5050505050815260200160028201805480602002602001604051908101604052809291908181526020016000905b8282101561241b57838290600052602060002090600202016040518060400160405290816000820154815260200160018201805461238a90613823565b80601f01602080910402602001604051908101604052809291908181526020018280546123b690613823565b80156124035780601f106123d857610100808354040283529160200191612403565b820191906000526020600020905b8154815290600101906020018083116123e657829003601f168201915b5050505050815250508152602001906001019061234d565b50505050815260200160038201805480602002602001604051908101604052809291908181526020016000905b8282101561251657838290600052602060002090600202016040518060400160405290816000820154815260200160018201805461248590613823565b80601f01602080910402602001604051908101604052809291908181526020018280546124b190613823565b80156124fe5780601f106124d3576101008083540402835291602001916124fe565b820191906000526020600020905b8154815290600101906020018083116124e157829003601f168201915b50505050508152505081526020019060010190612448565b5050505081526020016004820180548060200260200160405190810160405280929190818152602001828054801561256d57602002820191906000526020600020905b815481526020019060010190808311612559575b5050505050815250509080600501549080600601549080600701805461259290613823565b80601f01602080910402602001604051908101604052809291908181526020018280546125be90613823565b801561260b5780601f106125e05761010080835404028352916020019161260b565b820191906000526020600020905b8154815290600101906020018083116125ee57829003601f168201915b5050505050905084565b60405160200161262490613359565b60405160208183030381529060405280519060200120600b60003373ffffffffffffffffffffffffffffffffffffffff1673ffffffffffffffffffffffffffffffffffffffff1681526020019081526020016000206040516020016126899190613342565b60405160208183030381529060405280519060200120146126df576040517f08c379a00000000000000000000000000000000000000000000000000000000081526004016126d6906134b3565b60405180910390fd5b80600b60008473ffffffffffffffffffffffffffffffffffffffff1673ffffffffffffffffffffffffffffffffffffffff16815260200190815260200160002090805190602001906127329291906127c4565b505050565b82805461274390613823565b90600052602060002090601f01602090048101928261276557600085556127b3565b82601f1061277657805485556127b3565b828001600101855582156127b357600052602060002091601f016020900482015b828111156127b2578254825591600101919060010190612797565b5b5090506127c09190612a49565b5090565b8280546127d090613823565b90600052602060002090601f0160209004810192826127f25760008555612839565b82601f1061280b57805160ff1916838001178555612839565b82800160010185558215612839579182015b8281111561283857825182559160200191906001019061281d565b5b5090506128469190612a49565b5090565b50805461285690613823565b6000825580601f106128685750612887565b601f0160209004906000526020600020908101906128869190612a49565b5b50565b50805460008255600202906000526020600020908101906128ab9190612a66565b50565b50805460008255600202906000526020600020908101906128cf9190612a95565b50565b50805460008255906000526020600020908101906128f09190612a49565b50565b8280548282559060005260206000209060020281019282156129645760005260206000209160020282015b8281111561296357828260008201548160000155600182018160010190805461294690613823565b612951929190612737565b5050509160020191906002019061291e565b5b5090506129719190612a66565b5090565b8280548282559060005260206000209060020281019282156129e65760005260206000209160020282015b828111156129e55782826000820154816000015560018201816001019080546129c890613823565b6129d3929190612737565b505050916002019190600201906129a0565b5b5090506129f39190612a95565b5090565b828054828255906000526020600020908101928215612a385760005260206000209182015b82811115612a37578254825591600101919060010190612a1c565b5b509050612a459190612a49565b5090565b5b80821115612a62576000816000905550600101612a4a565b5090565b5b80821115612a9157600080820160009055600182016000612a88919061284a565b50600201612a67565b5090565b5b80821115612ac057600080820160009055600182016000612ab7919061284a565b50600201612a96565b5090565b6000612ad7612ad284613602565b6135d1565b905082815260208101848484011115612aef57600080fd5b612afa8482856137e1565b509392505050565b600081359050612b11816139e1565b92915050565b600082601f830112612b2857600080fd5b8135612b38848260208601612ac4565b91505092915050565b600081359050612b50816139f8565b92915050565b600060208284031215612b6857600080fd5b6000612b7684828501612b02565b91505092915050565b60008060408385031215612b9257600080fd5b6000612ba085828601612b02565b925050602083013567ffffffffffffffff811115612bbd57600080fd5b612bc985828601612b17565b9150509250929050565b600060208284031215612be557600080fd5b600082013567ffffffffffffffff811115612bff57600080fd5b612c0b84828501612b17565b91505092915050565b600060208284031215612c2657600080fd5b6000612c3484828501612b41565b91505092915050565b60008060408385031215612c5057600080fd5b6000612c5e85828601612b41565b9250506020612c6f85828601612b02565b9150509250929050565b60008060408385031215612c8c57600080fd5b6000612c9a85828601612b41565b925050602083013567ffffffffffffffff811115612cb757600080fd5b612cc385828601612b17565b9150509250929050565b60008060408385031215612ce057600080fd5b6000612cee85828601612b41565b9250506020612cff85828601612b41565b9150509250929050565b6000612d1583836131f1565b905092915050565b6000612d2983836132b9565b905092915050565b6000612d3d83836132f6565b60208301905092915050565b612d528161378f565b82525050565b612d69612d648261378f565b61389e565b82525050565b6000612d7a82613677565b612d8481856136ca565b935083602082028501612d9685613632565b8060005b85811015612dd25784840389528151612db38582612d09565b9450612dbe836136a3565b925060208a01995050600181019050612d9a565b50829750879550505050505092915050565b6000612def82613682565b612df981856136db565b935083602082028501612e0b85613642565b8060005b85811015612e475784840389528151612e288582612d1d565b9450612e33836136b0565b925060208a01995050600181019050612e0f565b50829750879550505050505092915050565b6000612e648261368d565b612e6e81856136ec565b9350612e7983613652565b8060005b83811015612eaa578151612e918882612d31565b9750612e9c836136bd565b925050600181019050612e7d565b5085935050505092915050565b612ec0816137a1565b82525050565b612ed7612ed2826137ad565b6138b0565b82525050565b6000612ee882613698565b612ef281856136fd565b9350612f028185602086016137f0565b612f0b816139c3565b840191505092915050565b6000612f2182613698565b612f2b818561370e565b9350612f3b8185602086016137f0565b612f44816139c3565b840191505092915050565b6000612f5a82613698565b612f64818561371f565b9350612f748185602086016137f0565b80840191505092915050565b60008154612f8d81613823565b612f97818661371f565b94506001821660008114612fb25760018114612fc357612ff6565b60ff19831686528186019350612ff6565b612fcc85613662565b60005b83811015612fee57815481890152600182019150602081019050612fcf565b838801955050505b50505092915050565b600061300c602d8361370e565b91507f4f6e6c7920656e726f6c6c65642073747564656e74732063616e2063616c6c2060008301527f746869732066756e6374696f6e000000000000000000000000000000000000006020830152604082019050919050565b600061307260198361370e565b91507f417474656e64616e636520616c7265616479206d61726b6564000000000000006000830152602082019050919050565b60006130b260108361370e565b91507f496e76616c69642070617373776f7264000000000000000000000000000000006000830152602082019050919050565b60006130f260248361370e565b91507f4f6e6c792074656163686572732063616e2063616c6c20746869732066756e6360008301527f74696f6e000000000000000000000000000000000000000000000000000000006020830152604082019050919050565b600061315860218361370e565b91507f4f6e6c792061646d696e2063616e2063616c6c20746869732066756e6374696f60008301527f6e000000000000000000000000000000000000000000000000000000000000006020830152604082019050919050565b60006131be60058361371f565b91507f61646d696e0000000000000000000000000000000000000000000000000000006000830152600582019050919050565b600060408301600083015161320960008601826132f6565b50602083015184820360208601526132218282612edd565b9150508091505092915050565b600060a08301600083015161324660008601826132f6565b506020830151848203602086015261325e8282612edd565b915050604083015184820360408601526132788282612de4565b915050606083015184820360608601526132928282612d6f565b915050608083015184820360808601526132ac8282612e59565b9150508091505092915050565b60006040830160008301516132d160008601826132f6565b50602083015184820360208601526132e98282612edd565b9150508091505092915050565b6132ff816137d7565b82525050565b61330e816137d7565b82525050565b613325613320826137d7565b6138cc565b82525050565b60006133378284612f4f565b915081905092915050565b600061334e8284612f80565b915081905092915050565b6000613364826131b1565b9150819050919050565b600061337a8286613314565b60208201915061338a8285612ec6565b60208201915061339a8284612d58565b601482019150819050949350505050565b60006020820190506133c06000830184612d49565b92915050565b60006040820190506133db6000830185612d49565b81810360208301526133ed8184612f16565b90509392505050565b600060208201905061340b6000830184612eb7565b92915050565b6000602082019050818103600083015261342b8184612f16565b905092915050565b6000602082019050818103600083015261344c81612fff565b9050919050565b6000602082019050818103600083015261346c81613065565b9050919050565b6000602082019050818103600083015261348c816130a5565b9050919050565b600060208201905081810360008301526134ac816130e5565b9050919050565b600060208201905081810360008301526134cc8161314b565b9050919050565b600060808201905081810360008301526134ed818761322e565b90506134fc6020830186613305565b6135096040830185613305565b818103606083015261351b8184612f16565b905095945050505050565b600060208201905061353b6000830184613305565b92915050565b60006040820190506135566000830185613305565b6135636020830184612d49565b9392505050565b600060408201905061357f6000830185613305565b81810360208301526135918184612f16565b90509392505050565b60006060820190506135af6000830186613305565b6135bc6020830185613305565b6135c96040830184613305565b949350505050565b6000604051905081810181811067ffffffffffffffff821117156135f8576135f7613994565b5b8060405250919050565b600067ffffffffffffffff82111561361d5761361c613994565b5b601f19601f8301169050602081019050919050565b6000819050602082019050919050565b6000819050602082019050919050565b6000819050602082019050919050565b60008190508160005260206000209050919050565b600081519050919050565b600081519050919050565b600081519050919050565b600081519050919050565b6000602082019050919050565b6000602082019050919050565b6000602082019050919050565b600082825260208201905092915050565b600082825260208201905092915050565b600082825260208201905092915050565b600082825260208201905092915050565b600082825260208201905092915050565b600081905092915050565b6000613735826137d7565b9150613740836137d7565b9250826137505761374f613936565b5b828204905092915050565b6000613766826137d7565b9150613771836137d7565b92508282101561378457613783613907565b5b828203905092915050565b600061379a826137b7565b9050919050565b60008115159050919050565b6000819050919050565b600073ffffffffffffffffffffffffffffffffffffffff82169050919050565b6000819050919050565b82818337600083830152505050565b60005b8381101561380e5780820151818401526020810190506137f3565b8381111561381d576000848401525b50505050565b6000600282049050600182168061383b57607f821691505b6020821081141561384f5761384e613965565b5b50919050565b6000613860826137d7565b91507fffffffffffffffffffffffffffffffffffffffffffffffffffffffffffffffff82141561389357613892613907565b5b600182019050919050565b60006138a9826138ba565b9050919050565b6000819050919050565b60006138c5826139d4565b9050919050565b6000819050919050565b60006138e1826137d7565b91506138ec836137d7565b9250826138fc576138fb613936565b5b828206905092915050565b7f4e487b7100000000000000000000000000000000000000000000000000000000600052601160045260246000fd5b7f4e487b7100000000000000000000000000000000000000000000000000000000600052601260045260246000fd5b7f4e487b7100000000000000000000000000000000000000000000000000000000600052602260045260246000fd5b7f4e487b7100000000000000000000000000000000000000000000000000000000600052604160045260246000fd5b6000601f19601f8301169050919050565b60008160601b9050919050565b6139ea8161378f565b81146139f557600080fd5b50565b613a01816137d7565b8114613a0c57600080fd5b5056fe6162636465666768696a6b6c6d6e6f707172737475767778797a4142434445464748494a4b4c4d4e4f505152535455565758595a30313233343536373839402f2123a26469706673582212200635f72d00c42e2e2edbfa9c1aabb2070cd23d315e6bc562f215be36be27ba0764736f6c63430008000033",
  "immutableReferences": {},
  "source": "//SPDX-License-Identifier: MIT\r\n\r\npragma solidity ^0.8.0;\r\n\r\ncontract Attendance {\r\n\r\n    address public admin;\r\n    Student[] public students;\r\n    Teacher[] public teachers;\r\n    uint256 public classCounter;\r\n    uint256 public subjectCounter;\r\n    uint256 public studentCounter;\r\n    uint256 public teacherCounter;\r\n\r\n    struct Student {\r\n        uint256 studentId;\r\n        string name;\r\n    }\r\n\r\n    struct Teacher {\r\n        uint256 teacherId;\r\n        string name;\r\n    }\r\n\r\n    struct Subject {\r\n        uint256 subjectId;\r\n        string subjectName;\r\n        Teacher[] teachingTeachers;\r\n        Student[] enrolledStudents;\r\n        uint256[] classIds;\r\n    }\r\n\r\n    struct Class {\r\n        Subject subject;\r\n        uint256 classId;\r\n        uint256 classDate;\r\n        string classPwd;\r\n        mapping(address => bool) attendance;\r\n    }\r\n\r\n    event studentAdded(address student, string name);\r\n    event teacherAdded(address teacher, string name);\r\n    event subjectCreated(uint256 subjectId, string subjectName);\r\n    event classCreated(uint256 classId, uint256 classDate, uint256 subjectId);\r\n    event studentEnrolled(uint256 subjectId, address student);\r\n    event teacherAssigned(uint256 subjectId, address teacher);\r\n    event attendanceMarked(uint256 classId, address student);\r\n\r\n\r\n    mapping(address => Student) public studentDetails;\r\n    mapping(address => Teacher) public teacherDetails;\r\n    mapping(uint256 => Subject) public subjectDetails;\r\n    mapping(uint256 => Class) public classDetails;\r\n\r\n    mapping(address => string) public roles;\r\n\r\n    constructor() {\r\n        admin = msg.sender;\r\n        roles[msg.sender] = \"admin\"; // Contract deployer is the admin\r\n    }\r\n\r\n    modifier onlyAdmin() {\r\n        require(keccak256(abi.encodePacked(roles[msg.sender])) == keccak256(abi.encodePacked(\"admin\")), \"Only admin can call this function\");\r\n        _;\r\n    }\r\n\r\n    modifier onlyTeacher() {\r\n        require(teacherDetails[msg.sender].teacherId != 0, \"Only teachers can call this function\");\r\n        _;\r\n    }\r\n\r\n    modifier onlyStudent() {\r\n        require(studentDetails[msg.sender].studentId != 0, \"Only students can call this function\");\r\n        _;\r\n    }\r\n\r\n    modifier onlyEnrolledStudent(uint256 classId) {\r\n        bool isEnrolled = false;\r\n        for (uint256 i = 0; i < subjectDetails[classDetails[classId].subject.subjectId].enrolledStudents.length; i++) {\r\n            if (subjectDetails[classDetails[classId].subject.subjectId].enrolledStudents[i].studentId == studentDetails[msg.sender].studentId) {\r\n                isEnrolled = true;\r\n                break;\r\n            }\r\n        }\r\n        require(isEnrolled, \"Only enrolled students can call this function\");\r\n        _;\r\n    }\r\n\r\n    function assignRole(address user, string memory role) internal onlyAdmin {\r\n        roles[user] = role;\r\n    }\r\n\r\n    function getRole(address user) public view returns (string memory) {\r\n        return roles[user];\r\n    }\r\n\r\n    function addStudent(address _student, string memory _name) public onlyAdmin {\r\n        studentCounter++;\r\n        studentDetails[_student] = Student(studentCounter, _name);\r\n        students.push(Student(studentCounter, _name));\r\n        assignRole(_student, \"student\");\r\n\r\n        emit studentAdded(_student, _name);\r\n    }   \r\n\r\n    function addTeacher(address _teacher, string memory _name) public onlyAdmin {\r\n        teacherCounter++;\r\n        teacherDetails[_teacher] = Teacher(teacherCounter,_name);\r\n        teachers.push(Teacher(teacherCounter, _name));\r\n        assignRole(_teacher, \"teacher\");\r\n\r\n        emit teacherAdded(_teacher, _name);\r\n    }\r\n\r\n    function createSubject(string memory _subjectName) public onlyAdmin {\r\n        subjectCounter++;\r\n        Subject storage newSubject = subjectDetails[subjectCounter];\r\n        newSubject.subjectId=subjectCounter;\r\n        newSubject.subjectName = _subjectName;\r\n\r\n        emit subjectCreated(subjectCounter, _subjectName);\r\n    }\r\n\r\n    function createClass(uint256 _classDate, uint256 _subjectId) public onlyAdmin {\r\n        classCounter++;\r\n        \r\n        Class storage newClass = classDetails[classCounter];\r\n        newClass.subject = subjectDetails[_subjectId];\r\n        newClass.classId = classCounter;\r\n        newClass.classDate = _classDate;\r\n        subjectDetails[_subjectId].classIds.push(classCounter);\r\n\r\n        emit classCreated(classCounter, _classDate, _subjectId);\r\n    }\r\n\r\n    function enrollStudent(uint256 _subjectId, address _student) public onlyAdmin {\r\n        subjectDetails[_subjectId].enrolledStudents.push(studentDetails[_student]);\r\n\r\n        emit studentEnrolled(_subjectId, _student);\r\n    }\r\n\r\n    function assignTeacher(uint256 _subjectId, address _teacher) public onlyAdmin {\r\n        subjectDetails[_subjectId].teachingTeachers.push(teacherDetails[_teacher]);\r\n\r\n        emit teacherAssigned(_subjectId, _teacher);\r\n    }\r\n\r\n    function markAttendance(uint256 _classId, string memory _pwd) public onlyEnrolledStudent(classDetails[_classId].classId) {\r\n        require(classDetails[_classId].attendance[msg.sender] == false, \"Attendance already marked\");\r\n        require(keccak256(abi.encodePacked(classDetails[_classId].classPwd)) == keccak256(abi.encodePacked(_pwd)), \"Invalid password\");\r\n        classDetails[_classId].attendance[msg.sender] = true;\r\n\r\n        emit attendanceMarked(_classId, msg.sender);\r\n    }\r\n\r\n    function checkAttendance(uint256 _classId) public view returns (bool) {\r\n        return classDetails[_classId].attendance[msg.sender];\r\n    }\r\n\r\n    function checkAttendance(uint256 _classId, address _student) public view onlyTeacher returns (bool) {\r\n        return classDetails[_classId].attendance[_student];\r\n    }\r\n\r\n    function generateClassPwd(uint256 _classId) public onlyTeacher {\r\n        string memory classPwd = getRandomPassword();\r\n        classDetails[_classId].classPwd = classPwd;\r\n    }\r\n\r\n    function getRandomPassword() public view returns (string memory) {\r\n        bytes memory characters = \"abcdefghijklmnopqrstuvwxyzABCDEFGHIJKLMNOPQRSTUVWXYZ0123456789@/!#\";\r\n        uint256 length = 15;\r\n        bytes memory password = new bytes(length);\r\n        uint256 seed = uint256(keccak256(abi.encodePacked(block.timestamp, blockhash(block.number - 1), msg.sender)));\r\n\r\n        for (uint256 i = 0; i < length; i++) {\r\n            uint256 randomIndex = seed % characters.length;\r\n            password[i] = characters[randomIndex];\r\n            seed = seed / characters.length;\r\n        }\r\n        return string(password);\r\n    }\r\n\r\n    function removeStudent(address _student) public onlyAdmin {\r\n        delete studentDetails[_student];\r\n    }\r\n\r\n    function removeTeacher(address _teacher) public onlyAdmin {\r\n        delete teacherDetails[_teacher];\r\n    }\r\n\r\n    function removeSubject(uint256 _subjectId) public onlyAdmin {\r\n        delete subjectDetails[_subjectId];\r\n    }\r\n\r\n    function removeClass(uint256 _classId) public onlyAdmin {\r\n        delete classDetails[_classId];\r\n    }\r\n}",
  "sourcePath": "C:\\Users\\User\\Desktop\\dev\\Blockchain\\contracts\\Attendance.sol",
  "compiler": {
    "name": "solc",
    "version": "0.8.0+commit.c7dfd78e.Emscripten.clang"
  },
  "schemaVersion": "3.4.16",
  "updatedAt": "2025-01-19T12:34:55.892Z",
  "networkType": "ethereum",
  "devdoc": {
    "kind": "dev",
    "methods": {},
    "version": 1
  },
  "userdoc": {
    "kind": "user",
    "methods": {},
    "version": 1
  }
}