{
  "contractName": "Attendance",
  "abi": [
    {
      "inputs": [],
      "stateMutability": "nonpayable",
      "type": "constructor"
    },
    {
      "inputs": [],
      "name": "classCounter",
      "outputs": [
        {
          "internalType": "uint256",
          "name": "",
          "type": "uint256"
        }
      ],
      "stateMutability": "view",
      "type": "function",
      "constant": true
    },
    {
      "inputs": [
        {
          "internalType": "uint256",
          "name": "",
          "type": "uint256"
        }
      ],
      "name": "classDetails",
      "outputs": [
        {
          "components": [
            {
              "internalType": "uint256",
              "name": "subjectId",
              "type": "uint256"
            },
            {
              "internalType": "string",
              "name": "subjectName",
              "type": "string"
            },
            {
              "components": [
                {
                  "internalType": "uint256",
                  "name": "teacherId",
                  "type": "uint256"
                },
                {
                  "internalType": "string",
                  "name": "name",
                  "type": "string"
                }
              ],
              "internalType": "struct Attendance.Teacher[]",
              "name": "teachingTeachers",
              "type": "tuple[]"
            },
            {
              "components": [
                {
                  "internalType": "uint256",
                  "name": "studentId",
                  "type": "uint256"
                },
                {
                  "internalType": "string",
                  "name": "name",
                  "type": "string"
                }
              ],
              "internalType": "struct Attendance.Student[]",
              "name": "enrolledStudents",
              "type": "tuple[]"
            },
            {
              "internalType": "uint256[]",
              "name": "classIds",
              "type": "uint256[]"
            }
          ],
          "internalType": "struct Attendance.Subject",
          "name": "subject",
          "type": "tuple"
        },
        {
          "internalType": "uint256",
          "name": "classId",
          "type": "uint256"
        },
        {
          "internalType": "uint256",
          "name": "classDate",
          "type": "uint256"
        }
      ],
      "stateMutability": "view",
      "type": "function",
      "constant": true
    },
    {
      "inputs": [],
      "name": "owner",
      "outputs": [
        {
          "internalType": "address",
          "name": "",
          "type": "address"
        }
      ],
      "stateMutability": "view",
      "type": "function",
      "constant": true
    },
    {
      "inputs": [],
      "name": "studentCounter",
      "outputs": [
        {
          "internalType": "uint256",
          "name": "",
          "type": "uint256"
        }
      ],
      "stateMutability": "view",
      "type": "function",
      "constant": true
    },
    {
      "inputs": [
        {
          "internalType": "address",
          "name": "",
          "type": "address"
        }
      ],
      "name": "studentDetails",
      "outputs": [
        {
          "internalType": "uint256",
          "name": "studentId",
          "type": "uint256"
        },
        {
          "internalType": "string",
          "name": "name",
          "type": "string"
        }
      ],
      "stateMutability": "view",
      "type": "function",
      "constant": true
    },
    {
      "inputs": [
        {
          "internalType": "uint256",
          "name": "",
          "type": "uint256"
        }
      ],
      "name": "students",
      "outputs": [
        {
          "internalType": "uint256",
          "name": "studentId",
          "type": "uint256"
        },
        {
          "internalType": "string",
          "name": "name",
          "type": "string"
        }
      ],
      "stateMutability": "view",
      "type": "function",
      "constant": true
    },
    {
      "inputs": [],
      "name": "subjectCounter",
      "outputs": [
        {
          "internalType": "uint256",
          "name": "",
          "type": "uint256"
        }
      ],
      "stateMutability": "view",
      "type": "function",
      "constant": true
    },
    {
      "inputs": [
        {
          "internalType": "uint256",
          "name": "",
          "type": "uint256"
        }
      ],
      "name": "subjectDetails",
      "outputs": [
        {
          "internalType": "uint256",
          "name": "subjectId",
          "type": "uint256"
        },
        {
          "internalType": "string",
          "name": "subjectName",
          "type": "string"
        }
      ],
      "stateMutability": "view",
      "type": "function",
      "constant": true
    },
    {
      "inputs": [],
      "name": "teacherCounter",
      "outputs": [
        {
          "internalType": "uint256",
          "name": "",
          "type": "uint256"
        }
      ],
      "stateMutability": "view",
      "type": "function",
      "constant": true
    },
    {
      "inputs": [
        {
          "internalType": "address",
          "name": "",
          "type": "address"
        }
      ],
      "name": "teacherDetails",
      "outputs": [
        {
          "internalType": "uint256",
          "name": "teacherId",
          "type": "uint256"
        },
        {
          "internalType": "string",
          "name": "name",
          "type": "string"
        }
      ],
      "stateMutability": "view",
      "type": "function",
      "constant": true
    },
    {
      "inputs": [
        {
          "internalType": "uint256",
          "name": "",
          "type": "uint256"
        }
      ],
      "name": "teachers",
      "outputs": [
        {
          "internalType": "uint256",
          "name": "teacherId",
          "type": "uint256"
        },
        {
          "internalType": "string",
          "name": "name",
          "type": "string"
        }
      ],
      "stateMutability": "view",
      "type": "function",
      "constant": true
    },
    {
      "inputs": [
        {
          "internalType": "address",
          "name": "_student",
          "type": "address"
        },
        {
          "internalType": "string",
          "name": "_name",
          "type": "string"
        }
      ],
      "name": "addStudent",
      "outputs": [],
      "stateMutability": "nonpayable",
      "type": "function"
    },
    {
      "inputs": [
        {
          "internalType": "address",
          "name": "_teacher",
          "type": "address"
        },
        {
          "internalType": "string",
          "name": "_name",
          "type": "string"
        }
      ],
      "name": "addTeacher",
      "outputs": [],
      "stateMutability": "nonpayable",
      "type": "function"
    },
    {
      "inputs": [
        {
          "internalType": "string",
          "name": "_subjectName",
          "type": "string"
        }
      ],
      "name": "createSubject",
      "outputs": [],
      "stateMutability": "nonpayable",
      "type": "function"
    },
    {
      "inputs": [
        {
          "internalType": "uint256",
          "name": "_classDate",
          "type": "uint256"
        },
        {
          "internalType": "uint256",
          "name": "_subjectId",
          "type": "uint256"
        }
      ],
      "name": "createClass",
      "outputs": [],
      "stateMutability": "nonpayable",
      "type": "function"
    },
    {
      "inputs": [
        {
          "internalType": "uint256",
          "name": "_subjectId",
          "type": "uint256"
        },
        {
          "internalType": "address",
          "name": "_student",
          "type": "address"
        }
      ],
      "name": "enrollStudent",
      "outputs": [],
      "stateMutability": "nonpayable",
      "type": "function"
    },
    {
      "inputs": [
        {
          "internalType": "uint256",
          "name": "_subjectId",
          "type": "uint256"
        },
        {
          "internalType": "address",
          "name": "_teacher",
          "type": "address"
        }
      ],
      "name": "assignTeacher",
      "outputs": [],
      "stateMutability": "nonpayable",
      "type": "function"
    },
    {
      "inputs": [
        {
          "internalType": "uint256",
          "name": "_classId",
          "type": "uint256"
        }
      ],
      "name": "markAttendance",
      "outputs": [],
      "stateMutability": "nonpayable",
      "type": "function"
    },
    {
      "inputs": [
        {
          "internalType": "uint256",
          "name": "_classId",
          "type": "uint256"
        }
      ],
      "name": "checkAttendance",
      "outputs": [
        {
          "internalType": "bool",
          "name": "",
          "type": "bool"
        }
      ],
      "stateMutability": "view",
      "type": "function",
      "constant": true
    },
    {
      "inputs": [
        {
          "internalType": "uint256",
          "name": "_classId",
          "type": "uint256"
        },
        {
          "internalType": "address",
          "name": "_student",
          "type": "address"
        }
      ],
      "name": "checkAttendance",
      "outputs": [
        {
          "internalType": "bool",
          "name": "",
          "type": "bool"
        }
      ],
      "stateMutability": "view",
      "type": "function",
      "constant": true
    }
  ],
  "bytecode": "0x608060405234801561001057600080fd5b50336000806101000a81548173ffffffffffffffffffffffffffffffffffffffff021916908373ffffffffffffffffffffffffffffffffffffffff160217905550612431806100606000396000f3fe608060405234801561001057600080fd5b506004361061012c5760003560e01c80638da5cb5b116100ad578063aed7419b11610071578063aed7419b14610357578063b6ba723014610388578063d1939ccf146103a4578063e3596cac146103c2578063fe24ec65146103e05761012c565b80638da5cb5b146102b45780638f5b9b2e146102d2578063aba42349146102ee578063ade4f8a21461030a578063ae504c5c146103265761012c565b80633954d58b116100f45780633954d58b146101fb5780633d2d86631461021957806344d370b8146102495780635e8b80911461027a5780637194c5b3146102965761012c565b806306ead22e146101315780630ddb03bb146101625780632520f9a11461017e5780632b37f7e71461019a57806334ac0b40146101ca575b600080fd5b61014b60048036038101906101469190611ac4565b610412565b6040516101599291906120c1565b60405180910390f35b61017c60048036038101906101779190611aed565b6104ce565b005b61019860048036038101906101939190611a83565b61060a565b005b6101b460048036038101906101af9190611ac4565b6106f1565b6040516101c19190611fed565b60405180910390f35b6101e460048036038101906101df9190611ac4565b61075b565b6040516101f29291906120c1565b60405180910390f35b610203610817565b60405161021091906120a6565b60405180910390f35b610233600480360381019061022e9190611aed565b61081d565b6040516102409190611fed565b60405180910390f35b610263600480360381019061025e9190611a06565b61090d565b6040516102719291906120c1565b60405180910390f35b610294600480360381019061028f9190611a2f565b6109b9565b005b61029e610b4e565b6040516102ab91906120a6565b60405180910390f35b6102bc610b54565b6040516102c99190611fd2565b60405180910390f35b6102ec60048036038101906102e79190611a2f565b610b78565b005b61030860048036038101906103039190611aed565b610d0d565b005b610324600480360381019061031f9190611ac4565b610e49565b005b610340600480360381019061033b9190611ac4565b61102e565b60405161034e9291906120c1565b60405180910390f35b610371600480360381019061036c9190611a06565b6110da565b60405161037f9291906120c1565b60405180910390f35b6103a2600480360381019061039d9190611b29565b611186565b005b6103ac611326565b6040516103b991906120a6565b60405180910390f35b6103ca61132c565b6040516103d791906120a6565b60405180910390f35b6103fa60048036038101906103f59190611ac4565b611332565b60405161040993929190612068565b60405180910390f35b6001818154811061042257600080fd5b906000526020600020906002020160009150905080600001549080600101805461044b906122b4565b80601f0160208091040260200160405190810160405280929190818152602001828054610477906122b4565b80156104c45780601f10610499576101008083540402835291602001916104c4565b820191906000526020600020905b8154815290600101906020018083116104a757829003601f168201915b5050505050905082565b60008054906101000a900473ffffffffffffffffffffffffffffffffffffffff1673ffffffffffffffffffffffffffffffffffffffff163373ffffffffffffffffffffffffffffffffffffffff161461055c576040517f08c379a000000000000000000000000000000000000000000000000000000000815260040161055390612008565b60405180910390fd5b60096000838152602001908152602001600020600201600860008373ffffffffffffffffffffffffffffffffffffffff1673ffffffffffffffffffffffffffffffffffffffff16815260200190815260200160002090806001815401808255809150506001900390600052602060002090600202016000909190919091506000820154816000015560018201816001019080546105f8906122b4565b610603929190611650565b5050505050565b60008054906101000a900473ffffffffffffffffffffffffffffffffffffffff1673ffffffffffffffffffffffffffffffffffffffff163373ffffffffffffffffffffffffffffffffffffffff1614610698576040517f08c379a000000000000000000000000000000000000000000000000000000000815260040161068f90612008565b60405180910390fd5b600460008154809291906106ab906122e6565b9190505550600060096000600454815260200190815260200160002090506004548160000181905550818160010190805190602001906106ec9291906116dd565b505050565b6000600a600083815260200190815260200160002060070160003373ffffffffffffffffffffffffffffffffffffffff1673ffffffffffffffffffffffffffffffffffffffff16815260200190815260200160002060009054906101000a900460ff169050919050565b6002818154811061076b57600080fd5b9060005260206000209060020201600091509050806000015490806001018054610794906122b4565b80601f01602080910402602001604051908101604052809291908181526020018280546107c0906122b4565b801561080d5780601f106107e25761010080835404028352916020019161080d565b820191906000526020600020905b8154815290600101906020018083116107f057829003601f168201915b5050505050905082565b60035481565b600080600860003373ffffffffffffffffffffffffffffffffffffffff1673ffffffffffffffffffffffffffffffffffffffff1681526020019081526020016000206000015414156108a4576040517f08c379a000000000000000000000000000000000000000000000000000000000815260040161089b90612048565b60405180910390fd5b600a600084815260200190815260200160002060070160008373ffffffffffffffffffffffffffffffffffffffff1673ffffffffffffffffffffffffffffffffffffffff16815260200190815260200160002060009054906101000a900460ff16905092915050565b6008602052806000526040600020600091509050806000015490806001018054610936906122b4565b80601f0160208091040260200160405190810160405280929190818152602001828054610962906122b4565b80156109af5780601f10610984576101008083540402835291602001916109af565b820191906000526020600020905b81548152906001019060200180831161099257829003601f168201915b5050505050905082565b60008054906101000a900473ffffffffffffffffffffffffffffffffffffffff1673ffffffffffffffffffffffffffffffffffffffff163373ffffffffffffffffffffffffffffffffffffffff1614610a47576040517f08c379a0000000000000000000000000000000000000000000000000000000008152600401610a3e90612008565b60405180910390fd5b60056000815480929190610a5a906122e6565b91905055506040518060400160405280600554815260200182815250600760008473ffffffffffffffffffffffffffffffffffffffff1673ffffffffffffffffffffffffffffffffffffffff168152602001908152602001600020600082015181600001556020820151816001019080519060200190610adb9291906116dd565b50905050600160405180604001604052806005548152602001838152509080600181540180825580915050600190039060005260206000209060020201600090919091909150600082015181600001556020820151816001019080519060200190610b479291906116dd565b5050505050565b60065481565b60008054906101000a900473ffffffffffffffffffffffffffffffffffffffff1681565b60008054906101000a900473ffffffffffffffffffffffffffffffffffffffff1673ffffffffffffffffffffffffffffffffffffffff163373ffffffffffffffffffffffffffffffffffffffff1614610c06576040517f08c379a0000000000000000000000000000000000000000000000000000000008152600401610bfd90612008565b60405180910390fd5b60066000815480929190610c19906122e6565b91905055506040518060400160405280600654815260200182815250600860008473ffffffffffffffffffffffffffffffffffffffff1673ffffffffffffffffffffffffffffffffffffffff168152602001908152602001600020600082015181600001556020820151816001019080519060200190610c9a9291906116dd565b50905050600260405180604001604052806006548152602001838152509080600181540180825580915050600190039060005260206000209060020201600090919091909150600082015181600001556020820151816001019080519060200190610d069291906116dd565b5050505050565b60008054906101000a900473ffffffffffffffffffffffffffffffffffffffff1673ffffffffffffffffffffffffffffffffffffffff163373ffffffffffffffffffffffffffffffffffffffff1614610d9b576040517f08c379a0000000000000000000000000000000000000000000000000000000008152600401610d9290612008565b60405180910390fd5b60096000838152602001908152602001600020600301600760008373ffffffffffffffffffffffffffffffffffffffff1673ffffffffffffffffffffffffffffffffffffffff1681526020019081526020016000209080600181540180825580915050600190039060005260206000209060020201600090919091909150600082015481600001556001820181600101908054610e37906122b4565b610e42929190611650565b5050505050565b600a6000828152602001908152602001600020600501546000805b60096000600a600086815260200190815260200160002060000160000154815260200190815260200160002060030180549050811015610f7c57600760003373ffffffffffffffffffffffffffffffffffffffff1673ffffffffffffffffffffffffffffffffffffffff1681526020019081526020016000206000015460096000600a60008781526020019081526020016000206000016000015481526020019081526020016000206003018281548110610f48577f4e487b7100000000000000000000000000000000000000000000000000000000600052603260045260246000fd5b9060005260206000209060020201600001541415610f695760019150610f7c565b8080610f74906122e6565b915050610e64565b5080610fbd576040517f08c379a0000000000000000000000000000000000000000000000000000000008152600401610fb490612028565b60405180910390fd5b6001600a600085815260200190815260200160002060070160003373ffffffffffffffffffffffffffffffffffffffff1673ffffffffffffffffffffffffffffffffffffffff16815260200190815260200160002060006101000a81548160ff021916908315150217905550505050565b6009602052806000526040600020600091509050806000015490806001018054611057906122b4565b80601f0160208091040260200160405190810160405280929190818152602001828054611083906122b4565b80156110d05780601f106110a5576101008083540402835291602001916110d0565b820191906000526020600020905b8154815290600101906020018083116110b357829003601f168201915b5050505050905082565b6007602052806000526040600020600091509050806000015490806001018054611103906122b4565b80601f016020809104026020016040519081016040528092919081815260200182805461112f906122b4565b801561117c5780601f106111515761010080835404028352916020019161117c565b820191906000526020600020905b81548152906001019060200180831161115f57829003601f168201915b5050505050905082565b60008054906101000a900473ffffffffffffffffffffffffffffffffffffffff1673ffffffffffffffffffffffffffffffffffffffff163373ffffffffffffffffffffffffffffffffffffffff1614611214576040517f08c379a000000000000000000000000000000000000000000000000000000000815260040161120b90612008565b60405180910390fd5b60036000815480929190611227906122e6565b91905055506000600a600060035481526020019081526020016000209050600960008381526020019081526020016000208160000160008201548160000155600182018160010190805461127a906122b4565b611285929190611650565b50600282018160020190805461129c929190611763565b5060038201816003019080546112b39291906117e5565b5060048201816004019080546112ca929190611867565b509050506003548160050181905550828160060181905550600960008381526020019081526020016000206004016003549080600181540180825580915050600190039060005260206000200160009091909190915055505050565b60045481565b60055481565b600a602052806000526040600020600091509050806000016040518060a00160405290816000820154815260200160018201805461136f906122b4565b80601f016020809104026020016040519081016040528092919081815260200182805461139b906122b4565b80156113e85780601f106113bd576101008083540402835291602001916113e8565b820191906000526020600020905b8154815290600101906020018083116113cb57829003601f168201915b5050505050815260200160028201805480602002602001604051908101604052809291908181526020016000905b828210156114e4578382906000526020600020906002020160405180604001604052908160008201548152602001600182018054611453906122b4565b80601f016020809104026020016040519081016040528092919081815260200182805461147f906122b4565b80156114cc5780601f106114a1576101008083540402835291602001916114cc565b820191906000526020600020905b8154815290600101906020018083116114af57829003601f168201915b50505050508152505081526020019060010190611416565b50505050815260200160038201805480602002602001604051908101604052809291908181526020016000905b828210156115df57838290600052602060002090600202016040518060400160405290816000820154815260200160018201805461154e906122b4565b80601f016020809104026020016040519081016040528092919081815260200182805461157a906122b4565b80156115c75780601f1061159c576101008083540402835291602001916115c7565b820191906000526020600020905b8154815290600101906020018083116115aa57829003601f168201915b50505050508152505081526020019060010190611511565b5050505081526020016004820180548060200260200160405190810160405280929190818152602001828054801561163657602002820191906000526020600020905b815481526020019060010190808311611622575b505050505081525050908060050154908060060154905083565b82805461165c906122b4565b90600052602060002090601f01602090048101928261167e57600085556116cc565b82601f1061168f57805485556116cc565b828001600101855582156116cc57600052602060002091601f016020900482015b828111156116cb5782548255916001019190600101906116b0565b5b5090506116d991906118b9565b5090565b8280546116e9906122b4565b90600052602060002090601f01602090048101928261170b5760008555611752565b82601f1061172457805160ff1916838001178555611752565b82800160010185558215611752579182015b82811115611751578251825591602001919060010190611736565b5b50905061175f91906118b9565b5090565b8280548282559060005260206000209060020281019282156117d45760005260206000209160020282015b828111156117d35782826000820154816000015560018201816001019080546117b6906122b4565b6117c1929190611650565b5050509160020191906002019061178e565b5b5090506117e191906118d6565b5090565b8280548282559060005260206000209060020281019282156118565760005260206000209160020282015b82811115611855578282600082015481600001556001820181600101908054611838906122b4565b611843929190611650565b50505091600201919060020190611810565b5b5090506118639190611905565b5090565b8280548282559060005260206000209081019282156118a85760005260206000209182015b828111156118a757825482559160010191906001019061188c565b5b5090506118b591906118b9565b5090565b5b808211156118d25760008160009055506001016118ba565b5090565b5b80821115611901576000808201600090556001820160006118f89190611934565b506002016118d7565b5090565b5b80821115611930576000808201600090556001820160006119279190611934565b50600201611906565b5090565b508054611940906122b4565b6000825580601f106119525750611971565b601f01602090049060005260206000209081019061197091906118b9565b5b50565b600061198761198284612122565b6120f1565b90508281526020810184848401111561199f57600080fd5b6119aa848285612272565b509392505050565b6000813590506119c1816123cd565b92915050565b600082601f8301126119d857600080fd5b81356119e8848260208601611974565b91505092915050565b600081359050611a00816123e4565b92915050565b600060208284031215611a1857600080fd5b6000611a26848285016119b2565b91505092915050565b60008060408385031215611a4257600080fd5b6000611a50858286016119b2565b925050602083013567ffffffffffffffff811115611a6d57600080fd5b611a79858286016119c7565b9150509250929050565b600060208284031215611a9557600080fd5b600082013567ffffffffffffffff811115611aaf57600080fd5b611abb848285016119c7565b91505092915050565b600060208284031215611ad657600080fd5b6000611ae4848285016119f1565b91505092915050565b60008060408385031215611b0057600080fd5b6000611b0e858286016119f1565b9250506020611b1f858286016119b2565b9150509250929050565b60008060408385031215611b3c57600080fd5b6000611b4a858286016119f1565b9250506020611b5b858286016119f1565b9150509250929050565b6000611b718383611eaf565b905092915050565b6000611b858383611f77565b905092915050565b6000611b998383611fb4565b60208301905092915050565b611bae8161222a565b82525050565b6000611bbf82612182565b611bc981856121d5565b935083602082028501611bdb85612152565b8060005b85811015611c175784840389528151611bf88582611b65565b9450611c03836121ae565b925060208a01995050600181019050611bdf565b50829750879550505050505092915050565b6000611c348261218d565b611c3e81856121e6565b935083602082028501611c5085612162565b8060005b85811015611c8c5784840389528151611c6d8582611b79565b9450611c78836121bb565b925060208a01995050600181019050611c54565b50829750879550505050505092915050565b6000611ca982612198565b611cb381856121f7565b9350611cbe83612172565b8060005b83811015611cef578151611cd68882611b8d565b9750611ce1836121c8565b925050600181019050611cc2565b5085935050505092915050565b611d058161223c565b82525050565b6000611d16826121a3565b611d208185612208565b9350611d30818560208601612281565b611d39816123bc565b840191505092915050565b6000611d4f826121a3565b611d598185612219565b9350611d69818560208601612281565b611d72816123bc565b840191505092915050565b6000611d8a602183612219565b91507f4f6e6c79206f776e65722063616e2063616c6c20746869732066756e6374696f60008301527f6e000000000000000000000000000000000000000000000000000000000000006020830152604082019050919050565b6000611df0602d83612219565b91507f4f6e6c7920656e726f6c6c65642073747564656e74732063616e2063616c6c2060008301527f746869732066756e6374696f6e000000000000000000000000000000000000006020830152604082019050919050565b6000611e56602483612219565b91507f4f6e6c792074656163686572732063616e2063616c6c20746869732066756e6360008301527f74696f6e000000000000000000000000000000000000000000000000000000006020830152604082019050919050565b6000604083016000830151611ec76000860182611fb4565b5060208301518482036020860152611edf8282611d0b565b9150508091505092915050565b600060a083016000830151611f046000860182611fb4565b5060208301518482036020860152611f1c8282611d0b565b91505060408301518482036040860152611f368282611c29565b91505060608301518482036060860152611f508282611bb4565b91505060808301518482036080860152611f6a8282611c9e565b9150508091505092915050565b6000604083016000830151611f8f6000860182611fb4565b5060208301518482036020860152611fa78282611d0b565b9150508091505092915050565b611fbd81612268565b82525050565b611fcc81612268565b82525050565b6000602082019050611fe76000830184611ba5565b92915050565b60006020820190506120026000830184611cfc565b92915050565b6000602082019050818103600083015261202181611d7d565b9050919050565b6000602082019050818103600083015261204181611de3565b9050919050565b6000602082019050818103600083015261206181611e49565b9050919050565b600060608201905081810360008301526120828186611eec565b90506120916020830185611fc3565b61209e6040830184611fc3565b949350505050565b60006020820190506120bb6000830184611fc3565b92915050565b60006040820190506120d66000830185611fc3565b81810360208301526120e88184611d44565b90509392505050565b6000604051905081810181811067ffffffffffffffff821117156121185761211761238d565b5b8060405250919050565b600067ffffffffffffffff82111561213d5761213c61238d565b5b601f19601f8301169050602081019050919050565b6000819050602082019050919050565b6000819050602082019050919050565b6000819050602082019050919050565b600081519050919050565b600081519050919050565b600081519050919050565b600081519050919050565b6000602082019050919050565b6000602082019050919050565b6000602082019050919050565b600082825260208201905092915050565b600082825260208201905092915050565b600082825260208201905092915050565b600082825260208201905092915050565b600082825260208201905092915050565b600061223582612248565b9050919050565b60008115159050919050565b600073ffffffffffffffffffffffffffffffffffffffff82169050919050565b6000819050919050565b82818337600083830152505050565b60005b8381101561229f578082015181840152602081019050612284565b838111156122ae576000848401525b50505050565b600060028204905060018216806122cc57607f821691505b602082108114156122e0576122df61235e565b5b50919050565b60006122f182612268565b91507fffffffffffffffffffffffffffffffffffffffffffffffffffffffffffffffff8214156123245761232361232f565b5b600182019050919050565b7f4e487b7100000000000000000000000000000000000000000000000000000000600052601160045260246000fd5b7f4e487b7100000000000000000000000000000000000000000000000000000000600052602260045260246000fd5b7f4e487b7100000000000000000000000000000000000000000000000000000000600052604160045260246000fd5b6000601f19601f8301169050919050565b6123d68161222a565b81146123e157600080fd5b50565b6123ed81612268565b81146123f857600080fd5b5056fea26469706673582212204d755d927bb95107bd4b3541d0b0ded23afe7c54a909e8805f3eddf1cca55bd564736f6c63430008000033",
  "immutableReferences": {},
  "source": "//SPDX-License-Identifier: MIT\n\npragma solidity ^0.8.0;\n\ncontract Attendance {\n\n    address public owner;\n    Student[] public students;\n    Teacher[] public teachers;\n    uint256 public classCounter;\n    uint256 public subjectCounter;\n    uint256 public studentCounter;\n    uint256 public teacherCounter;\n\n    struct Student {\n        uint256 studentId;\n        string name;\n    }\n\n    struct Teacher {\n        uint256 teacherId;\n        string name;\n    }\n\n    struct Subject {\n        uint256 subjectId;\n        string subjectName;\n        Teacher[] teachingTeachers;\n        Student[] enrolledStudents;\n        uint256[] classIds;\n    }\n\n    struct Class {\n        Subject subject;\n        uint256 classId;\n        uint256 classDate;\n        mapping(address => bool) attendance;\n    }\n\n    mapping(address => Student) public studentDetails;\n    mapping(address => Teacher) public teacherDetails;\n    mapping(uint256 => Subject) public subjectDetails;\n    mapping(uint256 => Class) public classDetails;\n\n    modifier onlyOwner() {\n        require(msg.sender == owner, \"Only owner can call this function\");\n        _;\n    }\n\n    modifier onlyTeacher() {\n        require(teacherDetails[msg.sender].teacherId != 0, \"Only teachers can call this function\");\n        _;\n    }\n\n    modifier onlyStudent() {\n        require(studentDetails[msg.sender].studentId != 0, \"Only students can call this function\");\n        _;\n    }\n\n    modifier onlyEnrolledStudent(uint256 classId) {\n        bool isEnrolled = false;\n        for (uint256 i = 0; i < subjectDetails[classDetails[classId].subject.subjectId].enrolledStudents.length; i++) {\n            if (subjectDetails[classDetails[classId].subject.subjectId].enrolledStudents[i].studentId == studentDetails[msg.sender].studentId) {\n                isEnrolled = true;\n                break;\n            }\n        }\n        require(isEnrolled, \"Only enrolled students can call this function\");\n        _;\n    }\n\n    function addStudent(address _student, string memory _name) public onlyOwner {\n        studentCounter++;\n        studentDetails[_student] = Student(studentCounter, _name);\n        students.push(Student(studentCounter, _name));\n    }   \n\n    function addTeacher(address _teacher, string memory _name) public onlyOwner {\n        teacherCounter++;\n        teacherDetails[_teacher] = Teacher(teacherCounter,_name);\n        teachers.push(Teacher(teacherCounter, _name));\n    }\n\n    function createSubject(string memory _subjectName) public onlyOwner {\n        subjectCounter++;\n        Subject storage newSubject = subjectDetails[subjectCounter];\n        newSubject.subjectId=subjectCounter;\n        newSubject.subjectName = _subjectName;\n    }\n\n    function createClass(uint256 _classDate, uint256 _subjectId) public onlyOwner {\n        classCounter++;\n        \n        Class storage newClass = classDetails[classCounter];\n        newClass.subject = subjectDetails[_subjectId];\n        newClass.classId = classCounter;\n        newClass.classDate = _classDate;\n        subjectDetails[_subjectId].classIds.push(classCounter);\n    }\n\n    function enrollStudent(uint256 _subjectId, address _student) public onlyOwner {\n        subjectDetails[_subjectId].enrolledStudents.push(studentDetails[_student]);\n    }\n\n    function assignTeacher(uint256 _subjectId, address _teacher) public onlyOwner {\n        subjectDetails[_subjectId].teachingTeachers.push(teacherDetails[_teacher]);\n    }\n\n    function markAttendance(uint256 _classId) public onlyEnrolledStudent(classDetails[_classId].classId) {\n        classDetails[_classId].attendance[msg.sender] = true;\n    }\n\n    function checkAttendance(uint256 _classId) public view returns (bool) {\n        return classDetails[_classId].attendance[msg.sender];\n    }\n\n    function checkAttendance(uint256 _classId, address _student) public view onlyTeacher returns (bool) {\n        return classDetails[_classId].attendance[_student];\n    }\n\n    constructor() {\n        owner = msg.sender;\n    }\n}",
  "sourcePath": "C:\\Users\\User\\Desktop\\dev\\Blockchain\\contracts\\Attendance.sol",
  "compiler": {
    "name": "solc",
    "version": "0.8.0+commit.c7dfd78e.Emscripten.clang"
  },
  "schemaVersion": "3.4.16",
  "updatedAt": "2025-01-12T12:27:36.569Z",
  "networkType": "ethereum",
  "devdoc": {
    "kind": "dev",
    "methods": {},
    "version": 1
  },
  "userdoc": {
    "kind": "user",
    "methods": {},
    "version": 1
  }
}