{
  "contractName": "Attendance",
  "abi": [
    {
      "inputs": [],
      "stateMutability": "nonpayable",
      "type": "constructor"
    },
    {
      "anonymous": false,
      "inputs": [
        {
          "indexed": false,
          "internalType": "uint256",
          "name": "classId",
          "type": "uint256"
        },
        {
          "indexed": false,
          "internalType": "address",
          "name": "student",
          "type": "address"
        }
      ],
      "name": "attendanceMarked",
      "type": "event"
    },
    {
      "anonymous": false,
      "inputs": [
        {
          "indexed": false,
          "internalType": "uint256",
          "name": "classId",
          "type": "uint256"
        },
        {
          "indexed": false,
          "internalType": "uint256",
          "name": "classDate",
          "type": "uint256"
        },
        {
          "indexed": false,
          "internalType": "uint256",
          "name": "subjectId",
          "type": "uint256"
        }
      ],
      "name": "classCreated",
      "type": "event"
    },
    {
      "anonymous": false,
      "inputs": [
        {
          "indexed": false,
          "internalType": "address",
          "name": "student",
          "type": "address"
        },
        {
          "indexed": false,
          "internalType": "string",
          "name": "name",
          "type": "string"
        }
      ],
      "name": "studentAdded",
      "type": "event"
    },
    {
      "anonymous": false,
      "inputs": [
        {
          "indexed": false,
          "internalType": "uint256",
          "name": "subjectId",
          "type": "uint256"
        },
        {
          "indexed": false,
          "internalType": "address",
          "name": "student",
          "type": "address"
        }
      ],
      "name": "studentEnrolled",
      "type": "event"
    },
    {
      "anonymous": false,
      "inputs": [
        {
          "indexed": false,
          "internalType": "uint256",
          "name": "subjectId",
          "type": "uint256"
        },
        {
          "indexed": false,
          "internalType": "string",
          "name": "subjectName",
          "type": "string"
        }
      ],
      "name": "subjectCreated",
      "type": "event"
    },
    {
      "anonymous": false,
      "inputs": [
        {
          "indexed": false,
          "internalType": "address",
          "name": "teacher",
          "type": "address"
        },
        {
          "indexed": false,
          "internalType": "string",
          "name": "name",
          "type": "string"
        }
      ],
      "name": "teacherAdded",
      "type": "event"
    },
    {
      "anonymous": false,
      "inputs": [
        {
          "indexed": false,
          "internalType": "uint256",
          "name": "subjectId",
          "type": "uint256"
        },
        {
          "indexed": false,
          "internalType": "address",
          "name": "teacher",
          "type": "address"
        }
      ],
      "name": "teacherAssigned",
      "type": "event"
    },
    {
      "inputs": [],
      "name": "admin",
      "outputs": [
        {
          "internalType": "address",
          "name": "",
          "type": "address"
        }
      ],
      "stateMutability": "view",
      "type": "function",
      "constant": true
    },
    {
      "inputs": [],
      "name": "classCounter",
      "outputs": [
        {
          "internalType": "uint256",
          "name": "",
          "type": "uint256"
        }
      ],
      "stateMutability": "view",
      "type": "function",
      "constant": true
    },
    {
      "inputs": [
        {
          "internalType": "uint256",
          "name": "",
          "type": "uint256"
        }
      ],
      "name": "classDetails",
      "outputs": [
        {
          "components": [
            {
              "internalType": "uint256",
              "name": "subjectId",
              "type": "uint256"
            },
            {
              "internalType": "string",
              "name": "subjectName",
              "type": "string"
            },
            {
              "components": [
                {
                  "internalType": "uint256",
                  "name": "teacherId",
                  "type": "uint256"
                },
                {
                  "internalType": "string",
                  "name": "name",
                  "type": "string"
                }
              ],
              "internalType": "struct Attendance.Teacher[]",
              "name": "teachingTeachers",
              "type": "tuple[]"
            },
            {
              "components": [
                {
                  "internalType": "uint256",
                  "name": "studentId",
                  "type": "uint256"
                },
                {
                  "internalType": "string",
                  "name": "name",
                  "type": "string"
                }
              ],
              "internalType": "struct Attendance.Student[]",
              "name": "enrolledStudents",
              "type": "tuple[]"
            },
            {
              "internalType": "uint256[]",
              "name": "classIds",
              "type": "uint256[]"
            }
          ],
          "internalType": "struct Attendance.Subject",
          "name": "subject",
          "type": "tuple"
        },
        {
          "internalType": "uint256",
          "name": "classId",
          "type": "uint256"
        },
        {
          "internalType": "uint256",
          "name": "classDate",
          "type": "uint256"
        },
        {
          "internalType": "string",
          "name": "classPwd",
          "type": "string"
        },
        {
          "internalType": "uint256",
          "name": "passwordExpiry",
          "type": "uint256"
        }
      ],
      "stateMutability": "view",
      "type": "function",
      "constant": true
    },
    {
      "inputs": [
        {
          "internalType": "address",
          "name": "",
          "type": "address"
        }
      ],
      "name": "roles",
      "outputs": [
        {
          "internalType": "string",
          "name": "",
          "type": "string"
        }
      ],
      "stateMutability": "view",
      "type": "function",
      "constant": true
    },
    {
      "inputs": [],
      "name": "studentCounter",
      "outputs": [
        {
          "internalType": "uint256",
          "name": "",
          "type": "uint256"
        }
      ],
      "stateMutability": "view",
      "type": "function",
      "constant": true
    },
    {
      "inputs": [
        {
          "internalType": "address",
          "name": "",
          "type": "address"
        }
      ],
      "name": "studentDetails",
      "outputs": [
        {
          "internalType": "uint256",
          "name": "studentId",
          "type": "uint256"
        },
        {
          "internalType": "string",
          "name": "name",
          "type": "string"
        }
      ],
      "stateMutability": "view",
      "type": "function",
      "constant": true
    },
    {
      "inputs": [
        {
          "internalType": "uint256",
          "name": "",
          "type": "uint256"
        }
      ],
      "name": "students",
      "outputs": [
        {
          "internalType": "uint256",
          "name": "studentId",
          "type": "uint256"
        },
        {
          "internalType": "string",
          "name": "name",
          "type": "string"
        }
      ],
      "stateMutability": "view",
      "type": "function",
      "constant": true
    },
    {
      "inputs": [],
      "name": "subjectCounter",
      "outputs": [
        {
          "internalType": "uint256",
          "name": "",
          "type": "uint256"
        }
      ],
      "stateMutability": "view",
      "type": "function",
      "constant": true
    },
    {
      "inputs": [
        {
          "internalType": "uint256",
          "name": "",
          "type": "uint256"
        }
      ],
      "name": "subjectDetails",
      "outputs": [
        {
          "internalType": "uint256",
          "name": "subjectId",
          "type": "uint256"
        },
        {
          "internalType": "string",
          "name": "subjectName",
          "type": "string"
        }
      ],
      "stateMutability": "view",
      "type": "function",
      "constant": true
    },
    {
      "inputs": [],
      "name": "teacherCounter",
      "outputs": [
        {
          "internalType": "uint256",
          "name": "",
          "type": "uint256"
        }
      ],
      "stateMutability": "view",
      "type": "function",
      "constant": true
    },
    {
      "inputs": [
        {
          "internalType": "address",
          "name": "",
          "type": "address"
        }
      ],
      "name": "teacherDetails",
      "outputs": [
        {
          "internalType": "uint256",
          "name": "teacherId",
          "type": "uint256"
        },
        {
          "internalType": "string",
          "name": "name",
          "type": "string"
        }
      ],
      "stateMutability": "view",
      "type": "function",
      "constant": true
    },
    {
      "inputs": [
        {
          "internalType": "uint256",
          "name": "",
          "type": "uint256"
        }
      ],
      "name": "teachers",
      "outputs": [
        {
          "internalType": "uint256",
          "name": "teacherId",
          "type": "uint256"
        },
        {
          "internalType": "string",
          "name": "name",
          "type": "string"
        }
      ],
      "stateMutability": "view",
      "type": "function",
      "constant": true
    },
    {
      "inputs": [
        {
          "internalType": "address",
          "name": "user",
          "type": "address"
        }
      ],
      "name": "getRole",
      "outputs": [
        {
          "internalType": "string",
          "name": "",
          "type": "string"
        }
      ],
      "stateMutability": "view",
      "type": "function",
      "constant": true
    },
    {
      "inputs": [
        {
          "internalType": "address",
          "name": "_student",
          "type": "address"
        },
        {
          "internalType": "string",
          "name": "_name",
          "type": "string"
        }
      ],
      "name": "addStudent",
      "outputs": [],
      "stateMutability": "nonpayable",
      "type": "function"
    },
    {
      "inputs": [
        {
          "internalType": "address",
          "name": "_teacher",
          "type": "address"
        },
        {
          "internalType": "string",
          "name": "_name",
          "type": "string"
        }
      ],
      "name": "addTeacher",
      "outputs": [],
      "stateMutability": "nonpayable",
      "type": "function"
    },
    {
      "inputs": [
        {
          "internalType": "string",
          "name": "_subjectName",
          "type": "string"
        }
      ],
      "name": "createSubject",
      "outputs": [],
      "stateMutability": "nonpayable",
      "type": "function"
    },
    {
      "inputs": [
        {
          "internalType": "uint256",
          "name": "_classDate",
          "type": "uint256"
        },
        {
          "internalType": "uint256",
          "name": "_subjectId",
          "type": "uint256"
        }
      ],
      "name": "createClass",
      "outputs": [],
      "stateMutability": "nonpayable",
      "type": "function"
    },
    {
      "inputs": [
        {
          "internalType": "uint256",
          "name": "_subjectId",
          "type": "uint256"
        }
      ],
      "name": "getClassIds",
      "outputs": [
        {
          "internalType": "uint256[]",
          "name": "",
          "type": "uint256[]"
        }
      ],
      "stateMutability": "view",
      "type": "function",
      "constant": true
    },
    {
      "inputs": [
        {
          "internalType": "uint256",
          "name": "_subjectId",
          "type": "uint256"
        },
        {
          "internalType": "address",
          "name": "_student",
          "type": "address"
        }
      ],
      "name": "enrollStudent",
      "outputs": [],
      "stateMutability": "nonpayable",
      "type": "function"
    },
    {
      "inputs": [
        {
          "internalType": "uint256",
          "name": "_subjectId",
          "type": "uint256"
        },
        {
          "internalType": "address",
          "name": "_teacher",
          "type": "address"
        }
      ],
      "name": "assignTeacher",
      "outputs": [],
      "stateMutability": "nonpayable",
      "type": "function"
    },
    {
      "inputs": [
        {
          "internalType": "uint256",
          "name": "_classId",
          "type": "uint256"
        },
        {
          "internalType": "string",
          "name": "_pwd",
          "type": "string"
        }
      ],
      "name": "markAttendance",
      "outputs": [],
      "stateMutability": "nonpayable",
      "type": "function"
    },
    {
      "inputs": [
        {
          "internalType": "uint256",
          "name": "_classId",
          "type": "uint256"
        }
      ],
      "name": "checkAttendance",
      "outputs": [
        {
          "internalType": "bool",
          "name": "",
          "type": "bool"
        }
      ],
      "stateMutability": "view",
      "type": "function",
      "constant": true
    },
    {
      "inputs": [
        {
          "internalType": "uint256",
          "name": "_classId",
          "type": "uint256"
        },
        {
          "internalType": "address",
          "name": "_student",
          "type": "address"
        }
      ],
      "name": "checkAttendance",
      "outputs": [
        {
          "internalType": "bool",
          "name": "",
          "type": "bool"
        }
      ],
      "stateMutability": "view",
      "type": "function",
      "constant": true
    },
    {
      "inputs": [
        {
          "internalType": "uint256",
          "name": "_classId",
          "type": "uint256"
        }
      ],
      "name": "generateClassPwd",
      "outputs": [],
      "stateMutability": "nonpayable",
      "type": "function"
    },
    {
      "inputs": [],
      "name": "getRandomPassword",
      "outputs": [
        {
          "internalType": "string",
          "name": "",
          "type": "string"
        }
      ],
      "stateMutability": "view",
      "type": "function",
      "constant": true
    },
    {
      "inputs": [
        {
          "internalType": "uint256",
          "name": "_subjectId",
          "type": "uint256"
        }
      ],
      "name": "getEnrolledStudents",
      "outputs": [
        {
          "components": [
            {
              "internalType": "uint256",
              "name": "studentId",
              "type": "uint256"
            },
            {
              "internalType": "string",
              "name": "name",
              "type": "string"
            }
          ],
          "internalType": "struct Attendance.Student[]",
          "name": "",
          "type": "tuple[]"
        }
      ],
      "stateMutability": "view",
      "type": "function",
      "constant": true
    },
    {
      "inputs": [
        {
          "internalType": "uint256",
          "name": "_subjectId",
          "type": "uint256"
        }
      ],
      "name": "getClassesForTeacher",
      "outputs": [
        {
          "internalType": "uint256[]",
          "name": "",
          "type": "uint256[]"
        }
      ],
      "stateMutability": "view",
      "type": "function",
      "constant": true
    },
    {
      "inputs": [
        {
          "internalType": "uint256",
          "name": "_subjectId",
          "type": "uint256"
        }
      ],
      "name": "getClassesForStudent",
      "outputs": [
        {
          "internalType": "uint256[]",
          "name": "",
          "type": "uint256[]"
        }
      ],
      "stateMutability": "view",
      "type": "function",
      "constant": true
    },
    {
      "inputs": [],
      "name": "getSubjectsForStudent",
      "outputs": [
        {
          "internalType": "uint256[]",
          "name": "",
          "type": "uint256[]"
        }
      ],
      "stateMutability": "view",
      "type": "function",
      "constant": true
    },
    {
      "inputs": [
        {
          "internalType": "address",
          "name": "_student",
          "type": "address"
        }
      ],
      "name": "removeStudent",
      "outputs": [],
      "stateMutability": "nonpayable",
      "type": "function"
    },
    {
      "inputs": [
        {
          "internalType": "address",
          "name": "_teacher",
          "type": "address"
        }
      ],
      "name": "removeTeacher",
      "outputs": [],
      "stateMutability": "nonpayable",
      "type": "function"
    },
    {
      "inputs": [
        {
          "internalType": "uint256",
          "name": "_subjectId",
          "type": "uint256"
        }
      ],
      "name": "removeSubject",
      "outputs": [],
      "stateMutability": "nonpayable",
      "type": "function"
    },
    {
      "inputs": [
        {
          "internalType": "uint256",
          "name": "_classId",
          "type": "uint256"
        }
      ],
      "name": "removeClass",
      "outputs": [],
      "stateMutability": "nonpayable",
      "type": "function"
    }
  ],
  "bytecode": "0x60806040523480156200001157600080fd5b50336000806101000a81548173ffffffffffffffffffffffffffffffffffffffff021916908373ffffffffffffffffffffffffffffffffffffffff1602179055506040518060400160405280600581526020017f61646d696e000000000000000000000000000000000000000000000000000000815250600b60003373ffffffffffffffffffffffffffffffffffffffff1673ffffffffffffffffffffffffffffffffffffffff1681526020019081526020016000209080519060200190620000dc929190620000e3565b50620001f8565b828054620000f19062000193565b90600052602060002090601f01602090048101928262000115576000855562000161565b82601f106200013057805160ff191683800117855562000161565b8280016001018555821562000161579182015b828111156200016057825182559160200191906001019062000143565b5b50905062000170919062000174565b5090565b5b808211156200018f57600081600090555060010162000175565b5090565b60006002820490506001821680620001ac57607f821691505b60208210811415620001c357620001c2620001c9565b5b50919050565b7f4e487b7100000000000000000000000000000000000000000000000000000000600052602260045260246000fd5b61471380620002086000396000f3fe608060405234801561001057600080fd5b50600436106101fb5760003560e01c80637194c5b31161011a578063ae504c5c116100ad578063cf19cacd1161007c578063cf19cacd1461060d578063d1939ccf1461063d578063e3596cac1461065b578063f851a44014610679578063fe24ec6514610697576101fb565b8063ae504c5c1461055f578063aed7419b14610590578063b6ba7230146105c1578063c91aacc4146105dd576101fb565b80638f5b9b2e116100e95780638f5b9b2e146104db57806399374642146104f7578063a90795cf14610527578063aba4234914610543576101fb565b80637194c5b31461046957806372c30f451461048757806378c4798c146104a357806380d01999146104bf576101fb565b80633954d58b11610192578063465c0e5311610161578063465c0e53146103f757806350e0b94d1461041557806352ff6846146104315780635e8b80911461044d576101fb565b80633954d58b146103485780633d2d866314610366578063442767331461039657806344d370b8146103c6576101fb565b80632aca07c1116101ce5780632aca07c1146102875780632b37f7e7146102b75780632cefe588146102e757806334ac0b4014610317576101fb565b806306ead22e146102005780630ddb03bb146102315780632520f9a11461024d578063294d8a3914610269575b600080fd5b61021a6004803603810190610215919061361d565b6106cb565b60405161022892919061417e565b60405180910390f35b61024b60048036038101906102469190613646565b610787565b005b610267600480360381019061026291906135dc565b610938565b005b610271610a96565b60405161027e9190613f9a565b60405180910390f35b6102a1600480360381019061029c919061361d565b610d78565b6040516102ae9190613f9a565b60405180910390f35b6102d160048036038101906102cc919061361d565b610de6565b6040516102de9190613fbc565b60405180910390f35b61030160048036038101906102fc919061361d565b610e50565b60405161030e9190613f9a565b60405180910390f35b610331600480360381019061032c919061361d565b611052565b60405161033f92919061417e565b60405180910390f35b61035061110e565b60405161035d919061413a565b60405180910390f35b610380600480360381019061037b9190613646565b611114565b60405161038d9190613fbc565b60405180910390f35b6103b060048036038101906103ab919061355f565b611204565b6040516103bd9190613fd7565b60405180910390f35b6103e060048036038101906103db919061355f565b6112d5565b6040516103ee92919061417e565b60405180910390f35b6103ff611381565b60405161040c9190613fd7565b60405180910390f35b61042f600480360381019061042a919061361d565b611552565b005b61044b6004803603810190610446919061355f565b61163a565b005b61046760048036038101906104629190613588565b611761565b005b6104716119aa565b60405161047e919061413a565b60405180910390f35b6104a1600480360381019061049c919061361d565b6119b0565b005b6104bd60048036038101906104b8919061355f565b611b0a565b005b6104d960048036038101906104d4919061361d565b611c31565b005b6104f560048036038101906104f09190613588565b611d5c565b005b610511600480360381019061050c919061355f565b611fa5565b60405161051e9190613fd7565b60405180910390f35b610541600480360381019061053c9190613682565b612045565b005b61055d60048036038101906105589190613646565b612407565b005b6105796004803603810190610574919061361d565b6125b8565b60405161058792919061417e565b60405180910390f35b6105aa60048036038101906105a5919061355f565b612664565b6040516105b892919061417e565b60405180910390f35b6105db60048036038101906105d691906136d6565b612710565b005b6105f760048036038101906105f2919061361d565b612929565b6040516106049190613f78565b60405180910390f35b6106276004803603810190610622919061361d565b612bce565b6040516106349190613f9a565b60405180910390f35b610645612c3c565b604051610652919061413a565b60405180910390f35b610663612c42565b604051610670919061413a565b60405180910390f35b610681612c48565b60405161068e9190613f2d565b60405180910390f35b6106b160048036038101906106ac919061361d565b612c6c565b6040516106c29594939291906140d9565b60405180910390f35b600181815481106106db57600080fd5b9060005260206000209060020201600091509050806000015490806001018054610704906144af565b80601f0160208091040260200160405190810160405280929190818152602001828054610730906144af565b801561077d5780601f106107525761010080835404028352916020019161077d565b820191906000526020600020905b81548152906001019060200180831161076057829003601f168201915b5050505050905082565b60405160200161079690613edb565b60405160208183030381529060405280519060200120600b60003373ffffffffffffffffffffffffffffffffffffffff1673ffffffffffffffffffffffffffffffffffffffff1681526020019081526020016000206040516020016107fb9190613ec4565b6040516020818303038152906040528051906020012014610851576040517f08c379a000000000000000000000000000000000000000000000000000000000815260040161084890614099565b60405180910390fd5b60096000838152602001908152602001600020600201600860008373ffffffffffffffffffffffffffffffffffffffff1673ffffffffffffffffffffffffffffffffffffffff16815260200190815260200160002090806001815401808255809150506001900390600052602060002090600202016000909190919091506000820154816000015560018201816001019080546108ed906144af565b6108f8929190613140565b5050507f8c067146ec725333e811330fd75fb90567f7eeca601628b5943875fc4a43723e828260405161092c929190614155565b60405180910390a15050565b60405160200161094790613edb565b60405160208183030381529060405280519060200120600b60003373ffffffffffffffffffffffffffffffffffffffff1673ffffffffffffffffffffffffffffffffffffffff1681526020019081526020016000206040516020016109ac9190613ec4565b6040516020818303038152906040528051906020012014610a02576040517f08c379a00000000000000000000000000000000000000000000000000000000081526004016109f990614099565b60405180910390fd5b60046000815480929190610a15906144e1565b919050555060006009600060045481526020019081526020016000209050600454816000018190555081816001019080519060200190610a569291906131cd565b507feeb360ad20d46a8343b758e287ec025d44c51139825f3af2950630c14599acbd60045483604051610a8a92919061417e565b60405180910390a15050565b606060006004549050600080600190505b828111610ba957600060096000838152602001908152602001600020905060005b8160030180549050811015610b9457600760003373ffffffffffffffffffffffffffffffffffffffff1673ffffffffffffffffffffffffffffffffffffffff16815260200190815260200160002060000154826003018281548110610b56577f4e487b7100000000000000000000000000000000000000000000000000000000600052603260045260246000fd5b9060005260206000209060020201600001541415610b81578380610b79906144e1565b945050610b94565b8080610b8c906144e1565b915050610ac8565b50508080610ba1906144e1565b915050610aa7565b5060008167ffffffffffffffff811115610bec577f4e487b7100000000000000000000000000000000000000000000000000000000600052604160045260246000fd5b604051908082528060200260200182016040528015610c1a5781602001602082028036833780820191505090505b509050600080600190505b848111610d6d57600060096000838152602001908152602001600020905060005b8160030180549050811015610d5857600760003373ffffffffffffffffffffffffffffffffffffffff1673ffffffffffffffffffffffffffffffffffffffff16815260200190815260200160002060000154826003018281548110610cd4577f4e487b7100000000000000000000000000000000000000000000000000000000600052603260045260246000fd5b9060005260206000209060020201600001541415610d455782858581518110610d26577f4e487b7100000000000000000000000000000000000000000000000000000000600052603260045260246000fd5b6020026020010181815250508380610d3d906144e1565b945050610d58565b8080610d50906144e1565b915050610c46565b50508080610d65906144e1565b915050610c25565b508194505050505090565b606060096000838152602001908152602001600020600401805480602002602001604051908101604052809291908181526020018280548015610dda57602002820191906000526020600020905b815481526020019060010190808311610dc6575b50505050509050919050565b6000600a600083815260200190815260200160002060090160003373ffffffffffffffffffffffffffffffffffffffff1673ffffffffffffffffffffffffffffffffffffffff16815260200190815260200160002060009054906101000a900460ff169050919050565b60606000600860003373ffffffffffffffffffffffffffffffffffffffff1673ffffffffffffffffffffffffffffffffffffffff168152602001908152602001600020600001541415610ed8576040517f08c379a0000000000000000000000000000000000000000000000000000000008152600401610ecf90614079565b60405180910390fd5b60006009600084815260200190815260200160002090506000805b8260020180549050811015610fb557600860003373ffffffffffffffffffffffffffffffffffffffff1673ffffffffffffffffffffffffffffffffffffffff16815260200190815260200160002060000154836002018281548110610f81577f4e487b7100000000000000000000000000000000000000000000000000000000600052603260045260246000fd5b9060005260206000209060020201600001541415610fa25760019150610fb5565b8080610fad906144e1565b915050610ef3565b5080610ff6576040517f08c379a0000000000000000000000000000000000000000000000000000000008152600401610fed906140b9565b60405180910390fd5b8160040180548060200260200160405190810160405280929190818152602001828054801561104457602002820191906000526020600020905b815481526020019060010190808311611030575b505050505092505050919050565b6002818154811061106257600080fd5b906000526020600020906002020160009150905080600001549080600101805461108b906144af565b80601f01602080910402602001604051908101604052809291908181526020018280546110b7906144af565b80156111045780601f106110d957610100808354040283529160200191611104565b820191906000526020600020905b8154815290600101906020018083116110e757829003601f168201915b5050505050905082565b60035481565b600080600860003373ffffffffffffffffffffffffffffffffffffffff1673ffffffffffffffffffffffffffffffffffffffff16815260200190815260200160002060000154141561119b576040517f08c379a000000000000000000000000000000000000000000000000000000000815260040161119290614079565b60405180910390fd5b600a600084815260200190815260200160002060090160008373ffffffffffffffffffffffffffffffffffffffff1673ffffffffffffffffffffffffffffffffffffffff16815260200190815260200160002060009054906101000a900460ff16905092915050565b6060600b60008373ffffffffffffffffffffffffffffffffffffffff1673ffffffffffffffffffffffffffffffffffffffff1681526020019081526020016000208054611250906144af565b80601f016020809104026020016040519081016040528092919081815260200182805461127c906144af565b80156112c95780601f1061129e576101008083540402835291602001916112c9565b820191906000526020600020905b8154815290600101906020018083116112ac57829003601f168201915b50505050509050919050565b60086020528060005260406000206000915090508060000154908060010180546112fe906144af565b80601f016020809104026020016040519081016040528092919081815260200182805461132a906144af565b80156113775780601f1061134c57610100808354040283529160200191611377565b820191906000526020600020905b81548152906001019060200180831161135a57829003601f168201915b5050505050905082565b6060600060405180608001604052806042815260200161469c6042913990506000600f905060008167ffffffffffffffff8111156113e8577f4e487b7100000000000000000000000000000000000000000000000000000000600052604160045260246000fd5b6040519080825280601f01601f19166020018201604052801561141a5781602001600182028036833780820191505090505b50905060004260014361142d91906143e7565b403360405160200161144193929190613ef0565b6040516020818303038152906040528051906020012060001c905060005b838110156115475760008551836114769190614562565b90508581815181106114b1577f4e487b7100000000000000000000000000000000000000000000000000000000600052603260045260246000fd5b602001015160f81c60f81b8483815181106114f5577f4e487b7100000000000000000000000000000000000000000000000000000000600052603260045260246000fd5b60200101907effffffffffffffffffffffffffffffffffffffffffffffffffffffffffffff1916908160001a90535085518361153191906143b6565b925050808061153f906144e1565b91505061145f565b508194505050505090565b6000600860003373ffffffffffffffffffffffffffffffffffffffff1673ffffffffffffffffffffffffffffffffffffffff1681526020019081526020016000206000015414156115d8576040517f08c379a00000000000000000000000000000000000000000000000000000000081526004016115cf90614079565b60405180910390fd5b60006115e2611381565b905080600a6000848152602001908152602001600020600701908051906020019061160e9291906131cd565b50601e4261161c9190614360565b600a6000848152602001908152602001600020600801819055505050565b60405160200161164990613edb565b60405160208183030381529060405280519060200120600b60003373ffffffffffffffffffffffffffffffffffffffff1673ffffffffffffffffffffffffffffffffffffffff1681526020019081526020016000206040516020016116ae9190613ec4565b6040516020818303038152906040528051906020012014611704576040517f08c379a00000000000000000000000000000000000000000000000000000000081526004016116fb90614099565b60405180910390fd5b600860008273ffffffffffffffffffffffffffffffffffffffff1673ffffffffffffffffffffffffffffffffffffffff16815260200190815260200160002060008082016000905560018201600061175c9190613253565b505050565b60405160200161177090613edb565b60405160208183030381529060405280519060200120600b60003373ffffffffffffffffffffffffffffffffffffffff1673ffffffffffffffffffffffffffffffffffffffff1681526020019081526020016000206040516020016117d59190613ec4565b604051602081830303815290604052805190602001201461182b576040517f08c379a000000000000000000000000000000000000000000000000000000000815260040161182290614099565b60405180910390fd5b6005600081548092919061183e906144e1565b91905055506040518060400160405280600554815260200182815250600760008473ffffffffffffffffffffffffffffffffffffffff1673ffffffffffffffffffffffffffffffffffffffff1681526020019081526020016000206000820151816000015560208201518160010190805190602001906118bf9291906131cd565b5090505060016040518060400160405280600554815260200183815250908060018154018082558091505060019003906000526020600020906002020160009091909190915060008201518160000155602082015181600101908051906020019061192b9291906131cd565b50505061196d826040518060400160405280600781526020017f73747564656e740000000000000000000000000000000000000000000000000081525061301e565b7f94a56de67dd66b06691e0bd81e5b57fbf02e3ce04576def9d15b6371a0109fd2828260405161199e929190613f48565b60405180910390a15050565b60065481565b6040516020016119bf90613edb565b60405160208183030381529060405280519060200120600b60003373ffffffffffffffffffffffffffffffffffffffff1673ffffffffffffffffffffffffffffffffffffffff168152602001908152602001600020604051602001611a249190613ec4565b6040516020818303038152906040528051906020012014611a7a576040517f08c379a0000000000000000000000000000000000000000000000000000000008152600401611a7190614099565b60405180910390fd5b600a60008281526020019081526020016000206000808201600080820160009055600182016000611aab9190613253565b600282016000611abb9190613293565b600382016000611acb91906132b7565b600482016000611adb91906132db565b505060058201600090556006820160009055600782016000611afd9190613253565b6008820160009055505050565b604051602001611b1990613edb565b60405160208183030381529060405280519060200120600b60003373ffffffffffffffffffffffffffffffffffffffff1673ffffffffffffffffffffffffffffffffffffffff168152602001908152602001600020604051602001611b7e9190613ec4565b6040516020818303038152906040528051906020012014611bd4576040517f08c379a0000000000000000000000000000000000000000000000000000000008152600401611bcb90614099565b60405180910390fd5b600760008273ffffffffffffffffffffffffffffffffffffffff1673ffffffffffffffffffffffffffffffffffffffff168152602001908152602001600020600080820160009055600182016000611c2c9190613253565b505050565b604051602001611c4090613edb565b60405160208183030381529060405280519060200120600b60003373ffffffffffffffffffffffffffffffffffffffff1673ffffffffffffffffffffffffffffffffffffffff168152602001908152602001600020604051602001611ca59190613ec4565b6040516020818303038152906040528051906020012014611cfb576040517f08c379a0000000000000000000000000000000000000000000000000000000008152600401611cf290614099565b60405180910390fd5b60096000828152602001908152602001600020600080820160009055600182016000611d279190613253565b600282016000611d379190613293565b600382016000611d4791906132b7565b600482016000611d5791906132db565b505050565b604051602001611d6b90613edb565b60405160208183030381529060405280519060200120600b60003373ffffffffffffffffffffffffffffffffffffffff1673ffffffffffffffffffffffffffffffffffffffff168152602001908152602001600020604051602001611dd09190613ec4565b6040516020818303038152906040528051906020012014611e26576040517f08c379a0000000000000000000000000000000000000000000000000000000008152600401611e1d90614099565b60405180910390fd5b60066000815480929190611e39906144e1565b91905055506040518060400160405280600654815260200182815250600860008473ffffffffffffffffffffffffffffffffffffffff1673ffffffffffffffffffffffffffffffffffffffff168152602001908152602001600020600082015181600001556020820151816001019080519060200190611eba9291906131cd565b50905050600260405180604001604052806006548152602001838152509080600181540180825580915050600190039060005260206000209060020201600090919091909150600082015181600001556020820151816001019080519060200190611f269291906131cd565b505050611f68826040518060400160405280600781526020017f746561636865720000000000000000000000000000000000000000000000000081525061301e565b7f6996ba1536de57e4c72a268600ac97e3feae59f326494fce7dc56c6c6de959e38282604051611f99929190613f48565b60405180910390a15050565b600b6020528060005260406000206000915090508054611fc4906144af565b80601f0160208091040260200160405190810160405280929190818152602001828054611ff0906144af565b801561203d5780601f106120125761010080835404028352916020019161203d565b820191906000526020600020905b81548152906001019060200180831161202057829003601f168201915b505050505081565b600a6000838152602001908152602001600020600501546000805b60096000600a60008681526020019081526020016000206000016000015481526020019081526020016000206003018054905081101561217857600760003373ffffffffffffffffffffffffffffffffffffffff1673ffffffffffffffffffffffffffffffffffffffff1681526020019081526020016000206000015460096000600a60008781526020019081526020016000206000016000015481526020019081526020016000206003018281548110612144577f4e487b7100000000000000000000000000000000000000000000000000000000600052603260045260246000fd5b90600052602060002090600202016000015414156121655760019150612178565b8080612170906144e1565b915050612060565b50806121b9576040517f08c379a00000000000000000000000000000000000000000000000000000000081526004016121b090614019565b60405180910390fd5b60001515600a600086815260200190815260200160002060090160003373ffffffffffffffffffffffffffffffffffffffff1673ffffffffffffffffffffffffffffffffffffffff16815260200190815260200160002060009054906101000a900460ff16151514612260576040517f08c379a000000000000000000000000000000000000000000000000000000000815260040161225790614039565b60405180910390fd5b826040516020016122719190613ead565b60405160208183030381529060405280519060200120600a60008681526020019081526020016000206007016040516020016122ad9190613ec4565b6040516020818303038152906040528051906020012014612303576040517f08c379a00000000000000000000000000000000000000000000000000000000081526004016122fa90614059565b60405180910390fd5b600a60008581526020019081526020016000206008015442111561235c576040517f08c379a000000000000000000000000000000000000000000000000000000000815260040161235390613ff9565b60405180910390fd5b6001600a600086815260200190815260200160002060090160003373ffffffffffffffffffffffffffffffffffffffff1673ffffffffffffffffffffffffffffffffffffffff16815260200190815260200160002060006101000a81548160ff0219169083151502179055507f1fc08eb0c2f0125b980d5b8b9c7d0c66f56fe49ed88c804b350f31b0130cda3884336040516123f9929190614155565b60405180910390a150505050565b60405160200161241690613edb565b60405160208183030381529060405280519060200120600b60003373ffffffffffffffffffffffffffffffffffffffff1673ffffffffffffffffffffffffffffffffffffffff16815260200190815260200160002060405160200161247b9190613ec4565b60405160208183030381529060405280519060200120146124d1576040517f08c379a00000000000000000000000000000000000000000000000000000000081526004016124c890614099565b60405180910390fd5b60096000838152602001908152602001600020600301600760008373ffffffffffffffffffffffffffffffffffffffff1673ffffffffffffffffffffffffffffffffffffffff168152602001908152602001600020908060018154018082558091505060019003906000526020600020906002020160009091909190915060008201548160000155600182018160010190805461256d906144af565b612578929190613140565b5050507f330f6a5433c3d731bf2a234085fc8f11bd40cdbdd41b574d8570189c6ea277cb82826040516125ac929190614155565b60405180910390a15050565b60096020528060005260406000206000915090508060000154908060010180546125e1906144af565b80601f016020809104026020016040519081016040528092919081815260200182805461260d906144af565b801561265a5780601f1061262f5761010080835404028352916020019161265a565b820191906000526020600020905b81548152906001019060200180831161263d57829003601f168201915b5050505050905082565b600760205280600052604060002060009150905080600001549080600101805461268d906144af565b80601f01602080910402602001604051908101604052809291908181526020018280546126b9906144af565b80156127065780601f106126db57610100808354040283529160200191612706565b820191906000526020600020905b8154815290600101906020018083116126e957829003601f168201915b5050505050905082565b60405160200161271f90613edb565b60405160208183030381529060405280519060200120600b60003373ffffffffffffffffffffffffffffffffffffffff1673ffffffffffffffffffffffffffffffffffffffff1681526020019081526020016000206040516020016127849190613ec4565b60405160208183030381529060405280519060200120146127da576040517f08c379a00000000000000000000000000000000000000000000000000000000081526004016127d190614099565b60405180910390fd5b600360008154809291906127ed906144e1565b91905055506000600a6000600354815260200190815260200160002090506009600083815260200190815260200160002081600001600082015481600001556001820181600101908054612840906144af565b61284b929190613140565b5060028201816002019080546128629291906132fc565b50600382018160030190805461287992919061337e565b506004820181600401908054612890929190613400565b5090505060035481600501819055508281600601819055506009600083815260200190815260200160002060040160035490806001815401808255809150506001900390600052602060002001600090919091909150557f5a3a80d0fae53d263cc7f8adc9b489c04a64d1f61278a26b20f7b67ebca6aa27600354848460405161291c939291906141ae565b60405180910390a1505050565b60606000600860003373ffffffffffffffffffffffffffffffffffffffff1673ffffffffffffffffffffffffffffffffffffffff1681526020019081526020016000206000015414156129b1576040517f08c379a00000000000000000000000000000000000000000000000000000000081526004016129a890614079565b60405180910390fd5b60006009600084815260200190815260200160002090506000805b8260020180549050811015612a8e57600860003373ffffffffffffffffffffffffffffffffffffffff1673ffffffffffffffffffffffffffffffffffffffff16815260200190815260200160002060000154836002018281548110612a5a577f4e487b7100000000000000000000000000000000000000000000000000000000600052603260045260246000fd5b9060005260206000209060020201600001541415612a7b5760019150612a8e565b8080612a86906144e1565b9150506129cc565b5080612acf576040517f08c379a0000000000000000000000000000000000000000000000000000000008152600401612ac6906140b9565b60405180910390fd5b81600301805480602002602001604051908101604052809291908181526020016000905b82821015612bc1578382906000526020600020906002020160405180604001604052908160008201548152602001600182018054612b30906144af565b80601f0160208091040260200160405190810160405280929190818152602001828054612b5c906144af565b8015612ba95780601f10612b7e57610100808354040283529160200191612ba9565b820191906000526020600020905b815481529060010190602001808311612b8c57829003601f168201915b50505050508152505081526020019060010190612af3565b5050505092505050919050565b606060096000838152602001908152602001600020600401805480602002602001604051908101604052809291908181526020018280548015612c3057602002820191906000526020600020905b815481526020019060010190808311612c1c575b50505050509050919050565b60045481565b60055481565b60008054906101000a900473ffffffffffffffffffffffffffffffffffffffff1681565b600a602052806000526040600020600091509050806000016040518060a001604052908160008201548152602001600182018054612ca9906144af565b80601f0160208091040260200160405190810160405280929190818152602001828054612cd5906144af565b8015612d225780601f10612cf757610100808354040283529160200191612d22565b820191906000526020600020905b815481529060010190602001808311612d0557829003601f168201915b5050505050815260200160028201805480602002602001604051908101604052809291908181526020016000905b82821015612e1e578382906000526020600020906002020160405180604001604052908160008201548152602001600182018054612d8d906144af565b80601f0160208091040260200160405190810160405280929190818152602001828054612db9906144af565b8015612e065780601f10612ddb57610100808354040283529160200191612e06565b820191906000526020600020905b815481529060010190602001808311612de957829003601f168201915b50505050508152505081526020019060010190612d50565b50505050815260200160038201805480602002602001604051908101604052809291908181526020016000905b82821015612f19578382906000526020600020906002020160405180604001604052908160008201548152602001600182018054612e88906144af565b80601f0160208091040260200160405190810160405280929190818152602001828054612eb4906144af565b8015612f015780601f10612ed657610100808354040283529160200191612f01565b820191906000526020600020905b815481529060010190602001808311612ee457829003601f168201915b50505050508152505081526020019060010190612e4b565b50505050815260200160048201805480602002602001604051908101604052809291908181526020018280548015612f7057602002820191906000526020600020905b815481526020019060010190808311612f5c575b50505050508152505090806005015490806006015490806007018054612f95906144af565b80601f0160208091040260200160405190810160405280929190818152602001828054612fc1906144af565b801561300e5780601f10612fe35761010080835404028352916020019161300e565b820191906000526020600020905b815481529060010190602001808311612ff157829003601f168201915b5050505050908060080154905085565b60405160200161302d90613edb565b60405160208183030381529060405280519060200120600b60003373ffffffffffffffffffffffffffffffffffffffff1673ffffffffffffffffffffffffffffffffffffffff1681526020019081526020016000206040516020016130929190613ec4565b60405160208183030381529060405280519060200120146130e8576040517f08c379a00000000000000000000000000000000000000000000000000000000081526004016130df90614099565b60405180910390fd5b80600b60008473ffffffffffffffffffffffffffffffffffffffff1673ffffffffffffffffffffffffffffffffffffffff168152602001908152602001600020908051906020019061313b9291906131cd565b505050565b82805461314c906144af565b90600052602060002090601f01602090048101928261316e57600085556131bc565b82601f1061317f57805485556131bc565b828001600101855582156131bc57600052602060002091601f016020900482015b828111156131bb5782548255916001019190600101906131a0565b5b5090506131c99190613452565b5090565b8280546131d9906144af565b90600052602060002090601f0160209004810192826131fb5760008555613242565b82601f1061321457805160ff1916838001178555613242565b82800160010185558215613242579182015b82811115613241578251825591602001919060010190613226565b5b50905061324f9190613452565b5090565b50805461325f906144af565b6000825580601f106132715750613290565b601f01602090049060005260206000209081019061328f9190613452565b5b50565b50805460008255600202906000526020600020908101906132b4919061346f565b50565b50805460008255600202906000526020600020908101906132d8919061349e565b50565b50805460008255906000526020600020908101906132f99190613452565b50565b82805482825590600052602060002090600202810192821561336d5760005260206000209160020282015b8281111561336c57828260008201548160000155600182018160010190805461334f906144af565b61335a929190613140565b50505091600201919060020190613327565b5b50905061337a919061346f565b5090565b8280548282559060005260206000209060020281019282156133ef5760005260206000209160020282015b828111156133ee5782826000820154816000015560018201816001019080546133d1906144af565b6133dc929190613140565b505050916002019190600201906133a9565b5b5090506133fc919061349e565b5090565b8280548282559060005260206000209081019282156134415760005260206000209182015b82811115613440578254825591600101919060010190613425565b5b50905061344e9190613452565b5090565b5b8082111561346b576000816000905550600101613453565b5090565b5b8082111561349a576000808201600090556001820160006134919190613253565b50600201613470565b5090565b5b808211156134c9576000808201600090556001820160006134c09190613253565b5060020161349f565b5090565b60006134e06134db84614216565b6141e5565b9050828152602081018484840111156134f857600080fd5b61350384828561446d565b509392505050565b60008135905061351a8161466d565b92915050565b600082601f83011261353157600080fd5b81356135418482602086016134cd565b91505092915050565b60008135905061355981614684565b92915050565b60006020828403121561357157600080fd5b600061357f8482850161350b565b91505092915050565b6000806040838503121561359b57600080fd5b60006135a98582860161350b565b925050602083013567ffffffffffffffff8111156135c657600080fd5b6135d285828601613520565b9150509250929050565b6000602082840312156135ee57600080fd5b600082013567ffffffffffffffff81111561360857600080fd5b61361484828501613520565b91505092915050565b60006020828403121561362f57600080fd5b600061363d8482850161354a565b91505092915050565b6000806040838503121561365957600080fd5b60006136678582860161354a565b92505060206136788582860161350b565b9150509250929050565b6000806040838503121561369557600080fd5b60006136a38582860161354a565b925050602083013567ffffffffffffffff8111156136c057600080fd5b6136cc85828601613520565b9150509250929050565b600080604083850312156136e957600080fd5b60006136f78582860161354a565b92505060206137088582860161354a565b9150509250929050565b600061371e8383613d73565b905092915050565b60006137328383613e3b565b905092915050565b60006137468383613e78565b60208301905092915050565b61375b8161441b565b82525050565b61377261376d8261441b565b61452a565b82525050565b60006137838261428b565b61378d81856142de565b93508360208202850161379f85614246565b8060005b858110156137db57848403895281516137bc8582613712565b94506137c7836142b7565b925060208a019950506001810190506137a3565b50829750879550505050505092915050565b60006137f88261428b565b61380281856142ef565b93508360208202850161381485614246565b8060005b8581101561385057848403895281516138318582613712565b945061383c836142b7565b925060208a01995050600181019050613818565b50829750879550505050505092915050565b600061386d82614296565b6138778185614300565b93508360208202850161388985614256565b8060005b858110156138c557848403895281516138a68582613726565b94506138b1836142c4565b925060208a0199505060018101905061388d565b50829750879550505050505092915050565b60006138e2826142a1565b6138ec8185614311565b93506138f783614266565b8060005b8381101561392857815161390f888261373a565b975061391a836142d1565b9250506001810190506138fb565b5085935050505092915050565b6000613940826142a1565b61394a8185614322565b935061395583614266565b8060005b8381101561398657815161396d888261373a565b9750613978836142d1565b925050600181019050613959565b5085935050505092915050565b61399c8161442d565b82525050565b6139b36139ae82614439565b61453c565b82525050565b60006139c4826142ac565b6139ce8185614333565b93506139de81856020860161447c565b6139e78161464f565b840191505092915050565b60006139fd826142ac565b613a078185614344565b9350613a1781856020860161447c565b613a208161464f565b840191505092915050565b6000613a36826142ac565b613a408185614355565b9350613a5081856020860161447c565b80840191505092915050565b60008154613a69816144af565b613a738186614355565b94506001821660008114613a8e5760018114613a9f57613ad2565b60ff19831686528186019350613ad2565b613aa885614276565b60005b83811015613aca57815481890152600182019150602081019050613aab565b838801955050505b50505092915050565b6000613ae8601083614344565b91507f50617373776f72642065787069726564000000000000000000000000000000006000830152602082019050919050565b6000613b28602d83614344565b91507f4f6e6c7920656e726f6c6c65642073747564656e74732063616e2063616c6c2060008301527f746869732066756e6374696f6e000000000000000000000000000000000000006020830152604082019050919050565b6000613b8e601983614344565b91507f417474656e64616e636520616c7265616479206d61726b6564000000000000006000830152602082019050919050565b6000613bce601083614344565b91507f496e76616c69642070617373776f7264000000000000000000000000000000006000830152602082019050919050565b6000613c0e602483614344565b91507f4f6e6c792074656163686572732063616e2063616c6c20746869732066756e6360008301527f74696f6e000000000000000000000000000000000000000000000000000000006020830152604082019050919050565b6000613c74602183614344565b91507f4f6e6c792061646d696e2063616e2063616c6c20746869732066756e6374696f60008301527f6e000000000000000000000000000000000000000000000000000000000000006020830152604082019050919050565b6000613cda600583614355565b91507f61646d696e0000000000000000000000000000000000000000000000000000006000830152600582019050919050565b6000613d1a602483614344565b91507f596f7520617265206e6f742061737369676e656420746f20746869732073756260008301527f6a656374000000000000000000000000000000000000000000000000000000006020830152604082019050919050565b6000604083016000830151613d8b6000860182613e78565b5060208301518482036020860152613da382826139b9565b9150508091505092915050565b600060a083016000830151613dc86000860182613e78565b5060208301518482036020860152613de082826139b9565b91505060408301518482036040860152613dfa8282613862565b91505060608301518482036060860152613e148282613778565b91505060808301518482036080860152613e2e82826138d7565b9150508091505092915050565b6000604083016000830151613e536000860182613e78565b5060208301518482036020860152613e6b82826139b9565b9150508091505092915050565b613e8181614463565b82525050565b613e9081614463565b82525050565b613ea7613ea282614463565b614558565b82525050565b6000613eb98284613a2b565b915081905092915050565b6000613ed08284613a5c565b915081905092915050565b6000613ee682613ccd565b9150819050919050565b6000613efc8286613e96565b602082019150613f0c82856139a2565b602082019150613f1c8284613761565b601482019150819050949350505050565b6000602082019050613f426000830184613752565b92915050565b6000604082019050613f5d6000830185613752565b8181036020830152613f6f81846139f2565b90509392505050565b60006020820190508181036000830152613f9281846137ed565b905092915050565b60006020820190508181036000830152613fb48184613935565b905092915050565b6000602082019050613fd16000830184613993565b92915050565b60006020820190508181036000830152613ff181846139f2565b905092915050565b6000602082019050818103600083015261401281613adb565b9050919050565b6000602082019050818103600083015261403281613b1b565b9050919050565b6000602082019050818103600083015261405281613b81565b9050919050565b6000602082019050818103600083015261407281613bc1565b9050919050565b6000602082019050818103600083015261409281613c01565b9050919050565b600060208201905081810360008301526140b281613c67565b9050919050565b600060208201905081810360008301526140d281613d0d565b9050919050565b600060a08201905081810360008301526140f38188613db0565b90506141026020830187613e87565b61410f6040830186613e87565b818103606083015261412181856139f2565b90506141306080830184613e87565b9695505050505050565b600060208201905061414f6000830184613e87565b92915050565b600060408201905061416a6000830185613e87565b6141776020830184613752565b9392505050565b60006040820190506141936000830185613e87565b81810360208301526141a581846139f2565b90509392505050565b60006060820190506141c36000830186613e87565b6141d06020830185613e87565b6141dd6040830184613e87565b949350505050565b6000604051905081810181811067ffffffffffffffff8211171561420c5761420b614620565b5b8060405250919050565b600067ffffffffffffffff82111561423157614230614620565b5b601f19601f8301169050602081019050919050565b6000819050602082019050919050565b6000819050602082019050919050565b6000819050602082019050919050565b60008190508160005260206000209050919050565b600081519050919050565b600081519050919050565b600081519050919050565b600081519050919050565b6000602082019050919050565b6000602082019050919050565b6000602082019050919050565b600082825260208201905092915050565b600082825260208201905092915050565b600082825260208201905092915050565b600082825260208201905092915050565b600082825260208201905092915050565b600082825260208201905092915050565b600082825260208201905092915050565b600081905092915050565b600061436b82614463565b915061437683614463565b9250827fffffffffffffffffffffffffffffffffffffffffffffffffffffffffffffffff038211156143ab576143aa614593565b5b828201905092915050565b60006143c182614463565b91506143cc83614463565b9250826143dc576143db6145c2565b5b828204905092915050565b60006143f282614463565b91506143fd83614463565b9250828210156144105761440f614593565b5b828203905092915050565b600061442682614443565b9050919050565b60008115159050919050565b6000819050919050565b600073ffffffffffffffffffffffffffffffffffffffff82169050919050565b6000819050919050565b82818337600083830152505050565b60005b8381101561449a57808201518184015260208101905061447f565b838111156144a9576000848401525b50505050565b600060028204905060018216806144c757607f821691505b602082108114156144db576144da6145f1565b5b50919050565b60006144ec82614463565b91507fffffffffffffffffffffffffffffffffffffffffffffffffffffffffffffffff82141561451f5761451e614593565b5b600182019050919050565b600061453582614546565b9050919050565b6000819050919050565b600061455182614660565b9050919050565b6000819050919050565b600061456d82614463565b915061457883614463565b925082614588576145876145c2565b5b828206905092915050565b7f4e487b7100000000000000000000000000000000000000000000000000000000600052601160045260246000fd5b7f4e487b7100000000000000000000000000000000000000000000000000000000600052601260045260246000fd5b7f4e487b7100000000000000000000000000000000000000000000000000000000600052602260045260246000fd5b7f4e487b7100000000000000000000000000000000000000000000000000000000600052604160045260246000fd5b6000601f19601f8301169050919050565b60008160601b9050919050565b6146768161441b565b811461468157600080fd5b50565b61468d81614463565b811461469857600080fd5b5056fe6162636465666768696a6b6c6d6e6f707172737475767778797a4142434445464748494a4b4c4d4e4f505152535455565758595a30313233343536373839402f2123a2646970667358221220e9ebe6384a336252c567c40a43552c553267bc333026587fed0de45f4bab149764736f6c63430008000033",
  "immutableReferences": {},
  "source": "//SPDX-License-Identifier: MIT\r\n\r\npragma solidity ^0.8.0;\r\n\r\ncontract Attendance {\r\n\r\n    address public admin;\r\n    Student[] public students;\r\n    Teacher[] public teachers;\r\n    uint256 public classCounter;\r\n    uint256 public subjectCounter;\r\n    uint256 public studentCounter;\r\n    uint256 public teacherCounter;\r\n\r\n    struct Student {\r\n        uint256 studentId;\r\n        string name;\r\n    }\r\n\r\n    struct Teacher {\r\n        uint256 teacherId;\r\n        string name;\r\n    }\r\n\r\n    struct Subject {\r\n        uint256 subjectId;\r\n        string subjectName;\r\n        Teacher[] teachingTeachers;\r\n        Student[] enrolledStudents;\r\n        uint256[] classIds;\r\n    }\r\n\r\n    struct Class {\r\n        Subject subject;\r\n        uint256 classId;\r\n        uint256 classDate;\r\n        string classPwd;\r\n        uint256 passwordExpiry; // Expiration timestamp for the password\r\n        mapping(address => bool) attendance;\r\n    }\r\n\r\n    event studentAdded(address student, string name);\r\n    event teacherAdded(address teacher, string name);\r\n    event subjectCreated(uint256 subjectId, string subjectName);\r\n    event classCreated(uint256 classId, uint256 classDate, uint256 subjectId);\r\n    event studentEnrolled(uint256 subjectId, address student);\r\n    event teacherAssigned(uint256 subjectId, address teacher);\r\n    event attendanceMarked(uint256 classId, address student);\r\n\r\n\r\n    mapping(address => Student) public studentDetails;\r\n    mapping(address => Teacher) public teacherDetails;\r\n    mapping(uint256 => Subject) public subjectDetails;\r\n    mapping(uint256 => Class) public classDetails;\r\n\r\n    mapping(address => string) public roles;\r\n\r\n    constructor() {\r\n        admin = msg.sender;\r\n        roles[msg.sender] = \"admin\"; // Contract deployer is the admin\r\n    }\r\n\r\n    modifier onlyAdmin() {\r\n        require(keccak256(abi.encodePacked(roles[msg.sender])) == keccak256(abi.encodePacked(\"admin\")), \"Only admin can call this function\");\r\n        _;\r\n    }\r\n\r\n    modifier onlyTeacher() {\r\n        require(teacherDetails[msg.sender].teacherId != 0, \"Only teachers can call this function\");\r\n        _;\r\n    }\r\n\r\n    modifier onlyStudent() {\r\n        require(studentDetails[msg.sender].studentId != 0, \"Only students can call this function\");\r\n        _;\r\n    }\r\n\r\n    modifier onlyEnrolledStudent(uint256 classId) {\r\n        bool isEnrolled = false;\r\n        for (uint256 i = 0; i < subjectDetails[classDetails[classId].subject.subjectId].enrolledStudents.length; i++) {\r\n            if (subjectDetails[classDetails[classId].subject.subjectId].enrolledStudents[i].studentId == studentDetails[msg.sender].studentId) {\r\n                isEnrolled = true;\r\n                break;\r\n            }\r\n        }\r\n        require(isEnrolled, \"Only enrolled students can call this function\");\r\n        _;\r\n    }\r\n\r\n    function assignRole(address user, string memory role) internal onlyAdmin {\r\n        roles[user] = role;\r\n    }\r\n\r\n    function getRole(address user) public view returns (string memory) {\r\n        return roles[user];\r\n    }\r\n\r\n    function addStudent(address _student, string memory _name) public onlyAdmin {\r\n        studentCounter++;\r\n        studentDetails[_student] = Student(studentCounter, _name);\r\n        students.push(Student(studentCounter, _name));\r\n        assignRole(_student, \"student\");\r\n\r\n        emit studentAdded(_student, _name);\r\n    }   \r\n\r\n    function addTeacher(address _teacher, string memory _name) public onlyAdmin {\r\n        teacherCounter++;\r\n        teacherDetails[_teacher] = Teacher(teacherCounter,_name);\r\n        teachers.push(Teacher(teacherCounter, _name));\r\n        assignRole(_teacher, \"teacher\");\r\n\r\n        emit teacherAdded(_teacher, _name);\r\n    }\r\n\r\n    function createSubject(string memory _subjectName) public onlyAdmin {\r\n        subjectCounter++;\r\n        Subject storage newSubject = subjectDetails[subjectCounter];\r\n        newSubject.subjectId=subjectCounter;\r\n        newSubject.subjectName = _subjectName;\r\n\r\n        emit subjectCreated(subjectCounter, _subjectName);\r\n    }\r\n\r\n    function createClass(uint256 _classDate, uint256 _subjectId) public onlyAdmin {\r\n        classCounter++;\r\n        \r\n        Class storage newClass = classDetails[classCounter];\r\n        newClass.subject = subjectDetails[_subjectId];\r\n        newClass.classId = classCounter;\r\n        newClass.classDate = _classDate;\r\n        subjectDetails[_subjectId].classIds.push(classCounter);\r\n\r\n        emit classCreated(classCounter, _classDate, _subjectId);\r\n    }\r\n\r\n    function getClassIds(uint256 _subjectId) public view returns (uint256[] memory) {\r\n        return subjectDetails[_subjectId].classIds;\r\n    }\r\n\r\n    function enrollStudent(uint256 _subjectId, address _student) public onlyAdmin {\r\n        subjectDetails[_subjectId].enrolledStudents.push(studentDetails[_student]);\r\n\r\n        emit studentEnrolled(_subjectId, _student);\r\n    }\r\n\r\n    function assignTeacher(uint256 _subjectId, address _teacher) public onlyAdmin {\r\n        subjectDetails[_subjectId].teachingTeachers.push(teacherDetails[_teacher]);\r\n\r\n        emit teacherAssigned(_subjectId, _teacher);\r\n    }\r\n\r\n    function markAttendance(uint256 _classId, string memory _pwd) public onlyEnrolledStudent(classDetails[_classId].classId) {\r\n        require(classDetails[_classId].attendance[msg.sender] == false, \"Attendance already marked\");\r\n        require(keccak256(abi.encodePacked(classDetails[_classId].classPwd)) == keccak256(abi.encodePacked(_pwd)), \"Invalid password\");\r\n        require(block.timestamp <= classDetails[_classId].passwordExpiry, \"Password expired\"); // Check password expiration\r\n\r\n        classDetails[_classId].attendance[msg.sender] = true;\r\n        emit attendanceMarked(_classId, msg.sender);\r\n    }\r\n\r\n    function checkAttendance(uint256 _classId) public view returns (bool) {\r\n        return classDetails[_classId].attendance[msg.sender];\r\n    }\r\n\r\n    function checkAttendance(uint256 _classId, address _student) public view onlyTeacher returns (bool) {\r\n        return classDetails[_classId].attendance[_student];\r\n    }\r\n\r\n    function generateClassPwd(uint256 _classId) public onlyTeacher {\r\n        string memory classPwd = getRandomPassword();\r\n        classDetails[_classId].classPwd = classPwd;\r\n        classDetails[_classId].passwordExpiry = block.timestamp + 30; // Set expiration time to 30 seconds from now\r\n    }\r\n\r\n    function getRandomPassword() public view returns (string memory) {\r\n        bytes memory characters = \"abcdefghijklmnopqrstuvwxyzABCDEFGHIJKLMNOPQRSTUVWXYZ0123456789@/!#\";\r\n        uint256 length = 15;\r\n        bytes memory password = new bytes(length);\r\n        uint256 seed = uint256(keccak256(abi.encodePacked(block.timestamp, blockhash(block.number - 1), msg.sender)));\r\n\r\n        for (uint256 i = 0; i < length; i++) {\r\n            uint256 randomIndex = seed % characters.length;\r\n            password[i] = characters[randomIndex];\r\n            seed = seed / characters.length;\r\n        }\r\n        return string(password);\r\n    }\r\n\r\n    function getEnrolledStudents(uint256 _subjectId) public view onlyTeacher returns (Student[] memory) {\r\n        Subject storage subject = subjectDetails[_subjectId];\r\n\r\n        bool isAssigned = false;\r\n        for (uint256 i = 0; i < subject.teachingTeachers.length; i++) {\r\n            if (subject.teachingTeachers[i].teacherId == teacherDetails[msg.sender].teacherId) {\r\n                isAssigned = true;\r\n                break;\r\n            }\r\n        }\r\n        require(isAssigned, \"You are not assigned to this subject\");\r\n\r\n        return subject.enrolledStudents;\r\n    }\r\n\r\n    function getClassesForTeacher(uint256 _subjectId) public view onlyTeacher returns (uint256[] memory) {\r\n        Subject storage subject = subjectDetails[_subjectId];\r\n\r\n        bool isAssigned = false;\r\n        for (uint256 i = 0; i < subject.teachingTeachers.length; i++) {\r\n            if (subject.teachingTeachers[i].teacherId == teacherDetails[msg.sender].teacherId) {\r\n                isAssigned = true;\r\n                break;\r\n            }\r\n        }\r\n        require(isAssigned, \"You are not assigned to this subject\");\r\n\r\n        return subject.classIds;\r\n    }\r\n\r\n    function getClassesForStudent(uint256 _subjectId) public view returns (uint256[] memory) {\r\n        return subjectDetails[_subjectId].classIds;\r\n    }\r\n    \r\n    function getSubjectsForStudent() public view returns (uint256[] memory) {\r\n        uint256 totalSubjects = subjectCounter;\r\n        uint256 count = 0;\r\n\r\n        for (uint256 i = 1; i <= totalSubjects; i++) {\r\n            Subject storage subject = subjectDetails[i];\r\n            for (uint256 j = 0; j < subject.enrolledStudents.length; j++) {\r\n                if (subject.enrolledStudents[j].studentId == studentDetails[msg.sender].studentId) {\r\n                    count++;\r\n                    break;\r\n                }\r\n            }\r\n        }\r\n\r\n        uint256[] memory enrolledSubjectIds = new uint256[](count);\r\n        uint256 index = 0;\r\n\r\n        for (uint256 i = 1; i <= totalSubjects; i++) {\r\n            Subject storage subject = subjectDetails[i];\r\n            for (uint256 j = 0; j < subject.enrolledStudents.length; j++) {\r\n                if (subject.enrolledStudents[j].studentId == studentDetails[msg.sender].studentId) {\r\n                    enrolledSubjectIds[index] = i;\r\n                    index++;\r\n                    break;\r\n                }\r\n            }\r\n        }\r\n        return enrolledSubjectIds;\r\n    }\r\n\r\n    function removeStudent(address _student) public onlyAdmin {\r\n        delete studentDetails[_student];\r\n    }\r\n\r\n    function removeTeacher(address _teacher) public onlyAdmin {\r\n        delete teacherDetails[_teacher];\r\n    }\r\n\r\n    function removeSubject(uint256 _subjectId) public onlyAdmin {\r\n        delete subjectDetails[_subjectId];\r\n    }\r\n\r\n    function removeClass(uint256 _classId) public onlyAdmin {\r\n        delete classDetails[_classId];\r\n    }\r\n}",
  "sourcePath": "C:\\Users\\User\\Desktop\\dev\\Blockchain\\contracts\\Attendance.sol",
  "compiler": {
    "name": "solc",
    "version": "0.8.0+commit.c7dfd78e.Emscripten.clang"
  },
  "schemaVersion": "3.4.16",
  "updatedAt": "2025-01-21T15:53:39.240Z",
  "networkType": "ethereum",
  "devdoc": {
    "kind": "dev",
    "methods": {},
    "version": 1
  },
  "userdoc": {
    "kind": "user",
    "methods": {},
    "version": 1
  }
}